:1000000058C0C5C271C070C06FC06EC06DC06CC03A
:100010006BC0F2C369C068C067C066C065C064C019
:1000200063C062C061C0090243000201008032095E
:100030000400000102020100052400100104240252
:1000400002052401030105240600010705830308B6
:1000500000FF09040100020A000000070501020870
:100060000000070581020800000403090422037749
:1000700000770077002E0072006500630075007243
:1000800000730069006F006E002E006A007000109F
:100090000355005300420055004100520054001225
:1000A00001100102000008C016E105000101020074
:1000B000010011241FBECFE5D4E0DEBFCDBF10E0AC
:1000C000A0E6B0E0E8E5F8E002C005900D92AC369D
:1000D000B107D9F710E0ACE6B0E001C01D92A43E34
:1000E000B107E1F706D0B6C38BCF51D00895BDD08C
:1000F0000895939A839940C0E0D01092BE0076D3C1
:100100007894ECD0F2DF8136E1F3813419F4EDDF3D
:10011000ECDF0DC0853669F480E090E007B600FCA6
:10012000FDCF805C9F4F28E180309207B9F78DE0CA
:1001300021C0833571F481E4DADF86E5D8DF82E51A
:10014000D6DF82E4D4DF8FE4D2DF8FE4D0DF84E532
:1001500011C0863521F481E3CADF85E30BC0833704
:1001600031F487E0C4DF83E9C2DF8EE103C08B3165
:1001700041F28FE3BCDFC5CF07B600FCFDCF81E1C4
:1001800080935700E895E0E0F0E00995089590919C
:1001900087008091A000891749F0E92FF0E0E2592B
:1001A000FF4F80819F5F9F7090938700089580E04C
:1001B0000895DC010DC08091A000E82FF0E0E25925
:1001C000FF4F9D9190838F5F8F708093A00061504F
:1001D000662389F708958091A0008150909187004F
:1001E000891B8F7008958091A100815090918600A5
:1001F000891B8F7008951F938091BE0087FF0BC0ED
:100200008091A100815090918600891B8F70893068
:1002100010F01092BE008091AD0084FF24C0609168
:10022000A100909186006917F1F0691B6F7067302B
:1002300008F067E0162F190F103170F01F70E8E812
:10024000F0E0212F30E02E0F3F1F03C08081808B14
:100250003196E217F307D1F7892F90E088579F4F27
:100260005CD1109386001F9108951F93182F01C031
:1002700035D04091A100E42FF0E09F012F5F3F4F68
:100280002F7030708091860090E02817390781F335
:10029000E857FF4F10834F5F4F704093A1001F91AD
:1002A0000895CF93DF93EC0102C02196DEDF8881B1
:1002B0008823D9F7DF91CF91089585B7826085BFF4
:1002C0008BB780648BBF8BE48093AE008093D900A2
:1002D0008AE58093AD008093D80008951F93CF9353
:1002E000DF936091BE00635067FD9BC08091BB00AF
:1002F000CCE0D0E0C81BD109CE53DF4F8091BA00CB
:10030000803118F4CE0155DF86C08D3209F083C0EC
:10031000683009F080C083EC8093A2008AE5809366
:10032000600010926C008881807621F0CE013FDF62
:10033000282F68C09A811092AB008981882321F40C
:100340001092AC0022E058C0853019F49093BF00A1
:1003500052C08630D1F58B81813041F48FE990E035
:100360009093BD008093BC0022E12BC0823041F409
:1003700086E290E09093BD008093BC0023E421C00E
:100380008330F1F4992341F489E690E09093BD0025
:100390008093BC0024E015C0913041F48DE690E0DC
:1003A0009093BD008093BC0022E20BC0923041F4D8
:1003B0008FE890E09093BD008093BC0020E101C0E5
:1003C00020E080E480936C001DC0883021F421E09F
:1003D00081EC90E013C0893019F49093C1000BC0F8
:1003E0008A3011F421E008C08B3029F48BE480932B
:1003F000AE008093D90020E08BEA90E09093BD009E
:100400008093BC008F81882321F48E81821708F4A9
:10041000282F209361008091BE00181614F41092CA
:10042000BE008091600084FF49C0809161008F3FD1
:1004300009F444C0182F893008F018E0811B80931C
:1004400061008091A20098E889278093A20011237F
:1004500041F12091BC003091BD0080916C0086FF7D
:100460000DC0A3EAB0E080E090E0F901E80FF91FC9
:10047000E491ED9301961817C1F708C0912FD901A7
:10048000E3EAF0E08D9181939150E1F71150812FD3
:1004900090E01F5F0196820F931F9093BD008093A1
:1004A000BC0083EA90E0612F6ED0612F6C5F6C30EE
:1004B00019F08FEF809361006093600094E180B346
:1004C000857031F49150D9F71092BF001092B900A5
:1004D000DF91CF911F9108951F93DC01162F80911A
:1004E000D80084FF07C08091D90098E889278093BD
:1004F000D90003C08AE58093D800912FEAEDF0E09F
:100500008D9181939150E1F78AED90E0612F3BD07E
:100510001C5F1093D8001F9108951F93DC01162FC4
:100520008091AD0084FF07C08091AE0098E88927D4
:100530008093AE0003C08AE58093AD00912FEFEA6F
:10054000F0E08D9181939150E1F78FEA90E0612F77
:100550001AD01C5F1093AD001F910895A82FB92FDA
:1005600080E090E041E050EA609530E009C02D91D4
:1005700082279795879510F084279527305EC8F3DA
:100580006F5FA8F30895EADF8D939D930895CF934D
:10059000CFB7CF93DF93C395809BE9F7809B0BC0C8
:1005A000809B09C0809B07C0809B05C0809B03C0C7
:1005B000809B01C08EC06F93C091BB00DD27CE53DE
:1005C000DF4F2F9365E5809B03C02F916F91E6CF9E
:1005D0000F931F934F9320E040E15F9300B30570AA
:1005E00000FB27F93F9350E03BE039C015704064B1
:1005F0002F77012F5F5F1EC0406810B315702F77F3
:1006000052501FC0406400B32F770570D1F15F5F77
:1006100000C023C0406210B32F77157091F15F5F67
:1006200000C025C005701027515012F45D5F000016
:10063000115027952C3F10B3C8F6157001270150B3
:1006400027952C3FC8F64227499300B30570102721
:100650004F73115027952C3FA8F64695469510B339
:10066000157079F00127015027952C3F98F66B5AA9
:1006700060F3315000B3B0F600C010E41ABF002799
:100680001CC03B503195C31BD04010E41ABF0881F9
:10069000033C21F10B3411F12091B9001981110FA4
:1006A0001213EDCF4A81441F093669F10D3211F062
:1006B000013E29F74F7009F0042F0093C0003F91CD
:1006C0005F914F911F910F912F916F91CAB7C6FD06
:1006D00062CFDF91CF91CFBFCF9118952091C0000D
:1006E000222369F31091BE001123E9F53430EAF1B9
:1006F0003093BE002093BA001091BB003BE0311B49
:100700003093BB0032C00091BE00013064F50AE5B1
:100710004F7049F43091600034FD28C000936000B0
:10072000C2EAD0E027C0433049F03091AD0034FD3B
:100730001DC00093AD00CEEAD0E01CC03091D800BF
:1007400034FD14C00093D800C9EDD0E013C00527D4
:1007500010E000C0000002BB1AC0052710E0221FF5
:100760001DC010E021C04AE502C032ED432FC4E1B4
:10077000D0E032E011B31560909A02B311BB55E09E
:1007800020E865E320FF052702BB279517951C3F4E
:10079000F0F66695B8F7B1F720FF052702BB27955D
:1007A00017951C3FD0F62795179517FF05270000D2
:1007B0001C3F02BBB0F629913A9519F70A7F1091B8
:1007C000BF00110FC651D04002BB11F01093B90009
:1007D00010E41ABF016011B31A7F402F4A7F54E022
:1007E0005A95F1F702BB11BB42BB69CF83E083BFCF
:1007F00089B7816089BF08951F920F920FB60F923B
:1008000011242F933F934F935F936F937F938F9315
:100810009F93AF93BF93EF93FF93809167008823DB
:1008200041F0809166008150809366008F5F09F4EB
:10083000E2DCFF91EF91BF91AF919F918F917F91FA
:100840006F915F914F913F912F910F900FBE0F903D
:080850001F901895F894FFCFEA
:0C0858005AFF6400001400010A000100B7
:00000001FF
