:100000000C9434000C943E000C943E000C943E0082
:100010000C943E000C943E000C943E000C943E0068
:100020000C943E000C943E000C943E000C943E0058
:100030000C943E000C943E000C943E000C943E0048
:100040000C943E000C943E000C943E000C943E0038
:100050000C943E000C943E000C943E000C943E0028
:100060000C943E000C943E0011241FBECFEFD8E04C
:10007000DEBFCDBF0E9440000C946A000C940000CB
:100080008091C00082608093C0008091C10088612F
:100090008093C1008AE08093C60087B1836087B9EE
:1000A0008FE08093C600409A89E18093C60021E0EA
:1000B00092E088B1822788B980E0F8948F5F8A3017
:1000C000E1F788B1892788B980E0F8948F5F8A309A
:0800D000E1F7EFCFF894FFCF38
:00000001FF
