:1000000019C028C028C026C025C024C023C022C0D3
:1000100021C020C01FC01EC01DC01CC0A6CA1AC05F
:1000200019C018C017C03030302E545854002E5705
:100030004156000011241FBECFE5D2E0DEBFCDBF88
:1000400011E0A0E6B0E001C01D92AE3BB107E1F7C0
:1000500014D02DCBD5CF18951F93182F88EC90E096
:10006000E4D9C29A84E690E0E0D9C2981150B1F781
:1000700088EE93E0DAD91F910895A0E0B0E0E2E4C1
:10008000F0E0DECA14BE8EE081BD85B7877E806158
:1000900085BF88EF83BD80E782BD8BEF8BBB86E099
:1000A0008ABB81E788BB8FE087BB789430E2432E20
:1000B000212C22E0322E81E991E0AAD7892B09F088
:1000C00079C28FE790E066E270E06CDA8FE790E04B
:1000D0005FD5892B61F48EE790E061E070E04CE73A
:1000E00050E064D480917E00805380937E008091A4
:1000F0008F01882309F046C083B7882361F013BEBF
:1001000010E811501DBD1CBD84E690E097D9112365
:10011000C1F710BE1FBC1AE08AE090E086D9A8950E
:1001200099B386B382958770987F892B80954ABE54
:100130009091600080936000981741F48091610075
:10014000891721F09093610090938F01115021F055
:1001500080918F01882301F380918F01882391F48E
:10016000F8944BBE28E121BD11BC85B7806285BFE4
:100170007894889585B78F7D85BFA8956EE061BD21
:100180001BBEC9CF50908F0180917E00823010F04D
:1001900010928F01852D6AE025DA905D90938100A1
:1001A000852D20DA282F1EDA905D90938000822F13
:1001B00019DA18DA905D90937F0082E890E06EE2A1
:1001C00070E0F0D98FE790E0E3D48330910511F42B
:1001D00013E0D5C1892B09F0FCC18FE790E06CE0FA
:1001E00070E04CE750E0E2D3892B09F0E6C1809142
:1001F0007C0090917D000C9709F0E5C1809187000B
:1002000090918800A0918900B0918A00875591440F
:10021000A645B54409F0D7C1DD248FE790E068E03A
:1002200070E04CE750E0C2D3892B09F0C6C1809141
:100230007C0090917D00089709F0C5C1E090830093
:10024000F0908400009185001091860080917F00DD
:1002500090918000A0918100B09182008C3469E47B
:10026000960763E5A60764E5B60709F4B4C08D34C4
:1002700029E4920723E5A20724E5B20778F486363D
:100280006DE6960764E7A60760E2B607B9F0845406
:100290009944A345B04509F096C19DC0843661E6F6
:1002A000960764E7A60761E6B60709F461C08656BB
:1002B0009146A346B44709F086C18DC0C70181703D
:1002C0009070892B29F00894E11CF11C011D111D6F
:1002D000D801C7014097A109B10981379105A1054E
:1002E000B10508F070C18FE790E0B7014CE750E02E
:1002F0005DD3892B09F061C180917C0090917D00D4
:10030000A0E0B0E08E159F05A007B10709F05BC122
:1003100080917F00813009F056C1D0908100DAB819
:1003200090918D00983019F0903109F04CC18AB14C
:10033000892B8AB994FDDD0C2091830030918400D3
:100340004091850050918600DA01C90180549F4197
:10035000A040B04081549C49A040B04008F033C157
:1003600060E874E88EE190E049D9215023BB55CF75
:10037000DD2009F428C180E0E81684E0F80680E07A
:10038000080780E0180708F41EC18D2D90E0019742
:100390009C01442737FD4095542FDA01C9018E2175
:1003A0009F21A023B1230097A105B10509F00BC13E
:1003B0008091A9019091AA01A091AB01B091AC01EB
:1003C000282339234A235B23211531054105510593
:1003D00009F0F9C01DC0C70181709070892B29F008
:1003E0000894E11CF11C011D111D8091A90190913F
:1003F000AA01A091AB01B091AC01E80EF91E0A1F51
:100400001B1FC801B701B2D1892B09F406CFD5C093
:1004100025E0E216F1040105110510F41E2DADC012
:100420006090A9017090AA018090AB019090AC01FE
:10043000C29A83B78823E1F410929001109265006C
:100440001092640066E069BD83EA80BF81E08FBDE1
:10045000DD24D394DDBCDCBC84E690E0EFD720E85B
:10046000D216B9F761E065BB82E083BF80E189BF46
:100470008091A9019091AA019170B101681B790B3B
:1004800080E090E04CE750E091D2892B09F068C001
:1004900080917C0090917D00A0E0B0E05701680160
:1004A000A81AB90ACA0ADB0A21E0A21624E0B20699
:1004B00020E0C20620E0D20618F0C0E0D4E001C07F
:1004C000E50180E090E0BE014CE750E06FD2209162
:1004D0007C0030917D00C217D30709F041C0A89578
:1004E00099B386B382958770987F892B80954ABE91
:1004F00090916000809360009817D9F4809161001A
:100500008917B9F09093610090938F0180917E00DC
:10051000823041F0833019F0813049F406C09923CC
:1005200009F507C010928F0104C0992311F09515A9
:10053000C9F4C050D44021F4C901A0E0B0E0B0CF6C
:1005400080918F01882381F080917E00823060F459
:10055000C401B3010BD1892B09F48ACF13E005C084
:1005600012E003C011E001C010E0809190018823E7
:10057000E1F780E88DBD8CBDC298123018F0812F54
:100580006BDD04C0113009F4B2CD10E010928F0180
:10059000123009F0ACCD83B7882361F013BE10E8A8
:1005A00011501DBD1CBD84E690E048D71123C1F752
:1005B00010BE1FBC82E050DD7ECD92E0E92EF12C12
:1005C000012D112D2BCF84E0E82EF12C012D112DC2
:1005D00025CF12E0D4CFA4E0B0E0E0EFF2E034C8E1
:1005E0004B015C01609062007090630082E08816AD
:1005F0009104A104B10408F4B0C0F3018085918591
:10060000A285B38588169906AA06BB0608F0A5C080
:100610008081823009F45DC0833009F478C0813074
:1006200009F09BC0C40196958795880D991D9C0182
:100630003170892F992786956C01EE24FF24F301F0
:100640004485558566857785CE010196F1E02F3F7B
:100650003F0749F0C40ED51EE61EF71EB701A601DE
:1006600002E010E01DC04C0D5D1D6E1D7F1D2FEFC3
:1006700031E001E010E00DD6892B09F06EC0F301E6
:1006800044855585668577854F5F5F4F6F4F7F4FF8
:100690004C0D5D1D6E1D7F1DCE01029620E030E0E9
:1006A000F8D5892B09F059C069817A81C40181701C
:1006B0009070892B39F0A4E076956795AA95E1F7BB
:1006C0009B0122C09B0140E050E03F7040705070A1
:1006D00048C077276B2D5A2D492DF30184859585C8
:1006E000A685B785480F591F6A1F7B1F940130707C
:1006F000220F331FCE01019602E010E0CAD5892BEC
:1007000061F589819A819C0140E050E02AC0B501E1
:10071000A40197E076956795579547959A95D1F7F7
:10072000F30184859585A685B785480F591F6A1FF3
:100730007B1F94012F773070220F331F220F331F3E
:10074000CE01019604E010E0A4D5892B31F4298173
:100750003A814B815C815F7004C021E030E040E071
:1007600050E0B901CA012496EEE08AC7A0E0B0E0EB
:10077000EBEBF3E065C7E82FC0916200D091630016
:10078000209719F426E030E00CC18A8180FD03C077
:1007900025E030E006C1AC8CBD8CCE8CDF8C4E2FBA
:1007A000592FCB01DA013C014D01A614B704C8044E
:1007B000D90410F435014601288D398D4A8D5B8DA1
:1007C000188E198E1A8E1B8E611471048104910487
:1007D00009F4E5C08981A82EBB24CC24DD24E9E0FE
:1007E000AA0CBB1CCC1CDD1CEA95D1F721153105E8
:1007F00041055105A1F119012A0108942108310888
:1008000041085108C401B3016150704080409040DC
:10081000A6019501F3D679018A01C201B101A601B1
:100820009501ECD6E216F30604071507C0F08827F9
:100830009927DC018A199B09AC09BD098221932102
:10084000A421B521888F998FAA8FBB8F681A790A46
:100850008A0A9B0A2CA13DA14EA15FA132C028A10A
:1008600039A14AA15BA12CA33DA34EA35FA329C03C
:10087000CA01B901B0DE9B01AC016230710581058E
:10088000910508F488C088859985AA85BB852817B5
:1008900039074A075B0708F07EC02CA33DA34EA38F
:1008A0005FA3888D998DAA8DBB8D8A0D9B1DAC1D74
:1008B000BD1D888F998FAA8FBB8F6A187B088C0803
:1008C0009D08A614B704C804D90490F2888D998DA8
:1008D000AA8DBB8D860D971DA81DB91D888F998F78
:1008E000AA8FBB8F00916200109163007EEFA72E4C
:1008F0007FEFB72E7FEFC72E7FEFD72EA20EB31E4E
:10090000C41ED51EF80180859185A285B385029706
:10091000A109B109A816B906CA06DB06E0F52181CE
:1009200030E040E050E0C601B50143D69B01AC0188
:10093000F80184899589A689B789280F391F4A1F2C
:100940005B1F211531054105510529F1D401C30172
:1009500069E0B695A795979587956A95D1F7982FF1
:100960008B830FEFE02E01E0F02E012D112D6E2074
:100970007F2080229122611471048104910479F016
:10098000280F311D411D511D28A739A74AA75BA774
:100990009F5F9B8304C01A8221E030E002C020E008
:1009A00030E0C901CDB7DEB7E2E166C6A0E0B0E055
:1009B000EBEDF4E047C63C016B014A01C0916200D7
:1009C000D0916300FA0111821082209719F426E079
:1009D00030E0D9C08A8180FD03C025E030E0D3C07B
:1009E0002C8D3D8D4E8D5F8D888D998DAA8DBB8D03
:1009F000281B390B4A0B5B0BCB01A0E0B0E028179A
:100A000039074A075B0708F469015301412CA2E04A
:100A10005A2EAFC0E88CF98C0A8D1B8DD801C70106
:100A20009170A070B0700097A105B10509F068C081
:100A3000C801B701F9E09695879577956795FA957E
:100A4000D1F7298130E040E050E0D8D5611571053B
:100A500081059105D1F4E114F1040105110529F492
:100A600068A179A18AA19BA105C06CA17DA18EA1DD
:100A70009FA1B1DD623071058105910508F480C048
:100A80006CA37DA38EA39FA31B8200916200109193
:100A900063002CA13DA14EA15FA1225030404040F7
:100AA0005040F80180859185A285B3850297A10900
:100AB000B109281739074A075B0708F061C061814F
:100AC00070E080E090E075D59B01AC01F80184896D
:100AD0009589A689B789280F391F4A1F5B1F2115E1
:100AE00031054105510509F44BC08B81280F311D9B
:100AF000411D511D28A739A74AA75BA78F5F8B838C
:100B0000088D198D2A8D3B8DC8019170A201481B5B
:100B1000590B76014C155D0508F47A0161147104D6
:100B200019F480E090E001C0C50148A559A56AA567
:100B30007BA5980131708701ACD3892B09F5C701DA
:100B4000A0E0B0E0288D398D4A8D5B8D280F391FCC
:100B50004A1F5B1F288F398F4A8F5B8FAE0CBF1CDB
:100B6000CE18DF08F401808191818E0D9F1D918345
:100B70008083C114D10409F04DCF20E030E003C0E0
:100B80001A8221E030E0C901CDB7DEB7E0E176C5D9
:100B9000A5E3B0E0EDECF5E053C51C0180916200E7
:100BA000909163009BAB8AAB892B19F426E030E06F
:100BB000D8C1EAA9FBA91282CE010D96978386833C
:100BC00003C00894211C311CF10180818032C9F3DB
:100BD0008F3219F40894211C311CF101808181327B
:100BE00078F4EAA9FBA980859185A285B385009751
:100BF000A105B10519F421E030E0B3C11D867CC127
:100C0000EE24FF248701CE010C969DAB8CABFE0138
:100C1000319602C090E291938CA99DA9E817F9073B
:100C2000C9F738E019AA20E002C03BE028E0F10152
:100C300099A9E90FF11D9081E9A9EF5FE9AB913224
:100C4000C8F09F32B9F09E3211F0231728F03830E7
:100C500089F49E3251F30EC0892F81568A3108F4EF
:100C60009052E1E0F0E0EC0FFD1FE20FF11D9083E8
:100C70002F5FDDCF1C86913210F4F1E0FC87A0904D
:100C80006200B090630081E0E816F10401051105EF
:100C900009F470C1F5012085318542855385E2163E
:100CA000F3060407150708F065C1E114F104010516
:100CB000110519F0370148010DC0F501808183301D
:100CC00071F5608871888288938861147104810449
:100CD000910441F1C401B3016250704080409040E2
:100CE00022503040404050406217730784079507F8
:100CF00020F0CC24DD2476011AC0F501218130E0FA
:100D000040E050E056D46B017C01F501848995895F
:100D1000A689B789C80ED91EEA1EFB1E08C0662424
:100D200077244301F501C088D188E288F388F50172
:100D30000680F781E02DF8ABEFA7442455241EA6CA
:100D40001DA692012F70307065E0220F331F6A9547
:100D5000E1F78FA598A9B701A60100E210E099D2AA
:100D6000892B09F007C1EFA5F8A98081882309F430
:100D70009AC0EFA5F8A9838583FD0FC0DF01FE01AE
:100D800031968CA99DA9E817F90709F4EEC09C914A
:100D90008081981711F41196F3CF009162001091A1
:100DA00063000894411C511CEDA5FEA53197FEA7D8
:100DB000EDA7EF2B09F477C0C114D104E104F104CD
:100DC00009F471C0C2018F709070892B09F0B9CFFE
:100DD0000894C11CD11CE11CF11C61147104810434
:100DE000910441F4F801848195814816590608F070
:100DF0005AC0A7CF920154E0369527955A95E1F74E
:100E0000F801818190E0019728233923232B09F0F1
:100E100098CFC401B301DFDB3B014C0162307105A7
:100E20008105910508F4A6C0F80180859185A28509
:100E3000B385681679068A069B06A8F5A09062001D
:100E4000B09063004EEFE42E4FEFF42E4FEF042FDF
:100E50004FEF142FE60CF71C081D191DF5018085B6
:100E60009185A285B3850297A109B109E816F90613
:100E70000A071B0720F0CC24DD24760162CFF501A0
:100E8000218130E040E050E0C801B70192D36B010E
:100E90007C01F50184899589A689B789C80ED91E78
:100EA000EA1EFB1E4ECF83E090E09C01833091054B
:100EB00009F057C08C85882309F45FC052C0E091C7
:100EC0006200F09163000680F781E02D838584FF46
:100ED00054C089A9280E311C84899589A0E0B0E00E
:100EE0008C01FF24EE24828D938DA0E0B0E0E82AEF
:100EF000F92A0A2B1B2B8BCE8D85882381F1888DB7
:100F000084FD2DC0BE01635F7F4FFB0184899589FD
:100F1000A0E0B0E0DC0199278827228D338D40E0E6
:100F200050E0822B932BA42BB52BEAA9FBA980A31D
:100F300091A3A2A3B3A3FB01848D958DA68DB78D3C
:100F4000EAA9FBA9848F958FA68FB78F108E118E7B
:100F5000128E138E81E0828320E030E002C023E015
:100F600030E0C901E596E2E187C38C85882309F466
:100F7000A6CFC2CF81E090E098CF24E030E0F1CF5F
:100F8000A0E0B0E0E5ECF7E063C3B82EA92E6A015B
:100F90007B012EEF31E002E010E07BD1892B11F0D4
:100FA00023E031C0CB2DDA2D8881998185559A4A6D
:100FB00011F022E028C08B2D9A2DB701A60126E35F
:100FC00030E002E010E065D1892B39F48881998105
:100FD0008654914411F420E016C08B2D9A2DB70150
:100FE000A60122E530E002E010E053D1892B11F098
:100FF00021E009C020E0888199818654914409F458
:1010000021E081E02827822FCDB7DEB7EAE03CC39C
:10101000A4E2B0E0EDE0F8E017C35C0110926300D9
:1010200010926200009709F4E6C063D180FF03C00C
:1010300022E030E0E8C04E010894811C911CC401FC
:1010400040E050E060E070E09BDF813021F0CC2494
:10105000DD24760119C0C40140E050E060E070E09A
:101060002EEB31E000E110E014D1892B09F0C6C06D
:101070008D81882309F4C5C0C984DA84EB84FC849B
:10108000C401B701A6017CDF833009F4B7C088230F
:1010900009F0B7C0CE010196B701A6012DE030E0FE
:1010A00004E210E0F6D0892B09F0A8C08A859B8560
:1010B000BC0180E090E0611571058105910521F486
:1010C000688D798D8A8D9B8D2C8130E040E050E0D9
:1010D00070D23B014C018A819B81A0E0B0E0C80E38
:1010E000D91EEA1EFB1EF501C486D586E686F78664
:1010F000898181832D813E81358324838F819885E9
:101100007C0100E010E0E114F1040105110521F477
:10111000EC88FD880E891F898A819B81A0E0B0E060
:10112000E81AF90A0A0B1B0BE618F708080919094F
:10113000E4E036952795EA95E1F7C901A0E0B0E033
:10114000E81AF90A0A0B1B0BF501218130E040E097
:1011500050E0C801B70152D22E5F3F4F4F4F5F4F53
:10116000F5012087318742875387273FFFE03F07FC
:10117000F0E04F07F0E05F0710F481E001C082E08B
:10118000275F3F4F4040504008F083E0F5018083E7
:10119000833029F488A199A1AAA1BBA109C0F501B6
:1011A00084859585A685B785860D971DA81DB91DD3
:1011B000808B918BA28BB38BF5018481958174E038
:1011C000969587957A95E1F7A0E0B0E0248535857E
:1011D00046855785820F931FA41FB51F860D971D47
:1011E000A81DB91D848B958BA68BB78B1282B092EC
:1011F0006300A092620020E030E005C021E030E012
:1012000002C027E030E0C901A496EEE039C2DF92C7
:10121000EF92FF920F931F93D82E7A018B0187FFD5
:101220000AC087E740E050E060E070E0F0DF823025
:1012300050F58FE7D822C09A08D1C09806D18D2DDD
:1012400018D1812F9927AA27BB2713D1C801AA2714
:10125000BB270FD1BB27A12F902F8F2D0AD18E2D09
:1012600008D180E4D81611F485E906C088E4D816C0
:1012700011F487E801C081E0FCD01AE0E6D087FFD6
:1012800002C01150D9F71F910F91FF90EF90DF909E
:101290000895A0E0B0E0EEE4F9E0DCC16C01790172
:1012A0008091BD0183FD07C039E0440F551F661FC3
:1012B000771F3A95D1F781E5AADF882389F4C0E347
:1012C000D5E7C3D08F3F19F42197D9F709C08E3FD6
:1012D00039F4C601B701A801D9D000E010E002C07E
:1012E00001E010E0C09AB1D0C801CDB7DEB7E8E0A8
:1012F000CDC1A4E0B0E0EEE7F9E0ACC181E081BB94
:1013000088E08DB90AE010E0A0D001501040E1F76C
:10131000C09808E512E099D001501040E1F780E450
:1013200040E050E060E070E072DF813009F05EC0C4
:1013300088E44AEA51E060E070E069DF8130B1F5AD
:101340006E010894C11CD11C76018E010B5F1F4FEA
:101350007CD0F70181937F01E017F107C9F78B81FA
:10136000813009F043C08C818A3A09F03FC008EA15
:1013700011E603C001501040C9F189EE40E050E091
:1013800060E070E444DF8823A9F73CC05ED0F6013A
:1013900081936F01EE15FF05C9F7898186FD03C0B2
:1013A000E4E0FE2E24C07CE0F72E21C089EE40E070
:1013B00050E060E070E02BDF823028F061E4E62E40
:1013C000FF24F39404C059EEE52E42E0F42E08EA1F
:1013D00011E603C00150104049F08E2D40E050E06E
:1013E00060E070E014DF8823A9F716C0FF24F092B4
:1013F000BD01C09A2AD080E0FF2009F481E0249644
:10140000E8E044C18AE740E050E060E070E0FFDEE1
:10141000882309F4BBCFEACF80E540E052E060E0EA
:1014200070E0F5DE882311F7E2CFA895019728F048
:10143000E0EAFFE03197F1F7F8CF089572E07A958E
:10144000F1F70197D9F7A895089584E089BB89BB86
:1014500089BB89BB89BB89BB89BB89BB89BB89BB6C
:1014600089BB89BB89BB89BB89BB89BB00008FB1A4
:10147000089594E06BB378E087FB61F96BBB880F4C
:1014800099BB99BB7A95C1F7D99A0895DC01FB0104
:1014900022E032E02E1B3F0B241B350B84E03197FA
:1014A00088F089BB89BB89BB89BB89BB89BB89BBE8
:1014B00089BB89BB89BB89BB89BB89BB89BB89BB0C
:1014C00089BBEDCF109731F0C0DF8D934150504074
:1014D000D9F736C0549956955499479551995695D0
:1014E0005199479560916400AFE7B0E0A60FB11D38
:1014F000809190018C3FE0F7A8DFEE27549B03C05A
:10150000E82FA3DF8058F82F519B0BC09EDF99274F
:10151000549B03C0982F99DF8058E90FF81FF79567
:10152000E795ED93FD93F894809190018E5F809301
:10153000900178946E5F41505040B1F66093640022
:1015400084E089BB89BB89BB89BB89BB89BB89BB5B
:1015500089BB89BB89BB89BB89BB89BB89BB89BB6B
:1015600089BB2150304069F708958F938FB78F93CF
:10157000EF93FF9380919001825070F080939001DF
:10158000E0916500FF27E158FF4F81918DBD81916A
:101590008CBDEF57E0936500FF91EF918F918FBF66
:1015A0008F911895FB01DC0105900D920020E1F769
:1015B0000895FF27EE27BB27AA2760FF04C0A20FCC
:1015C000B31FE41FF51F220F331F441F551F9695AD
:1015D00087957795679589F70097760771F7CF011B
:1015E000BD010895991B79E004C0991F961708F072
:1015F000961B881F7A95C9F780950895A1E21A2E47
:10160000AA1BBB1BFD010DC0AA1FBB1FEE1FFF1FA6
:10161000A217B307E407F50720F0A21BB30BE40BF6
:10162000F50B661F771F881F991F1A9469F760953D
:101630007095809590959B01AC01BD01CF010895F7
:101640002F923F924F925F926F927F928F929F92D2
:10165000AF92BF92CF92DF92EF92FF920F931F93C0
:10166000CF93DF93CDB7DEB7CA1BDB0B0FB6F89471
:10167000DEBF0FBECDBF09942A88398848885F84B1
:101680006E847D848C849B84AA84B984C884DF8022
:10169000EE80FD800C811B81AA81B981CE0FD11D06
:1016A0000FB6F894DEBF0FBECDBFED010895F894DC
:0216B000FFCF6A
:02000004008278
:03000000C1DD015E
:00000001FF
