:10000000A6C0C0C0BFC0BEC0BDC0BCC0BBC0BAC01F
:10001000B9C0B8C0B7C0B6C0B5C0B4C0B3C00DC2D7
:10002000EFC27AC179C178C1F9C176C175C126C361
:1000300073C172C1FAC1BFC26FC16EC16DC12EC2A0
:100040006BC16AC13CC22575206974656D2873292E
:100050000A0025396C75202025730A002020203CD9
:100060004449523E20202025730A00667074722095
:100070003D20256C75283078256C58290A00547964
:10008000706520616E79206C696E6520746F2077D1
:10009000726974652E204120626C616E6B206C6900
:1000A0006E652066696E616C697A6520746865208A
:1000B0007772697465206F7065726174696F6E2EF6
:1000C0000A00256C752062797465732077726974F3
:1000D00074656E2E0A000A504646207465737420BB
:1000E0006D6F6E69746F720A0072633D25640A0059
:1000F00020200072633D25752046525F25530A007B
:100100004F4B004449534B5F455252004E4F545F92
:100110005245414459004E4F5F46494C45004E4FB1
:100120005F50415448004E4F545F4F50454E454438
:10013000004E4F545F454E41424C4544004E4F5F88
:1001400046494C455F53595354454D000000112416
:100150001FBECFE5D2E0DEBFCDBF10E0A0E6B0E02D
:10016000EAECFFE102C005900D92A436B107D9F781
:1001700010E0A4E6B0E001C01D92AB3EB107E1F78C
:10018000A2D021CF3DCFBC0140E051E020E030E0E3
:1001900008C0FA014F5F5F4FE491EE23D1F72F5F64
:1001A0003F4F2617370721F0FA018491882389F7FA
:1001B00000D000D000D0EDB7FEB7319683EF90E0CD
:1001C000ADB7BEB712969C938E93119773836283DB
:1001D00055834483ACDDEDB7FEB736960FB6F89481
:1001E000FEBF0FBEEDBF0895CF92DF92EF92FF9258
:1001F0001F93CF93DF936C017901CB01BA0140E1EA
:1002000028EF5ADD80E240DD10E00CC080E23CDDEA
:10021000CC0DDD1D688170E080E090E040E12EEFC4
:100220004BDD1F5FC12FD0E0CE15DF057CF380EFE3
:1002300090E03BDD10E00CC0EC0DFD1D9081892F9E
:1002400080528F3510F08EE201C0892F1DDD1F5FB7
:10025000E12FF0E0EE15FF057CF38AE015DDDF917C
:10026000CF911F91FF90EF90DF90CF900895EF9284
:10027000FF921F93CF93DF93EC0110E0E62EFF2453
:100280000894E108F108EDDC8D3091F0883021F41C
:100290001123C9F31150F7CF8032A8F3E12FF0E01A
:1002A000EE15FF0584F7EC0FFD1F80831F5FEBCF7A
:1002B000C10FD11D18828AE0C1DCDF91CF911F915F
:1002C000FF90EF900895A0E6B0E0E8E6F1E039CEC7
:1002D0008BE288BB8EE087BB8EE19EE090936A0044
:1002E0008093690086ED90E0E0DC4BE6842E40E0F0
:1002F000942E37E0432E512C4C0E5D1E5E01089467
:10030000A11CB11C25E0622E712C6C0E7D1E9BE0A1
:10031000292E312C2C0E3D1E8EE3B6DC8BE690E0B0
:1003200060E8A5DF80916B002CE630E03A832983FA
:10033000843619F0863681F75CC080916C00ADE69A
:10034000B0E0BA83A983843621F0893629F78EDBA1
:1003500019C0C501B20149DD8823F1F2C501B1011F
:1003600044DD8823C9F2EB84FC844F81588569857C
:100370007A858CE690E00197970100E810E010DCA8
:10038000882381F000D000D0EDB7FEB7319629EE7A
:1003900030E0ADB7BEB712963C932E93119782838F
:1003A0001382E2C180E8C82ED12CCE0CDF1C9A82C9
:1003B000898200E810E019C098010131110510F0A0
:1003C00020E130E03C832B83A70160E070E089816D
:1003D0009A810ADF80E190E0E80EF91E89819A8116
:1003E00040969A83898300511040EC14FD0420F359
:1003F00093CF80916C00ADE6B0E0BA83A9839927D2
:1004000087FD9095A92FB92FFC01E456F040E43107
:10041000F10508F081CFE15FFF4F0994CE01C59649
:1004200075D938C13196FA83E983E981FA818081EF
:100430008032C1F3CF01BED62DC16196ECACFDACCC
:100440000EAD1FAD61978BE690E060E870E0AE0105
:100450004D5F5F4F04D7882309F01BC187019A8243
:10046000898217C09C018131910510F020E130E0B4
:10047000821B930B9C838B83A80160E070E08981D1
:100480009A81B2DE89819A8140969A838983005F3E
:100490001F4F8B819C81009729F73ECF80E090E031
:1004A00060E070E8AE014D5F5F4FD9D6882309F058
:1004B000F0C08B819C818050904881F32DCFC50185
:1004C000B20193DC882309F427CFC501B1018DDC8B
:1004D000882309F421CF2B85EBE6F0E080E090E063
:1004E00002C02193019680389105D8F39C838B83B9
:1004F0001B861C861D861E8633C08C0180389105A4
:1005000058F080589040A040B0408F839887A987CA
:10051000BA8700E810E004C01F82188619861A8680
:100520008BE690E0B801A301D4D7E82F6D817E81DE
:100530009B0140E050E08B859C85AD85BE85820F98
:10054000931FA41FB51F8B879C87AD87BE87EE23A3
:1005500021F08E2F90E017DE0BC00617170741F42D
:100560008F819885A985BA850097A105B10529F6DF
:1005700080E090E060E070E0A301ABD7182F90E03E
:1005800002DE112309F0C8CE00D000D000D022EC4A
:1005900030E0EDB7FEB7328321838B859C85AD8536
:1005A000BE8583839483A583B683C1DB2DB73EB715
:1005B0002A5F3F4F5AC08EE790E077DB8BE690E0F2
:1005C00060E855DE80916B00882399F08BE690E01F
:1005D00060E670E0EDDCF40101900020E9F731976E
:1005E000EB56F0408BE690E0BF01A30172D7882361
:1005F00029F380E090E060E070E0A3016AD749C091
:10060000C501B201F2DB882309F486CE6F817885BB
:1006100089859A859DD2182F90E0B5DD112309F0C8
:100620007BCE61968CAD9DADAEADBFAD6197EDB7A4
:10063000FEB73A970FB6F894FEBF0FBEEDBF4DB7A9
:100640005EB74F5F5F4F2BE630E032832183FA01C4
:1006500082839383A483B58386839783A087B1879E
:1006600066DB2DB73EB7265F3F4F0FB6F8943EBF0F
:100670000FBE2DBF51CE3196FA83E983E981FA810D
:1006800080818032C1F3CE010F96BF014CD5882303
:1006900019F090E078DD40CE1C821B82CE010F96CF
:1006A000BE01615E7F4F74D3882319F090E06BDD4B
:1006B0004FC088A5882309F44BC08FA184FF18C0C0
:1006C00000D000D0ECE5F0E0ADB7BEB71296FC93D9
:1006D000EE93119728E230E02C0F3D1F14963C93C7
:1006E0002E93139724DB0F900F900F900F902AC03A
:1006F0008DB79EB708970FB6F8949EBF0FBE8DBFFB
:10070000EDB7FEB7319622E530E0ADB7BEB7129631
:100710003C932E9311978F8D98A1A9A1BAA18283A2
:100720009383A483B58388E290E08C0F9D1F978309
:100730008683FDDAADB7BEB718960FB6F894BEBF84
:100740000FBEADBF8B819C8101969C838B83A6CF0E
:1007500000D000D026E430E0EDB7FEB7328321832D
:100760008B819C8194838383E2DA0F900F900F90AA
:100770000F90D2CDA0E0B0E0EFEBF3E0ECCB6C015A
:10078000C0916400D0916500FC0111821082248127
:10079000358146815781213031054105510509F4E4
:1007A0005BC088859985AA85BB85281739074A07C4
:1007B0005B0708F051C0211531054105510539F499
:1007C0008881833021F4288939894A895B89F60137
:1007D000208731874287538721153105410551050F
:1007E00079F18EEFE82E8FEFF82E8FEF082F8FEF35
:1007F000182FE20EF31E041F151F88859985AA8500
:10080000BB850297A109B109E816F9060A071B077B
:1008100028F020E030E040E050E016C0298130E0D0
:1008200040E050E0C801B70151DB9B01AC018C896D
:100830009D89AE89BF89280F391F4A1F5B1F04C0DD
:10084000288939894A895B89F60124873587468753
:10085000578720E030E002C021E030E0C901CDB789
:10086000DEB7E8E094CBA4E0B0E0E8E3F4E06DCBE1
:100870004B015C01609064007090650082E0881616
:100880009104A104B10408F4B0C0F30180859185FE
:10089000A285B38588169906AA06BB0608F0A5C0EE
:1008A0008081823009F45DC0833009F478C08130E2
:1008B00009F09BC0C40196958795880D991D9C01F0
:1008C0003170892F992786956C01EE24FF24F3015E
:1008D0004485558566857785CE010196F1E02F3FE9
:1008E0003F0749F0C40ED51EE61EF71EB701A6014C
:1008F00002E010E01DC04C0D5D1D6E1D7F1D2FEF31
:1009000031E001E010E04CD9892B09F06EC0F30111
:1009100044855585668577854F5F5F4F6F4F7F4F65
:100920004C0D5D1D6E1D7F1DCE01029620E030E056
:1009300037D9892B09F059C069817A81C401817046
:100940009070892B39F0A4E076956795AA95E1F728
:100950009B0122C09B0140E050E03F70407050700E
:1009600048C077276B2D5A2D492DF3018485958535
:10097000A685B785480F591F6A1F7B1F94013070E9
:10098000220F331FCE01019602E010E009D9892B16
:1009900061F589819A819C0140E050E02AC0B5014F
:1009A000A40127E076956795579547952A95D1F745
:1009B000F30184859585A685B785480F591F6A1F61
:1009C0007B1F94012F773070220F331F220F331FAC
:1009D000CE01019604E010E0E3D8892B31F429819F
:1009E0003A814B815C815F7004C021E030E040E0DF
:1009F00050E0B901CA012496EEE0C3CAA0E0B0E01D
:100A0000E3E0F5E0A6CA5C01C0916400D091650006
:100A1000FC01C080D1800894C11CD11CC114D10438
:100A200009F48FC024853585468557852115310504
:100A30004105510509F485C0C6018F709070892B5E
:100A400009F079C02F5F3F4F4F4F5F4F24873587A5
:100A500046875787408551856285738541155105C5
:100A60006105710539F48C819D81C816D90608F499
:100A700062C067C0898190E001979601E4E03695F5
:100A80002795EA95E1F782239323892B09F053C038
:100A9000CB01BA01E8DE9B01AC0162307105810532
:100AA000910518F421E030E04EC088859985AA852B
:100AB000BB85281739074A075B0708F042C0F501D4
:100AC0002087318742875387C0916400D0916500A9
:100AD0008EEFE82E8FEFF82E8FEF082F8FEF182F65
:100AE000E20EF31E041F151F88859985AA85BB8514
:100AF0000297A109B109E816F9060A071B0728F0B1
:100B000020E030E040E050E011C0298130E040E0DA
:100B100050E0C801B701DAD99B01AC018C899D89ED
:100B2000AE89BF89280F391F4A1F5B1FF501248733
:100B3000358746875787F501D182C08220E030E0B3
:100B400002C023E030E0C901CDB7DEB7EAE01DCA3C
:100B5000A0E0B0E0EDEAF5E0F4C9E82FC091640050
:100B6000D0916500209719F426E030E00CC18A810D
:100B700080FD03C025E030E006C1AC8CBD8CCE8C7E
:100B8000DF8C4E2F592FCB01DA013C014D01A61409
:100B9000B704C804D90410F435014601288D398DF5
:100BA0004A8D5B8D188E198E1A8E1B8E61147104FE
:100BB0008104910409F4E5C08981A82EBB24CC24CA
:100BC000DD2499E0AA0CBB1CCC1CDD1C9A95D1F746
:100BD0002115310541055105A1F119012A0108949A
:100BE0002108310841085108C401B3016150704027
:100BF00080409040A601950182D979018A01C20105
:100C0000B101A60195017BD9E216F3060407150789
:100C1000C0F088279927DC018A199B09AC09BD0916
:100C200082219321A421B521888F998FAA8FBB8F10
:100C3000681A790A8A0A9B0A2CA13DA14EA15FA1DC
:100C400032C028A139A14AA15BA12CA33DA34EA388
:100C50005FA329C0CA01B90106DE9B01AC01623065
:100C600071058105910508F488C088859985AA8554
:100C7000BB85281739074A075B0708F07EC02CA3FD
:100C80003DA34EA35FA3888D998DAA8DBB8D8A0D40
:100C90009B1DAC1DBD1D888F998FAA8FBB8F6A18B5
:100CA0007B088C089D08A614B704C804D90490F2E8
:100CB000888D998DAA8DBB8D860D971DA81DB91D98
:100CC000888F998FAA8FBB8F009164001091650067
:100CD0008EEFA82E8FEFB82E8FEFC82E8FEFD82E65
:100CE000A20EB31EC41ED51EF80180859185A28573
:100CF000B3850297A109B109A816B906CA06DB0691
:100D0000E0F5218130E040E050E0C601B501DED8D9
:100D10009B01AC01F80184899589A689B789280FC0
:100D2000391F4A1F5B1F211531054105510529F166
:100D3000D401C30119E0B695A795979587951A95A3
:100D4000D1F7982F8B83FFEFEF2EF1E0FF2E012DCF
:100D5000112D6E207F208022912261147104810464
:100D6000910479F0280F311D411D511D28A739A785
:100D70004AA75BA79F5F9B8304C01A8221E030E0F3
:100D800002C020E030E0C901CDB7DEB7E2E1F5C82E
:100D9000ACE2B0E0EDECF6E0DCC87C015B01E09198
:100DA0006400F0916500309719F426E030E0CCC083
:100DB000CE010D9697838683CE010196D7011396B7
:100DC0009C938E9312976115710521F4C701D2DCB3
:100DD0009C01BAC0C680D78023E030E026C0F7016E
:100DE000208131812F703070E5E0220F331FEA95AA
:100DF000E1F7C60100E210E0D3D6892B19F021E01B
:100E000030E020C0D6019C91992309F4A1C01B9623
:100E10008C91953E29F09E3219F08F7383FF20C08C
:100E2000C701ECDD9C01009769F4F7014485558505
:100E300066857785411551056105710581F6211596
:100E4000310571F0D7011C961D921D921D921C92C6
:100E50001F972330310521F02115310509F074C0A9
:100E60009501275F3F4FF70184859585A685B78556
:100E70000097A105B10509F456C0E0916400F09116
:100E800065004681578180E090E0FA01E80FF91F84
:100E9000E081E03251F0E53009F4E5EED901ED935F
:100EA0009D0101968830910581F7FA018085803295
:100EB00011F4F90110C0F9018EE28193DA012C5F7F
:100EC0003F4F18968C911897803229F08193119694
:100ED000E217F307B1F7DA011B968C91D50118964A
:100EE0008C93DA015C960D911D912D913C915F9749
:100EF000D5010D931D932D933C931397DA015896CA
:100F00008D919C915997D50115969C938E9314972A
:100F1000DA0156968D919C915797D50117969C931F
:100F20008E9316979F01F9011082C70167DD9C011E
:100F30008330910549F4D7011C961D921D921D9294
:100F40001C921F9720E030E0C901AC96EAE01DC872
:100F500023E030E077CFA0E0B0E0E0EBF7E0F4C7CB
:100F60006C015B0103C00894A11CB11CD5018C91DC
:100F70008032C9F38F3219F40894A11CB11CF60118
:100F80001482158216821782D5018C91813260F409
:100F9000C601F0DBEC01E0916400F0916500068091
:100FA000F781E02D1082AEC0A0E25A2E6624639431
:100FB000F601A281B381FD01CD010B9601C05192D2
:100FC000E817F907E1F720E0772438E002C028E0CD
:100FD0003BE0F501E70DF11D908173949132B0F083
:100FE0009F32A1F09E3211F0231728F0383071F4AF
:100FF0009E3269F30BC0892F81568A3108F49052D2
:10100000FD01E20FF11D90832F5FE3CF1B961C9231
:101010001B97913210F41B966C92C601ABDBEC016E
:10102000009709F040C0E0916400F0916500E6800F
:10103000F780FBE08F2E912C8E0C9F1CD6011C9606
:101040004D915D916D917C911F972D913C912F70E9
:101050003070E5E0220F331FEA95E1F7C70100E2A7
:1010600010E09ED5892B19F081E090E01BC0F701BC
:101070008081882309F44BC0838583FD0FC0F6016E
:10108000A281B381F701E815F90509F443C0908105
:101090008C91981719F431961196F5CFC601AEDCF4
:1010A000009761F2EC01C330D10561F5D6011296CB
:1010B000ED91FC9113978385882311F123C0E09172
:1010C0006400F09165000680F781E02D838584FF40
:1010D00017C0A70CB11C84899589A0E0B0E0DC01A1
:1010E00099278827228D338D40E050E0822B932B67
:1010F000A42BB52BF60184839583A683B78358CFA1
:10110000C4E0D0E0CE01CDB7DEB7EFE039C7C3E031
:10111000D0E0C9CFD6011296ED91FC91139783854B
:10112000882369F2EFCFACE2B0E0E8E9F8E015C758
:101130008C01E0916400F0916500309719F426E08D
:1011400030E034C03DE0E32EF12CEC0EFD1EF782C2
:10115000E682CE010196F80193838283C801FBDE0B
:101160009C010097F1F48D858823C1F0888D84FF60
:101170001BC0F70184899589A0E0B0E0DC019927C4
:101180008827228D338D40E050E0822B932BA42BB7
:10119000B52BF80184839583A683B783C801EADA67
:1011A0009C012330310511F424E030E0C901AC96F4
:1011B000E6E0EFC6ACE3B0E0EFEDF8E0CEC6BC0190
:1011C00000916400109165000115110519F466E0A5
:1011D00070E041C0F80112825DE1E52EF12CEC0EC9
:1011E000FD1EF782E682CE010196988B8F87CE0195
:1011F0000D96B1DEBC01009771F58D8D882349F104
:1012000088A584FD26C0F70184899589A0E0B0E017
:10121000DC0199278827228D338D40E050E0822B16
:10122000932BA42BB52BF80180A391A3A2A3B3A366
:10123000F701848D958DA68DB78DF801848F958FDC
:10124000A68FB78F108E118E128E138E81E082833F
:1012500002C063E070E0CB01EC96E6E09AC6A0E045
:10126000B0E0E4E3F9E06FC63C016B014A01C091D4
:101270006400D0916500FA0111821082209719F460
:1012800026E030E0D9C08A8180FD03C025E030E04F
:10129000D3C02C8D3D8D4E8D5F8D888D998DAA8DFF
:1012A000BB8D281B390B4A0B5B0BCB01A0E0B0E0D8
:1012B000281739074A075B0708F469015301412CD5
:1012C000F2E05F2EAFC0E88CF98C0A8D1B8DD8013F
:1012D000C7019170A070B0700097A105B10509F029
:1012E00068C0C801B701E9E096958795779567953D
:1012F000EA95D1F7298130E040E050E000D6611551
:10130000710581059105D1F4E114F1040105110580
:1013100029F468A179A18AA19BA105C06CA17DA136
:101320008EA19FA1A0DA623071058105910508F4B4
:1013300080C06CA37DA38EA39FA31B820091640039
:10134000109165002CA13DA14EA15FA1225030401B
:1013500040405040F80180859185A285B385029771
:10136000A109B109281739074A075B0708F061C0CE
:10137000618170E080E090E0A9D59B01AC01F801AB
:1013800084899589A689B789280F391F4A1F5B1F51
:10139000211531054105510509F44BC08B81280FFA
:1013A000311D411D511D28A739A74AA75BA78F5F93
:1013B0008B83088D198D2A8D3B8DC8019170A201F8
:1013C000481B590B76014C155D0508F47A01611430
:1013D000710419F480E090E001C0C50148A559A549
:1013E0006AA57BA5980131708701DAD3892B09F5AD
:1013F000C701A0E0B0E0288D398D4A8D5B8D280FA4
:10140000391F4A1F5B1F288F398F4A8F5B8FAE0CA5
:10141000BF1CCE18DF08F401808191818E0D9F1DC5
:1014200091838083C114D10409F04DCF20E030E0D6
:1014300003C01A8221E030E0C901CDB7DEB7E0E198
:101440009EC5A0E0B0E0E6E2FAE083C5B82EA92E82
:101450006A017B012EEF31E002E010E0A1D3892B7D
:1014600011F023E031C0CB2DDA2D8881998185558B
:101470009A4A11F022E028C08B2D9A2DB701A601BF
:1014800026E330E002E010E08BD3892B39F4888129
:1014900099818654914411F420E016C08B2D9A2D29
:1014A000B701A60122E530E002E010E079D3892BF4
:1014B00011F021E009C020E088819981865491448F
:1014C00009F421E081E02827822FCDB7DEB7EAE0DA
:1014D0005CC5A0E0B0E0EEE6FAE035C5FC015B01DA
:1014E0003A01C0916400D0916500DA011D921C920E
:1014F000209719F426E030E004C18A8190E080FD55
:1015000003C025E030E0FDC0807490706115710566
:1015100081F4892B51F080E090E040E050E060E001
:1015200070E036D2892B09F0E9C08A818F7B8A83EB
:10153000E2C0892B51F4888D998DAA8DBB8D807066
:101540009E7F888F998FAA8FBB8F2C8D3D8D4E8D5E
:101550005F8D888D998DAA8DBB8D281B390B4A0B09
:101560005B0BC501A0E0B0E0281739074A075B070D
:1015700008F459014F01412CB2E05B2EB8C0E88C51
:10158000F98C0A8D1B8DC7019170892B09F073C0EE
:10159000C801B701A9E09695879577956795AA95B3
:1015A000D1F7298130E040E050E0A9D46115710500
:1015B00081059105D1F4E114F1040105110529F427
:1015C00068A179A18AA19BA105C06CA17DA18EA172
:1015D0009FA149D9623071058105910508F48EC03B
:1015E0006CA37DA38EA39FA31B8200916400109126
:1015F00065002CA13DA14EA15FA12250304040408A
:101600005040F80180859185A285B3850297A10994
:10161000B109281739074A075B0708F06FC06181D5
:1016200070E080E090E052D49B01AC01F801848925
:101630009589A689B789280F391F4A1F5B1F211575
:1016400031054105510509F459C08B81BA01A90141
:10165000480F511D611D711D48A759A76AA77BA797
:101660008F5F8B8380E090E093D1892B09F046C097
:101670008A8180648A83888D998D91709201281B5C
:10168000390B65012A153B0508F46901760100E074
:1016900010E0C401B801A7017BD1892B79F5888DB1
:1016A000998DAA8DBB8D8E0D9F1DA01FB11F9C0112
:1016B000888F998FAA8FBB8FD3018D919C911197A1
:1016C0008C0D9D1D8D939C933170232B61F480E0D4
:1016D00090E040E050E060E070E05AD1892B71F476
:1016E0008A818F7B8A838C0C9D1CAC18BD08A11449
:1016F000B10409F044CF20E030E003C01A8221E0B9
:1017000030E0C901CDB7DEB7E0E139C4A4E2B0E012
:10171000EBE8FBE01AC45C011092650010926400D3
:10172000009709F4E7C0A2D180FF03C022E030E0B7
:10173000E9C04E010894811C911CC40140E050E0B6
:1017400060E070E07EDE813021F0CC24DD24760183
:1017500019C0C40140E050E060E070E02EEB31E0E1
:1017600000E110E01DD2892B09F0C7C08D818823CC
:1017700009F4C6C0C984DA84EB84FC84C401B701CF
:10178000A6015FDE833009F4B8C0882309F0B8C031
:10179000CE010196B701A6012DE030E004E210E091
:1017A000FFD1892B09F0A9C08A859B85BC0180E007
:1017B00090E0611571058105910521F4688D798DA1
:1017C0008A8D9B8D2C8130E040E050E07FD33B013F
:1017D0004C018A819B81A0E0B0E0C80ED91EEA1EB0
:1017E000FB1EF501C486D586E686F786898181834E
:1017F0002D813E81358324838F8198857C0100E093
:1018000010E0E114F1040105110521F4EC88FD88D4
:101810000E891F898A819B81A0E0B0E0E81AF90A4D
:101820000A0B1B0BE618F7080809190944E036955E
:1018300027954A95E1F7C901A0E0B0E0E81AF90A56
:101840000A0B1B0BF501218130E040E050E0C8019C
:10185000B70155D32E5F3F4F4F4F5F4FF5012087A4
:10186000318742875387273FFFE03F07F0E04F076C
:10187000F0E05F0710F481E008C0275F3F4F404071
:10188000504010F083E001C082E0F5018083833096
:1018900029F488A199A1AAA1BBA109C0F501848559
:1018A0009585A685B785860D971DA81DB91D808BCA
:1018B000918BA28BB38BF5018481958124E0969561
:1018C00087952A95E1F7A0E0B0E024853585468527
:1018D0005785820F931FA41FB51F860D971DA81D46
:1018E000B91D848B958BA68BB78B1282B092650045
:1018F000A092640020E030E005C021E030E002C0AA
:1019000027E030E0C901A496EEE03BC3DF92EF92FE
:10191000FF920F931F93D82E7A018B0187FF0AC085
:1019200087E740E050E060E070E0F0DF823050F5A3
:101930008FE7D822C39AB4D2C398B2D28D2DB1D238
:10194000812F9927AA27BB27ACD2C801AA27BB277A
:10195000A8D2BB27A12F902F8F2DA3D28E2DA1D23D
:1019600080E4D81611F485E906C088E4D81611F48D
:1019700087E801C081E095D21AE092D287FF02C0C9
:101980001150D9F71F910F91FF90EF90DF900895BC
:101990000F931F93CF93DF938C010097D1F0EA014F
:1019A0000EC0F80181918F017CD2809166009091E8
:1019B00067000197909367008093660021972097B6
:1019C00009F44CC08091660090916700892B49F71B
:1019D00045C04115510561057105E9F08091680028
:1019E00083FD07C039E0440F551F661F771F3A95E6
:1019F000D1F788E58BDF882319F0C1E0D0E030C053
:101A00008FEF4FD28EEF4DD280E092E0909367003F
:101A10008093660023C0C0916600D0916700229633
:101A200003C080E03ED221972097D9F739D28F7139
:101A3000853079F4C8EEDDEF01C0219731D28F3FB8
:101A400019F02097D1F705C0CD2B19F0C0E0D0E0F8
:101A500002C0C1E0D0E0C39A23D202C0C0E0D0E00F
:101A6000CE01DF91CF911F910F910895A4E0B0E0D6
:101A7000EBE3FDE070C288E18DB9C39907C080E057
:101A800090E040E050E060E070E082DF14E608D2D1
:101A90001150E9F780E440E050E060E070E036DFAC
:101AA000813009F05EC088E44AEA51E060E070E00D
:101AB0002DDF8130B1F56E010894C11CD11C760177
:101AC0008E010B5F1F4FECD1F70181937F01E0176F
:101AD000F107C9F78B81813009F043C08C818A3AC4
:101AE00009F03FC000EE1EE203C001501040C9F1F2
:101AF00089EE40E050E060E070E408DF8823A9F759
:101B00003CC0CED1F60181936F01EE15FF05C9F7F8
:101B1000898186FD03C0E4E0FE2E24C07CE0F72E20
:101B200021C089EE40E050E060E070E0EFDE8230FE
:101B300028F061E4E62EFF24F39404C059EEE52E6C
:101B400042E0F42E08EA11E603C00150104049F0CB
:101B50008E2D40E050E060E070E0D8DE8823A9F7E9
:101B600016C0FF24F0926800C39A9AD180E0FF204B
:101B700009F481E02496E8E00AC28AE740E050E0F8
:101B800060E070E0C3DE882309F4BBCFEACF80E5D4
:101B900040E052E060E070E0B9DE882311F7E2CF68
:101BA000A0E0B0E0E5EDFDE0D6C17C0169018091E7
:101BB000680083FD07C0F9E0440F551F661F771FBB
:101BC000FA95D1F781E5A2DE882379F5C0E3D5E760
:101BD00067D18F3F19F42197D9F727C08E3F29F598
:101BE000C114D10421F0E6015BD12197E9F7E1149A
:101BF000F10441F0E80154D1F70181937F0121976D
:101C0000D1F705C0E8014CD119D02197E1F7CC27D5
:101C1000DD27CC19DD09CE5FDD4FC01BD10B40D1D4
:101C20002197E9F7C0E0D0E002C0C1E0D0E0C39A5C
:101C300037D1CE01CDB7DEB7E8E0A9C173E47A951C
:101C4000F1F70FB680959AE0F89473E47A95F1F77E
:101C500008F0BC9808F4BC9A86959A95B1F70FBE27
:101C600008950FB680E8F894B49BFECFB499FECFE8
:101C700092E29A95F1F794E49A95F1F78695B499E2
:101C80008068C8F70FBE08958A3019F48DE001D03E
:101C90008AE0FF93EF93E0916900F0916A0030973A
:101CA00009F00995EF91FF910895FC01859180302D
:101CB00011F0EADFFBCF0895FF27E0E230E247FFB3
:101CC0000CC0419597FF09C0EDE260957095809535
:101CD0009095611D711D811D911D27FF02C02195E9
:101CE00030E350E2AA27660F771F881F991FAA1FAB
:101CF000A41710F0A41B63955A95A9F7AA3008F011
:101D0000A95FA05DAF93F3956115710581059105FC
:101D100041F7ED3211F4EF93F395F21718F43F9376
:101D2000F395FBCF8F91B0DFFA95E1F70895DF933C
:101D3000CF93CDB7DEB72596E991F99185918030A3
:101D400021F0853229F0A0DFF9CFCF91DF910895FE
:101D500020E0E89455915532B1F3503311F4689472
:101D600055915A3348F4505380F3220F022E220F1C
:101D7000220F200D250FF4CF0EF421958991999112
:101D8000533609F3533729F1533559F1BC018827EC
:101D90009927E8945C3621F489919991689455913A
:101DA000543639F446EF7EF077FF0DC08FEF9FEF8A
:101DB0000AC055374AE039F0583540E121F0523633
:101DC00042E009F0C2CFFF93EF9376DFEF91FF91EE
:101DD000B5CFFF93EF93FC0181918030B9F354DFCD
:101DE000FBCFFF93EF9361DFF1CF0B01DC01ED91AE
:101DF000FD912227332744275527E8949AE001C014
:101E0000319660816032E1F3A8F16D3211F468948B
:101E1000F7CF6A3378F5603368F171F498E0319662
:101E20006081613248F1623611F492E003C0683794
:101E300019F490E1319660816132F0F0613608F07A
:101E400060526053B8F06A3018F067506A3090F012
:101E5000691780F481E2771B08F4790F769557951E
:101E60004795379527958A95B9F7260F381F481F4C
:101E7000581FE0CF80E001C081E04EF46627209536
:101E8000309540955095261F361F461F561FFE93CE
:101E9000EE93D0012D933D934D935D9311240895BE
:101EA0008FEF8FB984E086BB86BB86BB86BB86BBC3
:101EB00086BB86BB86BB86BB86BB86BB86BB86BB1A
:101EC00086BB86BB86BB00008FB11895FF27EE2727
:101ED000BB27AA2760FF04C0A20FB31FE41FF51F92
:101EE000220F331F441F551F969587957795679549
:101EF00089F70097760771F7CF01BD010895A1E238
:101F00001A2EAA1BBB1BFD010DC0AA1FBB1FEE1F73
:101F1000FF1FA217B307E407F50720F0A21BB30BBE
:101F2000E40BF50B661F771F881F991F1A9469F73A
:101F300060957095809590959B01AC01BD01CF0196
:101F400008952F923F924F925F926F927F928F925D
:101F50009F92AF92BF92CF92DF92EF92FF920F9338
:101F60001F93CF93DF93CDB7DEB7CA1BDB0B0FB642
:101F7000F894DEBF0FBECDBF09942A8839884888FF
:101F80005F846E847D848C849B84AA84B984C88495
:101F9000DF80EE80FD800C811B81AA81B981CE0F8C
:101FA000D11D0FB6F894DEBF0FBECDBFED01089571
:101FB000FB01DC010D900020E9F7119701900D92D3
:0A1FC0000020E1F70895F894FFCF28
:041FCA000D0A0000FC
:00000001FF
