:1018000012C019C018C017C016C015C014C013C02C
:1018100012C011C010C00FC00EC00DC00CC00BC054
:101820000AC009C008C011241FBECFE5D4E0DEBF46
:10183000CDBFD3D05FC2E4CF0F931F93CF93DF937D
:101840008C01EA01653471F4888199818EBB9FBB5C
:10185000019699838883E09A8DB343D2015010405A
:1018600099F71FC06634E9F488819981880F991F20
:1018700099838883E881F981E4918E2F32D2E881BF
:10188000F9813196E4918E2F2CD28881998102962C
:10189000998388830250104069F7969587959983BC
:1018A0008883DF91CF911F910F9108957F928F923E
:1018B0009F92AF92BF92CF92DF92EF92FF920F93DF
:1018C0001F93DF93CF93CDB7DEB7C054D0400FB690
:1018D000F894DEBF0FBECDBF4C015A01653459F5F7
:1018E0007E010894E11CF11C67018E0C9F1C04C052
:1018F000FDD1D6018D936D01C814D904C9F707B67F
:1019000000FCFDCF14C0F501208131812EBB3FBB0F
:10191000D7018C918DBBE29AE19AE199FECF2F5FBE
:101920003F4FF501318320830894E11CF11CEC1436
:10193000FD0449F73CC0663411F08FE339C0DA0189
:10194000CD90DC901197CC0CDD1CCD92DC927724ED
:101950007394CCD1082F10E0C9D1D501ED91FC9141
:10196000F82EEE240E291F29080170925700E895E1
:1019700011249F012E5F3F4FF501318320838EEFAD
:101980009FEF880E991E8114910419F785E0F601E6
:1019900080935700E89507B600FCFDCF81E1809366
:1019A0005700E89536952795D5012D933C938DE00A
:1019B000C05CDF4F0FB6F894DEBF0FBECDBFCF9136
:1019C000DF911F910F91FF90EF90DF90CF90BF902C
:1019D000AF909F908F907F9008952F923F924F925B
:1019E0005F926F927F928F929F92AF92BF92CF92AF
:1019F000DF92EF92FF920F931F93DF93CF9300D06C
:101A0000CDB7DEB7939A68D1839947C109E0222404
:101A100033242E010894411C511C68D1982F813623
:101A200011F489E538C1813449F460D1182F5ED1B1
:101A3000D12ECC2490E08C299D2973C0853699F451
:101A4000E0E0F0E009C007B600FCFDCF23E0209302
:101A50005700E895E05CFF4F88E1E030F80798F325
:101A6000FA83E983F4C0823631F489E53AD180E023
:101A700038D180E410C1823479F438D1182F36D1AE
:101A8000B12EAA24E82EFF24EA28FB282FD1682FA4
:101A9000C701A2010BDFFFC0873679F427D1182FC9
:101AA00025D1912E8824E82EFF24E828F9281ED17C
:101AB000682FC701A201C0DEB0CF8235B1F407B6EE
:101AC00000FCFDCFE1E1E0935700E895E981FA8160
:101AD000EE0FFF1F3196E4918E2F03D1E981FA8139
:101AE000EE0FFF1FE4918E2F4EC0833621F4FED0FF
:101AF000E82EFF24ACC08334B9F4F8D0782E6624E5
:101B0000E628F72807B600FCFDCF89819A81FC0101
:101B1000EE0FFF1F21E0070120935700E8951124E5
:101B200001969A83898393C08D3699F4E981FA816D
:101B30008CE0E030F80718F08FE3D3D088C007B608
:101B400000FCFDCFEE0FFF1F25E020935700E89526
:101B50007EC0843481F407B600FCFDCF89819A8170
:101B60008EBB9FBBC3D08DBBE29AE19AE199FECFB9
:101B700089819A81D5CF843669F489819A818EBB17
:101B80009FBBE09A8DB3ADD089819A8101969A83EB
:101B9000898343CF8C3659F407B600FCFDCFA6D01D
:101BA000E1E0F0E0082E00935700E89550C082373E
:101BB00049F407B600FCFDCFE1E0F0E000935700E8
:101BC000849169C0863459F487B790E0FC01E170D4
:101BD000F07080FDF9CF0093570084915CC08E3483
:101BE00049F407B600FCFDCFE3E0F0E000935700B6
:101BF000849151C0813549F407B600FCFDCFE2E085
:101C0000F0E000935700849146C0803501F18C3498
:101C1000F1F0853461F407B600FCFDCFF1E1F093FB
:101C20005700E8958DE05DD0F1010995F6CE80373B
:101C300011F483E530C0843721F487E752D080E087
:101C40002AC08857823010F0943519F44FD08DE0B7
:101C500022C0933571F481E444D086E542D082E518
:101C600040D082E43ED08FE43CD08FE43AD084E58B
:101C700012C0963521F481E334D085E30CC093374C
:101C800031F487E02ED083E92CD08EE104C09B3163
:101C900009F4C3CE8FE325D0C0CE07B600FCFDCF3C
:101CA00081E180935700E895E0E0F0E009950F901E
:101CB0000F90CF91DF911F910F91FF90EF90DF90E8
:101CC000CF90BF90AF909F908F907F906F905F90DC
:101CD0004F903F902F90089589E189B988E18AB9A2
:101CE00008958CB95E9BFECF5E9A08955F9BFECFF0
:081CF0008CB10895F894FFCFB8
:0400000300001800E1
:00000001FF
