:1000000058C05DC371C070C06FC06EC06DC06CC0A1
:100010006BC08AC469C068C067C066C065C064C080
:1000200063C062C061C0090243000201008032095E
:100030000400000102020100052400100104240252
:1000400002052406000105240103010705830308B6
:1000500000FF09040100020A000000070501020870
:100060000000070581020800000403090422037749
:1000700000770077002E0072006500630075007243
:1000800000730069006F006E002E006A007000109F
:10009000035500530042002D00320033003200129D
:1000A00001100102000008C016E105000101020074
:1000B000010011241FBECFE5D4E0DEBFCDBF10E0AC
:1000C000A0E6B0E0E0E0FAE002C005900D92AC37A7
:1000D000B107D9F711E0ACE7B0E001C01D92A93E2D
:1000E000B107E1F704D18AC48BCF582F4091A20108
:1000F000E42FF0E09F012F5F3F4F2F73307080910E
:10010000CE0090E02817390739F0E053FF4F5083B5
:100110004F5F4F734093A20108951F939091A301E5
:1001200080916101891759F0E92FF0E0E75EFE4FF9
:1001300010819F5F9F739093A301812FD6DF812F42
:100140001F9108958091CE0081509091A201891B4A
:100150008F7308950F931F938091C30187FF0BC086
:100160008091CE0081509091A201891B8F738930BC
:1001700010F01092C3018091B20184FF38C06091E9
:10018000A2019091CE00691721F480917C00882310
:1001900071F1162F191B1F73183008F018E0012F8A
:1001A000090F003480F00F73A0EDB0E0202F30E095
:1001B0002A0F3B1F05C0FD01E05CFF4F8D9180833E
:1001C000A217B307C1F7892F90E080539F4F612F8B
:1001D00034D10093CE008091A201801731F4183001
:1001E00021F481E080937C0002C010927C001F917A
:1001F0000F910895FC018381813049F48FE990E0EB
:100200009093C2018093C10180919F00089586E27E
:1002100090E09093C2018093C10183E40895FC01B2
:100220002081822F8076803201F59181892F805242
:10023000823010F48FEF0895923281F485B3928169
:100240009170990F990F990F877F982B95BB80918B
:100250007D00882319F482E080937D0027FD05C08E
:1002600081E080937C0080E0089580E00895FC01A7
:1002700080918100808380918200818380918300BE
:10028000828380918400838380917E008483809127
:100290007F00858380918000868387E00895FC013C
:1002A000808180938100818180938200828180930C
:1002B0008300838180938400248120937E00958134
:1002C00090937F00868180938000933010F010928D
:1002D0007F00213011F410927E001092A50110923F
:1002E00061011092A3011092A40181E008958AEFA8
:1002F00082BB85E081BBA89584EC99E020E931E0E0
:10030000F9013197F1F70197D9F711BA80E895E231
:10031000A0E0B0E08093810090938200A0938300DE
:10032000B093840010927E0010927F0088E080934A
:1003300080001092A501109261011092A301109209
:10034000A40143D010927D0010927C00E7D210925D
:10035000C3017894A59A75D0FDDEDFDE8A3511F4ED
:10036000AD9A03C0823409F4AD9890917D00992331
:1003700091F38091DD0184FFEECF923021F480E68D
:1003800090E068E003C088E690E062E052D080919F
:100390007D00815080937D00DECFDC012091A301A0
:1003A00010C0E0916101EF5F9E2F9F73E1509217A3
:1003B00039F0F0E0E75EFE4F8D918083909361010C
:1003C0006150662371F7BEDE089585B7826085BFF0
:1003D0008BB780648BBF8BE48093B3018093DE0185
:1003E0008AE58093B2018093DD0108951F93CF9336
:1003F000DF93DC01162FEA01888184FF05C0898123
:1004000098E88927898302C08AE58883AE014E5F18
:100410005F4F212FFA018D91819321501216DCF349
:10042000CA01612F48D11C5F1883DF91CF911F91C2
:1004300008954DED51E0DADF089542EB51E0D6DF4B
:1004400008951F93CF93DF936091C301635067FDBD
:10045000B3C08091C001CCE0D0E0C81BD109C95322
:10046000DE4F8091BF01803118F4CE0196DF9EC02F
:100470008D3209F08BC0683009F098C083EC80930E
:10048000A7018AE580936A001092850088818076B2
:1004900021F0CE01C4DE282F66C09A811092B001EF
:1004A0008981882321F41092B10122E055C0853062
:1004B00019F49093C4014FC08630B9F58B81813017
:1004C00041F48FE990E09093C2018093C10122E151
:1004D00028C0823021F4CE018DDE282F22C0833047
:1004E000F9F48A81882341F489E690E09093C2016F
:1004F0008093C10124E015C0813041F48DE690E085
:100500009093C2018093C10122E20BC0823041F47A
:100510008FE890E09093C2018093C10120E101C077
:1005200020E080E4809385001EC0883021F421E023
:1005300086EC91E013C0893019F49093C6010BC08A
:100540008A3011F421E008C08B3029F48BE48093C9
:10055000B3018093DE0120E080EB91E09093C20133
:100560008093C10109C02F3F39F4888187FD2E8116
:1005700080E88093850006C08F81882319F48E81DE
:10058000821708F0822F80936B0010C08091850045
:1005900087FF0CC0CE0183DE8F3F21F48EE1809374
:1005A0006A0004C0882311F010926B008091C3018F
:1005B000181614F41092C30180916A0084FF58C089
:1005C00080916B008F3F09F453C0182F893008F0D9
:1005D00018E0811B80936B008091A70198E8892720
:1005E0008093A701112391F18091850087FF08C0B6
:1005F00088EA91E0612F3BDE182F893098F526C0FC
:100600002091C1013091C20186FF0DC0A8EAB1E07E
:1006100080E090E0F901E80FF91FE491ED93019675
:100620001817C1F708C0912FD901E8EAF1E08D91C0
:1006300081939150E1F71150812F90E01F5F019657
:10064000820F931F9093C2018093C10188EA91E0C9
:10065000612F31D0612F6C5F6C3041F08FEF809350
:100660006B0004C08FEF80936B006EE160936A00B3
:1006700094E180B3857031F49150D9F71092C401A0
:100680001092BE01DF91CF911F910895A82FB92F2D
:1006900080E090E041E050EA609530E009C02D91A3
:1006A00082279795879510F084279527305EC8F3A9
:1006B0006F5FA8F30895EADF8D939D930895CF931C
:1006C000CFB7CF93DF93C395809BE9F7809B0BC097
:1006D000809B09C0809B07C0809B05C0809B03C096
:1006E000809B01C08EC06F93C091C001DD27C953AC
:1006F000DE4F2F9365E5809B03C02F916F91E6CF6E
:100700000F931F934F9320E040E15F9300B3057078
:1007100000FB27F93F9350E03BE039C0157040647F
:100720002F77012F5F5F1EC0406810B315702F77C1
:1007300052501FC0406400B32F770570D1F15F5F46
:1007400000C023C0406210B32F77157091F15F5F36
:1007500000C025C005701027515012F45D5F0000E5
:10076000115027952C3F10B3C8F615700127015082
:1007700027952C3FC8F64227499300B305701027F0
:100780004F73115027952C3FA8F64695469510B308
:10079000157079F00127015027952C3F98F66B5A78
:1007A00060F3315000B3B0F600C010E41ABF002768
:1007B0001CC03B503195C31BD04010E41ABF0881C8
:1007C000033C21F10B3411F12091BE011981110F6D
:1007D0001213EDCF4A81441F093669F10D3211F031
:1007E000013E29F74F7009F0042F0093C5013F9196
:1007F0005F914F911F910F912F916F91CAB7C6FDD5
:1008000062CFDF91CF91CFBFCF9118952091C501D5
:10081000222369F31091C3011123E9F53430EAF181
:100820003093C3012093BF011091C0013BE0311B05
:100830003093C00132C00091C301013064F50AE574
:100840004F7049F430916A0034FD28C000936A006B
:10085000C7EAD1E027C0433049F03091B20134FDFE
:100860001DC00093B201C3EBD1E01CC03091DD018B
:1008700034FD14C00093DD01CEEDD1E013C0052797
:1008800010E000C0000002BB1AC0052710E0221FC4
:100890001DC010E021C04AE502C032ED432FC4E183
:1008A000D0E032E011B31560909A02B311BB55E06D
:1008B00020E865E320FF052702BB279517951C3F1D
:1008C000F0F66695B8F7B1F720FF052702BB27952C
:1008D00017951C3FD0F62795179517FF05270000A1
:1008E0001C3F02BBB0F629913A9519F70A7F109187
:1008F000C401110FC651D04002BB11F01093BE01CC
:1009000010E41ABF016011B31A7F402F4A7F54E0F0
:100910005A95F1F702BB11BB42BB69CF84E083BF9C
:1009200089B7816089BF08951F920F920FB60F9209
:1009300011242F933F934F935F936F937F938F93E4
:100940009F93AF93BF93EF93FF93809170008823A1
:10095000A9F080916E0090916F00019790936F00C5
:1009600080936E00019651F480916C0090916D001F
:1009700090936F0080936E0087E4B7DB80917500E1
:100980008823A1F080917300909174000197909357
:10099000740080937300019649F4809171009091E6
:1009A00072009093740080937300D4DB80917A007E
:1009B000882399F080917800909179000197909325
:1009C000790080937800019641F4809176009091AF
:1009D00077009093790080937800FF91EF91BF9119
:1009E000AF919F918F917F916F915F914F913F91C7
:1009F0002F910F900FBE0F901F901895F894FFCF76
:100A0000A12000000000020003005AFFC8000000FF
:0C0A1000001400000000010000000000C5
:00000001FF
