:020000040800F2
:100000000000022089260008D1260008D526000815
:10001000D9260008DD260008E126000800000000BF
:10002000000000000000000000000000E5260008BD
:10003000E926000800000000ED260008F12600086F
:10004000CD260008CD260008CD260008CD260008C4
:10005000CD260008CD260008ED280008CD26000892
:10006000CD260008CD260008CD2600085915000829
:10007000CD260008CD260008CD260008CD26000894
:10008000CD260008CD260008CD260008CD26000884
:10009000CD260008CD260008CD260008CD26000874
:1000A000CD260008CD260008CD260008CD26000864
:1000B000CD260008CD260008CD260008CD26000854
:1000C000CD260008CD260008CD260008CD26000844
:1000D000CD260008CD260008CD260008CD26000834
:1000E000CD260008CD260008FD280008CD260008F2
:1000F000CD260008CD260008CD26000809150008E9
:10010000CD260008CD260008CD260008A915000838
:10011000CD260008CD260008CD260008CD260008F3
:10012000CD260008CD260008CD260008CD260008E3
:10013000CD260008CD260008CD260008CD260008D3
:10014000CD260008CD260008CD260008312900085C
:10015000CD260008CD260008CD260008CD260008B3
:10016000CD260008CD260008CD260008CD260008A3
:10017000CD260008CD260008CD260008CD26000893
:08018000CD260008CD26000881
:1001880010B5054C237833B9044810B10448AFF3CF
:1001980000800121217010BDB8040020000000007B
:1001A8003050000808B5064B1BB106480649AFF3A6
:1001B80000800648016811B1054B03B1984708BD96
:1001C8000000000030500008BC040020B8040020E3
:1001D8000000000010B544F6AC7EC0F6000E82B0F8
:1001E800044601215EF8200004F07EFC44F6BC7C45
:1001F800C0F6000C40F200003CF81410C2F20000F7
:10020800009101218DF8041000228DF807100223B7
:1002180050F824008DF8062069468DF8053004F062
:10022800F5F902B010BD00BF40F2000C44F6BC71F5
:10023800C2F2000CC0F600015CF8202031F8103042
:100248001383704740F2000C44F6BC71C2F2000CF4
:10025800C0F600015CF8202031F810305383704755
:1002680040F20002C2F2000244F6BC7C52F8203090
:10027800C0F6000C59693CF8100080EA01025A6186
:10028800704700BF30B50446012087B00D460146CF
:1002980004F02AFC01214FF4804004F041FC06A937
:1002A800164B012041F8140D53F8240000248DF852
:1002B80008408DF80B4004F0A9F9012D01D007B0D2
:1002C80030BD2146204604F0B5FD03A80823039558
:1002D8008DF810408DF811308DF8125004F086F822
:1002E8000F21062205A88DF814208DF815108DF819
:1002F80016108DF8175003F085FDE0E71000002078
:1003080008B540F21003C2F20003012153F820009F
:1003180004F034FA08BD00BFF8B5184D2868174C2A
:1003280004F004F80028F9D1154D164E2068296804
:10033800154D04F021F8154B37682A689F604FF671
:10034800FF77BA4294BF1A611F611946206803F00B
:1003580097FF2068012103F0DFFF2B6831682068D0
:10036800BB4238BF1F4601EB4702DF1B0121326049
:100378002F60BDE8F84003F0CFBF00BF3000002079
:100388001C000020000500203C0000204005002043
:1003980070B505464FF4A8400E46C4F200009421FB
:1003A80000229E4C04F0F4FA4FF4805323604FF47B
:1003B800A8408221C4F20000C0F2070104F006FB45
:1003C80040B92068421E22600028F0D1BDE8704084
:1003D80002F054B94FF4A8402946C4F2000004F0D2
:1003E800EFFA4FF4805121604FF4A8408021C4F205
:1003F8000000C0F2070104F0E9FA28B92368581E82
:100408002060002BF0D1E1E74FF4A840C4F20000CF
:10041800314604F0D5FA4FF4961222604FF4A84002
:100428000421C1F20001C4F2000004F0DFFA38B977
:1004380021684B1E23600029F0D102F01FF9EDE777
:100448004FF4A840C4F20000012104F093FA4FF4DD
:10045800961020604FF4A840C4F200004FF4003119
:1004680004F0C4FA58B121684A1E22600029F1D16B
:1004780002F004F90446301B18BF012070BD4FF488
:10048800A840C4F20000012104F066FA4FF480533A
:1004980023604FF4A8400121C4F20000C0F2030118
:1004A80004F094FA28B92068411E21600028F0D190
:1004B800DEE74FF4A8400022C4F20000942104F0C3
:1004C80067FA4FF4805222604FF4A8408221C4F2A8
:1004D8000000C0F2070104F079FA28B92368581E11
:1004E8002060002BF0D1C3E74FF4A8402946C4F29E
:1004F800000004F065FA4FF4805121604FF4A840E1
:100508000421C4F20000C1F2000104F06FFA28B916
:1005180023685A1E2260002BF0D1A9E74FF4A840A7
:10052800C4F20000012104F017FA4FF48050206053
:100538004FF4A8400121C4F20000C0F2030104F006
:1005480045FA28B921684B1E23600029F0D18FE7AE
:100558004FF4A840C4F20000942101224FF48055C2
:1005680004F016FA256005E02068421E2260002883
:100578003FF47EAF4FF4A845C4F200050221284697
:10058800C1F2000104F032FA0028EDD0284600211B
:1005980004F008FA012128462B8B04F0EBF94FF4FC
:1005A800805121604FF4A8404021C4F20000C1F2FC
:1005B800000104F01BFA28B92368581E2060002B9C
:1005C800F0D155E74FF4A840C4F2000004F0FAF95E
:1005D8004FF4A8434FF480522260C4F20003B3F8EA
:1005E80000C05FEA8C5205D52268511E2160002A9E
:1005F800F5D13DE704464FF4A8400121C4F20000BC
:1006080004F0D0F94FF4A8404FF48061C4F2000020
:10061800C1F2000104F006FA2DE700BF40000020F7
:100628003249F0B408600B68012B34D0022801D09D
:10063800F0BC70472E4F4FF4001CC7F800C046F2BC
:1006480010062C4FC4F2020647F20C453E602A4EB3
:10065800C4F200053560294D00262E60284D0B2672
:100668002E602024274DC1F2000410202C60264C57
:10067800C1F20000012120602448C1F2800101601C
:1006880008222348C1F2000204230260214AC1F271
:1006980080031360CCE716494FF40010086046F257
:1006A800B80214481449C4F20202026043F60C432B
:1006B8001248C4F20003002202600B601148104B7C
:1006C8002F214FF02052196002600F4B0F484FF056
:1006D80010514FF00152196002600D4B0D484FF058
:1006E80008514FF0045219600260A1E73800002059
:1006F800280000203000002020000020D404002022
:10070800340000201C0000201800002014000020E5
:10071800240000202C0000202DE9F047642990B027
:10072800914600F2688248F21F55C1EB0124C5F2D8
:10073800EB1585FB0423E217C2EB63115FFA81F81E
:1007480008F119005FFA80FA0820012104F0CCF9B9
:100758004FF44060022500240126C4F202000DA9CE
:1007680010278DF839500D978DF838608DF83A407C
:100778008DF83B4003F04AFF0720314604F0B4F9F6
:100788004FF480604FF41072C4F202000DA90D926C
:100798008DF838508DF839508DF83A608DF83B4017
:1007A80003F034FF4FF4806006210422C4F20200F3
:1007B80003F0F4FF4FF4806004220921C4F2020020
:1007C80003F0ECFF4FF400604FF4A053C4F20200B2
:1007D8000DA90D938DF838508DF839508DF83A40A1
:1007E8008DF83B4003F012FF204604210622C4F294
:1007F800020003F0D3FFC74D4FF40060C4F20200BB
:100808000A21062203F0CAFF2868022800F03B826A
:100818002046C4F202000DA90D9703F0F7FE4FF42D
:100828000060C4F202000C21062203F0B7FF4FF467
:100838000060802300270224C4F202000DA90D9352
:100848008DF838408DF839408DF83A708DF83B7046
:1008580003F0DCFE4FF40060C4F202000721062218
:1008680003F09CFF4FF44060C4F2020010213A46A6
:1008780003F08EFF44F6FE74023CFDD14FF4406055
:100888000122C4F20200102103F082FF01214FF47B
:10089800001004F037F94FF4A840C4F2000003F048
:1008A80097FF10AE48F2A0634FF48047C0F20103EF
:1008B8004FF4A84046F81C3D4BF6FF7C4FF480628D
:1008C80067F31F400121ADF828403324ADF82AC052
:1008D800ADF82E20ADF82C40ADF8307004F02EF8AD
:1008E8004FF4A840314667F31F408B4E03F0A8FF32
:1008F8004FF4961131604FF4A840C4F200004FF451
:10090800003104F073F8002800F0CE813068411EF1
:1009180031600028EFD101F0B1FE04464FF4961083
:1009280030604FF4A840C4F200004FF4003104F0E6
:100938005DF8002800F0B48231684A1E3260002950
:10094800EFD101F09BFE754BAF214FF49612197051
:10095800041932604FF4A840C4F200004FF400318B
:1009680004F044F8002800F07F823068421E3260AC
:100978000028EFD101F082FE4FF49612241832605D
:100988004FF4A840C4F200004FF4003104F02EF8F0
:10099800002800F04D8231684B1E33600029EFD1EA
:1009A80001F06CFE4FF49613B8F1E60F044433607F
:1009B80000F2FB804FF4A840C4F200004FF400316D
:1009C80004F014F8002800F0B4823068421E326047
:1009D8000028EFD101F052FE4FF4961232604FF426
:1009E800A840C4F200004FF4003103F0FFFF0028D4
:1009F80000F0838231684B1E33600029EFD101F08B
:100A08003DFE2B68022B00F0B0824FF49613336042
:100A18004FF4A840C4F200004FF4003103F0E6FFA1
:100A2800002800F079813068411E31600028EFD13C
:100A380001F024FE4FF49611041931604FF4A840D8
:100A4800C4F200004FF4003103F0D0FF002800F09A
:100A5800478133685A1E3260002BEFD101F00EFE39
:100A68002A68022A044415D04FF4961030604FF4D7
:100A7800A840C4F200004FF4003103F0B7FF00288B
:100A880000F0E28231684B1E33600029EFD101F09B
:100A9800F5FD24184FF4961333604FF4A840C4F2C0
:100AA80000004FF4003103F0A1FF002800F0A481FA
:100AB8003068421E32600028EFD101F0DFFD4FF4AC
:100AC8009612041932604FF4A840C4F200004FF4A3
:100AD800003103F08BFF002800F0728131684B1E53
:100AE80033600029EFD101F0C9FD4FF496132418A3
:100AF80033604FF4A840C4F200004FF4003103F013
:100B080075FF002800F040813068411E31600028E0
:100B1800EFD105E03800002040000020D804002074
:100B280001F0ACFD4FF49611241831604FF4A84041
:100B3800C4F200004FF4003103F058FF002800F021
:100B4800078133685A1E3260002BEFD101F096FD01
:100B5800034601214FF40040E41803F0D3FF4FF49B
:100B68007050C4F2000004F005F84FF470500026ED
:100B78004FF4007CC4F2000001A9CDF80C90ADF848
:100B88000660ADF80860ADF81060ADF804C0ADF8C7
:100B98000AC004F08DF82A68022A00F09D81002C12
:100BA8002ED0012010B0BDE8F0874FF4A840C4F261
:100BB80000004FF4003103F019FF002800F07D8297
:100BC8003068411E31600028EFD101F057FD4FF425
:100BD800961131604FF4A840C4F200004FF4003180
:100BE80003F004FF002800F04D8233685A1E32607B
:100BF800002BEFD103E74FF07D0A4FF06408A3E51F
:100C08002E68012E00F0B8822A68012A00F071824D
:100C18000120C0F22000012103F066FF4FF00050D0
:100C2800012103F06FFF0020044603231022C4F2C1
:100C380002000DA98DF838300D928DF83B4003F075
:100C4800E5FC05A9204605940694089403F0D8F914
:100C58002046012103F0EEF94FF47050C4F2000071
:100C68007121012204F0CEF80FA8332201238DF858
:100C78003C208DF83D408DF83E408DF83F3003F024
:100C8800C1F820468EE73046314603F02DFF00209C
:100C98000326C4F202000DA90D978DF838608DF86F
:100CA8003B4003F0B3FCC2E54FF4A840C4F2000097
:100CB800012103F051FE4FF4805232604FF4A840F6
:100CC8000121C4F20000C0F2030103F07FFE0028F6
:100CD80040F036823468631E3360002CEED11AE689
:100CE8004FF4A840C4F20000012103F035FE4FF490
:100CF800805030604FF4A8400121C4F20000C0F2D7
:100D0800030103F063FE002840F0158231684B1E92
:100D180033600029EED1A1E64FF4A840C4F20000E8
:100D2800012103F019FE4FF4805232604FF4A840BD
:100D38000121C4F20000C0F2030103F047FE0028BD
:100D480040F015823368581E3060002BEED16FE6F4
:100D58004FF4A840C4F20000012103F0FDFD4FF458
:100D6800805030604FF4A8400121C4F20000C0F266
:100D7800030103F02BFE002840F0F38131684B1E7D
:100D880033600029EED1E1E64FF4A840C4F2000038
:100D9800012103F0E1FD4FF4805232604FF4A84086
:100DA8000121C4F20000C0F2030103F00FFE002885
:100DB80040F0D2813368581E3060002BEED1AFE688
:100DC8004FF4A840C4F20000012103F0C5FD4FF420
:100DD800805030604FF4A8400121C4F20000C0F2F6
:100DE800030103F0F3FD002840F0B18131684A1E89
:100DF80032600029EED176E64FF4A8400121C4F212
:100E0800000003F0A9FD4FF4805131604FF4A84071
:100E18000121C4F20000C0F2030103F0D7FD00284D
:100E280040F07F813368581E3060002BEED144E6D5
:100E38004FF4A840C4F20000012103F08DFD4FF4E7
:100E4800805030604FF4A8400121C4F20000C0F285
:100E5800030103F0BBFD002840F05E8131684A1EA3
:100E680032600029EED19BE54FF4A8400121C4F27D
:100E7800000003F071FD4FF4805131604FF4A84039
:100E88000121C4F20000C0F2030103F09FFD002815
:100E980040F03D813368581E3060002BEED169E583
:100EA8004FF4A840C4F20000012103F055FD4FF4AF
:100EB800805333604FF4A8400121C4F20000C0F20F
:100EC800030103F083FD002840F01C813068411EB7
:100ED80031600028EED134E501214FF0005003F0D5
:100EE80011FE304605A905960696089603F088F87F
:100EF8003046012103F09EF851E64FF4A840C4F2B1
:100F08000000012103F028FD4FF4805030604FF4B9
:100F1800A8400121C4F20000C0F2030103F056FD0D
:100F2800002840F0038131684A1E32600029EED162
:100F380065E54FF4A8400121C4F2000003F00CFD60
:100F48004FF4805131604FF4A8400121C4F20000F1
:100F5800C0F2030103F03AFD002840F050813368E5
:100F6800581E3060002BEED134E54FF496103060F7
:100F78004FF4A840C4F200004FF4003103F036FDEE
:100F8800002800F0B18131684A1E32600029EFD193
:100F980001F074FB4FF49612041932604FF4A84024
:100FA800C4F200004FF4003103F020FD002800F0E7
:100FB80065813368581E3060002BEFD101F05EFB6D
:100FC80024184FF4961030604FF4A840C4F2000083
:100FD8004FF4003103F00AFD002800F06A813168FF
:100FE8004B1E33600029EFD101F048FB4FF49613F4
:100FF800241833604FF4A840C4F200004FF40031C5
:1010080003F0F4FC002800F01E813068421E3260B4
:101018000028EFD101F032FB4FF496122418326009
:101028004FF4A840C4F200004FF4003103F0DEFC96
:10103800002800F0EA8031684B1E33600029EFD1A8
:1010480001F01CFB2418E0E44FF4A840C4F20000AF
:10105800012103F081FC4FF4805232604FF4A84024
:101068000121C4F20000C0F2030103F0AFFC002824
:1010780040F054813068411E31600028EED101F003
:10108800FDFA06E54FF4A840C4F20000012103F080
:1010980063FC4FF4805030604FF4A8400121C4F243
:1010A8000000C0F2030103F091FC00283ED1316832
:1010B8004B1E33600029EFD1A1E44FF4A840C4F2DD
:1010C8000000012103F048FC4FF4805232604FF4D5
:1010D800A8400121C4F20000C0F2030103F076FC2D
:1010E800002840F022813368581E3060002BEED172
:1010F8006BE54FF47050C4F20000022103F078FE53
:1011080000204FE50420AF21FFF742F91BE405203A
:101118008121FFF73DF92FE406200421FFF738F974
:1011280040E427200021FFF733F9C8E42120514685
:10113800FFF72EF965E40A200021FFF729F98FE46B
:1011480002200121FFF724F90446FFF7E7BB1F201F
:101158000F21FFF71DF9C8E41A200A21FFF718F933
:10116800E0E41B200A21FFF713F90346F1E402200B
:101178009E21FFF70DF95DE47C487D4F00683146FC
:1011880003F0B2FC2146386803F0C6F8386802F06C
:1011980075FF784A784B126878495A604022DA60BD
:1011A8004FF6FE721A614FF480629A614FF4006242
:1011B800DA610968386819604FF400521A624FF40E
:1011C800003219469A629C605C615C62DC621C6356
:1011D8005C639C6303F054F838681021324603F0CE
:1011E800EDF867498DF83D4008688DF83E408DF868
:1011F8003C000FA88DF83F6002F004FE04E52020B3
:101208005146FFF7C5F8FFF7E7BB4FF4A840C4F213
:101218000000012103F0A0FB4FF4805030604FF430
:10122800A8400121C4F20000C0F2030103F0CEFB84
:10123800002840F0848031684A1E32600029EED1CF
:1012480001F01CFAFEE64FF4A8400121C4F20000A8
:1012580003F082FB4FF4805131604FF4A840012124
:10126800C4F20000C0F2030103F0B0FB002872D101
:101278003368581E3060002BEFD1CBE64FF4A840FE
:101288000121C4F2000003F067FB4FF48051316084
:101298004FF4A8400121C4F20000C0F2030103F09A
:1012A80095FB002852D133685A1E3260002BEFD1CB
:1012B80084E64FF4A840C4F20000012103F04CFB7F
:1012C8004FF4805232604FF4A8400121C4F200006C
:1012D800C0F2030103F07AFB002841D13068411EB7
:1012E80031600028EFD17FE64FF4A840C4F2000037
:1012F800012103F031FB4FF4805333604FF4A840D1
:101308000121C4F20000C0F2030103F05FFB88B9B9
:101318003068411E31600028F0D139E60E200421E2
:10132800FFF736F82418FFF7B5BB20205146FFF722
:101338002FF84CE408200121FFF72AF82AE61520A7
:101348000021FFF725F82418FFF75FBB09200121CA
:10135800FFF71EF834E614200021FFF719F85BE6C2
:101368000E20C021FFF714F840E600BF2800002037
:10137800300000202000002040050020D404002078
:101388003400002030B55B485B4D036885B000240D
:1013980003A88DF80C308DF80D408DF80E408DF8AF
:1013A8000F4002F02FFD2146286802F0B5FF28689B
:1013B80002F064FE4FF44060C4F20200102122469D
:1013C80003F0E6F944F6FE73023BFDD14FF44060AA
:1013D8001021C4F202000122484C03F0D9F94FF45D
:1013E800961121604FF4A840C4F200004FF4003178
:1013F80003F0FCFA00285ED023685A1E2260002BF6
:10140800F0D101F03BF94FF4006000244FF4A052F2
:1014180001A9C4F2020001928DF808408DF8094034
:101428008DF80A408DF80B4003F0F0F820461023A1
:1014380001A9C4F20200019303F0E8F82046042150
:101448002246C4F2020003F0A9F94FF400600A2111
:101458002246C4F2020003F0A1F94FF400602246CC
:101468000C21C4F2020003F099F94FF400608022C5
:1014780001A9C4F20200019203F0C8F84FF4006019
:1014880006220721C4F2020003F088F94FF47050D5
:101498002146C4F2000003F097FC4FF47050C4F2E8
:1014A800000003F067FB4FF40040214603F02AFBDD
:1014B800204605B030BD4FF4A840C4F20000012119
:1014C80003F04AFA4FF4805020604FF4A8400121FD
:1014D800C4F20000C0F2030103F078FA28B92168C9
:1014E8004B1E23600029F0D18BE702200121FEF773
:1014F8004FFF88E734000020300000204000002023
:1015080070B50F4C0F4D2068296802F013FF30B1F9
:101518000D4B1E6826B1BDE87040FEF7FDBE70BDDC
:101528002068314602F0F8FE2068296802F024FF9E
:10153800064800683146BDE8704001F05FB800BF5A
:10154800300000201C0000203C0000200005002086
:1015580070B50F4C0F4D2068296802F0EBFE30B1D2
:101568000D4B1E6826B1BDE87040FEF7D5BE70BDB4
:101578002068314602F0D0FE2068296802F0FCFE9F
:10158800064800683146BDE8704001F037B800BF32
:10159800300000201C0000203C0000200005002036
:1015A8004FF4705008B5C4F20000022103F03CFC6F
:1015B80070B10B480368022B0BD001F021F80146EB
:1015C8004FF47050C4F20000BDE8084003F00EBCB0
:1015D80008BD01F015F80146042002F03FFDECE7D4
:1015E8003800002070B505464FF480500E46C4F20E
:1015F80002000821384C03F0C9F84FF480532360E7
:1016080003E02068421E226038B34FF44050C4F211
:101618000100022103F008FC0028F2D04FF44050EA
:101628003146C4F2010003F0E1FB4FF48051216020
:1016380003E02368581E20607BB14FF44050C4F289
:101648000100012103F0F0FB0028F2D04FF44050D4
:10165800C4F2010003F0C6FB01E000F077FA4FF492
:1016680080522D78226004E021684B1E23600029F7
:101678002FD04FF44050C4F20100022103F0D4FBF4
:101688000028F1D04FF44050C4F20100294603F07D
:10169800ADFB4FF48050206003E021684A1E2260B1
:1016A800B9B14FF44050C4F20100012103F0BCFB72
:1016B8000028F2D04FF44050C4F2010003F092FB2E
:1016C8004FF48050C4F202000821BDE8704003F0D6
:1016D8005BB800F03BFAF3E7440000202DE9F04F37
:1016E80089B00025074601214FF480508DF81F501E
:1016F80003F016FA0120014603F0F6F91020012143
:1017080003F0F2F91020012103F0EEF9AB461020A6
:10171800012103F0E9F9C4F2020B05210A465846F3
:1017280008AC03F03BF858460621052203F036F8CA
:101738004FF0200805225846072103F02FF844F8F7
:101748000C8D4FF00209584621468DF818908DF8F7
:101758001A508DF81B908DF819904FF4405A02F0EA
:1017680055FF8023584621460593C4F2010A02F02A
:101778004DFF402621465846059602F047FF504641
:1017880003F0F8F94FF4007207234FF0080B69468D
:101798005046ADF80A204FF480564FF48272ADF8E7
:1017A8001030ADF80220C4F20206ADF80050ADF8D2
:1017B8000450ADF80650ADF80850ADF80CB0ADF8CF
:1017C8000E5003F045FA5046012103F0EFFA4FF0AE
:1017D800010A30462146CDF814B08DF818A08DF8CE
:1017E8001A508DF8199002F011FF3046594602F050
:1017F800CBFF30462146CDF814A08DF818508DF84F
:101808001A508DF819908DF81B5002F0FFFE2146F2
:101818003046CDF8149002F0F9FE78783C78F978E3
:1018280097F804C0BA7844EA000343EA010040EAA2
:101838000C010DEB080041EA020300F8013D4146A6
:10184800FFF7D0FE09B0BDE8F08F00BF2DE9F041E9
:10185800012A06464FF480508CBF41F0C00541F084
:101868008005C4F202000821404C174602F08EFFA2
:101878004FF48053236004E02068421E2260002851
:1018880062D04FF44050C4F20100022103F0CCFAB8
:101898000028F1D04FF440502946C4F2010003F06B
:1018A800A5FA4FF48051216004E02368581E206097
:1018B800002B49D04FF44050C4F20100012103F03D
:1018C800B3FA0028F1D04FF44050C4F2010003F0FD
:1018D80089FA002F3CD0013F751C15FA87F84FF4A0
:1018E8008057276004E021684A1E2260002938D00A
:1018F8004FF44050C4F20100022103F095FA002889
:10190800F1D04FF44050C4F20100002103F06EFA08
:10191800276003E02368581E206013B34FF440503B
:10192800C4F20100012103F07FFA0028F2D04FF43D
:101938004050C4F2010003F055FAC0B2454530707A
:101948002E4605D00135CCE700F000F9002FC2D1B2
:101958004FF48050C4F202000821BDE8F04102F0C3
:1019680013BF00F0F3F8C0B2E8E700BF440000205E
:1019780030B583B002AC002504F8015D054621218D
:1019880001222046FFF762FF68782A789DF807C091
:10199800A97840EA020343EA01002CF02F0240EA4A
:1019A8000203212120468DF80730FFF71BFE03B004
:1019B80030BD00BF30B5012185B00020FEF762FCC4
:1019C8000020FEF707FC0120FEF704FC0220FEF7CA
:1019D80001FC0320FEF7FEFB684603F027F848F2F7
:1019E8001F50019AC5F2EB10A0FB021359090139E7
:1019F800B1F1807F12D24EF2100CCEF2000C4FF4EF
:101A08006D4ECEF2000ECCF80410F023002107240E
:101A18008EF82330CCF80810CCF800400020FEF7F0
:101A28006FFC0128044601D005B030BD0020FEF748
:101A3800FBFB2046FEF7F8FB0220FEF7F5FB032030
:101A4800FEF7F2FB4FF6FC72C0F60F02264C106848
:101A5800002837D14FF4967121600020FEF750FC22
:101A6800012802D12368002BF7D120680028DBD198
:101A7800FEF7E8FB0120FEF7E5FB0220FEF7E2FB9C
:101A88000320FEF7DFFB0020FEF73AFC0128FAD01E
:101A980002F0F6FC00F064F800F0C6F800F03CFB39
:101AA80000F022FD4FF6FC70C0F60F00002102F096
:101AB80051FD0A250020FEF7D3FB25602168002987
:101AC800FCD1F7E74FF4967020600020FEF718FC71
:101AD800012802D12268002AF7D10020FEF710FC65
:101AE8000028C2D12060C0E78405002082B0044AE3
:101AF8000190019B136010680028FCD102B0704768
:101B080084050020034B1A6812B11968481E186032
:101B1800704700BF8405002008B50221582002F054
:101B280039FD4FF6FC70C0F60F004FF0553102F04A
:101B380011FD054C05250220FEF792FB2560236860
:101B4800002BFCD1F7E700BF8405002008B5034847
:101B5800037803B1FEE7FFF7DFFF00BFD9040020D9
:101B680030B52D4B00244021032283B0184619704C
:101B78005C709A70DC701C71FFF7B0FD27490C226D
:101B88000124202508468A700D704C70FFF7F0FE7E
:101B98001E20FFF7ABFF0F210DF107002246FFF7CC
:101BA80055FE9DF807303B2B01D0FFF7B5FF1C4DC4
:101BB8001C4C4FF4FA7028602B681A48292104221B
:101BC800002B25D0FFF742FE94F90030A278002BB5
:101BD800B8BF5B425FFA83FCBCF10F0F52B205D865
:101BE800002AB8BF5242D1B20F29E5D90020FEF72A
:101BF8001BFB0020FEF784FB0028FAD00020FEF72C
:101C08007FFB0128FAD00020FEF71CFB03B030BD93
:101C1800FFF782FFFAE700BF7C0500208C05002053
:101C280084050020880B00202DE9F0410D2082B0AA
:101C3800012102F059FF4FF44060002401250226DB
:101C48002027C4F20200694600978DF804508DF8E9
:101C580006408DF807408DF8056002F0D7FC4FF478
:101C680040603946C4F2020002F090FD4FF4006073
:101C7800C4F20200694600958DF804508DF80640BC
:101C88008DF807408DF8056002F0C0FC20464FF43F
:101C98000077C4F20200694600978DF804408DF879
:101CA80006408DF807408DF8056002F0AFFC4FF450
:101CB80000602946C4F2020002F068FD2846FFF7DA
:101CC80015FF2046C4F20200394602F057FD0028ED
:101CD80000F0138200200246694602234FF4806414
:101CE8000125C4F202008DF804208DF806208DF835
:101CF800053000948DF8075002F088FC2846FFF75D
:101D0800F5FE0020C4F20200214602F037FD00284B
:101D180000F0FF814FF40060C4F20200012102F0DC
:101D280033FD002005464FF4C05301240227C4F2B6
:101D38000200694600938DF804508DF806508DF81E
:101D480007408DF8057002F061FC28464FF40076D4
:101D5800C4F20200694600968DF804408DF80650DA
:101D68008DF807408DF8057002F050FC2846314682
:101D7800C4F2020002F00AFD2046FFF7B7FE28462B
:101D8800C4F202004FF4006102F0F8FC002800F0F1
:101D9800B1812846C4F202004FF4805102F0EEFCF3
:101DA800002800F0A7810020054601244FF4805642
:101DB8004FF00208C4F20200694600968DF80450FC
:101DC8008DF806508DF807408DF8058002F01EFC4E
:101DD80028464FF40067C4F20200694600978DF860
:101DE80004408DF806508DF807408DF8058002F004
:101DF8000DFC28463946C4F2020002F0C7FC204612
:101E0800FFF774FE2846C4F20200314602F0B6FC21
:101E1800002800F07B810020054601244FF400666D
:101E28004FF00208C4F20200694600968DF804508B
:101E38008DF806508DF807408DF8058002F0E6FB16
:101E480028464FF48057C4F20200694600978DF87F
:101E580004408DF806508DF807408DF8058002F093
:101E6800D5FB28463946C4F2020002F08FFC204612
:101E7800FFF73CFE2846C4F20200314602F07EFC21
:101E8800002800F040810026022001218DF805007D
:101E980030464FF400758DF80410C4F2020069460C
:101EA80000958DF806608DF8076002F0AFFB3046AC
:101EB800C4F20200294602F067FC3046FEF7B4F986
:101EC8000020FEF71DFA0028FAD00020FEF718FAC5
:101ED8000028FAD1FEF7B6F90020C4F202004FF448
:101EE800007102F053FC4FF44060C4F2020020215C
:101EF80002F04AFC0020C4F202004FF4806102F0B4
:101F08003DFC002840F0FC80002006464FF4C052FB
:101F18000225C4F20200694600928DF804608DF82B
:101F280006608DF807508DF8055002F06FFB3046BB
:101F380001244FF40077C4F20200694600978DF837
:101F480004408DF806608DF807408DF8055002F0C2
:101F58005DFB30463946C4F2020002F015FC20460B
:101F6800FFF7C4FD3046C4F202004FF4006102F0EE
:101F780005FC002800F0B8803046C4F202004FF497
:101F8800805102F0FBFB002800F0AE8000200646DE
:101F98004FF490530225C4F20200694600938DF86D
:101FA80004608DF806608DF807508DF8055002F032
:101FB8002DFB304601244FF40067C4F20200694645
:101FC80000978DF804408DF806608DF807408DF86D
:101FD800055002F01BFB30463946C4F2020002F0FD
:101FE800D3FB2046FFF782FD3046C4F202004FF4CF
:101FF800007102F0C3FB002879D03046C4F2020019
:102008004FF4805102F0BAFB002870D00020064639
:102018004FF420620225C4F20200694600928DF84E
:1020280004608DF806608DF807508DF8055002F0B1
:10203800EDFA304601244FF48057C4F20200694695
:1020480000978DF804408DF806608DF807408DF8EC
:10205800055002F0DBFA30463946C4F2020002F0BD
:1020680093FB2046FFF742FD3046C4F202004FF4CE
:10207800007102F083FB38B13046C4F202004FF41D
:10208800006102F07BFB08B9FFF746FD002005461A
:1020980002244FF4C0536946C4F2020000938DF83D
:1020A80004508DF806508DF807408DF8054002F071
:1020B800ADFA01208DF804008DF8070028464FF48A
:1020C80000766946C4F2020000968DF806508DF835
:1020D800054002F09BFA2846C4F20200314602F09D
:1020E80055FB02B0BDE8F081FFF716FD4EE7FFF79C
:1020F80013FD8BE7FFF710FD55E6FFF70DFDE9E54A
:10210800FFF70AFD00E7FFF707FDBCE6FFF704FD50
:1021180081E6FFF701FDFDE52DE9F04F4FF48070F2
:1021280085B0012102F0FCFC01214FF4007002F09F
:10213800F7FC0120FEF774FA022057214BF6803293
:10214800FEF7EAFA002840F0CB8140F2E04AC34BA0
:10215800DFF820B3C24DDFF81883C24EC24FC34C1C
:10216800C2F2000A4FF000094FF440324FF4706198
:102178005A601846C3F80090C3F80890D9608AF8E6
:10218800009001F0B9FE584601F0ACFE4FF0010A8C
:102198004FF000734FF40050CBF8003059468BF8DD
:1021A80004908BF80590CBF80890CBF81090C4F207
:1021B80001008BF814A001F069FE4FF40450594651
:1021C800C4F2010001F062FE484602234FF0030BFF
:1021D8000422C4F2020002A98DF80D300193029284
:1021E8008DF80F908DF80CB002F010FA48460822CE
:1021F800C4F2020002A9029202F008FA4FF4005059
:10220800C4F201000199A5F8009052465B46A8F86F
:10221800009001F095FE4FF404505B465246594633
:10222800C4F2010001F08CFE4FF40050C4F201002A
:10223800514601F07BFE4FF40450C4F201005146B0
:1022480001F074FE4FF4FA733360B9463368002B1B
:1022580000F020814FF40050C4F2010001F0C0FEEC
:102268004FF40050C4F20100022101F0C3FE00281F
:10227800F6D04FF40050C4F2010001F0B7FE208000
:102288004FF40450C4F2010001F0AAFE4FF40450C8
:10229800C4F20100022101F0ADFE0028F6D04FF48F
:1022A8000450C4F2010001F0A1FE3880218888B2F0
:1022B800962810D9B9F800E01FFA8EFCBCF1090F76
:1022C80009D82888664B82B2B2F5FA7F03D01888FD
:1022D800421C91B2198021888BB2092B11D83888F9
:1022E80082B2962A0DD9B8F800C0614B1FFA8CF15A
:1022F800B1F5FA7F05D01888421C1FFA82FEA3F8B0
:1023080000E029888BB2B3F5FA7F9FD1B8F80000B6
:1023180082B2B2F5FA7F99D14FF40050C4F20100AD
:10232800002101F003FE4FF404500021C4F2010023
:1023380001F0FCFDFFF726F80220FEF771F90220F4
:1023480064214BF68032FEF7E7F9002840F0C2809E
:1023580040F2E049C2F2000901244FF4005000277E
:10236800214689F80040C4F201002F80A8F80070C7
:1023780001F0DCFD4FF404502146C4F201003A4F4D
:102388003A4C01F0D3FD4FF4FA733360B946336821
:10239800002B00F0A2804FF40050C4F2010001F0BD
:1023A8001FFE4FF40050C4F20100022101F022FE8A
:1023B8000028F6D04FF40050C4F2010001F016FED8
:1023C80020804FF40450C4F2010001F009FE4FF4DC
:1023D8000450C4F20100022101F00CFE0028F6D0DE
:1023E8004FF40450C4F2010001F000FE3880228846
:1023F80091B2AA2911D9B9F800C01FFA8CF0AA28FD
:102408000BD9B5F800E0164B1FFA8EF1B1F5FA7F3B
:1024180003D01988481C82B21A80228893B2092BEB
:102428000FD8398888B209280BD8B8F800E0104BC3
:102438001FFA8EFCBCF5FA7F03D01988481C82B2BB
:102448001A802A8893B2B3F5FA7FA0D1B8F80010A1
:1024580088B2B0F5FA7F9AD10EE000BFBC0B00201D
:10246800E404002084050020CC0B0020900B002001
:10247800E2040020940B00200020FDF7D5FE002088
:10248800FDF73EFF0028FAD00020FDF7DBFE05B07F
:10249800BDE8F08F4FF400501946C4F201000193D3
:1024A80001F044FD019C4FF404502146C4F20100A0
:1024B80001F03CFDFFF730FBFEF764FF0220FEF75A
:1024C800AFF8022064214BF68032FEF725F9002888
:1024D8003FF43EAFFFF720FB3AE7FFF71DFBCBE7E2
:1024E800FFF71AFB31E600BF70B54FF4804086B0A5
:1024F800012102F007FB06AD0620012102F0F4FAE3
:102508004FF4806045F8080D02230024012629466F
:10251800C4F202008DF814308DF817608DF815603C
:102528008DF8164002F072F84FF480600522C4F26C
:1025380002000A2102F032F94FF40060294608220D
:10254800C4F20200049202F061F84FF40060052220
:102558000321C4F2020002F021F94FF46050C4F2E2
:10256800000002F007FB4FF460504FF47A434FF439
:102578004072C4F20000694610250293ADF80020AD
:10258800ADF80250ADF80440ADF80C40ADF8064087
:1025980002F08EFB4FF460503146C4F2000002F0A6
:1025A80013FC154D0A20FFF7A1FA4FF4FA732B60BC
:1025B8004FF6FF762A68C2B14FF46050C4F20000AB
:1025C800012102F031FC10B929680029F4D14FF437
:1025D8006050C4F2000002F005FCB04208D01D2C87
:1025E800E8D91E2C01D106B070BDFFF795FAFAE7BD
:1025F8000134E4B2F3E700BF84050020704700BF50
:1026080030B4194B1B7893B9184A118800291DD189
:10261800174B184D1888441CA4B2302C1C8035F870
:10262800100008BF19800121118030BC7047104B81
:1026380010491A88501C31F8121082B2302A1A80B8
:1026480081F40040F1D100221A80EEE70A49088897
:10265800451CACB2302C074D0C8008BF0B80002104
:1026680035F810001180E0E7E0040020DE040020C7
:10267800DC040020C44F000848000020FEE700BF2B
:10268800002103E00A4B5B584350043109480A4BC8
:1026980042189A42F6D3094A02E0002342F8043B62
:1026A800074B9A42F9D300F045F9FFF783F97047D1
:1026B8005450000800000020B8040020B80400208E
:1026C800D40B0020FEE70000704700BFFEE700BF04
:1026D800FEE700BFFEE700BFFEE700BF704700BF90
:1026E800704700BF704700BFF8B577480378002BE4
:1026F80000F09180754C764B94F902100022881CEA
:102708005A709A7011DB022901DDF9255D7094F980
:102718000020911C0FDA072098706E4D2878411C14
:10272800CBB20A2B2B7011D0F8BD94F900200721E9
:102738005970911CEFDB022AEFDD664D2878F922EB
:10274800411C9A70CBB20A2B2B70EDD100264FF4A6
:10275800006031463246C4F200002670A67002F0CE
:1027680091FB4FF400603246C4F20000042102F0ED
:1027780089FB4FF400603246C4F20000082102F0E1
:1027880081FB524F4FF4006032460C21C4F2000026
:1027980002F078FB384629210622FFF757F84E4BFE
:1027A8004E492078A27893F800C009784C4ECCEBBB
:1027B8000203411ADAB2C9B24FFA82FC4BB2BCF139
:1027C800000FB8BFCCF1000C83EAE370A0EBE37014
:1027D8005FFA8CFCC0B2844528BF60463070307800
:1027E8002170A270A0B19A1C19DB022B58DC94F955
:1027F8000230022B3DDC023327DB317840F2CF7EFA
:102808004FF400609EFBF1F1C4F2000002F030FBCF
:1028180000222A70F8BDBDE8F840FFF773B94FF4FD
:102828000060C4F200000C21012202F02BFB30787A
:102838004FF47A7292FBF0F14FF40060C4F200009A
:1028480002F01EFB97F90030CFE74FF40060082133
:102858000122C4F2000002F015FB33784FF47A7CB1
:102868004FF400609CFBF3F1C4F2000002F006FB99
:10287800C3E74FF40060C4F200000021012202F017
:1028880001FB30784FF47A7292FBF0F14FF400605C
:10289800C4F2000002F0EEFA0C4991F90230AAE7FE
:1028A8004FF4006004210122C4F2000002F0EAFAA9
:1028B80033784FF47A7C4FF400609CFBF3F1C4F258
:1028C800000002F0D9FA92E7D9040020880B002012
:1028D800E8040020ED040020880500208F05002072
:1028E800EC04002040F2DA43C2F200030120187021
:1028F80001F0C0BD10B50B4CA37A63B14FF46D4025
:10290800CEF20000016921F00602026100F012F81F
:10291800204600F081FB4FF48020BDE8104001F014
:10292800A9BD00BF9005002040F29050C2F20000FF
:1029380000F030BC4FF46053C4F202030022186860
:1029480040F0010119609A60186843F2100120F004
:10295800847C2CF48030C2F20041186059601868F9
:1029680082B020F480211960DA6000920192186820
:1029780040F480321A601A4603E00098B0F5A04F80
:1029880009D0116801F4003301930098411C0091AB
:10299800019B002BF1D04FF4605CC4F2020CDCF810
:1029A800002012F4003323D0012301930199012957
:1029B80022D04FF46052C4F202024FF440509168A2
:1029C800C5F2000021F400039360C2F88400116886
:1029D80041F08063136010680301FCD54FF46D4C1F
:1029E800CEF2000C4FF00062CCF8082002B070471D
:1029F800019301990129DCD14FF46050C4F202001F
:102A08004FF4E04C016CC4F2000C41F080530364B5
:102A1800DCF8002042F44041CCF800108368836061
:102A2800816841F400428260836845F2084243F4B9
:102A3800A051C0F2407281604260036843F0807226
:102A48000260014608684FF460538201C4F2020331
:102A5800F8D54FF4705CC4F2020C40F20561CCF872
:102A680000109A6822F003009860996841F0020209
:102A78009A609A6802F00C000828FAD199E700BF1A
:102A8800C0EB001044F62512C100C2F29242A2FB2C
:102A98000123C81A03EB5002920802F00101012336
:102AA8003AB111B102239A4204D302339A42FCD2BA
:102AB80070477047704700BF10B4C478F4B900EB92
:102AC800820003339B10D0F8D00017D00C685A1E30
:102AD800046002F00104012293420FD024B14C6833
:102AE80002229342046009D051F822400132046066
:102AF80051F82240013293420460F5D1002010BC05
:102B0800704700BF0332921030B4D0F8D04019D0CB
:102B18002068531E086003F0010001239A420FD079
:102B280020B1206802239A42486009D0256841F8FC
:102B38002350581C256802339A4241F82050F5D199
:102B480001EB8201084630BC704700BF00B583B076
:102B580000230193019A42F020030193019A61F343
:102B68008A120192019BC268136111694FF4546380
:102B78000191C0F2030308E01169019101988106EF
:102B880009D51169013B019105D0019810F0200F7A
:102B980003F1FF33F0D10320FFF772FF002003B0E9
:102BA80000BD00BFC068436913F0010F14BF0020C7
:102BB80001207047C3685A6998691040704700BF80
:102BC80001698B68C3F341014B1E022B9ABF024A6D
:102BD800D05C0320704700BF245000080369826955
:102BE80098681168C0F34100022808D06FF30A0101
:102BF8001160596841F480725A60002070470320C0
:102C080060F30A011160596841F480725A6000202B
:102C1800704700BF70B44B780022012B26D00B7888
:102C280000EB8304012505FA03FC646D6CF31F4275
:102C38002368C3F3072505F0800C5FFA8CF575B996
:102C48008E68CD78B1F806C066F30A0365F393433E
:102C58006CF3995343F0805343F4004121600069B9
:102C6800C1690A43C261002070BC70470C7800EB50
:102C7800840503FA04F363F30F02AC69D8E700BFD5
:102C88002DE9F0014B78012B44D00C784D6900EB0D
:102C980084077B6D1F681A693E460DB3D1F808C0DA
:102CA80005EB0C04013CB4FBFCF4A405A40D64F38F
:102CB800DC420CFB04F464F312021A61C278012AA4
:102CC80018D0CA78012A1FD091F800C000EB8C00F8
:102CD80046F00446416D0E600020BDE8F0017047E3
:102CE8008C6864F31202012464F3DC421A61C2782E
:102CF800012AE6D10B780A6900EB830CDCF8543022
:102D08005A61CA78012ADFD14E79002E76D047F071
:102D18000056D9E70D784A6900EB8504A5692F6844
:102D28002C693E46002A64D08B6891F803C002EBF8
:102D3800030808F1FF3862F31204B8FBF3F363F3F6
:102D4800DC44BCF1010F08BF6CF35E742C6190F891
:102D580003C0BCF1010F5DD091F803C0BCF1010FB5
:102D68004FD05AB103690C785D6B4FF0010C0CFA27
:102D780004F42C435C63CB78012B42D00B7800EB36
:102D8800830C46F00446DCF818301E60CB78012B23
:102D9800A2D1C578CC680978002D9DD192B200EBFC
:102DA800810003329210D0F8D01095D02568501EBB
:102DB800012A0D6000F001008ED020B16068022366
:102DC8009A42086088D054F823000133086054F808
:102DD800230001339A4208603FF47EAF54F8230081
:102DE8000133086054F8230001339A420860EAD19D
:102DF80072E762F3120463F3DC44A7E747F08056F6
:102E080062E703699E68F60554BF47F0005647F02D
:102E18008056B3E70B780C6900EB830CDCF81830AC
:102E28005C61A8E7F0B44B78012B82B030D00B7806
:102E38004E6900EB8304636D1A681D6900950EB333
:102E48008E689DF800509DF802404E6166F30605B5
:102E5800012666F3C4048DF800508DF80240009CEA
:102E68001C6190F803C0BCF1010F41D091F800C07B
:102E780000EB8C0042F00441426D1160002002B06A
:102E8800F0BC70479DF800509DF802408E68DDE761
:102E980082694C69156816690096002C30D08B68D9
:102EA8009C4242D99DF800404B6163F306048DF8BB
:102EB80000409DF802C0012464F3C40C8DF802C0E0
:102EC800009B1361C378012B27D045F0044313609E
:102ED800C278002AD2D14A69002ACFD003690A7879
:102EE800596B012000FA02FC4CEA01005863C5E75F
:102EF8000B780C6900EB830CDCF854305C61B5E7A7
:102F08009DF800709DF8026064F3060763F3C40639
:102F18008DF800708DF80260D2E70B780C6900EB31
:102F2800830CDCF818305C61CFE79DF8003064F35F
:102F380006038DF80030BCE74A780B78012A00EBCD
:102F4800830006D0416D086840F400120A60002032
:102F5800704782691368C3F3076C0CF08000C1B234
:102F680009B143F0804343F4001313600020704715
:102F780091F801C00B78C978BCF1010F00EB830C04
:102F88000CBFDCF81820DCF85420881E1368C1B286
:102F98006FF35553012998BF43F080531360002005
:102FA800704700BF03699A69D96901EA0200000CF9
:102FB800704700BF00EB810C0269DCF854108B6885
:102FC80050691840704700BF02699169D36901EAE6
:102FD800030080B2704700BF82B0012200230021A5
:102FE800009362F3C4011823C0228DF803208DF8E2
:102FF80002108DF80030436D00991961C278012ADA
:1030080007D100F5B8610C3159614FF080201A687A
:10301800186002B0704700BF837A63B10269916893
:10302800C90708D5D0F80C31D0F80C016FF341036B
:103038006FF300030360704738B501F07F05CCB229
:1030480005EB850100EBC10114F0800F14BF01F5F9
:103058008E7101F55D71EDB2E4090D704C708A60F6
:10306800CB7004B1CD80022B01D100230B71FFF787
:10307800D1FD002038BD00BF70B501F07F0404EB1E
:10308800840100EBC10505F55D710026E4B285F801
:103098007443CA604B618E614E70C378012B05F58D
:1030A8005C7508BF0A611CB1FFF7EAFD002070BD1E
:1030B800FFF7B8FE002070BD70B501F07F0404EB87
:1030C800840100EBC10505F58E71E4B20126CA60E2
:1030D8000A61002285F81C414E7005F58C758A61DD
:1030E8004B611CB1FFF7CCFD002070BDFFF79AFEC5
:1030F800002070BDCAB2130610B511D401EB810EC1
:1031080000EBCE0C0CF55D73D20901F07F010124B0
:1031180019709C705A701946FFF70EFF002010BDF9
:1031280001F07F0101EB810400EBC40303F58E730A
:10313800D209012419709C705A701946FFF7FCFED9
:10314800002010BDCAB210B5140611D401EB810ECF
:1031580000EBCE0C0CF55D7301F07F010024D20961
:1031680019709C705A701946FFF702FF204610BD6F
:1031780001F07F0101EB810400EBC40303F58E73BA
:10318800ECE700BF03690022186861F30A120243E2
:103198001A6070472DE9F04F85B00446FFF702FD2D
:1031A80010B905B0BDE8F08F2046FFF703FD804653
:1031B8000028F6D0C0F3074101F00800C0B200288B
:1031C80040F0D980C8F3074E0EF0040C5FFA8CF279
:1031D800002A5FD108F00202D1B211B1E3680221DE
:1031E8005961C8F3076E0EF08001CAB292B1A07A95
:1031F800002840F0B6812369AB4A5968106821F06D
:1032080001015960826920469047E0684FF000410B
:1032180041610120C8F3072202F00801CBB2002B5C
:1032280040F0248108F0080E5FFA8EF2002A40F080
:10323800138108F01001CBB2002B40F0E580C8F3F1
:10324800072202F01001CBB2002B40F02F81C8F307
:10325800072E0EF0200C5FFA8CF1002940F06981EE
:10326800C8F3074101F01002D3B2002B40F0568199
:10327800C8F3074101F02002D3B2002B91D08A484D
:10328800016820460A6A9047E3684FF400105861C5
:10329800012086E72046FFF797FE8246002800F0C7
:1032A800A48127464FF0000BCDF804802AE005F0F2
:1032B8000801CBB213B1B8690825856005F0100E76
:1032C8005FFA8EF212B1BB6910259D6005F04000CF
:1032D800C1B211B1BA694025956005F00201CBB2BF
:1032E80013B1B8690225856005F0800C5FFA8CF58A
:1032F800002D40F0818104375FEA5A0A0BF1010B77
:1033080000F0B6811AF0010FF5D023695FFA8BF847
:1033180019695A6B04EB880E22FA08F5DEF81800D2
:10332800ED0182685FFA85FC4CEA010000EA0205BB
:10333800EDB2EA07BBD55A6B012505FA0BF640F248
:103348004C0C22EA0600C2F2000C5863DCF80010AC
:10335800BB694E689D6020464146B047E678AE425C
:10336800A5D1BBF1000F04D194F81151042D00F040
:103378003E8135469BE72046FFF714FE05460028A8
:1033880000F03181DFF820B1A14626460027C24669
:1033980006E0013704366D0809F1280900F06C8150
:1033A800E807F6D55FFA87F841462046FFF702FEA0
:1033B800C0B2C10713D5736D01209860E278012A65
:1033C80000F06981DBF8001020460B6841469847F9
:1033D80094F80380B8F1010F00F05181012000F04A
:1033E8000201CBB213B1726D0220906000F00803A5
:1033F800D8B20028CDD0DBF8001020468B6898475B
:10340800726D08219160C4E7E368986920F010059F
:103418009D611D6A05F00F0C0CEB8C0204EBC206D3
:10342800C5F34342022A06F55D7600F0A480062A19
:103438000CD104F5B86108220C312046FFF762FB75
:10344800B069E368C5F30A154219B2619A6942F096
:10345800100199610120F2E6134802682046D168FC
:103468008847E368082058610120E2E60E4B94F88B
:1034780012011A6800218DF80F1053698DF80F009A
:10348800204698472169E36889684FF400625A61C9
:10349800A07A30B1CB0704D594F81501012800F0C3
:1034A80089800120BEE600BF4C00002023695968CE
:1034B800002521F00100586029462046FFF746FB09
:1034C800667866B104F114022B46FF2152F8046FA6
:1034D800B160D06B816066780133B342F6D30126C0
:1034E800236966F30F050B204FF0FF3266F31F4583
:1034F8009A61DD615861186119686FF30A111960E2
:103508002046FFF769FD684AE06813684FF4805168
:1035180041611A6920469047304698E6624801683A
:103528002046CA699047E3684FF48010586101202B
:103538009EE62046FFF752FBE5682046ED68FFF758
:103548003FFB03282DD0012040230521A070A38034
:1035580061F38D25E1684FF40052CD6001204A6186
:103568007EE6D4F80C31D4F80C216FF341036FF3E5
:10357800000313603FE647F6F07E05EA0E010029D6
:103588003FF464AFC5F30A152A46F1682046FFF7F1
:10359800B9FAF168B069E3684A194519F260B5618A
:1035A80054E700224FF400700923A270A08063F34F
:1035B8008D25CFE79DF80F30032B7FF433AED4F879
:1035C8000C21116841F00105156015684FF46D4C28
:1035D800CEF2000C2B431360DCF8101041F0060209
:1035E800CCF810201EE60120ECE50120F2E520468B
:1035F800FFF7F2FC35465AE60BEB8B0504EBC506E4
:1036080006F58E75B9696A69A869AB68D1F818902A
:10361800161A9E4234BFB4469C460CF1030E1FFA9C
:1036280089F9B9EB9E0F20D982421ED9EAB1E9681F
:103638001A4604E06E69B34216D2AA68F61A964290
:1036480028BF1646B3B242462046FFF735FAEB6864
:10365800AA699919B318E960AB61BA699069033628
:1036680080B2B0EB960FE5D811468020886042E61C
:10367800DDF804800120ADE5D0460120A2E51FB9A0
:1036880094F81121052A01D04046A8E62046FFF704
:10369800A3FC4046A3E61869D9F87C23C0F31201BD
:1036A800531AC9F88C338DE64C000020D0F8E81581
:1036B80010B5044608698047032384F812310020B6
:1036C80010BD00BF08B590F81231D0F8E81580F8A1
:1036D8001331042280F81221CB689847002008BDD6
:1036E80008B5D0F8E435DB6903B19847002008BD78
:1036F800024608B5D2F8E4150B6A9847002008BDC1
:10370800024608B5D2F8E4154B6A9847002008BD70
:10371800002110B5402204460B46FFF78DFC80219E
:10372800402200232046FFF787FCD4F8E815A0784C
:10373800012284F812214B689847002010BD00BF71
:1037480010B582B06946044600F036FB9DF80010BB
:1037580001F01F03012B15D0022B0ED043B121F02D
:103768007F01C9B22046FFF7C5FC002002B010BD9A
:103778002046694600F004F9F7E72046694600F05C
:10378800A3FAF2E72046694600F07AFAEDE700BFAF
:1037980038B5044649B990F81131022B1BD094F87A
:1037A8001621012A0ED0002038BDD0F8E40543695F
:1037B800002BF8D094F812C1BCF1030FF3D12046C6
:1037C8009847F0E7224A236910680021586084F876
:1037D8001611002038BDD0F83821D0F824319A428B
:1037E80010D9C1780129D0F82811C3EB020208BF0B
:1037F800C918C0F8382108BFC0F8281192B200F0E3
:103808008BF8CCE7D0F83C21B2FBF3F503FB152588
:103818006DB993420BD8D0F84001824207D22046B6
:1038280029462A4600F078F8C4F84051B7E7D4F89A
:10383800E435DB6823B194F812C1BCF1030F03D05F
:10384800204600F08DF8AAE720469847F8E700BF21
:10385800D00B002010B5044629B990F81131032B7C
:103868000CD0002010BDD0F8E4359B69002BF8D0AF
:1038780090F81221032AF4D19847F2E7D0F8902360
:10388800D0F87C339A4212D9C1780129D0F8801334
:10389800C3EB020204BFC918C0F88013C0F8902314
:1038A8009A4228BF1A4692B200F040F8D9E7D0F8F9
:1038B800E405036923B194F812C1BCF1030F03D0E6
:1038C800204600F03DF8CCE720469847F8E700BFCF
:1038D800D0F8E43510B504461A689047D4F8E805DE
:1038E80083689847002010BDD0F8E42508B55368D0
:1038F8009847002008BD00BF08B513460A460221B4
:10390800C0F83C31C0F8383180F811110021FFF7B8
:10391800D3FB002008BD00BF10B50C46134600219C
:103928002246FFF7C9FB002010BD00BF10B50C46AA
:10393800134600212246FFF79FFB002010BD00BF61
:1039480010B50446002104200A460B4684F81101EC
:103958002046FFF7B1FB2046FFF73EFB002010BDD5
:1039680010B50446002105200A460B4684F81101CB
:103978002046FFF781FB2046FFF72EFB002010BDF5
:1039880070B54B7882B00D460446092B13D8DFE892
:1039980003F020331248125E7D129305A978A04DDA
:1039A8000229297007D890F81231022B00F03E81C5
:1039B800032B00F0C88080212046FFF79BFB2046A0
:1039C8000021FFF797FB2046FFF706FB002002B017
:1039D80070BD90F81221911E0129ECD8914BD0F8B6
:1039E80018010021196008B102221A6020468D4989
:1039F8000222FFF781FFE9E790F81231981E0128AB
:103A0800D9D86A88012AE1D1D4F8E41500208B6856
:103A1800C4F818012046294698472046FFF790FF2A
:103A2800D4E76B88012B00F01781022BCED1AB882D
:103A380013F0FF0FCAD11A0A0169531E4A68042BF2
:103A480000F2A480DFE803F0ABB3AFB79F00A8880B
:103A58000028B0D1EE88002EADD194F812C16D883F
:103A6800BCF1030F00F0838005F07F05204684F841
:103A780014512946FFF786FB2046FFF761FF002D0A
:103A880000F0E680022384F812319FE76A88110A61
:103A9800481E06288FD801A151F820F02F3B0008B6
:103AA800F53A0008E33A0008BF390008BF390008B2
:103AB800BF390008BF390008EA88012A7FF47BAFC4
:103AC80090F81231022B00F0BF80032B7FF473AF04
:103AD80000F58871FFF710FF78E7D0B205283FF6A8
:103AE8006AAFDFE800F0948C847C746CD4F8E41539
:103AF800A0788B6A01A99847022242700146C4F84F
:103B0800F005BDF80430002B3FF460AFEA88002AC6
:103B18003FF45CAF934238BF1A462046ADF8042004
:103B2800FFF7EAFE52E7D4F8EC35A0781A6801A945
:103B38009047EA88402A014603D094F812010128E8
:103B4800DFD10823E3E7002900F08C8090F81031DA
:103B5800994220D01946FFF7C7FE2978204684F8F5
:103B68001011FFF7B5FE2046FFF7EAFE2EE7802189
:103B78002046FFF7BFFA20463146FFF7BBFA20463A
:103B8800FFF72AFA22E7052363F3061226490A609B
:103B9800012284F816212046FFF7D2FE16E70120FD
:103BA80060F30612F2E7032161F30612EEE702233F
:103BB80063F30612EAE7042060F30612E6E7D4F896
:103BC800EC15A0788A6901A99047014699E7D4F8CD
:103BD800EC35A0785A6901A99047014691E7D4F8D5
:103BE800EC15A0780B6901A99847014689E7D4F834
:103BF800EC25A078D36801A99847014681E7D4F855
:103C0800EC15A0788A6801A99047014679E7D4F8AD
:103C1800EC35A0785A6801A99047014671E700BFC2
:103C2800F4040020F0040020D00B00200029B2D0BA
:103C380080F81011032084F812012046FFF748FE8F
:103C48002046FFF77DFEC1E60C49FFF755FEBDE6AD
:103C5800012284F81221B9E6D0F8E405C4F8183135
:103C68008368D7E6022380F8123180F81011FFF735
:103C78003BFE2046FFF764FEA8E600BFFC040020D8
:103C880038B590F81231032B04460D460CD080212C
:103C98002046FFF72FFA20460021FFF72BFA20468F
:103CA800FFF79AF9002038BD08790128EFD8D4F831
:103CB800E43520469A689047E9880029F2D12046E1
:103CC800FFF73EFEEEE700BF38B54B78012B0C46F8
:103CD800054609791CD003D3032B25D0002038BD15
:103CE80090F81231022B17D0032B23D10B0653D493
:103CF80001EB810200EBC20393F87633002B55D118
:103D08002C4A136028462B490222FFF7F5FDE5E708
:103D180090F81231022B1AD10029DFD08029DDD08A
:103D28002846FFF7E7F9D9E790F81231022BF3D0CC
:103D3800032B20D080212846FFF7DCF900212846F4
:103D4800FFF7D8F92846FFF747F9002038BD032BBD
:103D5800F0D16388002BC1D149B1802907D0FFF782
:103D6800F1F9D5F8E41528468A682146904728468F
:103D7800FFF7E6FDB2E7638823B919B1802901D0BE
:103D8800FFF7B8F9D5F8E405214682682846904738
:103D98002846FFF7D5FDA1E701F07F0E0EEB8E0058
:103DA80005EBC00C9CF81E31002BA9D0014801215D
:103DB8000160A7E7F804002090F8CC250A7090F875
:103DC800CD354B7090F8CF2590F8CE3503EB022C0B
:103DD800A1F802C090F8D12590F8D03503EB022C59
:103DE800A1F804C090F8D32590F8D23503EB022C43
:103DF8001FFA8CF20123CA80C0F8402180F81131E3
:103E0800704700BFC37830B47BB900784FF4614C79
:103E1800410900F01F02CEF2000C2031012303FA01
:103E280002F04CF8210030BC70474FF46D45CEF2DB
:103E380000054278EC6885780178E343C3F3022CE7
:103E4800CCF10404E3B202FA03F40F2242FA0CF3B1
:103E580003EA050CE4B24FF461434CEA0402CEF2E3
:103E6800000301EB030C1201D1B28CF800130278A5
:103E78004FF4614C5109CEF2000C02F01F030120EF
:103E880000FA03F24CF82120CDE700BFD0F804C0B7
:103E98000B684A792CF0407CF0B42CF4807C0D79C6
:103EA800CF680C698E684CEA030343EA0525456030
:103EB80085684FF2FD7CCCF2FF0C3C4305EA0C030D
:103EC800344344EA030C4CEA420383600A7DC16A26
:103ED800531E21F47002D9B242EA0153C362F0BC06
:103EE800704700BF002101230160017141718160A9
:103EF800C16001610375704770B44FF40C5290E8CB
:103F08004200C4F2010285685468C06846EA010CA0
:103F180043F2E003CFF6FC734CEA0501014304EADF
:103F2800030C41EA0C03536070BC7047836819B9ED
:103F380023F001018160704743F0010383607047FB
:103F4800092970B421D901EB41041E3CC668072534
:103F580005FA04F526EA050503FA04F445EA04031C
:103F6800062AC36020D90C2A02EB82022BD9C46A24
:103F7800413A1F2303FA02F324EA030C01FA02F27E
:103F88004CEA0201C16270BC7047066901EB41044A
:103F9800072505FA04F526EA050503FA04FC45EAAF
:103FA8000C03062A0361DED8013A446B02EB820C4B
:103FB8001F2303FA0CF224EA020301FA0CF143EA84
:103FC80001024263DFE7046B233A1F2303FA02F37B
:103FD80024EA030C01FA02F24CEA02010163D2E777
:103FE800816841F080438360704700BFC06C80B235
:103FF800704700BF036819420CBF002001207047BA
:1040080070B491E860004FF4E8438C68CA68C4F261
:10401800000335432C431E6840F6FE7101FA00F593
:10402800224326EA050502FA00F145EA0100186074
:1040380070BC70474FF4E843C4F200031A6831B902
:10404800012101FA00FC22EA0C021A6070470121E2
:1040580001FA00F141EA02001860704782B04FF49B
:10406800E843C4F20003002201920193019A083246
:1040780010180190019B196002B07047016846F260
:104088001002002321F00101C4F202020160036062
:1040980043608360C36003612123904243616AD017
:1040A80046F22802C4F2020290426CD046F2400264
:1040B800C4F2020290426ED046F25801C4F20201E4
:1040C800884271D046F27001C4F20201884273D06E
:1040D80046F28802C4F20202904277D046F2A00269
:1040E800C4F2020290423CD046F2B801C4F2020186
:1040F80088427DD046F21041C4F2020188427FD046
:1041080046F22842C4F20202904200F0818046F250
:104118004042C4F20202904200F0828046F25841C6
:10412800C4F20201884200F0848046F27041C4F271
:104138000201884200F0858046F28842C4F20202F9
:10414800904200F0888046F2A042C4F202029042F7
:1041580000F08B8046F2B841C4F2020188423FD099
:1041680070474FF4C04CC4F2020C0020C2F23D006C
:10417800CCF80C0070474FF4C04CC4F2020C3D2040
:10418800CCF8080070474FF4C043C4F202034FF460
:104198007461996070474FF4C04CC4F2020C4FF43C
:1041A8007410CCF8080070474FF4C043C4F20203FF
:1041B8004FF074629A6070474FF4C04CC4F2020C1E
:1041C8003D20C2F20000CCF80C0070474FF4C04309
:1041D800C4F202034FF47461C2F20001D96070475F
:1041E8004FF4C843C4F202034FF03D52DA60B7E718
:1041F8004FF4C043C4F202034FF03D52DA607047F7
:104208004FF4C84CC4F2020C3D20CCF808007047AB
:104218004FF4C843C4F202034FF4746199607047C5
:104228004FF4C84CC4F2020C4FF47410CCF80800D8
:1042380070474FF4C843C4F202034FF074629A60A7
:1042480070474FF4C84CC4F2020C3D20C2F2000083
:10425800CCF80C0070474FF4C843C4F202034FF483
:104268007461C2F20001D96070474FF4C84CC4F2BF
:10427800020C0020C2F23D00CCF80C00704700BFD1
:104288002DE9F00F0368D1F80090D1F80CA0D1F80F
:104298001480D1F818C0CF690E6A4D6A8C6A4A6BCF
:1042A800D1F838B086B001930B6B0493CB6A0593B1
:1042B8000B6902934B68896803934AEA090343EA46
:1042C800080343EA0C033B4343EA060949EA0505A8
:1042D80045EA040C4CEA020348F23F08019ACFF27F
:1042E8001C0843EA0B0502EA080845EA08040460CA
:1042F8004369049A059C23F0070542EA040C4CEA3A
:104308000502039B029D426145608360C16006B05F
:10431800BDE8F00F704700BF036819B923F0010129
:104328000160704743F0010303607047006800F0C4
:104338000100704710B44FF4C84246F20F444FF4DE
:10434800C04CC4F20202C4F20204C4F2020CA0423D
:1043580088BF94468A0040F67D704CBFDCF8042084
:10436800DCF80020C0F67D7001EA000313420CBFA0
:104378000020012010BC704730B44FF4C84246F208
:104388000F444FF4C043C4F20204C4F20202C4F260
:104398000203A04288BF1346880007D440F67D7503
:1043A800C0F67D750D409D6030BC704740F67D7C41
:1043B800C0F67D7C01EA0C00D860F5E70B0604D551
:1043C80043697AB143F080034361802906D00368CA
:1043D80001F01E011AB923EA01020260704719436D
:1043E8000160704723F080034361EEE7837970B47E
:1043F80043B34FF47053C4F2010301681E68027995
:104408004579CC4326401E605E6802F1804C0CF56D
:104418009E3234405C6014682143116002689868D9
:10442800D14308409860D868102D01EA0001D9608E
:1044380016D005F1804505F59E35286840EA020347
:104448002B600BE00279016802F1804000F59E3C88
:10445800DCF8003023EA0102CCF8002070BC704779
:10446800996841EA02009860D96841EA0200D86078
:10447800F4E700BF4FF47053C4F20103586170476A
:104488004FF47053C4F202031A69002A09DA40F2A1
:10449800231148F6AB10C4F26751CCF6EF505960BF
:1044A8005860704782B04FF470530920C4F2020379
:1044B8008DF80700DA68D20336D4D968C80623D540
:1044C80006238DF807309DF80710012918D14FF4FD
:1044D8007053C4F2020309E0D868C00619D5062251
:1044E8008DF807209DF80710012909D1DA68D20351
:1044F800F2D501228DF807209DF807100129F5D083
:104508009DF8070002B07047DA68D10515D5022377
:10451800D7E7D968C90501D50222E1E7DA6812F0C0
:10452800EF0F03D00722DBE70123CAE7D86810F0B2
:10453800020F0CBF09220822D2E7D86810F0EF0F4B
:1045480001D00723BDE7DB6813F0020F0CBF092376
:104558000823B6E770B504460E46FFF7A3FF0928FF
:1045680000D070BD4FF47055C4F202052A6922F4D8
:1045780040702861296941F400732B612A6942F06F
:10458800010028612660FFF78DFF296921F00103EA
:104598002B6170BD70B5054600292ED0012932D097
:1045A800022914BF4FF440764FF40076FFF77AFFE4
:1045B800092827D14FF47054C4F20204206920F46A
:1045C80040732361226916432661216921F0F800AE
:1045D8002061236943F0020215432561216941F4F2
:1045E80080302061FFF75EFF236923F00202226119
:1045F800216921F0F803236170BD0E46FFF752FFD1
:104608000928D7D070BD4FF48076F7E72DE9F00F71
:1046180084B000230A6800911C464FF0010C05E0A5
:10462800B04541D06C1CBB1C102C60D00CFA04F7B0
:10463800651C07EA02090CFA05F6B94506EA0208FC
:1046480003F10207ECD10168DDF800B00191032104
:1046580001FA03F16FEA010A01999BF804B0CDF859
:1046680008A00AEA010AC0F800A001680BFA03FAD8
:104678000BF1FF3B5FFA8BFB4AEA010ABBF1010F22
:10468800C0F800A037D9C4680099DDF808A091F8EF
:1046980007900AEA0401C160C46809FA03F141EA13
:1046A8000403B045C360BDD14FF0030A0668009902
:1046B8000AFA07F3DB430C791E400660066804FA21
:1046C80007F9013CE4B249EA0606012C06603AD92A
:1046D800C468CE7903EA0401C160C46806FA07F326
:1046E80043EA04016C1CBB1C102CC1609ED104B0B1
:1046F800BDE8F00F70470099D0F808A049790191FA
:10470800009989790391029901EA0A0BC0F808B067
:104718000199D0F808B001FA03F141EA0B0AC0F890
:1047280008A0D0F804A02AEA0909DDF80CA0C0F80E
:104738000490D0F804900AFA04FA1FFA8AF141EAC0
:10474800090444609FE7846891F8059003EA040629
:104758008A4689798660846809FA07F949EA04066D
:104768008660446824EA08064660466801FA05F44B
:10477800A1B20E4346605146AAE700BF0369194239
:104788000CBF0020012070470183704741837047A8
:104798000AB9418370470183704700BFCB080833CB
:1047A80001F00701890030B450F823500F2404FAAF
:1047B80001FC25EA0C0440F8234050F8234002FA93
:1047C80001F242EA040140F8231030BC704700BFF0
:1047D80008B54FF4A843C4F20003984218D04FF428
:1047E800B041C4F2000188421ED04FF4B842C4F26E
:1047F8000002904200D008BD01214FF4000000F0F3
:104808009DF94FF400000021BDE8084000F096B97A
:1048180001214FF4001000F091F94FF4001000212D
:10482800BDE8084000F08AB901214FF4800000F08B
:1048380085F94FF480000021BDE8084000F07EB9FA
:1048480070B5828884B0044668460D4622F03F065B
:1048580000F0ECF802982A684DF68363C4F21B3323
:104868003604A3FB0031360C890C41EA0603A38009
:10487800B4F800C02CF00106330448F2A066C0F278
:1048880001061B0CB242238029D85300B0FBF3F079
:1048980080B201312184032898BF0420A083238893
:1048A800B5F804E029896E89AA891FFA83FC4CF0BF
:1048B80001002080238823F4806C2CF00A00030474
:1048C8001B0C46EA0E0043EA000C41EA020E1FFAEE
:1048D8008CF01FFA8EF12080218104B070BDB5F8EC
:1048E80006C04BF6FF7EF44521D002EB820E0EEB9C
:1048F8008E06B0FBF6F398B240F4804003051A0D1B
:104908000AB940F001004FF4967344F6D35603FBFE
:1049180001F2C1F2620686FB02236FEA40409E095B
:104928006FEA504C711C1FFA8CF02184B6E702EB39
:104938004202B0FBF2F6B0B2E0E700BF038829B943
:1049480023F001010B041A0C0280704799B241F060
:1049580001030380704700BF038829B923F48071DD
:104968000B041A0C0280704799B241F480730380DB
:10497800704700BF038829B923F400710B041A0C8F
:104988000280704799B241F400730380704700BFFA
:104998001AB901F0FE010182704741F0010101825C
:1049A800704700BF038829B923F480610B041A0CEF
:1049B8000280704799B241F480630380704700BF5A
:1049C80001827047008AC0B2704700BFB0F814C0B7
:1049D800038B1FFA8CF242EA034000EA010C2CF028
:1049E8007F428B1A584240EB0300704782B0002385
:1049F8000A0F0093019301900092009B21F07F41E0
:104A080053B10198143001900198036819420CBF02
:104A18000020012002B07047019A1832090C019257
:104A2800F2E700BFCA4391B28182704710B44FF4D5
:104A38006053C4F202039A6802F00C02042A26D0DA
:104A4800082A2AD04FF41052C0F2F40202604FF440
:104A5800605CC4F2020C2349DCF80830C3F3031489
:104A68000B5D22FA03F24260DCF80840C4F38223AB
:104A7800CC5C22FA04F48460DCF80830C3F3423CCE
:104A880011F80C1022FA01F3C36010BC70474FF400
:104A98009052C0F27A020260D9E75C685A68596895
:104AA80014F4800F4FF4605C14BF4FF490534FF42C
:104AB8001053C4F2020C14BFC0F27A03C0F2F4031C
:104AC80002F03F02C1F38814B3FBF2F1DCF80430C2
:104AD800C3F3014201FB04F1541C6300B1FBF3F280
:104AE8000260B4E77C0000204FF46053C4F2020374
:104AF8001A6B19B922EA0001196370471043186349
:104B0800704700BF4FF46053C4F202031A6C19B91E
:104B180022EA00011964704710431864704700BF07
:104B28004FF46053C4F202035A6C19B922EA000127
:104B38005964704710435864704700BF4FF460537E
:104B4800C4F202031A6A19B922EA0001196270470D
:104B580010431862704700BF4FF46053C4F2020359
:104B68005A6A19B922EA000159627047104358621B
:104B7800704700BF08B54FF44053C4F20103984290
:104B88002AD04FF46051C4F20001884230D04FF46B
:104B98007052C4F20002904236D04FF4505CC4F216
:104BA800010C60453CD04FF4A043C4F20103984285
:104BB80042D04FF4A841C4F20101884200D008BD98
:104BC80001214FF40010FFF7C7FF4FF40010002138
:104BD800BDE80840FFF7C0BF01214FF48050FFF740
:104BE800BBFF4FF480500021BDE80840FFF7B4BF79
:104BF80001214FF48040FFF7A1FF4FF480400021CE
:104C0800BDE80840FFF79ABF01214FF40040FFF7C5
:104C180095FF4FF400400021BDE80840FFF78EBF24
:104C280001214FF40050FFF797FF4FF40050002187
:104C3800BDE80840FFF790BF01214FF48010FFF74F
:104C48008BFF4FF480100021BDE80840FFF784BFB8
:104C58002DE9F0070B88B1F802A0B1F80490B1F87B
:104C68000680B1F808C04F898E89CC890A8A0588E0
:104C78004AEA030343EA090141EA080343EA0C0C40
:104C88004CEA070141EA060343EA040C05F44151E2
:104C980041EA0C031FFA83FCA0F800C0818B21F4C1
:104CA800006319040B0C83830282BDE8F007704788
:104CB800838B8A6823F47A6C2DE9F0032CF01F07A4
:104CC8003D042C0C022384830384868B9A42B6B25B
:104CD80060D04FF46053C4F202038C889D68002CA6
:104CE8000CBF4FF020084FF040082D024DD44FF470
:104CF8006053C4F202034FF49055D3F884C0D3F83C
:104D08008470D3F80490CB8809F03F09C0F27A0583
:104D1800B5FBF9F5CCF3881C0CFB05F5C7F3027756
:104D2800B3F5007FB5FBF7F737D0B7FBF8FC0CEB12
:104D38008C077D00B5FBF2F77A1D92B24CF6CD4791
:104D4800CCF6CC47A7FB0275EA085508AF1EBFB2E0
:104D580002F00102FD2F94BF45EA02220222B1F8B7
:104D680000C04F888D8946EA0C0141F4006C4CEA7A
:104D7800070141EA050C1A431FFA8CF193B20C4360
:104D880003848483BDE8F00370479D6825F4000719
:104D98009F60ACE78C88CB88E1E73D0A05EB850787
:104DA8007D00B5FBF2F77A1D92B2C7E7038829B9EF
:104DB80023F040010B041A0C0280704799B241F0AD
:104DC80040030380704700BF838B29B923F48061B7
:104DD8000B041A0C8283704799B241F48063838371
:104DE800704700BF808980B2704700BF81817047DB
:104DF80083889BB21AB923EA01028280704719435B
:104E0800818070470123090903FA01F1838889B277
:104E18009BB222B923EA010CA0F804C0704741EA0A
:104E280003028280704700BF038919420CBF00202B
:104E38000120704730B44FF460538D08C4F2010369
:104E4800AA1C01F0030153F8225089000F2404FA28
:104E580001FC25EA0C0443F8224053F8224000FAEA
:104E680001F040EA040143F8221030BC704700BF4B
:104E7800C16270474163704781637047C16370477F
:104E88000164704710B4048C012303FA01FCA4B236
:104E980024EA0C030384B0F820C002FA01F242EAC3
:104EA8000C018BB2038410BC704700BF0146002080
:104EB8000246034600F016B838B5084D084C641B86
:104EC800A41006D005EB840555F8043D9847013C2D
:104ED800FAD1BDE8384000F0ADB800BF5050000826
:104EE800545000082DE9F041274C2568D5F8484171
:104EF80084B00646002C42D060681F281DDD234878
:104F080010B94FF0FF301FE04FF4C87003910292C0
:104F18000193AFF300800399029A019B044600288D
:104F2800EFD0D5F84801002784E88100C5F848414A
:104F38003846C4F88871C4F88C7146B9831C0130AE
:104F480044F823106060002004B0BDE8F081D4F874
:104F580088C1012504EB800805FA00F54CEA050C28
:104F6800022E4746C8F88820C4F888C1C8F8083116
:104F7800E4D1D4F88C311D43C4F88C51DEE705F533
:104F8800A674C5F84841B7E72C5000080000000097
:104F9800024B13B10248FFF789BF704700000000B9
:104FA800C14E0008080000000800000008000000CA
:104FB8000800000000100020004000800000B4102D
:104FC8002021FB30FF3FEB4D815A8B65D96E40762F
:104FD800A27BE67EFF7FE67EA27B4076D96E8B655C
:104FE800815AEB4DFF3FFB302021B41000004CEFFD
:104FF800E0DE05CF01C015B27FA5759A2791C0895B
:105008005E841A8101801A815E84C0892791759A0D
:105018007FA515B201C005CFE0DE4CEF020102000A
:105028004300000090000020F8B500BFF8BC08BCA1
:105038009E467047F8B500BFF8BC08BC9E4670474E
:08504800994F0008AD010008BA
:0450500089010008CA
:10505400000C0240000C0240000C0240000C024014
:10506400000002400000402000000024000000284E
:105074000C3C004000000022000020000000002141
:10508400B86002402F00000001000000FFFF000094
:1050940000C01200001000001800000050000020A2
:1050A4005D3800089937000849370008E9360008D8
:1050B40019370008CD360008B5360008F93600085F
:1050C4000937000800000000000000000000000094
:1050D400010203040102030406070809000000009A
:1050E400000000007C030020E40300204C040020A6
:1050F40000000000000000000000000000000000AC
:10510400000000000000000000000000000000009B
:10511400000000002850000800000000000000000B
:10512400000000000000000000000000000000007B
:10513400000000000000000000000000000000006B
:10514400000000000000000000000000000000005B
:10515400000000000000000000000000000000004B
:10516400000000000000000000000000000000003B
:10517400000000000000000000000000000000002B
:10518400000000000000000001000000000000001A
:105194000E33CDAB34126DE6ECDE05000B000000DF
:1051A40000000000000000000000000000000000FB
:1051B40000000000000000000000000000000000EB
:1051C40000000000000000000000000000000000DB
:1051D40000000000000000000000000000000000CB
:040000050800268940
:00000001FF
