:1000000016C030C02FC02EC02DC02CC02BC02AC09F
:10001000C2C03DC027C026C025C024C0F2C022C037
:1000200021C020C01FC04465746563742100112481
:100030001FBECFE5D4E0DEBFCDBF10E0A0E6B0E04C
:10004000EAE2F3E002C005900D92A037B107D9F7BC
:1000500010E0A0E7B0E001C01D92A437B107E1F7BE
:1000600002D061C1CDCFA49AAC9A8B98939A8AE1C1
:1000700060E013D174D005D098D07894AC98A7D014
:10008000FDCF85E083BF89B7816089BF08951F9246
:100090000F920FB60F9211242F933F934F935F93BC
:1000A0006F937F938F939F93AF93BF93EF93FF9340
:1000B00080916400882399F08091620090916300A0
:1000C00001979093630080936200019641F48091C0
:1000D0006000909161009093630080936200809132
:1000E0006900882399F080916700909168000197DA
:1000F0009093680080936700019641F480916500B9
:1001000090916600909368008093670080916E00E4
:100110008823A1F080916C0090916D0001979093DD
:100120006D0080936C00019649F480916A00909173
:100130006B0090936D0080936C0040D0FF91EF9125
:10014000BF91AF919F918F917F916F915F914F91EF
:100150003F912F910F900FBE0F901F901895B99A55
:100160008FB582688FBD89E18EBD8FE891E097BD24
:1001700086BD88EC90E09BBD8ABDA09880E687B9DB
:1001800088EC86B91FBC1EBC86B1806686B982E049
:100190008093720008951F920F920FB60F92112450
:1001A0000F900FBE0F901F9018958FB582688FBD6E
:1001B00089E18EBD08951FBC1EBC08951FBC1EBCE6
:1001C00086B1806686B982E080937200089580913E
:1001D00072008230A9F081E08093720086B180665F
:1001E00086B98FB582688FBD89E18EBD80E02AE92E
:1001F000922F9A95F1F78F5F8F3FD1F71FBC1EBCEE
:1002000008951F920F920FB60F9211242F933F93D0
:100210004F935F936F937F938F939F93AF93BF930E
:10022000EF93FF9395B1809172008130D1F08230CD
:1002300019F580917000292F30E0280F311D359578
:10024000279520937000809171008F5F80937100DB
:100250008A3091F41092710010927200822F33D084
:100260000BC080917000891738F4981B9B3020F0E8
:10027000AC9A86E290E044D0FF91EF91BF91AF91AC
:100280009F918F917F916F915F914F913F912F91AE
:100290000F900FBE0F901F9018959BB1660F9D7F1A
:1002A000962B9BB99AB198619AB9529890B596E8F5
:1002B00090BD10BC89B9089560BD89B908958AB10F
:1002C000877E8AB908955D9BFECF8CB90895FC01A5
:1002D00080E090E070E006C020815D9BFECF31960B
:1002E0002CB9019686179707B8F30895FC0104C04E
:1002F0005D9BFECF31968CB980818823C9F7089524
:1003000003C05D9BFECF2CB9FC01019624912223F2
:10031000C1F708955D9BFECF8DE08CB95D9BFECF4C
:0A0320008AE08CB90895F894FFCF2D
:10032A000300000001C800000000C800000001002E
:00000001FF
