:1000000058C040C371C070C06FC06EC06DC06CC0BE
:100010006BC064C469C068C067C066C065C064C0A6
:1000200063C062C061C0090243000201008032095E
:100030000400000102020100052400100104240252
:1000400002052401030105240600010705830308B6
:1000500000FF09040100020A000000070501020870
:100060000000070581020800000403090422037749
:1000700000770077002E0072006500630075007243
:1000800000730069006F006E002E006A007000109F
:100090000355005300420055004100520054001225
:1000A00001100102000008C016E105000101020074
:1000B000010011241FBECFE5D4E0DEBFCDBF10E0AC
:1000C000A0E6B0E0E2E9F9E002C005900D92A239A5
:1000D000B107D9F711E0A2E9B0E001C01D92A33742
:1000E000B107E1F702D053C48BCF53D110924D0129
:1000F000EFD3A59A789488D1CFD090919C00992382
:1001000099F08091670184FF0FC0923021F483E75A
:1001100090E068E003C08BE790E062E06DD18091F1
:100120009C00815080939C0023D08A3529F480E67E
:1001300090E023D1AD9ADFCF8234E9F685E690E0F6
:100140001CD1AD98D8CFFC018381813049F48FE96F
:1001500090E090934C0180934B0180919F00089513
:1001600086E290E090934C0180934B0183E40895E4
:100170009091E60080912F01891749F0E92FF0E076
:10018000E356FF4F80819F5F9F739093E600089531
:10019000FC012081822F80768032B9F49181892FF1
:1001A0008052823010F48FEF0895923239F48091AA
:1001B0009C00882319F482E080939C0027FD05C0F1
:1001C00081E08093920080E0089580E00895FC0132
:1001D00080E895E2A0E0B0E08093960090939700CD
:1001E000A0939800B09399001092930010929400FD
:1001F00028E02093950080838091970081838091EF
:1002000098008283809199008383148215822683CB
:1002100087E00895FC01808180939600818180931E
:100220009700828180939800838180939900248134
:1002300020939300958190939400868180939500FC
:10024000933010F010929400213011F4109293002A
:1002500081E00895DC010DC080912F01E82FF0E0CE
:10026000E356FF4F9D9190838F5F8F7380932F0193
:100270006150662389F7089580912F0181509091F4
:10028000E600891B8F730895809130018150909111
:10029000E500891B8F7308950F931F9380914D0183
:1002A00087FF0BC08091300181509091E500891B40
:1002B0008F73893010F010924D0180913C0184FFC2
:1002C0003AC0609130019091E500691721F4809166
:1002D0009200882381F1162F191B1F73183008F024
:1002E00018E0012F090F003480F00F73A7EEB0E083
:1002F000202F30E02A0F3B1F05C0FD01E05CFF4FBF
:100300008D918083A217B307C1F7892F90E089519F
:100310009F4F612F75D0909130018091E500981723
:1003200031F4183021F481E08093920002C01092E1
:1003300092000093E5001F910F9108951F93182FCD
:1003400003C062D0A9DFAD9A40913001E42FF0E004
:100350009F012F5F3F4F2F7330708091E50090E039
:100360002817390771F3AD98E951FF4F10834F5F9C
:100370004F73409330011F910895CF93DF93EC01A9
:1003800002C02196DBDF88818823D9F7DF91CF91E6
:10039000089585B7826085BF8BB780648BBF8BE47F
:1003A00080933D01809368018AE580933C018093AE
:1003B000670108951F93CF93DF93DC01162FEA01A5
:1003C000888184FF05C0898198E88927898302C0D4
:1003D0008AE58883AE014E5F5F4FFA01212F8D9130
:1003E00081932150E1F7CA01612F48D11C5F188326
:1003F000DF91CF911F91089547E651E0DBDF08952B
:100400004CE351E0D7DF08951F93CF93DF936091C2
:100410004D01635067FDB3C080914A01CCE0D0E04C
:10042000C81BD109CF5ADE4F80914901803118F4A1
:10043000CE0110DF9EC08D3209F08BC0683009F00C
:1004400098C083EC809331018AE580937D001092FF
:100450009A008881807621F0CE019ADE282F66C02E
:100460009A8110923A018981882321F410923B01EC
:1004700022E055C0853019F490934E014FC086306C
:10048000B9F58B81813041F48FE990E090934C0174
:1004900080934B0122E128C0823021F4CE0153DE4B
:1004A000282F22C08330F9F48A81882341F489E619
:1004B00090E090934C0180934B0124E015C0813073
:1004C00041F48DE690E090934C0180934B0122E241
:1004D0000BC0823041F48FE890E090934C01809300
:1004E0004B0120E101C020E080E480939A001EC00F
:1004F000883021F421E080E591E013C0893019F4BF
:10050000909350010BC08A3011F421E008C08B3069
:1005100029F48BE480933D018093680120E08AE315
:1005200091E090934C0180934B0109C02F3F39F427
:10053000888187FD2E8180E880939A0006C08F8194
:10054000882319F48E81821708F0822F80937E0011
:1005500010C080919A0087FF0CC0CE015BDE8F3FF8
:1005600021F48EE180937D0004C0882311F0109265
:100570007E0080914D01181614F410924D01809167
:100580007D0084FF58C080917E008F3F09F453C0E6
:10059000182F893008F018E0811B80937E0080912D
:1005A000310198E8892780933101112391F18091DD
:1005B0009A0087FF08C082E391E0612F08DE182FC0
:1005C000893098F526C020914B0130914C0186FF6F
:1005D0000DC0A2E3B1E080E090E0F901E80FF91F5F
:1005E000E491ED9301961817C1F708C0D901912F36
:1005F000E2E3F1E08D9181939150E1F71150812F69
:1006000090E01F5F0196820F931F90934C0180939F
:100610004B0182E391E0612F31D0612F6C5F6C3030
:1006200041F08FEF80937E0004C08FEF80937E00B7
:100630006EE160937D0094E180B38C7031F4915051
:10064000D9F710924E0110924801DF91CF911F917E
:100650000895A82FB92F80E090E041E050EA60951E
:1006600030E009C02D9182279795879510F0842757
:100670009527305EC8F36F5FA8F30895EADF8D9386
:100680009D930895CF93CFB7CF93DF93C395839B6B
:10069000E9F7839B11C0839B0FC0839B0DC0839B95
:1006A0000BC0839B09C0839B07C0839B05C0839BB2
:1006B00003C0839B01C086C06F93C0914A01DD27B0
:1006C000CF5ADE4F2F9320E400C065E0839B03C028
:1006D0002F916F91DECF0F931F934F9345E55F935B
:1006E00055E53F933BE014E000B30C702EC06A95D3
:1006F000C9F03150D8F100B30C7001130BC008944D
:100700002795299320E4555500F46A9569F701E08F
:1007100060B30BC0102F66E02695299320E4555551
:1007200018F3E2CF0FEF60B30000162F455500F02D
:10073000404066E01C700030E2F221F0000000B39F
:100740000C7003C000B30C70A9F0011309C0089429
:10075000279568F200C06A95A9F700E060B3E5CF7D
:10076000102F66E0269528F20000ECCF10E41ABFA7
:1007700000271CC03B503195C31BD04010E41ABF6A
:100780000881033C21F10B3411F1209148011981BA
:10079000110F1213EDCF4A81441F093669F10D3252
:1007A00011F0013E29F74F7009F0042F00934F011B
:1007B0003F915F914F911F910F912F916F91CAB708
:1007C000C6FD64CFDF91CF91CFBFCF911895209117
:1007D0004F01222369F310914D011123D9F53430D3
:1007E000DAF130934D012093490110914A013BE029
:1007F000311B30934A0130C000914D01013054F556
:100800000AE54F7049F430917D0034FD26C0009315
:100810007D00C1E3D1E025C0433049F030913C0177
:1008200034FD1BC000933C01CDE3D1E01AC03091F0
:10083000670134FD12C000936701C8E6D1E011C022
:10084000052710E000C002BB19C0052710E0221FD9
:1008500000C01DC04AE502C032ED432FC4E1D0E024
:1008600032E011B31C60939A02B311BB5CE020E844
:1008700069E420FF052702BB2795179500C00000FB
:100880001C3FF0F66695A8F7A1F720FF052702BBED
:100890002795179500001C3FC0F629913A9541F71E
:1008A000037F10914E01110F02BBC651D04011F0D1
:1008B0001093480110E41ABF086011B3137F402F52
:1008C000437F55E05A95F1F702BB11BB42BB70CF95
:1008D00083E083BF89B7816089BF08951F920F921B
:1008E0000FB60F9211242F933F934F935F936F9303
:1008F0007F938F939F93AF93BF93EF93FF938091D9
:100900008400882361F0809183008150809383006C
:100910008F5F29F48091820080938300BDDC8091F9
:100920008700882319F1809186008150809386008A
:100930008F5FE1F4809185008093860065DD909162
:100940009C00992399F08091670184FF0FC0923039
:1009500021F488E890E068E003C080E990E062E07C
:100960004BDD80919C00815080939C00FF91EF9122
:10097000BF91AF919F918F917F916F915F914F91B7
:100980003F912F910F900FBE0F901F901895F894E4
:02099000FFCF97
:100992004865792100596F752070726573736564BB
:1009A200204200A12000000000020003005AFF6460
:1009B2000000FF0000010001A12000000000020071
:0209C200030030
:00000001FF
