:100000000C942A000C9434000C9434000C943400AA
:100010000C9434000C9434000C9434000C94340090
:100020000C9434000C9434000C9434000C94340080
:100030000C9434000C9434000C9434000C94340070
:100040000C9434000C9434000C9434000C94340060
:100050000C94340011241FBECFE5D8E0DEBFCDBF25
:100060000E9436000C9452000C94000080E884BF7B
:1000700084BF87B3806387BB8DB180658DB9599884
:100080008AB188618AB9529880B586E880BD909A15
:1000900087E289B95F9BFECF8CB18CB95E9BFECFA6
:0800A0005E9AF8CFF894FFCF3F
:00000001FF
