:020000040800F2
:1000000040FD0020F1090008DD9800083D5A000875
:10001000358F0008952D0008F1F40008000000005D
:100020000000000000000000000000004501000882
:10003000213B00080000000079010008ADE4000841
:100040000B0A00080B0A00080B0A00080B0A00083C
:100050000B0A00080B0A00080B0A00080B0A00082C
:100060000B0A00080B0A00080B0A00080B0A00081C
:100070000B0A00080B0A00080B0A00080B0A00080C
:100080000B0A00080B0A00080B0A00080B0A0008FC
:100090000B0A00080B0A00080B0A00080B0A0008EC
:1000A0000B0A00080B0A00080B0A00080B0A0008DC
:1000B0000B0A00080B0A00080B0A00080B0A0008CC
:1000C0000B0A00080B0A00080B0A00080B0A0008BC
:1000D0000B0A000831EF00080B0A00080B0A0008A1
:1000E0000B0A00080B0A00080B0A00080B0A00089C
:1000F0000B0A00080B0A00080B0A00080B0A00088C
:100100000B0A0008D5B800080B0A00080B0A000803
:100110000B0A00080B0A00080B0A00080B0A00086B
:100120000B0A00080B0A0008E53000080B0A00085B
:10013000DFF80CD001F0C8F800480047CD130108E3
:1001400040FD00201A4B19680868B0E8F00F80F3F2
:1001500009884FF0000080F311884EF00D0E7047B3
:100160000000000003480068006880F3088862B659
:1001700000DF00BF08ED00E0EFF309800C4B1A68C8
:1001800020E9F00F106008B54FF0BF0080F3118830
:1001900012F0E8F94FF0000080F31188BDE8084044
:1001A00019680868B0E8F00F80F30988704700BF4D
:1001B000F00100204FF0BF0080F3118870474FF02E
:1001C000000080F31188704781FB002070470146D2
:1001D0004FF0000081EAE170A0EBE1707047000091
:1001E0002DE9F04F82B001904FF000744FF000788D
:1001F0004FF000054FF0000952F804CB52F804EB21
:100200000868CB6DC0FB0C45D1F88000CEF1000E24
:10021000C3FB0E45D1F8DC30C0FB0C89C3FB0E8953
:1002200052F804CB52F804EB48688B6DC0FB0C45C8
:10023000D1F88400CEF1000EC3FB0E45D1F8D830C2
:10024000C0FB0C89C3FB0E8952F804CB52F804EBB7
:1002500088684B6DC0FB0C45D1F88800CEF1000ECC
:10026000C3FB0E45D1F8D430C0FB0C89C3FB0E890B
:1002700052F804CB52F804EBC8680B6DC0FB0C4578
:10028000D1F88C00CEF1000EC3FB0E45D1F8D03072
:10029000C0FB0C89C3FB0E8952F804CB52F804EB67
:1002A0000869CB6CC0FB0C45D1F89000CEF1000E74
:1002B000C3FB0E45D1F8CC30C0FB0C89C3FB0E89C3
:1002C00052F804CB52F804EB48698B6CC0FB0C4528
:1002D000D1F89400CEF1000EC3FB0E45D1F8C83022
:1002E000C0FB0C89C3FB0E8952F804CB52F804EB17
:1002F00088694B6CC0FB0C45D1F89800CEF1000E1C
:10030000C3FB0E45D1F8C430C0FB0C89C3FB0E897A
:1003100052F804CB52F804EBC8690B6CC0FB0C45D7
:10032000D1F89C00CEF1000EC3FB0E45D1F8C030D1
:10033000C0FB0C89C3FB0E8901984FF4FE4E4EF0B2
:10034000FF0E4FEA946444EA85144FEAE47CBCEB68
:10035000E43F18BF8CEA0E044FEA986848EA89180F
:100360004FEAE87CBCEBE83F18BF8CEA0E0804803B
:10037000A0F8028002F5707201F580514FF0007410
:100380004FF000784FF000054FF0000952F804CB11
:100390000868D1F88030C0FB0C45C3FB0C8952F8CB
:1003A00004CB4868D1F88430C0FB0C45C3FB0C89F2
:1003B00052F804CB8868D1F88830C0FB0C45C3FBE9
:1003C0000C8952F804CBC868D1F88C30C0FB0C45BE
:1003D000C3FB0C8952F804CB0869D1F89030C0FBFC
:1003E0000C45C3FB0C8952F804CB4869D1F8943012
:1003F000C0FB0C45C3FB0C8952F804CB8869D1F8CB
:100400009830C0FB0C45C3FB0C8952F804CBC8697B
:10041000D1F89C30C0FB0C45C3FB0C8901984FF40C
:10042000FE4E4EF0FF0E4FEA946444EA85144FEA04
:10043000E47CBCEBE43F18BF8CEA0E044FEA9868FA
:1004400048EA89184FEAE87CBCEBE83F18BF8CEA21
:100450000E08A0F84040A0F84280A2F57872A1F5FD
:1004600070614FF00F0C00F10400CDF800C0019056
:100470004FF000744FF000784FF000764FF0007AA4
:100480004FF000054FF000094FF000074FF0000B50
:1004900052F804CB52F804EB0868CB6DC0FB0C4556
:1004A000C0FB0E67CEF1000EC3FB0C67C3FB0E450D
:1004B000D1F8DC30D1F88000C3FB0E89C3FB0CAB54
:1004C000CEF1000EC0FB0C89C0FB0EAB52F804CB82
:1004D00052F804EB48688B6DC0FB0C45C0FB0E67FF
:1004E000CEF1000EC3FB0C67C3FB0E45D1F8D8302C
:1004F000D1F88400C3FB0E89C3FB0CABCEF1000E18
:10050000C0FB0C89C0FB0EAB52F804CB52F804EBD5
:1005100088684B6DC0FB0C45C0FB0E67CEF1000E2A
:10052000C3FB0C67C3FB0E45D1F8D430D1F888006B
:10053000C3FB0E89C3FB0CABCEF1000EC0FB0C89D4
:10054000C0FB0EAB52F804CB52F804EBC8680B6D3D
:10055000C0FB0C45C0FB0E67CEF1000EC3FB0C6761
:10056000C3FB0E45D1F8D030D1F88C00C3FB0E8907
:10057000C3FB0CABCEF1000EC0FB0C89C0FB0EAB75
:1005800052F804CB52F804EB0869CB6CC0FB0C4565
:10059000C0FB0E67CEF1000EC3FB0C67C3FB0E451C
:1005A000D1F8CC30D1F89000C3FB0E89C3FB0CAB63
:1005B000CEF1000EC0FB0C89C0FB0EAB52F804CB91
:1005C00052F804EB48698B6CC0FB0C45C0FB0E670E
:1005D000CEF1000EC3FB0C67C3FB0E45D1F8C8304B
:1005E000D1F89400C3FB0E89C3FB0CABCEF1000E17
:1005F000C0FB0C89C0FB0EAB52F804CB52F804EBE5
:1006000088694B6CC0FB0C45C0FB0E67CEF1000E39
:10061000C3FB0C67C3FB0E45D1F8C430D1F898007A
:10062000C3FB0E89C3FB0CABCEF1000EC0FB0C89E3
:10063000C0FB0EAB52F804CB52F804EBC8690B6C4C
:10064000C0FB0C45C0FB0E67CEF1000EC3FB0C6770
:10065000C3FB0E45D1F8C030D1F89C00C3FB0E8916
:10066000C3FB0CABCEF1000EC0FB0C89C0FB0EAB84
:1006700001F5807101984FF4FE4E4EF0FF0E4FEAE7
:10068000946444EA85144FEAE47CBCEBE43F18BF71
:100690008CEA0E044FEA986848EA89184FEAE87C29
:1006A000BCEBE83F18BF8CEA0E084FEA966646EAB4
:1006B00087164FEAE67CBCEBE63F18BF8CEA0E06D5
:1006C0004FEA9A6A4AEA8B1A4FEAEA7CBCEBEA3FA5
:1006D00018BF8CEA0E0ADDF800C000EBCC0E2EF835
:1006E000026B2EF802AB20F8024B20F8028BBCF113
:1006F000010C7FF4BAAE02B0BDE8F08F2DE9F04FE7
:1007000082B001904FF000744FF0000552F804CB16
:1007100052F804EB0868CB6DCEF1000EC0FB0C451F
:10072000C3FB0E4552F804CB52F804EB48688B6DBE
:10073000CEF1000EC0FB0C45C3FB0E4552F804CBB6
:1007400052F804EB88684B6DCEF1000EC0FB0C45EF
:10075000C3FB0E4552F804CB52F804EBC8680B6D8E
:10076000CEF1000EC0FB0C45C3FB0E4552F804CB86
:1007700052F804EB0869CB6CCEF1000EC0FB0C45BF
:10078000C3FB0E4552F804CB52F804EB48698B6C5E
:10079000CEF1000EC0FB0C45C3FB0E4552F804CB56
:1007A00052F804EB88694B6CCEF1000EC0FB0C458F
:1007B000C3FB0E4552F804CB52F804EBC8690B6C2E
:1007C000CEF1000EC0FB0C45C3FB0E4501984FF463
:1007D000FE4E4EF0FF0E4FEA946444EA85144FEA51
:1007E000E47CBCEBE43F18BF8CEA0E04048002F505
:1007F000707201F580514FF000744FF0000552F80F
:1008000004CB0868C0FB0C4552F804CB4868C0FB19
:100810000C4552F804CB8868C0FB0C4552F804CB59
:10082000C868C0FB0C4552F804CB0869C0FB0C45F6
:1008300052F804CB4869C0FB0C4552F804CB8869D8
:10084000C0FB0C4552F804CBC869C0FB0C450198AD
:100850004FF4FE4E4EF0FF0E4FEA946444EA8514C6
:100860004FEAE47CBCEBE43F18BF8CEA0E0404843E
:10087000A2F57872A1F570614FF00F0C00F1020043
:10088000CDF800C001904FF000744FF000764FF0AB
:1008900000054FF0000752F804CB52F804EB08684B
:1008A000CB6DC0FB0C45C0FB0E67CEF1000EC3FB49
:1008B0000E45C3FB0C6752F804CB52F804EB4868B2
:1008C0008B6DC0FB0C45C0FB0E67CEF1000EC3FB69
:1008D0000E45C3FB0C6752F804CB52F804EB886852
:1008E0004B6DC0FB0C45C0FB0E67CEF1000EC3FB89
:1008F0000E45C3FB0C6752F804CB52F804EBC868F2
:100900000B6DC0FB0C45C0FB0E67CEF1000EC3FBA8
:100910000E45C3FB0C6752F804CB52F804EB086990
:10092000CB6CC0FB0C45C0FB0E67CEF1000EC3FBC9
:100930000E45C3FB0C6752F804CB52F804EB486930
:100940008B6CC0FB0C45C0FB0E67CEF1000EC3FBE9
:100950000E45C3FB0C6752F804CB52F804EB8869D0
:100960004B6CC0FB0C45C0FB0E67CEF1000EC3FB09
:100970000E45C3FB0C6752F804CB52F804EBC86970
:100980000B6CC0FB0C45C0FB0E67CEF1000EC3FB29
:100990000E45C3FB0C6701F5807101984FF4FE4EC4
:1009A0004EF0FF0E4FEA946444EA85144FEAE47C6B
:1009B000BCEBE43F18BF8CEA0E044FEA966646EAA9
:1009C00087164FEAE67CBCEBE63F18BF8CEA0E06C2
:1009D000DDF800C000EB8C0E2EF8026B20F8024B05
:1009E000BCF1010C7FF44CAF02B0BDE8F08F000009
:1009F0000648804706480047FEE7FEE7FEE7FEE7B9
:100A0000FEE7FEE7FEE7FEE7FEE7FEE7CDE40008CF
:100A10003101000810B5431A934209D2831888188F
:100A200003E010F8011D03F8011D521EF9D210BD9C
:100A300040EA01039B0703D009E008C9121F08C060
:100A4000042AFAD203E011F8013B00F8013B521EE0
:100A5000F9D210BDD2B201E000F8012B491EFBD241
:100A600070470022F6E710B50446084611460246D4
:100A70002046FFF7EFFF204610BD034600E0401C74
:100A80000278002AFBD111F8012B00F8012B002A73
:100A9000F9D11846704730B50EE003460A4601E02A
:100AA0005B1C521C1C781578AC4201D1002CF7D18C
:100AB00015F0FF0F04D0401C0278002AEDD1002071
:100AC00030BD10B5044604E00B7800F8013B03B1DB
:100AD000491C521EF8D2204610BD0146002000E0FD
:100AE000401C0A5C002AFBD17047034611F8012B19
:100AF00000F8012B002AF9D11846704730B5054699
:100B00000020034600E05B1C934205D2EC5CC85C0D
:100B1000201A01D1002CF6D130BDF0B480EA0102D8
:100B2000D20F4300B3EB410F02D2034608461946E9
:100B30004B0042D0C30DDDB2C1F3C7542C1B202C97
:100B400035DAC1F3160141F4000502B16D42C4F17A
:100B5000200605FA06F125412844B3EBD05F23D0E7
:100B6000C2B1012CA0EBC35009DCF0BC4FF0004235
:100B700002EAC35200F50000DBB200F018BB4000EF
:100B800000F1807000EBC350A0F1807040EAD1709A
:100B9000490009E0490841EAC071A0EBC35000F5E3
:100BA0000000400800EBC350F0BC00F0F7BA51421F
:100BB000012303EB4101801AF6E7F0BC704781F096
:100BC0000041AAE780F00040A7E780EA010210B5E3
:100BD00002F00042400026D04B0023D04FEA1061C3
:100BE00001EB1361C0F35600C3F3560340F4000059
:100BF00043F40003A0FB0330A1F17F014FEA004062
:100C00001C0401D000F1010050EA134001D440005F
:100C1000491EC3B20C0604EBD010401C4008802BC8
:100C200002D003E0002010BD20F00100002900DA0E
:100C30000020104310BD80EA010202F0004330B4EE
:100C400030F0004221F0004015D0A0B1C0F3C755EC
:100C5000C2F3C754C2F31601C0F31600651B41F47A
:100C6000000140F400007D35814201D36D1C00E09D
:100C70004900002D02DA30BC002070474FF400021A
:100C80000024814201D3091A144352084FEA41015A
:100C9000F7D151B1814202D14FF0004105E002D2BB
:100CA0004FF0010101E06FF0010104EBC55030BCD1
:100CB000184400F073BA420005D0C0F3C752524244
:100CC000914201DC0020704700EBC15070472DE9D4
:100CD000FE4F074681EA0300C00F0E46019021F047
:100CE000004123F00044B81AA14105D238463146EC
:100CF00017461E460B46024623F00040104304D11F
:100D00003846314603B0BDE8F08F350DC5F30A0013
:100D1000C3F30A510290401A0090402868DAC3F3E6
:100D2000130040F4801B0198924620B10023D2EBBF
:100D3000030A63EB0B0B00985946C0F14002504682
:100D400000F0FBF980460C4650465946009A00F0E8
:100D500013FAC0197141EF1785EA11533B4340D094
:100D6000019A52B3009A012A11DC0022801A4FF036
:100D7000004361EB055103EA05538018CDE90023D8
:100D800041F580114246234600F04BFABAE72E05A2
:100D90000025401B61EB0601401941F58012001847
:100DA00052412818A6F5001343EB020140EAD47023
:100DB000294318EB0808644113E064084FEA380837
:100DC0004FF0000244EAC0744FEA0553801A61EB09
:100DD0000301801841F5801149084FEA300080185E
:100DE00059414246234603B0BDE8F04F00F00CBA2B
:100DF0000198012240000023D0EB020263EBE07374
:100E000001984FEAE074381A66EB0401EBE783F0CF
:100E100000435CE781F0004159E72DE9FE4F81EA8C
:100E2000030421F0004504F0004423F000414FF09A
:100E3000000A009450EA050302D052EA010304D1EB
:100E40000020014603B0BDE8F08FC1F30A53C5F39B
:100E50000A541C44A0FB02B3C5F3130545F4801CDF
:100E6000C1F3130141F480180CFB023300FB083E70
:100E7000A4F2F334810A930A41EA8C5143EA88537D
:100E80000194A1FB03474FEA9C2505FB03734FEA3E
:100E9000982601FB06373D05260545EA1435BBEBD0
:100EA00006016EEB0503850E920E45EA8C1542EAAB
:100EB0008812A5FB0206261E67EB00070C0D44EA0C
:100EC0000334A41947EB1350C1F313064FF000038A
:100ED00019464FEA033343EA165343EA0403019CDD
:100EE000E5FB0201A4F10C040294009C4FEA0632D7
:100EF000CDE900A400F095F9A4E72DE9F04D81EAD1
:100F0000030404F0004B21F0004714464FF0000AA0
:100F100023F0004150EA070220D054EA01021DD01C
:100F2000C1F30A550246C1F31300C7F30A56C7F3CB
:100F3000130340F4801143F48013A6EB0508101B43
:100F4000D64608F2FD3873EB010002D308F1010820
:100F500001E092185B41B8F1000F03DA002001466E
:100F6000BDE8F08D00204FF48015064607460EE0E0
:100F7000B2EB040C73EB010C04D3121B064363EBBE
:100F800001032F436D084FEA300092185B4150EA8D
:100F9000050CEDD152EA030012D082EA040083EA84
:100FA0000105284303D100224FF0004308E0101B45
:100FB0008B4102D20122002302E06FF001025310A4
:100FC0001AEB060047EB085110EB0A0041EB0B014E
:100FD000BDE8F04D00F018B9C10F80EAE070084498
:100FE000CA079623002100F0E2B89623002211469A
:100FF00000F0DDB80EB5C10F80EAE0700844CA0702
:10100000002140F233438DE80E000A460B4600F003
:1010100008F903B000BD00F0004220F00040C10D0F
:10102000C0F3160040F400007F2901DA0020704769
:10103000962903DCC1F19601C84001E09639884049
:10104000002AF4D04042704720F00040C10DC0F3A8
:10105000160040F400007F2901DA0020704796292D
:1010600003DCC1F19601C84070479639884070474B
:1010700070B5C1F30A5201F000450024C1F3130119
:1010800040F2FF3341F480119A4201DA002070BD32
:1010900040F233439A42A2F2334203DC524200F060
:1010A0005BF800E090402C43F1D0404270BD00005E
:1010B00030B5002904DB4FF00044404264EB0101ED
:1010C000002B04DB4FF00044524264EB03038B42DD
:1010D00008BF824230BD00002DE9F05F05460020C8
:1010E00092469B4688460646814640241BE0284699
:1010F00041464746224600F02FF852465B46801A8A
:10110000994110D310461946224600F016F82D1AC0
:1011100067EB01084F4622460120002100F00DF840
:1011200017EB00094E41201EA4F10104DFDC484604
:1011300031462A464346BDE8F09F202A04DB203A88
:1011400000FA02F1002070479140C2F1200320FA1A
:1011500003F3194390407047202A04DB203A21FA18
:1011600002F00021704721FA02F3D040C2F12002C0
:101170009140084319467047202A06DBCB17203AD6
:1011800041FA02F043EAE071704741FA02F3D040BD
:10119000C2F1200291400843194670470029A8BFB8
:1011A0007047401C490008BF20F00100704710B490
:1011B000B0FA80FC00FA0CF050EA010404BF10BC45
:1011C000704749B1CCF1200421FA04F411FA0CF172
:1011D00018BF012121430843A3EB0C01CB1D0106DD
:1011E000000A002BBEBF002010BC704700EBC350AC
:1011F00010440029A4BF10BC7047401C490008BF20
:1012000020F0010010BC704710B5002B08DA401C1C
:1012100041F1000192185B411A4301D120F0010015
:1012200010BD2DE9F04D92469B4611B1B1FA81F205
:1012300002E0B0FA80F220329046FFF77EFF0646C9
:101240000F4640EA0A0041EA0B0152465B4608435A
:1012500003D130463946BDE8F08D194652EA010007
:1012600015D0C8F140025046FFF776FF04460D4600
:10127000504659464246FFF760FF084301D001201F
:1012800000E00020044345EAE07526432F430A9816
:101290004FEAD625A0EB08000A304FEA46534FF03C
:1012A000000245EA47554FEAD72402D500200146FF
:1012B000D1E7010550196141DDE90845001969418F
:1012C000BDE8F04DA0E70000064C074D06E0E068E1
:1012D00040F0010394E8070098471034AC42F6D37D
:1012E000FEF72AFF34F6020854F6020870B501EB47
:1012F000020410F8015B15F0070301D110F8013B5F
:101300002A1106D110F8012B03E010F8016B01F847
:10131000016B5B1EF9D12B0705D40023521E0FD49D
:1013200001F8013BFAE710F8013B02F10202A1EBE0
:10133000030303E013F8015B01F8015B521EF9D5CA
:10134000A142D6D3002070BD70B50446A0F1804004
:101350000D46B0F592301FBFA4F18040B0F5943037
:10136000A4F18040B0F59E3004D04FF497710AA0EC
:101370000EF0CEFB002D04BFA06820F0010009D0C4
:10138000012D04D040F22F1103A00EF0C1FBA06884
:1013900040F00100A06070BD2E2E2F4C696272617A
:1013A000726965732F53544D3332463130785F5331
:1013B00074645065726970685F4472697665722FF3
:1013C0007372632F73746D3332663130785F61648A
:1013D000632E630070B50546A0F180400C46B0F561
:1013E00092301FBFA5F18040B0F59430A5F1804048
:1013F000B0F59E3003D0DF2142A00EF089FB2068BB
:10140000002818BFB0F5803F1BD0B0F5003F18BFD3
:10141000B0F5403F15D0B0F5802F18BFB0F5A02F24
:101420000FD0B0F5C02F18BFB0F5E02F09D0B0F540
:10143000002F18BFB0F5102F03D0E02131A00EF01F
:1014400067FB2079002818BF012803D0E1212DA0D7
:101450000EF05EFB6079002818BF012803D0E2215E
:1014600028A00EF055FBA068002818BFB0F5003F7B
:1014700015D0B0F5802F18BFB0F5C02F0FD0B0F544
:10148000002F18BFB0F5202F09D0B0F5402F18BF9E
:10149000B0F5602F03D0E3211AA00EF039FBE0680D
:1014A000002818BFB0F5006F03D0E42115A00EF09E
:1014B0002FFB207C401E0F2803D9E52111A00EF040
:1014C00027FB6868227920F4807020F4702021685E
:1014D00040EA022008436860A86819490840D4E936
:1014E00002211143627940EA42000843A860E86A99
:1014F00020F47001207C401EC0B241EA0050E86236
:1015000070BD00002E2E2F4C696272617269657386
:101510002F53544D3332463130785F5374645065E5
:10152000726970685F4472697665722F7372632F97
:1015300073746D3332663130785F6164632E63009B
:10154000FDF7F1FF2DE9F0410546A0F180400C4682
:1015500017461E46B0F592301FBFA5F18040B0F58A
:101560009430A5F18040B0F59E3004D040F2522175
:1015700048A00EF0CDFA002C18BF012C24D0022C6C
:1015800018BF032C20D0042C18BF052C1CD0062C0F
:1015900018BF072C18D0082C18BF092C14D00A2CFF
:1015A00018BF0B2C10D00C2C18BF0D2C0CD00E2CEF
:1015B00018BF0F2C08D0102C18BF112C04D040F2EB
:1015C000532134A00EF0A4FAA7F10108B8F10F0FCF
:1015D00004D94FF415712FA00EF09AFA002E18BFFF
:1015E000012E10D0022E18BF032E0CD0042E18BFCF
:1015F000052E08D0062E18BF072E04D040F2552124
:1016000024A00EF085FA0720092C0CD9EA68A4F171
:101610000A0101EB4101884022EA000006FA01F1CB
:101620000843E86009E02A6904EB4401884022EAA3
:10163000000006FA01F1084328611F20072F0BD292
:101640006A6B08EB8801884022EA000004FA01F185
:1016500008436863BDE8F0810D2F0CD22A6BF91F97
:1016600001EB8101884022EA000004FA01F10843FD
:101670002863BDE8F081E96AA7F10D0202EB82025E
:10168000904021EA000004FA02F10843E862BDE854
:10169000F08100002E2E2F4C6962726172696573B1
:1016A0002F53544D3332463130785F537464506554
:1016B000726970685F4472697665722F7372632F06
:1016C00073746D3332663130785F6164632E63000A
:1016D00070B50446A0F180400D46B0F592301FBFB2
:1016E000A4F18040B0F59430A4F18040B0F59E3074
:1016F00004D04FF4E6710AA00EF00AFA002D04BFE0
:10170000A06820F4A00009D0012D04D040F2CD1132
:1017100003A00EF0FDF9A06840F4A000A06070BD29
:101720002E2E2F4C69627261726965732F53544D6E
:101730003332463130785F53746450657269706833
:101740005F4472697665722F7372632F73746D33A1
:1017500032663130785F6164632E63002DE9F047B3
:101760004F4E8CB04F4C86F85800316620684E4D75
:101770000027F065AF702A710320884668703A2010
:101780008DF800000C208DF801008DF8027001200A
:101790008DF80300684608F0BBF8404604F088FD69
:1017A0002069A4F5105A4FEA40080121022009F0EF
:1017B000CFF8DFF8F890484601F0C6FD08EBD87086
:1017C000401003903A48CDE9000A10200290802092
:1017D000CDE9047080000690800007908000099099
:1017E0002020089069460A97484602F0BDF8012279
:1017F0000621484602F03CF80121484601F030FD40
:101800003046FFF76AF918B930462AA10DF0F9FF02
:101810002348FFF762F9282804D90F2228A120487D
:10182000FFF7F8F82AA00DF0C3FF32A00DF0C0FFBB
:101830001B4939A00DF0BCFF06F128013BA00DF0BB
:10184000B7FF3FA0F16D0DF0B3FF96F8581044A01C
:101850000DF0AEFF4AA0316E0DF0AAFF297950A01D
:101860000DF0A6FFE868D0F8C81755A00DF0A0FF4E
:101870005BA021690DF09CFF61A061690DF098FFEC
:1018800067A0A1690DF094FF6DA0316D0DF090FF80
:10189000716E0CB072A0BDE8F0470DF089BF00007A
:1018A000D0600020B8CC0020340200203004024078
:1018B000247400404E6F205469746C650000000071
:1018C0005469746C6520546F6F204C6F6E67000014
:1018D0002D2D204D50332066696C6520686561644C
:1018E000657220696E666F726D6174696F6E200D2E
:1018F0000A0000002D2D2D2D2D2D2D2D2D2D2D2DC2
:101900002D2D2D2D2D2D2D2D2D2D2D2D2D2D2D2D07
:101910002D2D2D0D0A0000002D2D204D503320744B
:1019200069746C65202573200D0A00002D2D204D53
:10193000503320617274697374202573200D0A007E
:101940002D2D204D50332062697472617465202002
:101950002020202020203D202564200D0A000000AA
:101960002D2D204D50332062697473506572536180
:101970006D706C6520203D202564200D0A0000005C
:101980002D2D204D50332073616D70726174652070
:101990002020202020203D202564200D0A0000006A
:1019A0002D2D204D5033206E4368616E7320202012
:1019B0002020202020203D202564200D0A0000004A
:1019C0002D2D204D5033206E4772616E53616D7026
:1019D0007320202020203D202564200D0A000000D7
:1019E0002D2D204D5033206F757470757453616DBB
:1019F0007073202020203D202564200D0A00000067
:101A00002D2D204D5033206C6179657220202020CF
:101A10002020202020203D202564200D0A000000E9
:101A20002D2D204D50332076657273696F6E202006
:101A30002020202020203D202564200D0A000000C9
:101A40002D2D204D5033206475726174696F6E20A6
:101A50002020202020203D202564200D0A000000A9
:101A60002D2D204D50332064617461737461727444
:101A7000202020202020203D202564200D0A000069
:101A800010B50021094801F0EBFB094800210B4685
:101A90008170C16107480A46006810F00FFF0648D0
:101AA0000068BDE8104010F089BC0000300402401E
:101AB00034020020600200207002002000B585B0D2
:101AC0000422002000920649CDE90110034603904C
:101AD0004FF4407203A1054811F076F805B000BD3F
:101AE000700200204D50334465630000011B010863
:101AF00000B585B000200221CDE900100290034618
:101B000003904FF4C07203A1064811F05DF805B0D0
:101B100000BD00004D6963726F6368697047554985
:101B200000000000591B010800B585B00020052108
:101B3000CDE90010029003460390802202A10548DF
:101B400011F042F805B000BD5265616442757474CD
:101B50006F6E0000F51B010884B00025009501950B
:101B600002952B464FF400724CA14F48039511F09B
:101B70002BF8FFF7D9FFFFF7BBFF00F03FF9FFF7A6
:101B80009DFF4AA14AA00DF013FE50A15AA00DF0EE
:101B90000FFE5CA25EA161A00DF00AFE654C002361
:101BA0000A221946206810F079FD70B962A00DF084
:101BB000FFFD4FF47A7010F0C9FA00230A2219468B
:101BC000206810F06BFD0028F0D05DA00DF0F0FD56
:101BD000002004F035FD09F0D3FF012816D05BA0EA
:101BE0000DF0E6FD4FF6FF7360A2642124200095FE
:101BF00003F036FD09F0C4FF012804D04FF4FA6069
:101C000010F0A4FAF6E75FA00DF0D2FD4FF6FF73D7
:101C100065A278212C20009503F022FD4FF4FA6094
:101C200010F094FA65A00BF055FCF0B2AA2804BF9E
:101C3000C6F30720552822D0002004F001FD4FF6FE
:101C4000FF7361A264213C20009503F009FD4FF66B
:101C5000FF7361A278214420009503F001FD6249E1
:101C600000200EF00FFE4FF6FF7360A28C2158206B
:101C7000009503F0F5FC4FF47A7010F067FA5E48B7
:101C800000231A461946006810F018FE42F2107040
:101C900010F05CFA002010F083FAF7E74C4544544A
:101CA00061736B3200000000D51F0108312E300037
:101CB0002D2D204261736963204D50332050726F87
:101CC0006A656374202573200D0A000048592D535E
:101CD0006D617274204D756C7469204D6564696125
:101CE00020446576656C6F706D656E7420426F611F
:101CF00072642056312E30002D2D202573202D2D7D
:101D00000D0A000031343A33383A33320000000013
:101D10004E6F762020332032303132002D2D20437B
:101D20006F6D70696C65643A202573202573200DF2
:101D30000A0000005C02002057616974696E670048
:101D4000546172676574496E69740A002D2D2050C4
:101D50006C6561736520636F6E6E656374206120CE
:101D600053442063617264200D0A0000506C656169
:101D7000736520696E7365727420534420636172C9
:101D8000640000002D2D20534420636172642063A1
:101D90006F6E6E656374696F6E20646574656374DD
:101DA0006564200D0A0000005344206361726420C2
:101DB0006465746563746564204F4B00303A2F4D41
:101DC00075736963000000004E6F2044657465639D
:101DD0007420485A4C69620057726974696E6720B2
:101DE000485A4C6962000000ECE80020485A4C69EF
:101DF00062204F4B000000005402002000B585B067
:101E000000200321CDE900100290034603904FF417
:101E1000807203A1054810F0D7FE05B000BD000098
:101E2000546F75636853637265656E00711F0108B6
:101E30002DE9FF5F109DFE4800781228FBD2DFE8F5
:101E400000F009AE59FEFDFCFBFAF9F8F7F6F5F4DF
:101E5000F3F2F1310E984BF2055148430114F44866
:101E60004BF2055201810F995143091441810E999A
:101E70004FF4A032A2EB0141091481820F99A2EB29
:101E800001410914C1820E9A82810F9BC3810021F6
:101E900001824182028341838183C383018441841F
:101EA00011210170E248B0F91220B0F90A108A42FB
:101EB000C4BF022101701DDCB0F91010818342847F
:101EC000B0F908308B424DDBB0F914C0BCF1000F03
:101ED000DCBF0CF1030303EB410307DD83890CF145
:101EE000050C5B1E8381CB1A0CEB43038382491CD8
:101EF00001823FE000990298039A411A0198101A52
:101F0000084300F02C8215F0020F27D00E9902989A
:101F1000019E08440FFA80F90F990298084491191C
:101F2000491001F1010B00B2B345C4BF471CDFF8F3
:101F300004A313DD4C46B945B8BF1FFA86F809DA89
:101F4000BAF800204146A0B205F090FF601C04B230
:101F5000BC42F5DB701C06B25E45EBDBB4480421E5
:101F6000017068E7491C09B20182B0F90C308B425C
:101F7000B8BF8181B0F91630002BDCBFD91C01EB52
:101F8000420106DDC1895B1D491EC181511A03EB67
:101F90004101C182511C4182012100F081BAA44853
:101FA000B0F91810B0F90C0081420AD1A048B0F97C
:101FB0001E20B0F90E309A4204BF112101703FF487
:101FC00071AF15F0010F3CD09948029A038C1A4466
:101FD0000FFA82F9C38B019A808BD21A16B2029A39
:101FE0001044019A00B2511A09B201F1010BB34534
:101FF000C4BF471CDFF83CA223DD4C46B945B8BF3F
:102000001FFA86F80ADA00BFBAF800204146A0B2EB
:1020100005F02CFF601C04B2BC42F5DB701C06B25C
:102020005E450DE00AE25DE1D4E123E176E2E5E020
:1020300038E2ADE0E0E273E0A3E23BE096E104E0E9
:10204000DBDB7B4803210170F5E615F0020F2DD094
:1020500077480299028B11440FFA81F9828B01991A
:10206000891A0EB2C28B0299008C1144019A09B2EE
:10207000101A00B200F1010BB345C4BF4F1CDFF8CA
:10208000B4A113DD4C46B945B8BF1FFA86F809DA8A
:10209000BAF800204146A0B205F0E8FE601C04B288
:1020A000BC42F5DB701C06B25E45EBDB60480521E7
:1020B0000170C0E615F0040F2ED05D480299028B26
:1020C00011440FFA81F9428B039911440EB2C28B6D
:1020D0000299408C1144039A09B2104400B200F1F5
:1020E000010BB345C4BF4F1CDFF848A114DD4C46BB
:1020F000B945B8BF1FFA86F80ADA00BFBAF800205F
:102100004146A0B205F0B2FE601C04B2BC42F5DB51
:10211000701C06B25E45EADB4548072101708AE67D
:1021200015F0080F30D042480299428B11440FFA43
:1021300081F9028B039911440FFA81F8428C0299BC
:10214000C08B11440AB20399084400B200F1010B9C
:10215000C345C4BF561CDFF8DCA015DD4C46B145B5
:10216000B8BF1FFA88F709DABAF800203946A0B2DA
:1021700005F07CFE601C04B2B442F5DB08F10100FE
:102180000FFA80F8D845E9DB29480921017052E6A9
:1021900015F0100F2ED026480099828B891A0FFA5D
:1021A00081F9028B039911440FB2028C0099C08B04
:1021B000891A0AB20399084400B200F1010BBB4529
:1021C000C4BF02F10108DFF86CA013DD4C46C14525
:1021D000B8BFBEB20ADA00BFBAF800203146A0B2DA
:1021E00005F044FE601C04B24445F5DB781C07B2E0
:1021F0005F45EBDB0E480B2101701CE615F0200F4C
:1022000034D00B480099C28B891A0FFA81F9028CDD
:10221000039911440EB2028B0099808B891A0AB27D
:102220000399084400B200F1010BB34504E000003B
:102230008C000020EE000020C4BF571CDFF820A453
:1022400014DD4C46B945B8BF1FFA86F80ADA00BF5C
:10225000BAF800204146A0B205F008FE601C04B2A6
:10226000BC42F5DB701C06B25E45EADBFD480D2181
:102270000170E0E515F0400F30D0FA480099C28BAC
:10228000891A0FFA81F9428C0199891A0FFA81F89B
:10229000028B0099408B891A0AB20199081A00B280
:1022A00000F1010BC345C4BF571CDFF8B4A315DD13
:1022B0004C46B945B8BF1FFA88F609DABAF80020CB
:1022C0003146A0B205F0D2FD601C04B2BC42F5DB81
:1022D00008F101000FFA80F8D845E9DBE1480F2149
:1022E0000170A8E515F0800F2ED0DE4900984A8CC9
:1022F000801A0FFA80F9CA8B0198801A06B24A8BAD
:102300000098098B801A019A00B2511A09B201F1A2
:10231000010BB345C4BF00F10108DFF844A313DD8E
:102320004C46C145B8BFB7B20ADA00BFBAF80020C0
:102330003946A0B205F09AFD601C04B24445F5DBB5
:10234000701C06B25E45EBDBC64881890183018AB9
:102350004183C189C183418A01841121A0E0C1491F
:102360000020087004B00120BDE8F09F15F0040FB4
:102370002CD00E99029808440FFA80F9019903981D
:1023800008444FEA60080F990298084401B2039884
:1023900000F1010BC345C4BF4E1CDFF8C4A215DD1C
:1023A0004C46B145B8BF1FFA88F709DABAF80020E1
:1023B0003946A0B205F05AFD601C04B2B442F5DB08
:1023C00008F101000FFA80F8D845E9DBA5480E2195
:1023D000017030E515F0100F2CD00E9903980F9A6C
:1023E00008440FFA80F80399DDF800900298114430
:1023F000484409B2401001F1010BC345C4BF461C5B
:10240000DFF85CA216DD4C46B145B8BF1FFA88F76D
:102410000ADA00BFBAF800203946A0B205F026FD5E
:10242000601C04B2B442F5DB08F101000FFA80F839
:10243000D845E8DB8B4810210170FCE415F0080F4B
:102440002CD0009902980F9A08444FEA60090E991F
:10245000039808440FFA80F8DDE90201114409B23B
:1024600001F1010BC345C4BF471CDFF8F4A115DD22
:102470004C46B945B8BF1FFA88F609DABAF8002009
:102480003146A0B205F0F2FC601C04B2BC42F5DBA0
:1024900008F101000FFA80F8D845E9DB0A216EE067
:1024A0000170C8E400990298884233D015F0800F7B
:1024B0002CD00F9901980E9A401A0FFA80F80199C2
:1024C000DDF800900298891A484409B2401001F1E1
:1024D000010BC345C4BF461CDFF884A116DD4C4682
:1024E000B145B8BF1FFA88F70ADA00BFBAF8002072
:1024F0003946A0B205F0BAFC601C04B2B442F5DB68
:1025000008F101000FFA80F8D845E8DB55480C21A6
:10251000017090E45348062101708CE415F0010F1E
:102520002CD0009902980E9A08444FEA60090F993E
:102530000198401A0FFA80F8DDE90110891A09B2F2
:1025400001F1010BC345C4BF461CDFF814A115DD22
:102550004C46B145B8BF1FFA88F709DABAF800202F
:102560003946A0B205F082FC601C04B2B442F5DB2F
:1025700008F101000FFA80F8D845E9DB0621394857
:102580008EE703990198884232D015F0400F2BD086
:102590000F990098DDF80480401A0FFA80F90E991F
:1025A0000098401A01B203984044401000F1010B1A
:1025B000C345C4BF4E1CDFF8A8A015DD4C46B1458D
:1025C000B8BF1FFA88F709DABAF800203946A0B276
:1025D00005F04CFC601C04B2B442F5DB08F10100CC
:1025E0000FFA80F8D845E9DB1E480821017022E483
:1025F0001C49002008702EE015F0200F28D00F99FC
:102600000098401A0FFA80F8019903980844461080
:1026100000990E98081A01B2039800F1010AB24518
:10262000C4BFDFF83C904D1C12DD4446A845B8BF3E
:10263000B7B209DAB9F800203946A0B205F016FCA5
:10264000601C04B2AC42F5DB701C06B25645ECDBF4
:1026500004480021017004B00120BDE8F09F000093
:10266000EE0000208C0000202DE9F04703F1010A64
:1026700080460D465145BCBF561CDFF8349013DA36
:102680004446B045B8BFAFB20ADA00BFB9F800207F
:102690003946A0B205F0EAFB601C04B2B442F5DB97
:1026A000681C05B25545EBDB0120BDE8F087000052
:1026B000EE0000202DE9FF4F95B04BF20551229816
:1026C000229E4843000C401C00B2079022984FF411
:1026D000A031A1EB00404FEA20494FF0000A4FF033
:1026E000010B002E00F0FA80079800250028A8BFF3
:1026F0009C4CC0F2F38000BF0AF101000FFA80FA8F
:102700009948B0F93400824504BF8BF0010B4FF0BB
:10271000000ABBF1000F00F0CC801698801B0890D7
:1027200081B20B90179822884719B8B205F09EFB2A
:102730001698401B049081B20C9017983044099071
:102740000F9080B2228805F091FB189830440A90CF
:10275000069081B2B8B2228805F088FB18982288CA
:1027600000EB05080F981FFA88F180B205F07EFB98
:10277000069881B21598401B06900D9080B2228871
:1027800005F074FB15981FFA88F1801B0E901090CD
:1027900080B2228805F06AFB0C98228881B21098DA
:1027A00080B205F063FB0B98228881B20D9880B24D
:1027B00005F05CFB6C48407900287AD00898401EF0
:1027C0000D9081B2B8B2228805F050FB0898401CE9
:1027D0000C9081B2B8B2228805F048FB049881B20F
:1027E0000998401C0F9080B2228805F03FFB0498A6
:1027F00081B20998401E0B9080B2228805F036FB0A
:102800000A98401E109081B2B8B2228805F02EFBC3
:102810000A98401C099081B2B8B2228805F026FBC4
:102820000F981FFA88F180B2228805F01FFB0B98E1
:102830001FFA88F180B2228805F018FB10982288D0
:1028400081B2069880B205F011FB0998228881B206
:10285000069880B205F00AFB0E981FFA88F1471C13
:10286000B8B2228805F002FB0E981FFA88F1A0F199
:1028700001081FFA88F0228805F0F8FA04982288E7
:1028800081B2B8B205F0F2FA0498228881B21FFA38
:1028900088F005F0EBFA0C98228881B2069880B295
:1028A00005F0E4FA0D98228881B2069880B205F00E
:1028B000DDFAB9F1000FDCBF09EB4500C01C05DDF6
:1028C000701E06B2A81B09EB4000401D0FFA80F9EC
:1028D000681C05B2079885427FF70EAF15991798C7
:1028E00088420BD022991698401A04B22346194602
:1028F000179A159805F016FF0028F7D01699189822
:1029000088420BD022991598401A04B222461046EC
:10291000189B169905F006FF0028F7D0159917980F
:10292000421A16991898401A104317D017992298EE
:10293000084404B222461046189B169905F0F2FE90
:102940000028F7D018992298084404B22346194663
:10295000179A159805F0E6FE0028F7D019B0012067
:10296000BDE8F08FEE0000208C0000202DE9FF5F15
:1029700083460EA8DDE91256B0E8800728200EF045
:10298000D7FE040004BF04B0BDE8F09FA4F800B077
:102990000020606020720199A1810299E181039970
:1029A00021826782A4F81880C4E9085AA4F80A9022
:1029B000002E18BF666114D06083A08355B1616991
:1029C0002846496902F0E0FF60836069406902F0CF
:1029D000C7FFA083204602F02BF804B02046BDE8D4
:1029E000F09F024909686161E6E700006800002085
:1029F0002DE9F84F984D0446984E287800274FF05F
:102A000005084FF0030A4FF00209062819D2DFE843
:102A100000F0032C6988D7E0608910F4004F13D0D0
:102A20006069008A3080B4F91230B4F91020B4F92A
:102A30000E10B4F90C00FFF717FE002808BFBDE820
:102A4000F88F0120BDE8F88F208BE880218AA289C9
:102A50004042891A01EB40016980618AE289891A42
:102A600001EB4000A88001202870608910F0020F5F
:102A700043D0606942880388C1897948DFF8E8B1AA
:102A8000077078480780B4F80CC0E8888444ABF835
:102A900000C0B4F80EC0DFF8D4B18444ABF800C075
:102AA000B4F810C0DFF8C8B1ACEB000CABF800C054
:102AB000B4F812C0DFF8BCB1ACEB000CABF800C04E
:102AC000DFF8B4C1ACF800006C4801806C486E4976
:102AD00002806C480380606A08606C48A0F800A01F
:102AE00085F80090608910F4807F12D002F042FADD
:102AF000002808BFBDE8F88F11E010F0040F6069EE
:102B00001DBF438802888189428804BF03884189A8
:102B1000B3E702F0BFF8002808BFBDE8F88F85F8DA
:102B200000A0206A002852D0608910F0020F10D057
:102B3000606900893080606940690AF0DBFE618964
:102B400011F0100F0DD0208A628B801A401F80B2C6
:102B500017E010F0040F606914BFC08880883080CF
:102B6000E9E711F0200F1CBFA089401D08D1B4F97E
:102B70000C00B4F910201044B4F91A20801A401047
:102B800080B211F0800F03D0E189491D89B211E0B4
:102B900011F0400F04D0618AA28B891AC91E08E087
:102BA000B4F91210B4F90E201144B4F91C20891A9A
:102BB000491089B2364A10803648018004202870B6
:102BC000206A07F043F8002808BFBDE8F88F85F8B1
:102BD0000080608910F0010F26D0DFF8888010F0A7
:102BE000040FA8F80090606914BFC0888088308006
:102BF000208BE8B1E888411F09B20091618AB4F8DE
:102C00000CC0091A0BB2218A091A0AB2E1890144DF
:102C1000604409B200B2FFF74DFD002808BFBDE8CF
:102C2000F88F00BFA8F800702F700120BDE8F88F62
:102C30000097608A401F03B2208A401F02B2E089D9
:102C4000401D01B2A089401D00B2FFF733FD0028EE
:102C5000E8D1BDE8F88F000044000020EE0000201D
:102C600091000020C00000205200002054000020ED
:102C700056000020580000205A0000205C00002070
:102C80005E00002060000020700000206200002034
:102C9000C2000020C400002006280AD008281CBF5B
:102CA00009287047488920F0040040F4804048819A
:102CB0007047488944F204021043F8E7428912F051
:102CC000020F55D10B78022B02D0012B50D136E0E8
:102CD000B0F90CC0B1F902309C45BCBFB0F910C0CE
:102CE000634520DAB0F90EC0B1F904309C45BCBF91
:102CF000B0F91200834216DA487812F0080F05D0B6
:102D0000042835D112F0040F40D141E004283DD011
:102D1000032802F0040001D078B329E000281CBF8A
:102D20000720704734E012F0080F04BF48780128EC
:102D30001ED112F0040F1CBF0920704718E0B1F932
:102D400002300088834204BF4878052810D1B1F9C9
:102D5000040012F0080F11D0B92818BF9C2809D020
:102D6000392815D0B1F904002C2811D0AC280DD089
:102D70000020704712F0040F08D109E0392807D06D
:102D80001C2805D0B92818BF9C28EBD10820704713
:102D900006207047FEE7000070B5464905462A2424
:102DA000486B10F0450F03D1486B10F0450FFBD076
:102DB00010F0040F05D00324042008F00FFB204678
:102DC00070BD10F0010F05D00124204608F006FB6D
:102DD000204670BD08F058FCA84234D140F2FF50A4
:102DE00008F0FCFA002008F041FD334908425ED0AB
:102DF00010F0004F1CBF1C2070BD10F0804F1CBF96
:102E0000092070BD10F0005F1CBF0A2070BD10F0DB
:102E1000805F1CBF0B2070BD10F0006F1CBF0C202A
:102E200070BD10F0806F1CBF0D2070BD10F0807F52
:102E30001CBF0E2070BD10F4000F1CBF0F2070BD12
:102E400010F4800F01D0102070BD10F4001F1CBFC3
:102E5000112070BD10F4801F1CBF122070BD10F433
:102E6000002F1CBF132070BD10F4802F1CBF142036
:102E700070BD10F4003F1CBF152070BD10F4803FE2
:102E80001CBF162070BD10F4004F1CBF172070BD72
:102E900010F4804F1CBF182070BD10F4005F1CBFE1
:102EA000192070BD10F0080F1CBF1A2070BD2046FD
:102EB00070BD00000080014008E0FFFD70B5050016
:102EC0000E4618BF102D03D0B0210BA00CF020FE31
:102ED0000120184C00FA05F5002E04BF2068A84315
:102EE00007D0012E03D0B12103A00CF011FE206801
:102EF0002843206070BD00002E2E2F4C6962726145
:102F0000726965732F53544D3332463130785F53B5
:102F100074645065726970685F4472697665722F77
:102F20007372632F73746D3332663130785F64610E
:102F3000632E63000074004070B505000E4618BF94
:102F4000102D03D0EC210BA00CF0E2FD184CA014C6
:102F500000FA05F5002E04BF2068A84307D0012E13
:102F600003D0ED2103A00CF0D3FD2068284320609E
:102F700070BD00002E2E2F4C6962726172696573FC
:102F80002F53544D3332463130785F53746450655B
:102F9000726970685F4472697665722F7372632F0D
:102FA00073746D3332663130785F6461632E630011
:102FB0000074004010B50121480707F049FDBDE845
:102FC000104000214FF0005007F042BD70B50C4694
:102FD00009680546002918BF042910D00C2918BF1C
:102FE00014290CD01C2918BF242908D02C291CBF57
:102FF00034293C2903D0792127A00CF089FD606891
:1030000000281CBF4028802803D07A2122A00CF081
:103010007FFDA268002A18BFB2F5807F21D0B2F5EB
:10302000007F18BFB2F5407F1BD0B2F5806F18BF8C
:10303000B2F5A06F15D0B2F5C06F18BFB2F5E06F52
:103040000FD0B2F5006F18BFB2F5106F09D0B2F50E
:10305000206F18BFB2F5306F03D07B210EA00CF0AB
:1030600057FDE068002818BF022803D07C210AA081
:103070000CF04EFD1748016840F6FE72AA409143DD
:10308000D4E900231A43D4E9023C43EA0C031A436F
:10309000AA401143016070BD2E2E2F4C69627261EF
:1030A000726965732F53544D3332463130785F5314
:1030B00074645065726970685F4472697665722FD6
:1030C0007372632F73746D3332663130785F64616D
:1030D000632E630000740040002101604160816044
:1030E000C160704738B5002000901C4800F0DCFA41
:1030F0001B4C1C4D68B11C4800F078F8607840F01B
:103100000100607000236A46194628680FF0E9FC48
:103110000090164800F0C8FA68B1154800F066F84B
:10312000607840F00200607000236A461946286803
:103130000FF0D7FC00900F4C20680FF0FBFD01282A
:1031400004D120680FF0D6FE012803D00098012892
:1031500018BF38BD0EF0F2FF38BD000000040010AB
:103160003402002060020020000500100002001060
:10317000000300107002002010B5044610F0704FDC
:1031800002D00848044200D124B940F20E2106A022
:103190000CF0BEFC14F0805F19BF124804601248A6
:1031A000446010BD0000F0EF2E2E2F4C696272615A
:1031B000726965732F53544D3332463130785F5303
:1031C00074645065726970685F4472697665722FC5
:1031D0007372632F73746D3332663130785F646D50
:1031E000612E6300040402400000024010B5044652
:1031F00010F0704F02D00848044200D124B940F2C8
:10320000AF2106A00CF084FC14F0805F19BF1248B7
:1032100004601248446010BD0000F0EF2E2E2F4CC9
:1032200069627261726965732F53544D333246314E
:1032300030785F5374645065726970685F44726976
:103240007665722F7372632F73746D33326631300B
:10325000785F646D612E6300040402400000024048
:1032600070B504461D480D4684421CBF1C4884426C
:1032700022D01C4884421CBF1B4884421CD01B48DF
:1032800084421CBF1A48844216D01A4884421CBF8C
:103290001948844210D0194884421CBF18488442FF
:1032A0000AD0184884421CBF1748844204D040F218
:1032B000291116A00CF02CFC55B1012D04D04FF4AF
:1032C000957112A00CF024FC206840F0010003E08E
:1032D00020684FF6FE710840206070BD0800024073
:1032E0001C000240300002404400024058000240EE
:1032F0006C00024080000240080402401C040240AE
:103300003004024044040240580402402E2E2F4C48
:1033100069627261726965732F53544D333246315D
:1033200030785F5374645065726970685F44726985
:103330007665722F7372632F73746D33326631301A
:10334000785F646D612E63002DE9F05F484D494E52
:10335000494FDFF82881DFF82891DFF828A1DFF84E
:1033600028B10446A84218BFB4421CD0BC4218BFC2
:10337000444518D04C4518BF544514D05C451CBF7B
:10338000424884420FD0424884421CBF4148844294
:1033900009D0414884421CBF4048844203D06F2179
:1033A0003FA00CF0B5FB20684FF6FE71084020608E
:1033B000002020606060A060E0604848AC4204BF2C
:1033C000416841F00F011DD0B44204BF416841F093
:1033D000F00117D0BC4204BF416841F4706111D0C4
:1033E000444504BF416841F470410BD04C4504BFD3
:1033F000416841F4702105D0544504BF416841F44F
:10340000700102D14160BDE8F09F5C4505D1416883
:1034100041F070614160BDE8F09F1C49081F8C427B
:1034200004BF016841F00F0114D019498C4204BF58
:10343000016841F0F0010DD016498C4204BF0168CB
:1034400041F4706106D014498C4204BF016841F414
:10345000704102D10160BDE8F09F10498C4218BF55
:10346000BDE8F09F016841F470210160BDE8F09F64
:10347000080002401C0002403000024044000240AC
:10348000580002406C0002408000024008040240E4
:103490001C0402403004024044040240580402402C
:1034A0002E2E2F4C69627261726965732F53544DD1
:1034B0003332463130785F53746450657269706896
:1034C0005F4472697665722F7372632F73746D3304
:1034D00032663130785F646D612E63000000024017
:1034E00070B500250446012818BF022C00F0AC80FE
:1034F000042C18BF082C7DD0102C18BF202C79D09C
:10350000402C18BF802C75D0B4F5807F18BFB4F55F
:10351000007F6FD0B4F5806F18BFB4F5006F69D02D
:10352000B4F5805F18BFB4F5005F63D0B4F5804F89
:1035300018BFB4F5004F5DD0B4F5803F18BFB4F5A7
:10354000003F57D0B4F5802F18BFB4F5002F7BD0C3
:10355000B4F5801F18BFB4F5001F75D0B4F5800F07
:1035600018BFB4F5000F6FD0B4F1807F18BFB4F16D
:10357000007F69D0B4F1806F18BFB4F1006F63D0E1
:10358000374884421CBFA4F18050B0F102005BD0E8
:10359000A4F18050001F1CBFA4F18050B0F10800BE
:1035A00052D0A4F1805010381CBFA4F18050B0F16B
:1035B000200049D0A4F1805040381CBFA4F18050B5
:1035C000B0F1800040D0A4F18050B0F580701CBFF5
:1035D000A4F18050B0F5007036D0A4F18050B0F561
:1035E00080601CBFA4F18050B0F500602CD0B4F115
:1035F000102F00E028E01CBFA4F18050B0F500506F
:1036000022D0A4F18050B0F580401CBFA4F18050BE
:10361000B0F5004018D0A4F18050B0F580301CBF48
:10362000A4F18050B0F500300ED0A4F18050B0F578
:1036300080201CBFA4F18050B0F5002004D040F2DF
:10364000B71108A00CF064FA14F0805F14BF14489E
:1036500014480068204218BF0125284670BD0000AC
:10366000010000102E2E2F4C696272617269657321
:103670002F53544D3332463130785F537464506564
:10368000726970685F4472697665722F7372632F16
:1036900073746D3332663130785F646D612E630010
:1036A000000402400000024070B5002504460128D5
:1036B00018BF022C00F0AC80042C18BF082C7DD061
:1036C000102C18BF202C79D0402C18BF802C75D01E
:1036D000B4F5807F18BFB4F5007F6FD0B4F5806F6C
:1036E00018BFB4F5006F69D0B4F5805F18BFB4F5AA
:1036F000005F63D0B4F5804F18BFB4F5004F5DD0C4
:10370000B4F5803F18BFB4F5003F57D0B4F5802F13
:1037100018BFB4F5002F7BD0B4F5801F18BFB4F5E7
:10372000001F75D0B4F5800F18BFB4F5000F6FD02F
:10373000B4F1807F18BFB4F1007F69D0B4F1806F1D
:1037400018BFB4F1006F63D0374884421CBFA4F1A6
:103750008050B0F102005BD0A4F18050001F1CBF6C
:10376000A4F18050B0F1080052D0A4F1805010387C
:103770001CBFA4F18050B0F1200049D0A4F18050CA
:1037800040381CBFA4F18050B0F1800040D0A4F1BB
:103790008050B0F580701CBFA4F18050B0F500706F
:1037A00036D0A4F18050B0F580601CBFA4F18050E9
:1037B000B0F500602CD0B4F1102F00E028E01CBF61
:1037C000A4F18050B0F5005022D0A4F18050B0F5A3
:1037D00080401CBFA4F18050B0F5004018D0A4F187
:1037E0008050B0F580301CBFA4F18050B0F500309F
:1037F0000ED0A4F18050B0F580201CBFA4F1805001
:10380000B0F5002004D040F2592108A00CF080F956
:1038100014F0805F14BF144814480068204218BF99
:103820000125284670BD0000010000102E2E2F4CEF
:1038300069627261726965732F53544D3332463138
:1038400030785F5374645065726970685F44726960
:103850007665722F7372632F73746D3332663130F5
:10386000785F646D612E6300000402400000024036
:1038700070B5044621480D46164684421CBF2048B8
:10388000844222D01F4884421CBF1F4884421CD05F
:103890001E4884421CBF1E48844216D01D488442E4
:1038A0001CBF1D48844210D01C4884421CBF1C48C9
:1038B00084420AD01B4884421CBF1B48844204D067
:1038C00040F2491119A00CF023F935F00E0000D197
:1038D00025B94FF4A57115A00CF01AF9002E04BFFC
:1038E0002068A84308D0012E04D040F24B110FA04D
:1038F0000CF00EF920682843206070BD08000240DB
:103900001C000240300002404400024058000240C7
:103910006C00024080000240080402401C04024087
:103920003004024044040240580402402E2E2F4C22
:1039300069627261726965732F53544D3332463137
:1039400030785F5374645065726970685F4472695F
:103950007665722F7372632F73746D3332663130F4
:10396000785F646D612E630070B5054651480C4662
:1039700085421CBF5048854221D0504885421CBF1B
:103980004F4885421BD04F4885421CBF4E48854258
:1039900015D04E4885421CBF4D4885420FD04D483A
:1039A00085421CBF4C48854209D04C4885421CBF0B
:1039B0004B48854203D0CF214AA00CF0A9F8A0685B
:1039C000102818BF002803D0D02146A00CF0A0F882
:1039D000E0684FF6FF71401E884203D3D12141A019
:1039E0000CF096F82069402818BF002803D0D22197
:1039F0003CA00CF08DF86069802818BF002803D027
:103A0000D32138A00CF084F8A06900281CBFB0F5C1
:103A1000807FB0F5007F03D0D42132A00CF078F87D
:103A2000E06900281CBFB0F5806FB0F5006F03D0CF
:103A3000D5212CA00CF06CF8206A202818BF002893
:103A400003D0D62127A00CF063F8606AB0F5405F80
:103A500018BFB0F5005F08D0B0F5805F18BF002830
:103A600003D0D7211FA00CF053F8A06AB0F5804F07
:103A700018BF002803D0D8211AA00CF049F82868F4
:103A8000226AA1686FF30E101143D4E904231A438C
:103A90001143A2691143E2691143626A1143A26AA8
:103AA000114308432860E06868602068A860606887
:103AB000E86070BD080002401C0002403000024077
:103AC00044000240580002406C0002408000024066
:103AD000080402401C040240300402404404024036
:103AE000580402402E2E2F4C696272617269657310
:103AF0002F53544D3332463130785F5374645065E0
:103B0000726970685F4472697665722F7372632F91
:103B100073746D3332663130785F646D612E63008B
:103B2000704700002DE9F04F83B00D2000F0FEFF3C
:103B30008146C548007800281CBF03B0BDE8F08F5F
:103B40000021484604F089FCC04E0025D8B102206F
:103B500000F0ECFF80460021484604F07EFCBC4C9F
:103B6000BC4F6168884221D00021484604F075FCB2
:103B70006060132000F0DAFF06F006F938780128BB
:103B800007D068B112E01E213580B3A2762000F084
:103B900055B93580B3A23C21782006F089F805E0BC
:103BA0003580B2A23C21782006F082F8387821686E
:103BB000884218D0132000F0B9FF06F0E5F83878F5
:103BC000012801D038B10CE03580AAA23C21782030
:103BD00006F06EF805E03580A8A23C21782006F0BA
:103BE00067F8387820600B2000F0A0FFDFF894A27F
:103BF000A54C8146DAF80C00616E401AFDF7F5F924
:103C0000DFF888B20190DBF80000FDF7EEF90199CA
:103C1000FDF711F89E49FCF7D8FFFDF715FAC1B280
:103C200048460AF0F2F9B9F80A0040F48050A9F8C1
:103C30000A00387870B99748006801280AD1964977
:103C4000D8F82400884205D19448C8F8240040469A
:103C5000FEF7CEFE206DFDF7BFF90746DAF80C003F
:103C6000616E401AFDF7C1F98046DBF80000FDF7F0
:103C7000BCF94146FCF7DFFF3946FCF7A6FFFDF72C
:103C8000E3F9616D884204BF03B0BDE8F08F606561
:103C9000122000F04BFF06F077F83580606D4FF48E
:103CA000167190FBF1F030308DF800006A463C212F
:103CB000462005F0FDFF7A4F606D2946C7FB0010D6
:103CC0004111DFF8E081A1EBE07088FB00218A1050
:103CD000A2EBE171494201EB810100EB4100303080
:103CE0008DF800006A463C214E2005F0E1FF6EA2EF
:103CF0003C21562005F0DCFF606D2A460146C7FBDB
:103D000000214A11A2EBE171A1EB011100EB81004E
:103D100088FB00108110A1EBE07030308DF80000BE
:103D20006A463C215E2005F0C3FF606D29460246CD
:103D3000C7FB00125111A1EBE271A1EB011100EBE5
:103D4000810088FB00218A10A2EBE171494201EB5E
:103D5000810100EB410030308DF800006A463C21C3
:103D6000662005F0A5FF606D0A28A4BF03B0BDE87A
:103D7000F08F142000F0DAFE06F006F835804B498B
:103D8000E06D6A46B0FBF1F030308DF800003C2168
:103D9000B22005F08DFFE06D4FF47A79B0FBF9F0B9
:103DA000434FDFF81081A7FB002149096FF018028B
:103DB000514300EB8100A8FB0010C00830308DF8A3
:103DC00000006A463C21BA2005F072FFE06DB0FBAE
:103DD000F9F0A7FB002149096FF01802514300EBED
:103DE0008100A8FB0021C908494201EB810100EBD9
:103DF000410030308DF800006A463C21C22005F0B9
:103E000057FF2DA23C21CA2005F052FF112000F0DF
:103E10008DFE05F0B9FF35801B48FCF75EFE4008BB
:103E2000FDF7E3F80321FCF746FF2549FCF7CAFE3E
:103E3000FDF7F1F800B2144A5FF01E0105F038FFFB
:103E400003B0BDE8F08F000008010020EE00002064
:103E5000FC0000203602002041445249414E4D50A2
:103E600033000000506C61790000000053746F70E3
:103E700000000000504C41590000000053544F50C6
:103E8000000000001CEB0020D06000205002002049
:103E90000000484344020020440100201401002097
:103EA00089888888676666663A000000A0860100F7
:103EB0001F85EB51CDCCCCCC4B6270730000000061
:103EC000000016432DE9F04F8046801E82B283B079
:103ED000A8F10F004FF6FF7780B289460B460446E3
:103EE000009702F01FFC08F10F0082B24B460D381C
:103EF0001546194680B2009702F014FCA9F10200A1
:103F000083B20D3881B242460E461046009702F049
:103F100009FC09F10F0083B20D380097424681B2C7
:103F20001F46104602F0FEFBA8F1070082B24BF6D6
:103F3000F04A3B46934619462046CDF800A002F0D1
:103F4000F1FB09F1070081B2CDE900A122463B4611
:103F5000104602F0E7FB33465A4619462046CDF894
:103F600000A002F0DFFBA9F1070081B22246334630
:103F700089461046CDF800A002F0D4FB08F10700F6
:103F80003B4680B22A4619460446CDF800A002F00E
:103F9000C9FB2A463B46CDF800A01046019902F025
:103FA000C1FB33462A4619462046CDF800A002F050
:103FB000B9FB2A464B4631461046CDF800A002F028
:103FC000B1FB03B0BDE8F08F0120704770B504006D
:103FD0000D4618BF022C08D0042C18BF062C04D0A4
:103FE00040F2DD110BA00BF093FD4FF0204000EBF1
:103FF000840455B1012D04D04FF4EF7105A00BF0EE
:1040000087FD206840F0010002E020681149084067
:10401000206070BD2E2E2F4C6962726172696573CB
:104020002F53544D3332463130785F5374645065AA
:10403000726970685F4472697665722F7372632F5C
:1040400073746D3332663130785F66736D632E63DF
:1040500000000000FEFF0F0070B504460068002855
:1040600018BF022807D0042818BF062803D0B321A0
:10407000A9A00BF04DFD6068002818BF022803D0EE
:10408000B421A5A00BF044FDA06800281CBF0428A3
:10409000082803D0B521A0A00BF03AFDE068002865
:1040A00018BF102803D0B6219BA00BF031FD20696A
:1040B000002818BFB0F5807F03D0B72196A00BF081
:1040C00027FD6069002818BFB0F5004F03D0B82164
:1040D00091A00BF01DFDA069002818BFB0F5007F6E
:1040E00003D0B9218CA00BF013FDE069002818BFA4
:1040F000B0F5806F03D0BA2187A00BF009FD206ACC
:10410000002818BFB0F5006F03D0BB2182A00BF0D0
:10411000FFFC606A002818BFB0F5805F03D0BC21A7
:104120007DA00BF0F5FCA06A002818BFB0F5005F79
:1041300003D0BD2178A00BF0EBFCE06A002818BF8B
:10414000B0F5804F03D0BE2173A00BF0E1FC206BD3
:10415000002818BFB0F5002F03D0BF216EA00BF0D0
:10416000D7FC606B00680F2803D9C0216AA00BF050
:10417000CFFC606B40680F2803D9C12166A00BF00B
:10418000C7FC606B8068401EFE2803D9C22162A074
:104190000BF0BEFC606BC0680F2803D9C3215EA082
:1041A0000BF0B6FC606B00690F2803D9C4215AA03C
:1041B0000BF0AEFC606B40690F2803D9C52156A0F7
:1041C0000BF0A6FC606B8069002818BFB0F1805F1F
:1041D00009D0B0F1005F18BFB0F1405F03D0C62135
:1041E0004DA00BF095FCD4E901010843D4E903127A
:1041F0001143084361694FF020450843A169084312
:10420000E1690843216A0843616A0843A16A0843D7
:10421000E16A0843216B0843216845F82100A06842
:10422000082806D1206805EB8000016841F04001B4
:104230000160606BD0E9001241EA02118268C36834
:10424000120242EA03421143026941EA0251426901
:10425000806941EA02610843216805EB81014860F9
:10426000E06AB0F5804F07D021686FF0704005EB31
:104270008101C1F8040170BDA06B00680F2803D94B
:10428000EA2125A00BF044FCA06B40680F2803D95D
:10429000EB2121A00BF03CFCA06B8068401EFE28A7
:1042A00003D9EC211CA00BF033FCA06B00690F2894
:1042B00003D9ED2118A00BF02BFCA06B40690F284F
:1042C00003D9EE2114A00BF023FCA06B8069002819
:1042D00018BFB0F1805F09D0B0F1005F18BFB0F136
:1042E000405F03D0EF210CA00BF012FCA06BD0E9D3
:1042F000001241EA021182680369120242EA035283
:1043000011434269806941EA02610843216805EB73
:104310008101C1F8040170BD2E2E2F4C69627261BB
:10432000726965732F53544D3332463130785F5381
:1043300074645065726970685F4472697665722F43
:104340007372632F73746D3332663130785F6673C6
:104350006D632E63000000002DE9FF4F83B04BF228
:1043600005511098CA4F4843009010984FF4A0315F
:10437000A1EB00401E460190C64A50780828FBD2A7
:10438000DFE800F004159ED2336DFDFC1098A0B15B
:104390000098001490840198001410641099D1843E
:1043A0000020108551859085D08501205070B2F98C
:1043B0002800B2F92410814202DA07205070DBE7AE
:1043C000D085136C002BDCBF03EB4001C91C07DD5B
:1043D000D18C491E09B2D184411A03EB4101491D18
:1043E000401C1164108504205070B2F92A00B2F903
:1043F0002610884204BF01205070D8D0A549C97941
:1044000011F00F0F27D0039AA249121A0FFA82FA5D
:104410008A8DC98D324415B2059A314409B21044CF
:1044200001F1010B00B2AB45C8BF00F1010812DD7C
:104430005446C245B8BF1FFA85F908DA3A8849469A
:10444000A0B203F013FD601C04B24445F6DB681C07
:1044500005B25D45ECDB8F49052048708CE78D483F
:10446000C07910F00F0F28D08A48039AC18D521AD4
:104470000FFA82FAC28C408D324415B2059A30444C
:1044800000B2114400F1010B09B2AB45C8BF01F104
:10449000010812DD5446C245B8BF1FFA85F908DA93
:1044A0003A884946A0B203F0E1FC601C04B24445DE
:1044B000F6DB681C05B25D45ECDB022175486CE05B
:1044C0007448C07910F0F00F2AD07248039AC18D59
:1044D000438D521A0FFA82FA049AC08CD21A15B27E
:1044E000059A1144049A09B2101A00B200F1010BA6
:1044F000AB45C8BF01F1010812DD5446C245B8BF43
:104500001FFA85F908DA3A884946A0B203F0AEFCF2
:10451000601C04B24445F6DB681C05B25D45ECDB6B
:104520005C490320487027E75A48C07910F0F00F23
:104530002DD05848039A418DC38D521A0FFA82FA32
:10454000049A808DD21A15B2059A1144049A09B2C0
:10455000101A00B200F1010BAB45C8BF01F1010810
:1045600015DD5446C245B8BF1FFA85F90BDA3A8803
:104570004946A0B203F07AFC601C01E00FE047E07E
:1045800004B24445F3DB681C05B25D45E9DB4148F4
:10459000C18C4185018D818501214170ECE6039933
:1045A0000598411A0498301A084331D0039A10989C
:1045B000DFF8E090101A05B2059A109899F80710E4
:1045C000104400B206F10108FF2928D0049AB31A5A
:1045D00002EB630216B2F0293BD0AA46B045C8BF31
:1045E000441C12DD5546A245B8BF1FFA86FB08DA07
:1045F0003A885946A8B203F039FC681C05B2A542B6
:10460000F6DB701C06B24645ECDB062089F801009B
:1046100020490020487007B00120BDE8F08F049EBB
:104620004645B8BF00F1010AEFDA2C465545B8BF40
:104630001FFA86FB08DA3A885946A0B203F016FC46
:10464000601C04B25445F6DB701C06B24645ECDB38
:10465000DBE7DDF810A006F1010BDA45B8BF00F189
:104660000108D2DA2C464545B8BF1FFA8AF608DAA7
:104670003A883146A0B203F0F9FB601C04B244450D
:10468000F6DB0AF101000FFA80FADA45EADBBCE753
:10469000EE0000208C0000202DE9F843754C054603
:1046A00000290CBF607803202070A06840F62871B4
:1046B000714F884239D2A068A26800F00300C0F1AF
:1046C000040807EB080630466169FCF7A3F9A06807
:1046D000C0F5E050A0EB0802A068684B31182846EE
:1046E0000CF0D8F9607101001CBF65A00BF060F8F8
:1046F000A569002D04BF0120206116D0E06928447F
:10470000E061A068C0F5E050A0EB0800A84208D91D
:10471000A068C0F5E050411BA06838442844FCF76D
:10472000A0F9A0682844A0606661206900260128DD
:1047300043D0A168606904F016FB0028BEBFA660E4
:104740004FF0FF30BDE8F883616901446161A16801
:10475000081AA0602078DFF8348110F0010F08F506
:1047600010553ED04A4A0096A5F5105302F10C01AF
:10477000E06804F022F92A69002A1ADDA8F1020192
:1047800012F0010F04D04A8802F5004221F8022FEE
:104790002A69C2F34F0262B14B88521E03F50043EF
:1047A0004B808B88120403F5004321F8043F120C60
:1047B000F2D1617821F0010149E000213548FEF78E
:1047C0004FFD3548A6700023E6611A461946006879
:1047D0000EF074F8314800680DF0F0FD0020BDE8DF
:1047E000F88310F0020F42D000962869284A08EB9F
:1047F000400302F10C01E06804F0DFF82A6993B28B
:10480000B3EB420F20DA08EB4301891EC3EB4202EF
:1048100012F0010F04D04A8802F5004221F8022F5D
:104820002A6993B2C3EB4202C2F34F0262B14B88D2
:10483000521E03F500434B808B88120403F500439E
:1048400021F8043F120CF2D1617821F0020161706D
:104850006178217058B1A660676104F009FB0146D8
:104860000FA00AF0A5FF4FF0FF30BDE8F88300204D
:10487000BDE8F88334020020D4CC00204C02002094
:10488000526561643D25640A00000000B8A800205C
:104890003C02002030040240600200207002002030
:1048A0002D2D204D50334465636F64652045727231
:1048B0006F72204F63637572726564202573200DDB
:1048C0000A0000002DE9F04704460D461E003DD0C9
:1048D000C6F11F074FF001004FF0000900FA07F082
:1048E00012F0010FA0F10108CA4670D02068C1176C
:1048F00040FA07F28A4218BF88EA0100B0402060FF
:10490000FBF765FC40EA090954F8800F4042C117E3
:1049100040FA07F28A4218BF88EA0100B0402060DE
:10492000FBF755FC40EA090928688034C11740FAB2
:1049300007F28A4218BF88EA0100B0400AF1020A71
:1049400045F8040BBAF1120FD0DB6EE012F0010F44
:1049500039D0D4F8808004F5C074C8F10008276805
:1049600004F580747F42236804F580745B422068FC
:1049700004F580744042D4F800C004F580742568C2
:1049800004F58074216804F58074226804F580744D
:104990002668A4F50064C4F80080C4F80071C4F867
:1049A0000032C4F80003CCF10000C4F800046842EF
:1049B000C4F800054842C4F800065042C4F8000795
:1049C0007042C4F800080020BDE8F087FFE72068C7
:1049D000C11740FA07F28A4218BF88EA0100B040C6
:1049E0002060FBF7F4FB40EA090954F8800FC11777
:1049F00040FA07F28A4218BF88EA0100B0402060FE
:104A0000FBF7E5FB40EA090928688034C11740FA42
:104A100007F28A4218BF88EA0100B0400AF1020A90
:104A200045F8040BBAF1120FD1DB4846BDE8F08718
:104A3000074A9169002908BF906106D04A681AB1F7
:104A400011465268002AFBD148600021416070473E
:104A50004C00002010B518200CF06AFE002808BF9A
:104A600010BD42F6B02101804DF23E714180E92136
:104A700081804FF6FF71C1804FF2BB7101814AF610
:104A8000DD61418142F23E6181814BF29F61C181D2
:104A90004DF27E7101820149416110BDB08E010865
:104AA00010B51A4CA06A70B1002158B3428912F4B3
:104AB0007C4F22D0027A72B1052A0FD0062A10D07C
:104AC000092A14D110E000F023F800281CBFA069C7
:104AD000A062E9D110BDFDF78BFF07E003F0A0FA5B
:104AE00004E008F063FF01E005F04EF901B259B1AE
:104AF000A06A4289C2F309024281A06A4068A062AA
:104B00000028D3D1012010BD002010BD4C00002092
:104B1000054810B5007800281CBF012010BDFFF724
:104B200001F8012010BD00000801002001460648E0
:104B3000806930B102888A4208BF70474068002807
:104B4000F8D10020704700004C00002070B5094EDD
:104B5000B4695CB1207A6568052804BF204603F07B
:104B600051FA20460DF0B0FA2C00F3D10020B061CC
:104B7000306270BD4C00002010B501F0FFFB182022
:104B80000CF0D6FDD8B142F6B02101804DF23E7155
:104B90004180E92181804FF6FF71C1804FF2BB71E6
:104BA00001814AF6DD61418142F23E6181814BF231
:104BB0009F61C1814DF27E710182024941610249CA
:104BC000C86110BDB08E01084C00002070B50646CB
:104BD0004078002808BF70BD26488469002C08BFB3
:104BE00070BD207A30B1052815D0062824D00928B8
:104BF0003CD132E031462046FEF760F8050035D062
:104C00003246214600F038F830B332462146284675
:104C1000FEF742F82AE03146204603F04BFD05003E
:104C200024D03246214600F027F8A8B1324621466A
:104C3000284603F021FC19E03146204609F020FA0D
:104C4000050013D03246214600F016F820B1324656
:104C50002146284609F070F908E03146204605F063
:104C600065F918B13246214600F006F86468002C58
:104C7000B7D170BD4C000020054B10B51B78002B40
:104C80001CBF012010BD04F057F9012010BD000029
:104C9000080100202DE9F04F0627B44EB44C83B034
:104CA0004FF01E084FF003094FF0040B4FF0080AB5
:104CB000012520780928FCD2DFE800F005225A7D82
:104CC0009EC13DF9FA00B4F90E0000284DD0618A6A
:104CD0003180E28AE121821A12B20092CDE901010B
:104CE000B4F90C30B4F90A20B4F90810B4F906008C
:104CF000FDF79EF8002812BF257003B0BDE8F08FC5
:104D0000A08A3080B4F90E00E18ACDF80880411AFB
:104D100009B2CDE90010B4F90C30B4F90A20B4F9A5
:104D20000810B4F90600FDF783F8002812BF2770B9
:104D300003B0BDE8F08F208A3080B4F90E0000285F
:104D40007CD0E18A401A00B20090B4F90C30B4F97A
:104D50000A20B4F90810B4F90600FFF7FDFA00289C
:104D600004BF03B0BDE8F08F9DE002202070658095
:104D7000608A30806088E18A884218D280B22189B6
:104D800062890144121AE38809B2184412B200B2CF
:104D90000B46FDF769FC002804BF03B0BDE8F08FA7
:104DA0006088401C80B26080E18A8142E6D86580DC
:104DB00084F800907DE76088E18A884218D2A08953
:104DC00061882289401A03B2E0880844114400B285
:104DD00009B20246FDF748FC002804BF03B0BDE855
:104DE000F08F6088401C80B26080E18A8142E6D802
:104DF000658084F800B05CE7A08A30806088E18A32
:104E0000884218D280B2A1896289091A121AE388ED
:104E100009B2184412B200B20B46FDF725FC002877
:104E200004BF03B0BDE8F08F6088401C80B2608092
:104E3000E18A8142E6D8658005205EE01EE0608858
:104E4000E18A884218D2A08961882289401A03B277
:104E50006089401A114400B209B20246FDF704FC11
:104E6000002804BF03B0BDE8F08F6088401C80B20A
:104E70006080E18A8142E6D827701AE7A189E08A3A
:104E8000B4F806C0091A0BB26189091A0AB221895D
:104E90000144604409B200B2FDF7E6FB002804BFFC
:104EA00003B0BDE8F08F84F800A002E700E026E040
:104EB000606A08B300F04CFCB4F90C10B4F9082097
:104EC0001144081A05EB600000B20090606A00F01F
:104ED00047FCB4F90A10B4F9062001231144081A5A
:104EE00005EB600000B2626A009905F08BFB0028B8
:104EF00004BF03B0BDE8F08F07202070D9E6606AD8
:104F0000C8B100F02DFCB4F90A10B4F90620891AD2
:104F1000B4F90E201144884221DC2546606A00F075
:104F200017FCB5F90C10B5F90820891AB5F90E204F
:104F30001144884213DCA08A3080B4F90E0000903E
:104F4000B4F90C30B4F90A20B4F90810B4F9060029
:104F5000FDF7B0FB002804BF03B0BDE8F08F0020D0
:104F6000207003B00120BDE8F08F0000EE000020AB
:104F70004C0000202DE9F04FAB4EAC4FAC4C83B051
:104F80004FF0020A4FF0030B01254FF005084FF0D8
:104F9000FF0960780828FCD2DFE800F004254869A2
:104FA0008AAAE0FBB4F90E00002804BF6570A58052
:104FB00019D0218A3180E18ACDF80890411A09B2CE
:104FC000CDE90010B4F90C30B4F90A20B4F9081096
:104FD000B4F90600FCF72CFF002812BF84F801800A
:104FE00003B0BDE8F08F208A3080A088E18A884233
:104FF00018D280B2218962890144121AE38809B269
:10500000184412B200B20B46FDF72EFB002804BF75
:1050100003B0BDE8F08FA088401C80B2A080E18A78
:105020008142E6D8A58084F801A0B2E7A088E18A91
:10503000884218D2A089A1882289401A03B2E08848
:105040000844114400B209B20246FDF70DFB0028E6
:1050500004BF03B0BDE8F08FA088401C80B2A080E0
:10506000E18A8142E6D8A58084F801B091E7A08862
:10507000E18A884218D280B2A1896289091A121A7B
:10508000E38809B2184412B200B20B46FDF7ECFAFD
:10509000002804BF03B0BDE8F08FA088401C80B298
:1050A000A080E18A8142E6D8A5800420607070E784
:1050B000A088E18A884218D2A089A1882289401A52
:1050C00003B26089401A114400B209B20246FDF7EA
:1050D000CBFA002804BF03B0BDE8F08FA088401CC5
:1050E00080B2A080E18A8142E6D884F8018050E74E
:1050F000608A3080B4F90E00A8B1F0213970E18ADD
:10510000401A00B20090B4F90C30B4F90A20B4F996
:105110000810B4F90600FFF71FF9002804BF03B018
:10512000BDE8F08F18E0B4F90C00B4F908106289FA
:10513000401A01EB600003B2E08AB4F806C0121A0C
:105140000144604412B209B200B2FDF78DFA0028A2
:1051500004BF03B0BDE8F08F06203AE0A08A30809B
:10516000B4F90E00B0B10F213970E18A401A00B2D3
:105170000090B4F90C30B4F90A20B4F90810B4F96D
:105180000600FFF7E9F8002804BF03B0BDE8F08F80
:105190001CE020E0B4F90CC0E08AACEB00010BB2DB
:1051A0006189091A0AB2B4F90810ACEB010C01EBE1
:1051B0006C01B4F806C0491C604409B200B2FDF7A6
:1051C00053FA002804BF03B0BDE8F08F87F80090C1
:1051D00007206070DDE6606A00B300F0B9FAB4F948
:1051E0000C10B4F908201144081A05EB600006B24F
:1051F000606A00F0B5FAB4F90A10B4F90620012388
:105200001144081A05EB600000B23146626A05F0ED
:10521000F9F9002804BF03B0BDE8F08F00206070EA
:1052200003B00120BDE8F08FEE00002093000020C5
:105230004C000020F8B50121482005F049FC40F65B
:105240000200ADF800000324114E8DF80240102535
:105250008DF803506946304600F01EF845F22000F4
:10526000ADF800008DF802408DF8035069463046D5
:1052700000F012F80420ADF800008DF8024048203C
:105280008DF803006946034800F006F8F8BD0000F9
:10529000000C0140001801402DE9F04104460026B1
:1052A000A0F180400D46B0F584301CBFA4F18040D1
:1052B000B0F586301BD0A4F18040B0F588301CBF1B
:1052C000A4F18040B0F58A3011D0A4F18040B0F54F
:1052D0008C301FBFA4F18040B0F58E30A4F1804027
:1052E000B0F5903003D0B2213CA00AF011FCE87870
:1052F000002818BF04280FD0282818BF48280BD032
:10530000142818BF102807D01C2818BF182803D04D
:10531000B32132A00AF0FCFB288818B9B4212FA0D1
:105320000AF0F6FBE87800F00F0710F0100F0BD032
:10533000A87801281CBF0228032803D0BB2127A07E
:105340000AF0E6FBA878074328884FF00F0C10F00E
:10535000FF0F4FF0010318BF216819D02A8803FA04
:1053600006F0024082420FD1B2000CFA02F821EAA4
:10537000080107FA02F21143EA78282A08BF60619F
:1053800002D0482A08BF2061761C082EE6D321608F
:105390002888FF2886BF62680020BDE8F08100BF32
:1053A00000F108012E8803FA01F10E408E420FD160
:1053B00086000CFA06F822EA080207FA06F63243DB
:1053C000EE78282E08BF6161EE78482E08BF216173
:1053D000401C0828E4D36260BDE8F0812E2E2F4CDB
:1053E00069627261726965732F53544D333246316D
:1053F00030785F5374645065726970685F44726995
:105400007665722F7372632F73746D333266313029
:10541000785F6770696F2E630000000070B5054605
:105420000026A0F180400C46B0F584301CBFA5F1E9
:105430008040B0F586301CD0A5F18040B0F58830B2
:105440001CBFA5F18040B0F58A3012D0A5F1804094
:10545000B0F58C301FBFA5F18040B0F58E30A5F1BE
:105460008040B0F5903004D04FF48F711AA00AF04C
:105470004FFB012C18BF022C28D0042C18BF082C7D
:1054800024D0102C18BF202C20D0402C18BF802CEA
:105490001CD0B4F5807F18BFB4F5007F16D0B4F5EA
:1054A000806F18BFB4F5006F10D0B4F5805F18BFDF
:1054B000B4F5005F0AD0B4F5804F18BFB4F5004FC3
:1054C00004D040F21F1104A00AF022FBA868204279
:1054D00018BF0126304670BD2E2E2F4C69627261B6
:1054E000726965732F53544D3332463130785F53B0
:1054F00074645065726970685F4472697665722F72
:105500007372632F73746D3332663130785F6770F6
:10551000696F2E630000000070B50446A0F1804062
:105520000D46B0F584301CBFA4F18040B0F5863044
:105530001CD0A4F18040B0F588301CBFA4F180409D
:10554000B0F58A3012D0A4F18040B0F58C301FBF86
:10555000A4F18040B0F58E30A4F18040B0F59030D9
:1055600004D040F2791105A00AF0D2FA25B94FF41F
:10557000BD7102A00AF0CCFA656170BD2E2E2F4CD1
:1055800069627261726965732F53544D33324631CB
:1055900030785F5374645065726970685F447269F3
:1055A0007665722F7372632F73746D333266313088
:1055B000785F6770696F2E630000000070B5044665
:1055C000A0F180400D46B0F584301CBFA4F18040AE
:1055D000B0F586301CD0A4F18040B0F588301CBFF7
:1055E000A4F18040B0F58A3012D0A4F18040B0F52B
:1055F0008C301FBFA4F18040B0F58E30A4F1804004
:10560000B0F5903004D040F2691105A00AF080FA9C
:1056100025B94FF4B57102A00AF07AFA256170BD80
:105620002E2E2F4C69627261726965732F53544D2F
:105630003332463130785F537464506572697068F4
:105640005F4472697665722F7372632F73746D3362
:1056500032663130785F6770696F2E63000000003A
:105660002DE9FF4F85B005464FF0C04B0798129FBC
:10567000089E10F8011B079006980490684600F0F9
:1056800053F84FF0000800BF04981DF808A000244C
:1056900000EB0809C4F107002AFA00F010F0010F2E
:1056A00005EB040080B21FFA89F10CD0F02838BF56
:1056B000B1F5A07F13D202F099FB2221ABF80010C4
:1056C00018490E800BE0F02838BFB1F5A07F06D254
:1056D00002F08CFB2221ABF8001012490F80601CF5
:1056E00084B2082CD6D308F101001FFA80F8B8F173
:1056F000100FC9D3E82D3CBF05F1080085B209D3CE
:1057000006984FF00005B0F5987F3ABF103080B290
:1057100000200690079800780028A7D109B0BDE8BE
:10572000F08F000000000260084A02EB0111A1F5B1
:105730008061D1F800220260D1F804224260D1F8E1
:1057400008228260D1F80C12C16070478CE902080F
:105750000188002912BF00204068B0F9020070479C
:105760000188002912BF00204068B0F9040070478A
:105770002DE9F05F002501462E4601226B480BF013
:1057800093F8DFF8AC81014688F8000069A00AF0C0
:105790000FF8DFF898B1DBF80C00002884BF4FF653
:1057A000FA77674C76D920786168A6EB0000084448
:1057B00086B2644B4FF4E05263495C480BF06AF9DF
:1057C00088F8000020B1C1B260A009F0F1FFFEE747
:1057D000002D5FD15C480021DBF80C9021706160E6
:1057E00003784FF4E0520D46302B07D0492B01BF10
:1057F0004378442B8378332B27D109E04378262B39
:1058000001BF8378B22BC378752B1ED101256DE0C3
:10581000C1780329FAD18179C3794906090903F0CE
:105820007F0301EB8321037A03F07F0301EBC311B4
:10583000437A03F07F0319440A3141F6FF3399425A
:1058400084BFA1F5E050606050D810F801C0531E2D
:1058500007E000BF491C4FEA0C6C10F801A04AEAAF
:105860001C4C27EA0C0ABAF1000F18BF8B42F1D882
:10587000994207D3104410F8010CFF2808BF0120FB
:1058800034D105E001F12F0C9C4528BF302002D314
:1058900020702BE030E0491C435C891C89B24FEA40
:1058A000131CC3F38105914213D2435C582B0CD1D6
:1058B000431893F801A0BAF1690F01BF93F802A051
:1058C000BAF16E0FDB78672B1CD0491C89B291426C
:1058D000EBD3214850F82C00C11700EB5170C110D8
:1058E000B9FBF1F04FF47A7100FB01F506F5E050D9
:1058F00086B2B1453FF657AF0C480AF0F1FE284694
:10590000BDE8F09F08314218405C5378528852BA83
:1059100063F31F4242EA006000EBC000C1010F4880
:1059200050F82500B1FBF0F0DCE700001CEB002094
:1059300039020020464F50454E3D25640A000000C4
:10594000CC0100204C020020D4CC002052656164C0
:105950003D25640A0000000050E9020840E9020801
:1059600008B5B0F90010002902BF4068807908BD71
:1059700001291CBF002008BD6B4601220621FEF74D
:1059800023FB9DF8000008BD2DE9F0430446B1F962
:10599000000085B00F46002832D001281EBF00202D
:1059A00005B0BDE8F08302AB082200213846FEF7BF
:1059B0000BFBBDF80A000025C6B2BDF80C0000F0D4
:1059C000FF0814F8010B0F2888BF4FF0080913D9FE
:1059D000B04228BF80450BD3801B09EB80016B468A
:1059E00004223846FEF7F0FA9DF80000284405B27C
:1059F00014F8010B0F28EBD805B02846BDE8F0835A
:105A00004868002300F1080C4188828814F8010BD3
:105A1000C9B2D2B20F280CD9884228BF824204D31F
:105A2000401A1CF82000184403B214F8010B0F2888
:105A3000F2D805B01846BDE8F083000006480068BB
:105A400006480168011D0968054909680549096892
:105A5000011F09680168FDE738ED00E028ED00E06E
:105A600030ED00E03CED00E02DE9FF4FCFB000202D
:105A700004464A905C980068002840F33B825298A4
:105A800052994069896921B15C994969A142C8BFAD
:105A900000205C995C9AC9681269A242C8BF0021C3
:105AA000DDE95062CDE932015C984F9B0021D0F8CE
:105AB00018C002EB84070A4603F14400BCF1070F4B
:105AC00021DACCF1070813AB06F1200C5FF00905D1
:105AD000D0F8009049FA08F9A9EB0202511A50F8DF
