:020000040800F2
:1000000060E40020F10900087D7A000839520008F8
:10001000D5700008712A000839D9000800000000D6
:100020000000000000000000000000004501000882
:10003000213800080000000079010008F5C8000818
:100040000B0A00080B0A00080B0A00080B0A00083C
:100050000B0A00080B0A00080B0A00080B0A00082C
:100060000B0A00080B0A00080B0A00080B0A00081C
:100070000B0A00080B0A00080B0A00080B0A00080C
:100080000B0A00080B0A00080B0A00080B0A0008FC
:100090000B0A00080B0A00080B0A00080B0A0008EC
:1000A0000B0A00080B0A00080B0A00080B0A0008DC
:1000B0000B0A00080B0A00080B0A00080B0A0008CC
:1000C0000B0A00080B0A00080B0A00080B0A0008BC
:1000D0000B0A000879D300080B0A00080B0A000875
:1000E0000B0A00080B0A00080B0A00080B0A00089C
:1000F0000B0A00080B0A00080B0A00080B0A00088C
:100100000B0A0008B19C00080B0A00080B0A000843
:100110000B0A00080B0A00080B0A00080B0A00086B
:100120000B0A00080B0A0008E52D00080B0A00085E
:10013000DFF80CD001F0C8F80048004765F8000867
:1001400060E400201A4B19680868B0E8F00F80F3EB
:1001500009884FF0000080F311884EF00D0E7047B3
:100160000000000003480068006880F3088862B659
:1001700000DF00BF08ED00E0EFF309800C4B1A68C8
:1001800020E9F00F106008B54FF0BF0080F3118830
:1001900010F06AFC4FF0000080F31188BDE80840C1
:1001A00019680868B0E8F00F80F30988704700BF4D
:1001B000E00100204FF0BF0080F3118870474FF03E
:1001C000000080F31188704781FB002070470146D2
:1001D0004FF0000081EAE170A0EBE1707047000091
:1001E0002DE9F04F82B001904FF000744FF000788D
:1001F0004FF000054FF0000952F804CB52F804EB21
:100200000868CB6DC0FB0C45D1F88000CEF1000E24
:10021000C3FB0E45D1F8DC30C0FB0C89C3FB0E8953
:1002200052F804CB52F804EB48688B6DC0FB0C45C8
:10023000D1F88400CEF1000EC3FB0E45D1F8D830C2
:10024000C0FB0C89C3FB0E8952F804CB52F804EBB7
:1002500088684B6DC0FB0C45D1F88800CEF1000ECC
:10026000C3FB0E45D1F8D430C0FB0C89C3FB0E890B
:1002700052F804CB52F804EBC8680B6DC0FB0C4578
:10028000D1F88C00CEF1000EC3FB0E45D1F8D03072
:10029000C0FB0C89C3FB0E8952F804CB52F804EB67
:1002A0000869CB6CC0FB0C45D1F89000CEF1000E74
:1002B000C3FB0E45D1F8CC30C0FB0C89C3FB0E89C3
:1002C00052F804CB52F804EB48698B6CC0FB0C4528
:1002D000D1F89400CEF1000EC3FB0E45D1F8C83022
:1002E000C0FB0C89C3FB0E8952F804CB52F804EB17
:1002F00088694B6CC0FB0C45D1F89800CEF1000E1C
:10030000C3FB0E45D1F8C430C0FB0C89C3FB0E897A
:1003100052F804CB52F804EBC8690B6CC0FB0C45D7
:10032000D1F89C00CEF1000EC3FB0E45D1F8C030D1
:10033000C0FB0C89C3FB0E8901984FF4FE4E4EF0B2
:10034000FF0E4FEA946444EA85144FEAE47CBCEB68
:10035000E43F18BF8CEA0E044FEA986848EA89180F
:100360004FEAE87CBCEBE83F18BF8CEA0E0804803B
:10037000A0F8028002F5707201F580514FF0007410
:100380004FF000784FF000054FF0000952F804CB11
:100390000868D1F88030C0FB0C45C3FB0C8952F8CB
:1003A00004CB4868D1F88430C0FB0C45C3FB0C89F2
:1003B00052F804CB8868D1F88830C0FB0C45C3FBE9
:1003C0000C8952F804CBC868D1F88C30C0FB0C45BE
:1003D000C3FB0C8952F804CB0869D1F89030C0FBFC
:1003E0000C45C3FB0C8952F804CB4869D1F8943012
:1003F000C0FB0C45C3FB0C8952F804CB8869D1F8CB
:100400009830C0FB0C45C3FB0C8952F804CBC8697B
:10041000D1F89C30C0FB0C45C3FB0C8901984FF40C
:10042000FE4E4EF0FF0E4FEA946444EA85144FEA04
:10043000E47CBCEBE43F18BF8CEA0E044FEA9868FA
:1004400048EA89184FEAE87CBCEBE83F18BF8CEA21
:100450000E08A0F84040A0F84280A2F57872A1F5FD
:1004600070614FF00F0C00F10400CDF800C0019056
:100470004FF000744FF000784FF000764FF0007AA4
:100480004FF000054FF000094FF000074FF0000B50
:1004900052F804CB52F804EB0868CB6DC0FB0C4556
:1004A000C0FB0E67CEF1000EC3FB0C67C3FB0E450D
:1004B000D1F8DC30D1F88000C3FB0E89C3FB0CAB54
:1004C000CEF1000EC0FB0C89C0FB0EAB52F804CB82
:1004D00052F804EB48688B6DC0FB0C45C0FB0E67FF
:1004E000CEF1000EC3FB0C67C3FB0E45D1F8D8302C
:1004F000D1F88400C3FB0E89C3FB0CABCEF1000E18
:10050000C0FB0C89C0FB0EAB52F804CB52F804EBD5
:1005100088684B6DC0FB0C45C0FB0E67CEF1000E2A
:10052000C3FB0C67C3FB0E45D1F8D430D1F888006B
:10053000C3FB0E89C3FB0CABCEF1000EC0FB0C89D4
:10054000C0FB0EAB52F804CB52F804EBC8680B6D3D
:10055000C0FB0C45C0FB0E67CEF1000EC3FB0C6761
:10056000C3FB0E45D1F8D030D1F88C00C3FB0E8907
:10057000C3FB0CABCEF1000EC0FB0C89C0FB0EAB75
:1005800052F804CB52F804EB0869CB6CC0FB0C4565
:10059000C0FB0E67CEF1000EC3FB0C67C3FB0E451C
:1005A000D1F8CC30D1F89000C3FB0E89C3FB0CAB63
:1005B000CEF1000EC0FB0C89C0FB0EAB52F804CB91
:1005C00052F804EB48698B6CC0FB0C45C0FB0E670E
:1005D000CEF1000EC3FB0C67C3FB0E45D1F8C8304B
:1005E000D1F89400C3FB0E89C3FB0CABCEF1000E17
:1005F000C0FB0C89C0FB0EAB52F804CB52F804EBE5
:1006000088694B6CC0FB0C45C0FB0E67CEF1000E39
:10061000C3FB0C67C3FB0E45D1F8C430D1F898007A
:10062000C3FB0E89C3FB0CABCEF1000EC0FB0C89E3
:10063000C0FB0EAB52F804CB52F804EBC8690B6C4C
:10064000C0FB0C45C0FB0E67CEF1000EC3FB0C6770
:10065000C3FB0E45D1F8C030D1F89C00C3FB0E8916
:10066000C3FB0CABCEF1000EC0FB0C89C0FB0EAB84
:1006700001F5807101984FF4FE4E4EF0FF0E4FEAE7
:10068000946444EA85144FEAE47CBCEBE43F18BF71
:100690008CEA0E044FEA986848EA89184FEAE87C29
:1006A000BCEBE83F18BF8CEA0E084FEA966646EAB4
:1006B00087164FEAE67CBCEBE63F18BF8CEA0E06D5
:1006C0004FEA9A6A4AEA8B1A4FEAEA7CBCEBEA3FA5
:1006D00018BF8CEA0E0ADDF800C000EBCC0E2EF835
:1006E000026B2EF802AB20F8024B20F8028BBCF113
:1006F000010C7FF4BAAE02B0BDE8F08F2DE9F04FE7
:1007000082B001904FF000744FF0000552F804CB16
:1007100052F804EB0868CB6DCEF1000EC0FB0C451F
:10072000C3FB0E4552F804CB52F804EB48688B6DBE
:10073000CEF1000EC0FB0C45C3FB0E4552F804CBB6
:1007400052F804EB88684B6DCEF1000EC0FB0C45EF
:10075000C3FB0E4552F804CB52F804EBC8680B6D8E
:10076000CEF1000EC0FB0C45C3FB0E4552F804CB86
:1007700052F804EB0869CB6CCEF1000EC0FB0C45BF
:10078000C3FB0E4552F804CB52F804EB48698B6C5E
:10079000CEF1000EC0FB0C45C3FB0E4552F804CB56
:1007A00052F804EB88694B6CCEF1000EC0FB0C458F
:1007B000C3FB0E4552F804CB52F804EBC8690B6C2E
:1007C000CEF1000EC0FB0C45C3FB0E4501984FF463
:1007D000FE4E4EF0FF0E4FEA946444EA85144FEA51
:1007E000E47CBCEBE43F18BF8CEA0E04048002F505
:1007F000707201F580514FF000744FF0000552F80F
:1008000004CB0868C0FB0C4552F804CB4868C0FB19
:100810000C4552F804CB8868C0FB0C4552F804CB59
:10082000C868C0FB0C4552F804CB0869C0FB0C45F6
:1008300052F804CB4869C0FB0C4552F804CB8869D8
:10084000C0FB0C4552F804CBC869C0FB0C450198AD
:100850004FF4FE4E4EF0FF0E4FEA946444EA8514C6
:100860004FEAE47CBCEBE43F18BF8CEA0E0404843E
:10087000A2F57872A1F570614FF00F0C00F1020043
:10088000CDF800C001904FF000744FF000764FF0AB
:1008900000054FF0000752F804CB52F804EB08684B
:1008A000CB6DC0FB0C45C0FB0E67CEF1000EC3FB49
:1008B0000E45C3FB0C6752F804CB52F804EB4868B2
:1008C0008B6DC0FB0C45C0FB0E67CEF1000EC3FB69
:1008D0000E45C3FB0C6752F804CB52F804EB886852
:1008E0004B6DC0FB0C45C0FB0E67CEF1000EC3FB89
:1008F0000E45C3FB0C6752F804CB52F804EBC868F2
:100900000B6DC0FB0C45C0FB0E67CEF1000EC3FBA8
:100910000E45C3FB0C6752F804CB52F804EB086990
:10092000CB6CC0FB0C45C0FB0E67CEF1000EC3FBC9
:100930000E45C3FB0C6752F804CB52F804EB486930
:100940008B6CC0FB0C45C0FB0E67CEF1000EC3FBE9
:100950000E45C3FB0C6752F804CB52F804EB8869D0
:100960004B6CC0FB0C45C0FB0E67CEF1000EC3FB09
:100970000E45C3FB0C6752F804CB52F804EBC86970
:100980000B6CC0FB0C45C0FB0E67CEF1000EC3FB29
:100990000E45C3FB0C6701F5807101984FF4FE4EC4
:1009A0004EF0FF0E4FEA946444EA85144FEAE47C6B
:1009B000BCEBE43F18BF8CEA0E044FEA966646EAA9
:1009C00087164FEAE67CBCEBE63F18BF8CEA0E06C2
:1009D000DDF800C000EB8C0E2EF8026B20F8024B05
:1009E000BCF1010C7FF44CAF02B0BDE8F08F000009
:1009F0000648804706480047FEE7FEE7FEE7FEE7B9
:100A0000FEE7FEE7FEE7FEE7FEE7FEE715C90008A2
:100A10003101000810B5431A934209D2831888188F
:100A200003E010F8011D03F8011D521EF9D210BD9C
:100A300040EA01039B0703D009E008C9121F08C060
:100A4000042AFAD203E011F8013B00F8013B521EE0
:100A5000F9D210BDD2B201E000F8012B491EFBD241
:100A600070470022F6E710B50446084611460246D4
:100A70002046FFF7EFFF204610BD034600E0401C74
:100A80000278002AFBD111F8012B00F8012B002A73
:100A9000F9D11846704730B50EE003460A4601E02A
:100AA0005B1C521C1C781578AC4201D1002CF7D18C
:100AB00015F0FF0F04D0401C0278002AEDD1002071
:100AC00030BD10B5044604E00B7800F8013B03B1DB
:100AD000491C521EF8D2204610BD0146002000E0FD
:100AE000401C0A5C002AFBD17047034611F8012B19
:100AF00000F8012B002AF9D11846704730B5054699
:100B00000020034600E05B1C934205D2EC5CC85C0D
:100B1000201A01D1002CF6D130BDF0B480EA0102D8
:100B2000D20F4300B3EB410F02D2034608461946E9
:100B30004B0042D0C30DDDB2C1F3C7542C1B202C97
:100B400035DAC1F3160141F4000502B16D42C4F17A
:100B5000200605FA06F125412844B3EBD05F23D0E7
:100B6000C2B1012CA0EBC35009DCF0BC4FF0004235
:100B700002EAC35200F50000DBB200F018BB4000EF
:100B800000F1807000EBC350A0F1807040EAD1709A
:100B9000490009E0490841EAC071A0EBC35000F5E3
:100BA0000000400800EBC350F0BC00F0F7BA51421F
:100BB000012303EB4101801AF6E7F0BC704781F096
:100BC0000041AAE780F00040A7E780EA010210B5E3
:100BD00002F00042400026D04B0023D04FEA1061C3
:100BE00001EB1361C0F35600C3F3560340F4000059
:100BF00043F40003A0FB0330A1F17F014FEA004062
:100C00001C0401D000F1010050EA134001D440005F
:100C1000491EC3B20C0604EBD010401C4008802BC8
:100C200002D003E0002010BD20F00100002900DA0E
:100C30000020104310BD80EA010202F0004330B4EE
:100C400030F0004221F0004015D0A0B1C0F3C755EC
:100C5000C2F3C754C2F31601C0F31600651B41F47A
:100C6000000140F400007D35814201D36D1C00E09D
:100C70004900002D02DA30BC002070474FF400021A
:100C80000024814201D3091A144352084FEA41015A
:100C9000F7D151B1814202D14FF0004105E002D2BB
:100CA0004FF0010101E06FF0010104EBC55030BCD1
:100CB000184400F073BA420005D0C0F3C752524244
:100CC000914201DC0020704700EBC15070472DE9D4
:100CD000FE4F074681EA0300C00F0E46019021F047
:100CE000004123F00044B81AA14105D238463146EC
:100CF00017461E460B46024623F00040104304D11F
:100D00003846314603B0BDE8F08F350DC5F30A0013
:100D1000C3F30A510290401A0090402868DAC3F3E6
:100D2000130040F4801B0198924620B10023D2EBBF
:100D3000030A63EB0B0B00985946C0F14002504682
:100D400000F0FBF980460C4650465946009A00F0E8
:100D500013FAC0197141EF1785EA11533B4340D094
:100D6000019A52B3009A012A11DC0022801A4FF036
:100D7000004361EB055103EA05538018CDE90023D8
:100D800041F580114246234600F04BFABAE72E05A2
:100D90000025401B61EB0601401941F58012001847
:100DA00052412818A6F5001343EB020140EAD47023
:100DB000294318EB0808644113E064084FEA380837
:100DC0004FF0000244EAC0744FEA0553801A61EB09
:100DD0000301801841F5801149084FEA300080185E
:100DE00059414246234603B0BDE8F04F00F00CBA2B
:100DF0000198012240000023D0EB020263EBE07374
:100E000001984FEAE074381A66EB0401EBE783F0CF
:100E100000435CE781F0004159E72DE9FE4F81EA8C
:100E2000030421F0004504F0004423F000414FF09A
:100E3000000A009450EA050302D052EA010304D1EB
:100E40000020014603B0BDE8F08FC1F30A53C5F39B
:100E50000A541C44A0FB02B3C5F3130545F4801CDF
:100E6000C1F3130141F480180CFB023300FB083E70
:100E7000A4F2F334810A930A41EA8C5143EA88537D
:100E80000194A1FB03474FEA9C2505FB03734FEA3E
:100E9000982601FB06373D05260545EA1435BBEBD0
:100EA00006016EEB0503850E920E45EA8C1542EAAB
:100EB0008812A5FB0206261E67EB00070C0D44EA0C
:100EC0000334A41947EB1350C1F313064FF000038A
:100ED00019464FEA033343EA165343EA0403019CDD
:100EE000E5FB0201A4F10C040294009C4FEA0632D7
:100EF000CDE900A400F095F9A4E72DE9F04D81EAD1
:100F0000030404F0004B21F0004714464FF0000AA0
:100F100023F0004150EA070220D054EA01021DD01C
:100F2000C1F30A550246C1F31300C7F30A56C7F3CB
:100F3000130340F4801143F48013A6EB0508101B43
:100F4000D64608F2FD3873EB010002D308F1010820
:100F500001E092185B41B8F1000F03DA002001466E
:100F6000BDE8F08D00204FF48015064607460EE0E0
:100F7000B2EB040C73EB010C04D3121B064363EBBE
:100F800001032F436D084FEA300092185B4150EA8D
:100F9000050CEDD152EA030012D082EA040083EA84
:100FA0000105284303D100224FF0004308E0101B45
:100FB0008B4102D20122002302E06FF001025310A4
:100FC0001AEB060047EB085110EB0A0041EB0B014E
:100FD000BDE8F04D00F018B9C10F80EAE070084498
:100FE000CA079623002100F0E2B89623002211469A
:100FF00000F0DDB80EB5C10F80EAE0700844CA0702
:10100000002140F233438DE80E000A460B4600F003
:1010100008F903B000BD00F0004220F00040C10D0F
:10102000C0F3160040F400007F2901DA0020704769
:10103000962903DCC1F19601C84001E09639884049
:10104000002AF4D04042704720F00040C10DC0F3A8
:10105000160040F400007F2901DA0020704796292D
:1010600003DCC1F19601C84070479639884070474B
:1010700070B5C1F30A5201F000450024C1F3130119
:1010800040F2FF3341F480119A4201DA002070BD32
:1010900040F233439A42A2F2334203DC524200F060
:1010A0005BF800E090402C43F1D0404270BD00005E
:1010B00030B5002904DB4FF00044404264EB0101ED
:1010C000002B04DB4FF00044524264EB03038B42DD
:1010D00008BF824230BD00002DE9F05F05460020C8
:1010E00092469B4688460646814640241BE0284699
:1010F00041464746224600F02FF852465B46801A8A
:10110000994110D310461946224600F016F82D1AC0
:1011100067EB01084F4622460120002100F00DF840
:1011200017EB00094E41201EA4F10104DFDC484604
:1011300031462A464346BDE8F09F202A04DB203A88
:1011400000FA02F1002070479140C2F1200320FA1A
:1011500003F3194390407047202A04DB203A21FA18
:1011600002F00021704721FA02F3D040C2F12002C0
:101170009140084319467047202A06DBCB17203AD6
:1011800041FA02F043EAE071704741FA02F3D040BD
:10119000C2F1200291400843194670470029A8BFB8
:1011A0007047401C490008BF20F00100704710B490
:1011B000B0FA80FC00FA0CF050EA010404BF10BC45
:1011C000704749B1CCF1200421FA04F411FA0CF172
:1011D00018BF012121430843A3EB0C01CB1D0106DD
:1011E000000A002BBEBF002010BC704700EBC350AC
:1011F00010440029A4BF10BC7047401C490008BF20
:1012000020F0010010BC704710B5002B08DA401C1C
:1012100041F1000192185B411A4301D120F0010015
:1012200010BD2DE9F04D92469B4611B1B1FA81F205
:1012300002E0B0FA80F220329046FFF77EFF0646C9
:101240000F4640EA0A0041EA0B0152465B4608435A
:1012500003D130463946BDE8F08D194652EA010007
:1012600015D0C8F140025046FFF776FF04460D4600
:10127000504659464246FFF760FF084301D001201F
:1012800000E00020044345EAE07526432F430A9816
:101290004FEAD625A0EB08000A304FEA46534FF03C
:1012A000000245EA47554FEAD72402D500200146FF
:1012B000D1E7010550196141DDE90845001969418F
:1012C000BDE8F04DA0E70000064C074D06E0E068E1
:1012D00040F0010394E8070098471034AC42F6D37D
:1012E000FEF72AFF74DA020894DA020870B501EBFF
:1012F000020410F8015B15F0070301D110F8013B5F
:101300002A1106D110F8012B03E010F8016B01F847
:10131000016B5B1EF9D12B0705D40023521E0FD49D
:1013200001F8013BFAE710F8013B02F10202A1EBE0
:10133000030303E013F8015B01F8015B521EF9D5CA
:10134000A142D6D3002070BD70B50446A0F1804004
:101350000D46B0F592301FBFA4F18040B0F5943037
:10136000A4F18040B0F59E3004D04FF497710AA0EC
:101370000CF0F2FD002D04BFA06820F0010009D0A0
:10138000012D04D040F22F1103A00CF0E5FDA06860
:1013900040F00100A06070BD2E2E2F4C696272617A
:1013A000726965732F53544D3332463130785F5331
:1013B00074645065726970685F4472697665722FF3
:1013C0007372632F73746D3332663130785F61648A
:1013D000632E630070B50546A0F180400C46B0F561
:1013E00092301FBFA5F18040B0F59430A5F1804048
:1013F000B0F59E3003D0DF2142A00CF0ADFD206897
:10140000002818BFB0F5803F1BD0B0F5003F18BFD3
:10141000B0F5403F15D0B0F5802F18BFB0F5A02F24
:101420000FD0B0F5C02F18BFB0F5E02F09D0B0F540
:10143000002F18BFB0F5102F03D0E02131A00CF021
:101440008BFD2079002818BF012803D0E1212DA0B1
:101450000CF082FD6079002818BF012803D0E2213A
:1014600028A00CF079FDA068002818BFB0F5003F57
:1014700015D0B0F5802F18BFB0F5C02F0FD0B0F544
:10148000002F18BFB0F5202F09D0B0F5402F18BF9E
:10149000B0F5602F03D0E3211AA00CF05DFDE068E9
:1014A000002818BFB0F5006F03D0E42115A00CF0A0
:1014B00053FD207C401E0F2803D9E52111A00CF01C
:1014C0004BFD6868227920F4807020F47020216838
:1014D00040EA022008436860A86819490840D4E936
:1014E00002211143627940EA42000843A860E86A99
:1014F00020F47001207C401EC0B241EA0050E86236
:1015000070BD00002E2E2F4C696272617269657386
:101510002F53544D3332463130785F5374645065E5
:10152000726970685F4472697665722F7372632F97
:1015300073746D3332663130785F6164632E63009B
:10154000FDF7F1FF2DE9F0410546A0F180400C4682
:1015500017461E46B0F592301FBFA5F18040B0F58A
:101560009430A5F18040B0F59E3004D040F2522175
:1015700048A00CF0F1FC002C18BF012C24D0022C48
:1015800018BF032C20D0042C18BF052C1CD0062C0F
:1015900018BF072C18D0082C18BF092C14D00A2CFF
:1015A00018BF0B2C10D00C2C18BF0D2C0CD00E2CEF
:1015B00018BF0F2C08D0102C18BF112C04D040F2EB
:1015C000532134A00CF0C8FCA7F10108B8F10F0FAB
:1015D00004D94FF415712FA00CF0BEFC002E18BFDB
:1015E000012E10D0022E18BF032E0CD0042E18BFCF
:1015F000052E08D0062E18BF072E04D040F2552124
:1016000024A00CF0A9FC0720092C0CD9EA68A4F14D
:101610000A0101EB4101884022EA000006FA01F1CB
:101620000843E86009E02A6904EB4401884022EAA3
:10163000000006FA01F1084328611F20072F0BD292
:101640006A6B08EB8801884022EA000004FA01F185
:1016500008436863BDE8F0810D2F0CD22A6BF91F97
:1016600001EB8101884022EA000004FA01F10843FD
:101670002863BDE8F081E96AA7F10D0202EB82025E
:10168000904021EA000004FA02F10843E862BDE854
:10169000F08100002E2E2F4C6962726172696573B1
:1016A0002F53544D3332463130785F537464506554
:1016B000726970685F4472697665722F7372632F06
:1016C00073746D3332663130785F6164632E63000A
:1016D00070B50446A0F180400D46B0F592301FBFB2
:1016E000A4F18040B0F59430A4F18040B0F59E3074
:1016F00004D04FF4E6710AA00CF02EFC002D04BFBC
:10170000A06820F4A00009D0012D04D040F2CD1132
:1017100003A00CF021FCA06840F4A000A06070BD04
:101720002E2E2F4C69627261726965732F53544D6E
:101730003332463130785F53746450657269706833
:101740005F4472697665722F7372632F73746D33A1
:1017500032663130785F6164632E63002DE9F047B3
:101760004F4E8CB04F4C86F85800316620684E4D75
:101770000027F065AF702A710320884668703A2010
:101780008DF800000C208DF801008DF8027001200A
:101790008DF80300684606F08BF9404604F086F9A0
:1017A0002069A4F5105A4FEA40080121022007F0F1
:1017B000BDFADFF8F890484601F046FC08EBD87017
:1017C000401003903A48CDE9000A10200290802092
:1017D000CDE9047080000690800007908000099099
:1017E0002020089069460A97484601F03DFF0122F3
:1017F0000621484601F0BCFE0121484601F0B0FB3D
:101800003046FFF76AF918B930462AA10CF01DFAE4
:101810002348FFF762F9282804D90F2228A120487D
:10182000FFF7F8F82AA00CF0E7F932A00CF0E4F981
:101830001B4939A00CF0E0F906F128013BA00CF09F
:10184000DBF93FA0F16D0CF0D7F996F8581044A0E1
:101850000CF0D2F94AA0316E0CF0CEF9297950A0E3
:101860000CF0CAF9E868D0F8C81755A00CF0C4F914
:101870005BA021690CF0C0F961A061690CF0BCF9B2
:1018800067A0A1690CF0B8F96DA0316D0CF0B4F946
:10189000716E0CB072A0BDE8F0470CF0ADB900005D
:1018A000EC600020D8B00020240200203004024068
:1018B000247400404E6F205469746C650000000071
:1018C0005469746C6520546F6F204C6F6E67000014
:1018D0002D2D204D50332066696C6520686561644C
:1018E000657220696E666F726D6174696F6E200D2E
:1018F0000A0000002D2D2D2D2D2D2D2D2D2D2D2DC2
:101900002D2D2D2D2D2D2D2D2D2D2D2D2D2D2D2D07
:101910002D2D2D0D0A0000002D2D204D503320744B
:1019200069746C65202573200D0A00002D2D204D53
:10193000503320617274697374202573200D0A007E
:101940002D2D204D50332062697472617465202002
:101950002020202020203D202564200D0A000000AA
:101960002D2D204D50332062697473506572536180
:101970006D706C6520203D202564200D0A0000005C
:101980002D2D204D50332073616D70726174652070
:101990002020202020203D202564200D0A0000006A
:1019A0002D2D204D5033206E4368616E7320202012
:1019B0002020202020203D202564200D0A0000004A
:1019C0002D2D204D5033206E4772616E53616D7026
:1019D0007320202020203D202564200D0A000000D7
:1019E0002D2D204D5033206F757470757453616DBB
:1019F0007073202020203D202564200D0A00000067
:101A00002D2D204D5033206C6179657220202020CF
:101A10002020202020203D202564200D0A000000E9
:101A20002D2D204D50332076657273696F6E202006
:101A30002020202020203D202564200D0A000000C9
:101A40002D2D204D5033206475726174696F6E20A6
:101A50002020202020203D202564200D0A000000A9
:101A60002D2D204D50332064617461737461727444
:101A7000202020202020203D202564200D0A000069
:101A800010B50021094801F06BFA094800210B4606
:101A90008170C16107480A4600680FF091F9064855
:101AA0000068BDE810400EF00BBF0000300402409B
:101AB00024020020500200206002002000B585B002
:101AC0000422002000920649CDE90110034603904C
:101AD0004FF4407203A105480FF0F8FA05B000BDBD
:101AE000600200204D50334465630000050001088A
:101AF00000B585B000200221CDE900100290034618
:101B000003904FF4C07203A106480FF0DFFA05B04E
:101B100000BD00004D6963726F6368697047554985
:101B2000000000005D00010800B585B0002005211F
:101B3000CDE90010029003460390802202A10548DF
:101B40000FF0C4FA05B000BD52656164427574744B
:101B50006F6E0000F900010884B000250095019522
:101B600002952B464FF400724CA14F4803950FF09D
:101B7000ADFAFFF7D9FFFFF7BBFF00F03FF9FFF722
:101B80009DFF4AA14AA00CF037F850A15AA00CF0D2
:101B900033F85CA25EA161A00CF02EF8654C002326
:101BA0000A22194620680EF0FBFF70B962A00CF003
:101BB00023F84FF47A700EF04BFD00230A221946E9
:101BC00020680EF0EDFF0028F0D05DA00CF014F8B6
:101BD000002004F00FF908F0C1F9012816D05BA02D
:101BE0000CF00AF84FF6FF7360A2642124200095E0
:101BF00003F048F908F0B2F9012804D04FF4FA6074
:101C00000EF026FDF6E75FA00BF0F6FF4FF6FF7330
:101C100065A278212C20009503F034F94FF4FA6086
:101C20000EF016FD65A009F043FEF0B2AA2804BF2D
:101C3000C6F30720552822D0002004F0DBF84FF629
:101C4000FF7361A264213C20009503F01BF94FF65D
:101C5000FF7361A278214420009503F013F96249D3
:101C600000200DF033F84FF6FF7360A28C2158204E
:101C7000009503F007F94FF47A700EF0E9FC5E4826
:101C800000231A46194600680FF09AF842F21070C5
:101C90000EF0DEFC00200EF005FDF7E74C45445445
:101CA00061736B3200000000D9040108312E30004E
:101CB0002D2D204261736963204D50332050726F87
:101CC0006A656374202573200D0A000048592D535E
:101CD0006D617274204D756C7469204D6564696125
:101CE00020446576656C6F706D656E7420426F611F
:101CF00072642056312E30002D2D202573202D2D7D
:101D00000D0A000031363A31373A35320000000012
:101D10004E6F762020392032303132002D2D204375
:101D20006F6D70696C65643A202573202573200DF2
:101D30000A0000004C02002057616974696E670058
:101D4000546172676574496E69740A002D2D2050C4
:101D50006C6561736520636F6E6E656374206120CE
:101D600053442063617264200D0A0000506C656169
:101D7000736520696E7365727420534420636172C9
:101D8000640000002D2D20534420636172642063A1
:101D90006F6E6E656374696F6E20646574656374DD
:101DA0006564200D0A0000005344206361726420C2
:101DB0006465746563746564204F4B00303A2F4D41
:101DC00075736963000000004E6F2044657465639D
:101DD0007420485A4C69620057726974696E6720B2
:101DE000485A4C69620000000CCD0020485A4C69EA
:101DF00062204F4B000000004402002000B585B077
:101E000000200321CDE900100290034603904FF417
:101E1000807203A105480FF059F905B000BD00001C
:101E2000546F75636853637265656E0075040108CD
:101E30002DE9F05FFF4CDDE90BB9DDF828A0054680
:101E40000F4690461E4600BF03F0B8FF10B10020B9
:101E5000BDE8F09F20781228F6D2DFE800F0098C68
:101E600054B2FDCAFCE1FBFAF9F8F7F6F5F4F330E9
:101E70004BF205500AFB00F0001420814BF2055094
:101E80000BFB00F0001460814FF4A030A0EB0A417E
:101E90000914A0EB0B40A1820014E082A4F80CA06E
:101EA000A4F80EB0002020826082A4F818A06083FD
:101EB000A083A4F81EB02084608411202070B4F99F
:101EC0001210B4F90A008142C4BF022020701ADC4B
:101ED000B4F91000A0836184B4F9082082422DDB9C
:101EE000B4F91420002ADCBFD21C02EB400206DD4C
:101EF000A389521D5B1EA381C31A02EB4302A28277
:101F0000401C208222E0A8EB0500F11B084300F0F2
:101F1000A58119F0020F0ED0F019431008EB0B0049
:101F200002B208EB0A0000B2394600F09CF9002822
:101F300008BFBDE8F09F042000F04DB9401C00B27E
:101F40002082B4F90C208242B8BFA081B4F91600F7
:101F50000028DCBFC01C00EB410006DDE289401D0B
:101F6000521EE2818A1A00EB4200E082481C608225
:101F7000012000F030B9B4F91800B4F90C1088420F
:101F800008D1B4F91E10B4F90E20914204BF1120FB
:101F9000207094D019F0010F10D0381A03B2A08B22
:101FA000404402B2E08B381A01B2208C404400B2A7
:101FB00000F059F9002808BFBDE8F09F032000F0A9
:101FC0000AB919F0020F11D0208C381A03B2E08B35
:101FD000404402B2A08B381A01B2208B404400B2B8
:101FE00000F041F9002808BFBDE8F09F052000F08F
:101FF000F2B819F0040F11D0608C304403B2E08BBA
:10200000404402B2608B304401B2208B404400B2A5
:1020100000F029F9002808BFBDE8F09F0720DAE0AA
:1020200019F0080F1DD0E08B304403B2608C40449F
:1020300002B2208B304401B2608B404400B200F009
:1020400012F90AE09CE053E085E03AE0C5E021E0C7
:10205000ABE008E0F0E0D5E069E0002808BFBDE8AB
:10206000F09F0920B7E019F0100F11D0E08B304439
:1020700003B2208C281A02B2208B304401B2A08B0C
:10208000281A00B200F0EFF8002808BFBDE8F09F62
:102090000B20A0E019F0200F11D0A08B304403B228
:1020A000208B281A02B2208C304401B2E08B281A0F
:1020B00000B200F0D8F8002808BFBDE8F09F0D205E
:1020C00089E019F0400F11D0608B381A03B2208BD1
:1020D000281A02B2608C381A01B2E08B281A00B2BA
:1020E00000F0C1F8002808BFBDE8F09F0F2072E0A3
:1020F00019F0800F11D0208B381A03B2608B281A88
:1021000002B2E08B381A01B2608C281A00B200F0DB
:10211000AAF8002808BFBDE8F09FA0892083208A84
:102120006083E089E083608A2084112053E019F005
:10213000040F0ED008EB0B0002B2F019411008EBAF
:102140000A0000B2334600F08EF8002808BFBDE850
:10215000F09F0E203FE019F0100F0FD006EB0B00A0
:1021600003B208EB0500421006EB0A0001B2284654
:1021700000F079F8002808BFBDE8F09F10202AE0A1
:1021800019F0080F0FD006EB0B0003B206EB0A00A4
:1021900001B208EB05004010424600F064F8002848
:1021A00008BFBDE8F09F0A2015E0A84528D019F027
:1021B000800F0FD0A7EB0A0003B208EB0500421016
:1021C000A7EB0B0001B2284600F04DF8002808BF2D
:1021D000BDE8F09F0C20207036E619F0010F0FD0FB
:1021E000A7EB0A0003B2A7EB0B0001B208EB050056
:1021F0004010424600F037F8002808BFBDE8F09FC5
:102200000620E8E7B74229D019F0400F0ED0F019A8
:102210004310A5EB0A0002B2A5EB0B0000B2394651
:1022200000F021F8002808BFBDE8F09F08202070CA
:102230000AE600006001002019F0200F0ED0A5EB87
:102240000A0002B2F0194110A5EB0B0000B23346B0
:1022500000F009F8002808BFBDE8F09F00202070BA
:102260000120BDE8F09F2DE9F04107460E461446D7
:102270001D4603F0A3FD00281CBF0020BDE8F0812F
:1022800005F101084645B8BF651C0EDA3C46AF4271
:1022900007DA3146204606F047FD601C04B2AC4226
:1022A000F7DB701C06B24645F0DB0120BDE8F0818B
:1022B0002DE9FF4F93B00746884603F07FFD0028C5
:1022C0001EBF002017B0BDE8F08F4BF205512098DB
:1022D0004FF000094843000C401C00B207902098C2
:1022E0004FF4A031A1EB0040209D06144FF0010AED
:1022F000002D00F0CF80079800240028A8BFDFF849
:1023000014B2C0F2C78000BF09F101000FFA80F9D2
:10231000BBF93400814504BF8AF0010A4FF000097F
:10232000BAF1000F7ED0A8EB0500129000B20B901E
:1023300015980B99204400B20090029006F0F4FC2E
:10234000A8EB040000B20190089015982844119061
:1023500000B20390089906F0E7FC169828440D9007
:1023600000B201460C90029806F0DEFC169820445C
:1023700000B2029001460990039806F0D5FC381B84
:1023800000B203900A900C9906F0CEFC781B1090D6
:1023900000B20C90099906F0C7FC08990C9806F059
:1023A000C3FCDDE90A0106F0BFFC9BF8040000282D
:1023B0005DD01298401E00B201460890009806F0C9
:1023C000B3FC1298401C00B201460990009806F038
:1023D000ABFC11980199401C00B20A9006F0A4FCD5
:1023E0001198401E00B20B90019906F09DFC0D98CB
:1023F000401E00B201460C90009806F095FC0D9826
:10240000401C00B201460D90009806F08DFC029928
:102410000A9806F089FC02990B9806F085FC0C9945
:10242000039800E023E006F07FFC0D99039806F086
:102430007BFC10980299401C00B2009006F074FCDE
:1024400010980299401E00B20A9006F06DFCDDE97A
:10245000000106F069FC01990A9806F065FC0999EB
:10246000039806F061FC0899039806F05DFC002EC5
:10247000DCBF06EB4400C01C05DD681E05B2601B16
:1024800006EB4000401D06B2601C04B2079884426F
:102490007FF73AAF1598B8420BD02098A8EB000010
:1024A00004B2234619463846159A04F025FA002846
:1024B000F7D0169840450AD02098381A04B2224620
:1024C00041461046169B04F017FA0028F7D01598DD
:1024D000C11B1698A0EB0800084317D01599209847
:1024E000084404B2224641461046169B04F004FA02
:1024F0000028F7D016992098084404B223461946BC
:102500003846159A04F0F8F90028F7D017B00120E2
:10251000BDE8F08F600100202DE9FF5F83460EA823
:10252000DDE91256B0E8800738200DF0CDF904003F
:1025300004BF04B0BDE8F09FA4F800B000206060C4
:1025400020720199A1810299E18103992182678218
:10255000A4F82880C4E90C5AA4F80A901549A1618E
:102560001549216215496162E061002E18BF66615C
:102570001BD06085A08555B161692846496902F084
:1025800013FE60856069406902F0FCFDA08520466D
:1025900001F070FE608910F0010F1CBF204602F0B0
:1025A000CFF8204604B0BDE8F09F05490968616195
:1025B000DFE70000C525000899290008592900080F
:1025C000840000202DE9F84F044603F0F7FB0028B3
:1025D00040F09F81D04DD14FDFF84483287800260A
:1025E000052880F05A81DFE800F0036EB6F6F500AA
:1025F00003F0E4FB002840F08C81618911F4004F66
:1026000012D06069008A3880B4F91230B4F9102011
:10261000B4F90E10B4F90C00FFF725FE002808BF2E
:10262000BDE8F88F00F039B9B4F92800E880B4F9B2
:1026300010C0B4F90C904242ACEB090303EB420327
:102640006B80B4F912A0B4F90EB011F4007FAAEBBC
:102650000B0303EB4202AA8033D111F0020F5CD0CE
:1026600061694A880B88C989DFF8B8E28144ACEB1C
:10267000000C8EF80060DFF8B0E2A8F80060AEF859
:1026800000900BEB0009DFF8A4B2ABF80090DFF884
:10269000A092A9F800C0DFF89C92AAEB000CA9F860
:1026A00000C0DFF894C2ACF80000A4480180A44840
:1026B000A5490280A3480380606B0860A3490320FA
:1026C000088001202870608910F4007F31D0606B91
:1026D00010B302F04FFCB4F90E10B4F912204FF011
:1026E00001091144081A09EB60000FFA80FA606BC7
:1026F00002F048FCB4F91010B4F90C200123114485
:10270000081A09EB600000B25146626B06F07EF8D1
:10271000002808BFBDE8F88F1BE011F0040F6169C5
:102720001DBF4B880A8889894A8804BF0B8849895C
:102730009AE710F4807F06D002F026F8002808BF40
:10274000BDE8F88F05E001F05FFE002808BFBDE896
:10275000F88F02202870206B00285DD0608910F06F
:10276000020F10D06069008938806069406909F003
:10277000C3FA618911F0100F0DD0208A628D801A82
:10278000401F80B217E010F0040F606914BFC088CA
:1027900080883880E9E711F0200F1CBFA089401D18
:1027A00008D1B4F90C00B4F910201044B4F92A206F
:1027B000801A401080B211F0800F03D0E189491DCA
:1027C00089B213E011F0400F06D0618AA28D891AF8
:1027D000C91E0AE019E00FE0B4F91210B4F90E2096
:1027E0001144B4F92C20891A491089B2584A108032
:1027F0005848018003202870206B05F049FB002811
:102800001ABF04202870BDE8F88FB5F9069003F0D0
:10281000D5FA00287DD143E0B5F906900420287050
:1028200003F0CCFA002874D1608910F0010F33D086
:102830000221A8F8001010F0040F606914BFC088CE
:1028400080883880208DB0B1A9F1050000B20090D9
:10285000608AA0EB090003B2208AA0EB090002B253
:10286000E089484401B2A089484400B2FFF720FD46
:1028700000284ED039E00096608A401F03B2208ABB
:10288000401F02B2E089401D01B2A089401D00B284
:10289000FFF70EFDE8B328E02E700120BDE8F88FA9
:1028A000608910F0010FF7D00221A8F8001010F095
:1028B000040F606914BFC08880883880208DB8B14B
:1028C000A9F1050000B20090608AA0EB090003B2F4
:1028D000208AA0EB090002B2E089484401B2A08935
:1028E000484400B2FFF7E4FC98B1A8F80060D3E7D1
:1028F0000096608A401F03B2208A401F02B2E0891E
:10290000401D01B2A089401D00B2FFF7D1FC002894
:10291000EBD10020BDE8F88F5E00002052000020BF
:1029200094010020640100206E000020700000204F
:102930007200002074000020760000207800002043
:102940007A0000207C0000208C0000207E00002007
:10295000960100209801002070B5054610780C46BD
:10296000022806D1608910F0010F04BF084601F06B
:10297000E7FE062D0AD0082D1CBF092D70BD608909
:1029800020F0040040F48040608170BD608944F212
:1029900004010843F8E70000428912F0020F55D104
:1029A0000B78022B02D0012B50D136E0B0F90CC0CD
:1029B000B1F902309C45BCBFB0F910C0634520DAC4
:1029C000B0F90EC0B1F904309C45BCBFB0F912009B
:1029D000834216DA487812F0080F05D0042835D162
:1029E00012F0040F40D141E004283DD0032802F04A
:1029F000040001D078B329E000281CBF07207047ED
:102A000034E012F0080F04BF487801281ED112F0FC
:102A1000040F1CBF0920704718E04B8800888342D0
:102A200004BF4878052811D1B1F9040012F0080F4D
:102A300012D0B92818BF9C280AD0392816D000BF58
:102A4000B1F904002C2811D0AC280DD0002070471B
:102A500012F0040F08D109E0392807D01C2805D04E
:102A6000B92818BF9C28EBD1082070470620704772
:102A7000FEE7000010B50021EF2340F23F120846A8
:102A8000FFF7F1FB0028F6D002480021C18601873C
:102A900010BD00006001002070B5464905462A249B
:102AA000486B10F0450F03D1486B10F0450FFBD079
:102AB00010F0040F05D00324042006F07DFE20460C
:102AC00070BD10F0010F05D00124204606F074FE01
:102AD000204670BD06F0C6FFA84234D140F2FF5038
:102AE00006F06AFE002007F0AFF8334908425ED0D6
:102AF00010F0004F1CBF1C2070BD10F0804F1CBF99
:102B0000092070BD10F0005F1CBF0A2070BD10F0DE
:102B1000805F1CBF0B2070BD10F0006F1CBF0C202D
:102B200070BD10F0806F1CBF0D2070BD10F0807F55
:102B30001CBF0E2070BD10F4000F1CBF0F2070BD15
:102B400010F4800F01D0102070BD10F4001F1CBFC6
:102B5000112070BD10F4801F1CBF122070BD10F436
:102B6000002F1CBF132070BD10F4802F1CBF142039
:102B700070BD10F4003F1CBF152070BD10F4803FE5
:102B80001CBF162070BD10F4004F1CBF172070BD75
:102B900010F4804F1CBF182070BD10F4005F1CBFE4
:102BA000192070BD10F0080F1CBF1A2070BD204600
:102BB00070BD00000080014008E0FFFD70B5050019
:102BC0000E4618BF102D03D0B0210BA00BF0C4F996
:102BD0000120184C00FA05F5002E04BF2068A84318
:102BE00007D0012E03D0B12103A00BF0B5F9206866
:102BF0002843206070BD00002E2E2F4C6962726148
:102C0000726965732F53544D3332463130785F53B8
:102C100074645065726970685F4472697665722F7A
:102C20007372632F73746D3332663130785F646111
:102C3000632E63000074004070B505000E4618BF97
:102C4000102D03D0EC210BA00BF086F9184CA0142A
:102C500000FA05F5002E04BF2068A84307D0012E16
:102C600003D0ED2103A00BF077F920682843206002
:102C700070BD00002E2E2F4C6962726172696573FF
:102C80002F53544D3332463130785F53746450655E
:102C9000726970685F4472697665722F7372632F10
:102CA00073746D3332663130785F6461632E630014
:102CB0000074004010B50121480706F0B7F8BDE8E0
:102CC000104000214FF0005006F0B0B870B50C462F
:102CD00009680546002918BF042910D00C2918BF1F
:102CE00014290CD01C2918BF242908D02C291CBF5A
:102CF00034293C2903D0792127A00BF02DF96068F5
:102D000000281CBF4028802803D07A2122A00BF085
:102D100023F9A268002A18BFB2F5807F21D0B2F54E
:102D2000007F18BFB2F5407F1BD0B2F5806F18BF8F
:102D3000B2F5A06F15D0B2F5C06F18BFB2F5E06F55
:102D40000FD0B2F5006F18BFB2F5106F09D0B2F511
:102D5000206F18BFB2F5306F03D07B210EA00BF0AF
:102D6000FBF8E068002818BF022803D07C210AA0E5
:102D70000BF0F2F81748016840F6FE72AA40914342
:102D8000D4E900231A43D4E9023C43EA0C031A4372
:102D9000AA401143016070BD2E2E2F4C69627261F2
:102DA000726965732F53544D3332463130785F5317
:102DB00074645065726970685F4472697665722FD9
:102DC0007372632F73746D3332663130785F646170
:102DD000632E630000740040002101604160816047
:102DE000C160704738B5002000901C4800F0DCFA44
:102DF0001B4C1C4D68B11C4800F078F8607840F01E
:102E00000100607000236A46194628680EF0EBF84E
:102E10000090164800F0C8FA68B1154800F066F84E
:102E2000607840F00200607000236A461946286806
:102E30000EF0D9F800900F4C20680EF0FDF9012833
:102E400004D120680EF0D8FA012803D00098012898
:102E500018BF38BD0DF0F4FB38BD000000040010B1
:102E60002402002050020020000500100002001083
:102E7000000300106002002010B5044610F0704FEF
:102E800002D00848044200D124B940F20E2106A025
:102E90000BF062F814F0805F19BF1248046012480A
:102EA000446010BD0000F0EF2E2E2F4C696272615D
:102EB000726965732F53544D3332463130785F5306
:102EC00074645065726970685F4472697665722FC8
:102ED0007372632F73746D3332663130785F646D53
:102EE000612E6300040402400000024010B5044655
:102EF00010F0704F02D00848044200D124B940F2CB
:102F0000AF2106A00BF028F814F0805F19BF12481B
:102F100004601248446010BD0000F0EF2E2E2F4CCC
:102F200069627261726965732F53544D3332463151
:102F300030785F5374645065726970685F44726979
:102F40007665722F7372632F73746D33326631300E
:102F5000785F646D612E630004040240000002404B
:102F600070B504461D480D4684421CBF1C4884426F
:102F700022D01C4884421CBF1B4884421CD01B48E2
:102F800084421CBF1A48844216D01A4884421CBF8F
:102F90001948844210D0194884421CBF1848844202
:102FA0000AD0184884421CBF1748844204D040F21B
:102FB000291116A00AF0D0FF55B1012D04D04FF40D
:102FC000957112A00AF0C8FF206840F0010003E0EC
:102FD00020684FF6FE710840206070BD0800024076
:102FE0001C000240300002404400024058000240F1
:102FF0006C00024080000240080402401C040240B1
:103000003004024044040240580402402E2E2F4C4B
:1030100069627261726965732F53544D3332463160
:1030200030785F5374645065726970685F44726988
:103030007665722F7372632F73746D33326631301D
:10304000785F646D612E63002DE9F05F484D494E55
:10305000494FDFF82881DFF82891DFF828A1DFF851
:1030600028B10446A84218BFB4421CD0BC4218BFC5
:10307000444518D04C4518BF544514D05C451CBF7E
:10308000424884420FD0424884421CBF4148844297
:1030900009D0414884421CBF4048844203D06F217C
:1030A0003FA00AF059FF20684FF6FE7108402060EB
:1030B000002020606060A060E0604848AC4204BF2F
:1030C000416841F00F011DD0B44204BF416841F096
:1030D000F00117D0BC4204BF416841F4706111D0C7
:1030E000444504BF416841F470410BD04C4504BFD6
:1030F000416841F4702105D0544504BF416841F452
:10310000700102D14160BDE8F09F5C4505D1416886
:1031100041F070614160BDE8F09F1C49081F8C427E
:1031200004BF016841F00F0114D019498C4204BF5B
:10313000016841F0F0010DD016498C4204BF0168CE
:1031400041F4706106D014498C4204BF016841F417
:10315000704102D10160BDE8F09F10498C4218BF58
:10316000BDE8F09F016841F470210160BDE8F09F67
:10317000080002401C0002403000024044000240AF
:10318000580002406C0002408000024008040240E7
:103190001C0402403004024044040240580402402F
:1031A0002E2E2F4C69627261726965732F53544DD4
:1031B0003332463130785F53746450657269706899
:1031C0005F4472697665722F7372632F73746D3307
:1031D00032663130785F646D612E6300000002401A
:1031E00070B500250446012818BF022C00F0AC8001
:1031F000042C18BF082C7DD0102C18BF202C79D09F
:10320000402C18BF802C75D0B4F5807F18BFB4F562
:10321000007F6FD0B4F5806F18BFB4F5006F69D030
:10322000B4F5805F18BFB4F5005F63D0B4F5804F8C
:1032300018BFB4F5004F5DD0B4F5803F18BFB4F5AA
:10324000003F57D0B4F5802F18BFB4F5002F7BD0C6
:10325000B4F5801F18BFB4F5001F75D0B4F5800F0A
:1032600018BFB4F5000F6FD0B4F1807F18BFB4F170
:10327000007F69D0B4F1806F18BFB4F1006F63D0E4
:10328000374884421CBFA4F18050B0F102005BD0EB
:10329000A4F18050001F1CBFA4F18050B0F10800C1
:1032A00052D0A4F1805010381CBFA4F18050B0F16E
:1032B000200049D0A4F1805040381CBFA4F18050B8
:1032C000B0F1800040D0A4F18050B0F580701CBFF8
:1032D000A4F18050B0F5007036D0A4F18050B0F564
:1032E00080601CBFA4F18050B0F500602CD0B4F118
:1032F000102F00E028E01CBFA4F18050B0F5005072
:1033000022D0A4F18050B0F580401CBFA4F18050C1
:10331000B0F5004018D0A4F18050B0F580301CBF4B
:10332000A4F18050B0F500300ED0A4F18050B0F57B
:1033300080201CBFA4F18050B0F5002004D040F2E2
:10334000B71108A00AF008FE14F0805F14BF1448FB
:1033500014480068204218BF0125284670BD0000AF
:10336000010000102E2E2F4C696272617269657324
:103370002F53544D3332463130785F537464506567
:10338000726970685F4472697665722F7372632F19
:1033900073746D3332663130785F646D612E630013
:1033A000000402400000024070B5002504460128D8
:1033B00018BF022C00F0AC80042C18BF082C7DD064
:1033C000102C18BF202C79D0402C18BF802C75D021
:1033D000B4F5807F18BFB4F5007F6FD0B4F5806F6F
:1033E00018BFB4F5006F69D0B4F5805F18BFB4F5AD
:1033F000005F63D0B4F5804F18BFB4F5004F5DD0C7
:10340000B4F5803F18BFB4F5003F57D0B4F5802F16
:1034100018BFB4F5002F7BD0B4F5801F18BFB4F5EA
:10342000001F75D0B4F5800F18BFB4F5000F6FD032
:10343000B4F1807F18BFB4F1007F69D0B4F1806F20
:1034400018BFB4F1006F63D0374884421CBFA4F1A9
:103450008050B0F102005BD0A4F18050001F1CBF6F
:10346000A4F18050B0F1080052D0A4F1805010387F
:103470001CBFA4F18050B0F1200049D0A4F18050CD
:1034800040381CBFA4F18050B0F1800040D0A4F1BE
:103490008050B0F580701CBFA4F18050B0F5007072
:1034A00036D0A4F18050B0F580601CBFA4F18050EC
:1034B000B0F500602CD0B4F1102F00E028E01CBF64
:1034C000A4F18050B0F5005022D0A4F18050B0F5A6
:1034D00080401CBFA4F18050B0F5004018D0A4F18A
:1034E0008050B0F580301CBFA4F18050B0F50030A2
:1034F0000ED0A4F18050B0F580201CBFA4F1805004
:10350000B0F5002004D040F2592108A00AF024FDB3
:1035100014F0805F14BF144814480068204218BF9C
:103520000125284670BD0000010000102E2E2F4CF2
:1035300069627261726965732F53544D333246313B
:1035400030785F5374645065726970685F44726963
:103550007665722F7372632F73746D3332663130F8
:10356000785F646D612E6300000402400000024039
:1035700070B5044621480D46164684421CBF2048BB
:10358000844222D01F4884421CBF1F4884421CD062
:103590001E4884421CBF1E48844216D01D488442E7
:1035A0001CBF1D48844210D01C4884421CBF1C48CC
:1035B00084420AD01B4884421CBF1B48844204D06A
:1035C00040F2491119A00AF0C7FC35F00E0000D1F5
:1035D00025B94FF4A57115A00AF0BEFC002E04BF5A
:1035E0002068A84308D0012E04D040F24B110FA050
:1035F0000AF0B2FC20682843206070BD0800024039
:103600001C000240300002404400024058000240CA
:103610006C00024080000240080402401C0402408A
:103620003004024044040240580402402E2E2F4C25
:1036300069627261726965732F53544D333246313A
:1036400030785F5374645065726970685F44726962
:103650007665722F7372632F73746D3332663130F7
:10366000785F646D612E630070B5054651480C4665
:1036700085421CBF5048854221D0504885421CBF1E
:103680004F4885421BD04F4885421CBF4E4885425B
:1036900015D04E4885421CBF4D4885420FD04D483D
:1036A00085421CBF4C48854209D04C4885421CBF0E
:1036B0004B48854203D0CF214AA00AF04DFCA068B8
:1036C000102818BF002803D0D02146A00AF044FCDF
:1036D000E0684FF6FF71401E884203D3D12141A01C
:1036E0000AF03AFC2069402818BF002803D0D221F4
:1036F0003CA00AF031FC6069802818BF002803D084
:10370000D32138A00AF028FCA06900281CBFB0F51E
:10371000807FB0F5007F03D0D42132A00AF01CFCDA
:10372000E06900281CBFB0F5806FB0F5006F03D0D2
:10373000D5212CA00AF010FC206A202818BF0028F0
:1037400003D0D62127A00AF007FC606AB0F5405FDD
:1037500018BFB0F5005F08D0B0F5805F18BF002833
:1037600003D0D7211FA00AF0F7FBA06AB0F5804F65
:1037700018BF002803D0D8211AA00AF0EDFB286852
:10378000226AA1686FF30E101143D4E904231A438F
:103790001143A2691143E2691143626A1143A26AAB
:1037A000114308432860E06868602068A86060688A
:1037B000E86070BD080002401C000240300002407A
:1037C00044000240580002406C0002408000024069
:1037D000080402401C040240300402404404024039
:1037E000580402402E2E2F4C696272617269657313
:1037F0002F53544D3332463130785F5374645065E3
:10380000726970685F4472697665722F7372632F94
:1038100073746D3332663130785F646D612E63008E
:10382000704700002DE9F04F83B00D2000F07AFDC5
:103830008146C548007800281CBF03B0BDE8F08F62
:103840000021484602F01DFFC04E0025D8B10220DD
:1038500000F068FD80460021484602F012FFBC4C93
:10386000BC4F6168884221D00021484602F009FF20
:103870006060132000F056FD04F078FB38780128D2
:1038800007D068B112E01E213580B3A2762000F087
:1038900055B93580B3A23C21782004F013FB05E034
:1038A0003580B2A23C21782004F00CFB38782168E6
:1038B000884218D0132000F035FD04F057FB38780B
:1038C000012801D038B10CE03580AAA23C21782033
:1038D00004F0F8FA05E03580A8A23C21782004F035
:1038E000F1FA387820600B2000F01CFDDFF894A27C
:1038F000A54C8146DAF80C00616E401AFDF775FBA5
:10390000DFF888B20190DBF80000FDF76EFB01994B
:10391000FDF791F99E49FDF758F9FDF795FBC1B206
:10392000484608F09DFDB9F80A0040F48050A9F817
:103930000A00387870B99748006801280AD196497A
:10394000D8F83400884205D19448C8F8340040467D
:10395000FEF738FE206DFDF73FFB0746DAF80C0056
:10396000616E401AFDF741FB8046DBF80000FDF771
:103970003CFB4146FDF75FF93946FDF726F9FDF7B7
:1039800063FB616D884204BF03B0BDE8F08F6065E2
:10399000122000F0C7FC04F0E9FA3580606D4FF4A6
:1039A000167190FBF1F030308DF800006A463C2132
:1039B000462004F087FA7A4F606D2946C7FB001055
:1039C0004111DFF8E081A1EBE07088FB00218A1053
:1039D000A2EBE171494201EB810100EB4100303083
:1039E0008DF800006A463C214E2004F06BFA6EA26E
:1039F0003C21562004F066FA606D2A460146C7FB5A
:103A000000214A11A2EBE171A1EB011100EB810051
:103A100088FB00108110A1EBE07030308DF80000C1
:103A20006A463C215E2004F04DFA606D294602464C
:103A3000C7FB00125111A1EBE271A1EB011100EBE8
:103A4000810088FB00218A10A2EBE171494201EB61
:103A5000810100EB410030308DF800006A463C21C6
:103A6000662004F02FFA606D0A28A4BF03B0BDE8F9
:103A7000F08F142000F056FC04F078FA35804B49A2
:103A8000E06D6A46B0FBF1F030308DF800003C216B
:103A9000B22004F017FAE06D4FF47A79B0FBF9F038
:103AA000434FDFF81081A7FB002149096FF018028E
:103AB000514300EB8100A8FB0010C00830308DF8A6
:103AC00000006A463C21BA2004F0FCF9E06DB0FB2E
:103AD000F9F0A7FB002149096FF01802514300EBF0
:103AE0008100A8FB0021C908494201EB810100EBDC
:103AF000410030308DF800006A463C21C22004F0BD
:103B0000E1F92DA23C21CA2004F0DCF9112000F0DB
:103B100009FC04F02BFA35801B48FCF7DEFF400857
:103B2000FDF763FA0321FDF7C6F82549FDF74AF8CA
:103B3000FDF771FA00B2144A5FF01E0104F0C2F9F9
:103B400003B0BDE8F08F00005000002052000020BC
:103B5000440000202602002041445249414E4D506D
:103B600033000000506C61790000000053746F70E6
:103B700000000000504C41590000000053544F50C9
:103B8000000000003CCF0020EC600020400200203C
:103B90000000484334020020E0000020B000002074
:103BA00089888888676666663A000000A0860100FA
:103BB0001F85EB51CDCCCCCC4B6270730000000064
:103BC000000016432DE9F04F8046801E82B283B07C
:103BD000A8F10F004FF6FF7780B289460B460446E6
:103BE000009702F079F908F10F0082B24B460D38C8
:103BF0001546194680B2009702F06EF9A9F102004D
:103C000083B20D3881B242460E461046009702F04C
:103C100063F909F10F0083B20D380097424681B273
:103C20001F46104602F058F9A8F1070082B24BF681
:103C3000F04A3B46934619462046CDF800A002F0D4
:103C40004BF909F1070081B2CDE900A122463B46BC
:103C5000104602F041F933465A4619462046CDF83F
:103C600000A002F039F9A9F1070081B222463346DB
:103C700089461046CDF800A002F02EF908F10700A1
:103C80003B4680B22A4619460446CDF800A002F011
:103C900023F92A463B46CDF800A01046019902F0D0
:103CA0001BF933462A4619462046CDF800A002F0FB
:103CB00013F92A464B4631461046CDF800A002F0D3
:103CC0000BF903B0BDE8F08F2DE9F04F83B08046CB
:103CD0000C9D4BF20550684300904FF4A030A0EBD0
:103CE00005400F4691461E464FF0070B4FF0010A64
:103CF000794C019002F062F8002840F0CE806078A4
:103D00000828F7D2DFE800F004136E893154C6A802
:103D10009DB100980014A08401980014E063E5842C
:103D2000002020856585A085E08584F801A0B4F990
:103D30002800B4F92410814202DA84F801B0D9E7EE
:103D4000E085E16B0029DCBF01EB4001C91C07DD08
:103D5000E28C521E12B2E284821A01EB4201491D2A
:103D6000401CE163208504206070B4F92A00B4F996
:103D70002610884208BF84F801A0D8D0A17911F09C
:103D80000F0F12D0E18D31440BB209EB00010AB2E2
:103D9000A18DA8EB0000314409B200B2FEF763FA2E
:103DA000002804BF03B0BDE8F08F05206070A1E7D4
:103DB000A07910F00F0F13D0608D304403B2E08D66
:103DC00009EB00010AB2E18CA8EB0000314409B212
:103DD00000B2FEF748FA002804BF03B0BDE8F08F38
:103DE000022018E0A07910F0F00F13D0E08C381A00
:103DF00003B2E08D09EB00010AB2618DA8EB00006F
:103E0000791A09B200B2FEF72EFA002804BF03B0F7
:103E1000BDE8F08F032060706CE7A07910F0F00F20
:103E200013D0A08D381A03B2608D09EB00010AB2DD
:103E3000E18DA8EB0000791A09B200B2FEF713FA7F
:103E4000002804BF03B0BDE8F08FE08C6085208DB2
:103E5000A08584F801A04DE7A9EB0800F11B0843F9
:103E600033D0A37909EB0501A8EB050000B20AB233
:103E7000FF2B16D0F11B07EB610109B2F02B1AD012
:103E80003346FEF7F0F9002804BF03B0BDE8F08F19
:103E90000621617001F092FFB8B103B00020BDE8C7
:103EA000F08F33463946FEF7DEF9002804BF03B031
:103EB000BDE8F08FECE70B463946FEF7D4F9002851
:103EC00004BF03B0BDE8F08FE2E70020607003B0EC
:103ED0000120BDE8F08F0000600100202DE9F843CB
:103EE000754C054600290CBF607803202070A0683F
:103EF00040F62871714F884239D2A068A26800F05C
:103F00000300C0F1040807EB080630466169FCF7BE
:103F100081FDA068C0F5E050A0EB0802A068684BE6
:103F2000311828460AF0DAFF607101001CBF65A055
:103F300009F062FEA569002D04BF0120206116D0A2
:103F4000E0692844E061A068C0F5E050A0EB0800FB
:103F5000A84208D9A068C0F5E050411BA0683844C9
:103F60002844FCF77EFDA0682844A06066612069B3
:103F70000026012843D0A168606902F0C4FF002830
:103F8000BEBFA6604FF0FF30BDE8F8836169014411
:103F90006161A168081AA0602078DFF8348110F010
:103FA000010F08F510553ED04A4A0096A5F510536A
:103FB00002F10C01E06802F0D0FD2A69002A1ADD46
:103FC000A8F1020112F0010F04D04A8802F5004264
:103FD00021F8022F2A69C2F34F0262B14B88521EA8
:103FE00003F500434B808B88120403F5004321F84E
:103FF000043F120CF2D1617821F0010149E0002167
:104000003548FEF7ADFF3548A6700023E6611A4635
:10401000194600680CF0D4FE314800680CF050FCE2
:104020000020BDE8F88310F0020F42D00096286906
:10403000284A08EB400302F10C01E06802F08DFD14
:104040002A6993B2B3EB420F20DA08EB4301891ED1
:10405000C3EB420212F0010F04D04A8802F500427D
:1040600021F8022F2A6993B2C3EB4202C2F34F0236
:1040700062B14B88521E03F500434B808B881204BB
:1040800003F5004321F8043F120CF2D1617821F0CE
:10409000020161706178217058B1A660676102F019
:1040A000B7FF01460FA009F0A7FD4FF0FF30BDE8B4
:1040B000F8830020BDE8F88324020020F4B000203B
:1040C0003C020020526561643D25640A0000000046
:1040D000D88C00202C020020300402405002002026
:1040E000600200202D2D204D50334465636F6465C0
:1040F000204572726F72204F63637572726564201F
:104100002573200D0A0000002DE9F04704460D46F6
:104110001E003DD0C6F11F074FF001004FF000090F
:1041200000FA07F012F0010FA0F10108CA4670D0A2
:104130002068C11740FA07F28A4218BF88EA0100D6
:10414000B0402060FCF743F840EA090954F8800FBA
:104150004042C11740FA07F28A4218BF88EA0100BC
:10416000B0402060FCF733F840EA09092868803441
:10417000C11740FA07F28A4218BF88EA0100B0402E
:104180000AF1020A45F8040BBAF1120FD0DB6EE017
:1041900012F0010F39D0D4F8808004F5C074C8F152
:1041A0000008276804F580747F42236804F5807452
:1041B0005B42206804F580744042D4F800C004F5E6
:1041C0008074256804F58074216804F58074226881
:1041D00004F580742668A4F50064C4F80080C4F86F
:1041E0000071C4F80032C4F80003CCF10000C4F838
:1041F00000046842C4F800054842C4F80006504272
:10420000C4F800077042C4F800080020BDE8F08739
:10421000FFE72068C11740FA07F28A4218BF88EA10
:104220000100B0402060FBF7D2FF40EA090954F8D2
:10423000800FC11740FA07F28A4218BF88EA0100CE
:10424000B0402060FBF7C3FF40EA090928688034CA
:10425000C11740FA07F28A4218BF88EA0100B0404D
:104260000AF1020A45F8040BBAF1120FD1DB4846F5
:10427000BDE8F087074A9169002908BF906106D020
:104280004A681AB111465268002AFBD148600021E1
:10429000416070476800002010B518200BF014FB37
:1042A000002808BF10BD054991E81C1080E81C10CB
:1042B000D1E90421C0E9042110BD0000688801088B
:1042C00010B5104CA06A38B900F01EF8002808BFDD
:1042D00010BDA069A06298B1418911F47C4F0AD049
:1042E0008169884700B2002808BF10BDA06A4189D3
:1042F000C1F309014181A06A4068A0620028EBD1A6
:10430000012010BD68000020054810B50078002885
:104310001CBF012010BDFFF785FA012010BD000071
:104320005000002001460648806930B102888A4268
:1043300008BF704740680028F8D10020704700008F
:104340006800002070B5094EB46954B1E169656830
:1043500000291CBF2046884720460BF0C1F82C00DE
:10436000F4D10020B061306270BD00006800002010
:1043700010B501F001FC18200BF0A6FA40B1064977
:1043800091E81C1080E81C10D1E90421C0E9042147
:104390000249C86110BD000068880108680000205B
:1043A00070B506464078002808BF70BD0E48846985
:1043B000002C08BF70BD236A8BB131462046984758
:1043C00005000CD03246214600F010F800281CBF32
:1043D000636A002B03D0324621462846984764681A
:1043E000002CE8D170BD000068000020054B10B51E
:1043F0001B78002B1CBF012010BD02F06DFE0120B8
:1044000010BD0000500000202DE9F04F0627CA4ED5
:10441000CA4C83B04FF01E094FF0030A4FF0080852
:1044200001254FF0070B00BF01F0C8FC18B103B025
:104430000020BDE8F08F20780928F5D2DFE800F0F1
:104440000542A3C6E8FD5DFC7800606AE8B100F0B3
:1044500099FDB4F90A10B4F90620891AB4F90E20AE
:1044600001EB4201814210DC606A00F083FDB4F987
:104470000C10B4F90820891AB4F90E2001EB42019E
:104480008142D8BF84F8008052DDB4F90E000028C4
:1044900076D0618A3180E28AE121821A12B20092DA
:1044A000CDE90101B4F90C30B4F90A20B4F90810CF
:1044B000B4F90600FDF7BCFC002812BF257003B05C
:1044C000BDE8F08FA08A3080B4F90E00E18ACDF803
:1044D0000890411A09B2CDE90010B4F90C30B4F9D2
:1044E0000A20B4F90810B4F90600FDF7A1FC002871
:1044F00012BF277003B0BDE8F08F208A3080B4F976
:104500000E0000287ED0E18A401A00B20090B4F973
:104510000C30B4F90A20B4F90810B4F90600FFF71A
:10452000D3FB002804BF03B0BDE8F08F00F0CAB889
:10453000606A08B300F01EFDB4F90C10B4F908204D
:104540001144081A05EB600000B20090606A00F0A8
:1045500019FDB4F90A10B4F9062001231144081A10
:1045600005EB600000B2626A009904F04FF9002880
:1045700004BF03B0BDE8F08F84F800B054E7FFE754
:10458000022020706580608A30806088E18A8842DD
:1045900018D280B2218962890144121AE38809B2D3
:1045A000184412B200B20B46FDF75DFE002804BFAE
:1045B00003B0BDE8F08F6088401C80B26080E18A63
:1045C0008142E6D8658084F800A02DE76088E18A02
:1045D00088421AD2A08961882289401A03B2E088F1
:1045E0000844114400B209B20246FDF73CFE00281F
:1045F00004BF03B0BDE8F08F6088401C80B26080CB
:10460000E18A00E049E08142E4D86580042023E0AB
:10461000A08A30806088E18A88421BD280B2A1895A
:104620006289091A121AE38809B2184412B200B258
:104630000B46FDF718FE01E047E00FE0002804BF3D
:1046400003B0BDE8F08F6088401C80B26080E18AD2
:104650008142E3D8658005202070E5E66088E18A24
:10466000884218D2A08961882289401A03B26089E1
:10467000401A114400B209B20246FDF7F4FD0028C9
:1046800004BF03B0BDE8F08F6088401C80B260803A
:10469000E18A8142E6D82770C6E6A189E08AB4F8AB
:1046A00006C0091A0BB26189091A0AB221890144AC
:1046B000604409B200B2FDF7D6FD002804BF03B084
:1046C000BDE8F08F84F80080AEE6606AC8B100F003
:1046D00059FCB4F90A10B4F906208A1AB4F90E107C
:1046E0001144884221DC2546606A00F043FCB5F99C
:1046F0000C20B5F90810511AB5F90E201144884262
:1047000013DCA08A3080B4F90E000090B4F90C30AC
:10471000B4F90A20B4F90810B4F90600FDF7C8FD91
:10472000002804BF03B0BDE8F08F0020207003B064
:104730000120BDE8F08F000052000020680000203A
:10474000017A002918BF022907D0032918BF0529BB
:1047500003D006291CBF04297047418911F0020FBC
:1047600018BF7047074A116A29B14B8923F001032A
:1047700043F400534B81418942F2010319434181C3
:1047800010627047680000202DE9F04FAF4EB04F27
:10479000B04C83B04FF0020A4FF0030B01254FF0ED
:1047A00005084FF0FF0900BF01F008FB18B103B086
:1047B0000020BDE8F08F60780828F5D2DFE800F02F
:1047C000042548698AAAE0FBB4F90E00002804BF5A
:1047D0006570A58019D0218A3180E18ACDF80890D2
:1047E000411A09B2CDE90010B4F90C30B4F90A202D
:1047F000B4F90810B4F90600FDF71AFB002812BF3F
:1048000084F8018003B0BDE8F08F208A3080A18851
:10481000E08A814218D2A088218962890144121A53
:10482000E38809B2184412B200B20B46FDF71BFD33
:10483000002804BF03B0BDE8F08FA088401C80B200
:10484000A080E18A8142E6D8A58084F801A0ABE788
:10485000A188E08A814218D2A089A1882289401AC1
:1048600003B2E0880844114400B209B20246FDF7E1
:10487000FAFC002804BF03B0BDE8F08FA088401CFC
:1048800080B2A080E18A8142E6D8A58084F801B098
:104890008AE7A188E08A814218D2A088A18962892A
:1048A000091A121AE38809B2184412B200B20B4670
:1048B000FDF7D9FC002804BF03B0BDE8F08FA08845
:1048C000401C80B2A080E18A8142E6D8A580042005
:1048D000607069E7A188E08A814218D2A089A18826
:1048E0002289401A03B26089401A114400B209B209
:1048F0000246FDF7B8FC002804BF03B0BDE8F08F06
:10490000A088401C80B2A080E18A8142E6D884F869
:10491000018049E7608A3080B4F90E00A8B1F02127
:104920003970E18A401A00B20090B4F90C30B4F941
:104930000A20B4F90810B4F90600FFF7C5F90028F9
:1049400004BF03B0BDE8F08F18E0B4F90C00B4F96F
:1049500008106289401A01EB600003B2E08AB4F8E3
:1049600006C0121A0144604412B209B200B2FDF747
:104970007AFC002804BF03B0BDE8F08F06203AE0BF
:10498000A08A3080B4F90E00B0B10F213970E18AED
:10499000401A00B20090B4F90C30B4F90A20B4F90E
:1049A0000810B4F90600FFF78FF9002804BF03B020
:1049B000BDE8F08F1CE020E0B4F90CC0E08AACEB5D
:1049C00000010BB26189091A0AB2B4F90810ACEB04
:1049D000010C01EB6C01B4F806C0491C604409B23B
:1049E00000B2FDF740FC002804BF03B0BDE8F08F23
:1049F00087F8009007206070D6E6606A00B300F088
:104A0000B9FAB4F90C10B4F908201144081A05EBEE
:104A1000600006B2606A00F0B5FAB4F90A20B4F991
:104A2000061001231144081A05EB600000B231465C
:104A3000626A03F0EBFE002804BF03B0BDE8F08F0C
:104A40000020607003B00120BDE8F08F520000200C
:104A50006601002068000020F8B50121482004F01C
:104A600025FA40F60200ADF800000324114E8DF83F
:104A7000024010258DF803506946304600F01EF8BC
:104A800045F22000ADF800008DF802408DF803508B
:104A90006946304600F012F80420ADF800008DF8A9
:104AA000024048208DF803006946034800F006F8EC
:104AB000F8BD0000000C0140001801402DE9F04154
:104AC00004460026A0F180400D46B0F584301CBF9E
:104AD000A4F18040B0F586301BD0A4F18040B0F541
:104AE00088301CBFA4F18040B0F58A3011D0A4F109
:104AF0008040B0F58C301FBFA4F18040B0F58E30FF
:104B0000A4F18040B0F5903003D0B2213CA009F070
:104B100023FAE878002818BF04280FD0282818BFE7
:104B200048280BD0142818BF102807D01C2818BFFD
:104B3000182803D0B32132A009F00EFA288818B93A
:104B4000B4212FA009F008FAE87800F00F0710F060
:104B5000100F0BD0A87801281CBF0228032803D00F
:104B6000BB2127A009F0F8F9A878074328884FF05F
:104B70000F0C10F0FF0F4FF0010318BF216819D080
:104B80002A8803FA06F0024082420FD1B2000CFAE2
:104B900002F821EA080107FA02F21143EA78282A0A
:104BA00008BF606102D0482A08BF2061761C082E29
:104BB000E6D321602888FF2886BF62680020BDE810
:104BC000F08100BF00F108012E8803FA01F10E40C8
:104BD0008E420FD186000CFA06F822EA080207FA84
:104BE00006F63243EE78282E08BF6161EE78482E33
:104BF00008BF2161401C0828E4D36260BDE8F08151
:104C00002E2E2F4C69627261726965732F53544D59
:104C10003332463130785F5374645065726970681E
:104C20005F4472697665722F7372632F73746D338C
:104C300032663130785F6770696F2E630000000064
:104C400070B505460026A0F180400C46B0F58430D2
:104C50001CBFA5F18040B0F586301CD0A5F1804086
:104C6000B0F588301CBFA5F18040B0F58A3012D075
:104C7000A5F18040B0F58C301FBFA5F18040B0F5A4
:104C80008E30A5F18040B0F5903004D04FF48F7194
:104C90001AA009F061F9012C18BF022C28D0042CAD
:104CA00018BF082C24D0102C18BF202C20D0402C4A
:104CB00018BF802C1CD0B4F5807F18BFB4F5007FDE
:104CC00016D0B4F5806F18BFB4F5006F10D0B4F5EE
:104CD000805F18BFB4F5005F0AD0B4F5804F18BFED
:104CE000B4F5004F04D040F21F1104A009F034F9CC
:104CF000A868204218BF0126304670BD2E2E2F4CCA
:104D000069627261726965732F53544D3332463153
:104D100030785F5374645065726970685F4472697B
:104D20007665722F7372632F73746D333266313010
:104D3000785F6770696F2E630000000070B50446ED
:104D4000A0F180400D46B0F584301CBFA4F1804036
:104D5000B0F586301CD0A4F18040B0F588301CBF7F
:104D6000A4F18040B0F58A3012D0A4F18040B0F5B3
:104D70008C301FBFA4F18040B0F58E30A4F180408C
:104D8000B0F5903004D040F2791105A009F0E4F8B4
:104D900025B94FF4BD7102A009F0DEF8656170BD60
:104DA0002E2E2F4C69627261726965732F53544DB8
:104DB0003332463130785F5374645065726970687D
:104DC0005F4472697665722F7372632F73746D33EB
:104DD00032663130785F6770696F2E6300000000C3
:104DE00070B50446A0F180400D46B0F584301CBF7C
:104DF000A4F18040B0F586301CD0A4F18040B0F51D
:104E000088301CBFA4F18040B0F58A3012D0A4F1E4
:104E10008040B0F58C301FBFA4F18040B0F58E30DB
:104E2000A4F18040B0F5903004D040F2691105A0A3
:104E300009F092F825B94FF4B57102A009F08CF889
:104E4000256170BD2E2E2F4C696272617269657387
:104E50002F53544D3332463130785F53746450656C
:104E6000726970685F4472697665722F7372632F1E
:104E700073746D3332663130785F6770696F2E639B
:104E8000000000002DE9FF4F85B005464FF0C04BF4
:104E90000798129F089E10F8011B0790069804902F
:104EA000684600F053F84FF0000800BF04981DF862
:104EB00008A0002400EB0809C4F107002AFA00F05A
:104EC00010F0010F05EB040080B21FFA89F10CD03D
:104ED000F02838BFB1F5A07F13D201F0B1F822213C
:104EE000ABF8001018490E800BE0F02838BFB1F580
:104EF000A07F06D201F0A4F82221ABF800101249DD
:104F00000F80601C84B2082CD6D308F101001FFA70
:104F100080F8B8F1100FC9D3E82D3CBF05F10800A7
:104F200085B209D306984FF00005B0F5987F3ABFD7
:104F3000103080B200200690079800780028A7D192
:104F400009B0BDE8F08F000000000260084A02EBE3
:104F50000111A1F58061D1F800220260D1F804228C
:104F60004260D1F808228260D1F80C12C16070470B
:104F7000D4CD02080188002912BF00204068B0F992
:104F8000020070470188002912BF00204068B0F974
:104F9000040070472DE9F05F002501462E460122EE
:104FA0006B4809F0A5FEDFF8AC81014688F80000E7
:104FB00069A008F021FEDFF898B1DBF80C000028AA
:104FC00084BF4FF6FA77674C76D920786168A6EBF4
:104FD0000000084486B2644B4FF4E05263495C48D9
:104FE00009F07CFF88F8000020B1C1B260A008F091
:104FF00003FEFEE7002D5FD15C480021DBF80C903A
:105000002170616003784FF4E0520D46302B07D0D9
:10501000492B01BF4378442B8378332B27D109E0F8
:105020004378262B01BF8378B22BC378752B1ED112
:1050300001256DE0C1780329FAD18179C379490648
:10504000090903F07F0301EB8321037A03F07F0357
:1050500001EBC311437A03F07F0319440A3141F68F
:10506000FF33994284BFA1F5E050606050D810F83A
:1050700001C0531E07E000BF491C4FEA0C6C10F83A
:1050800001A04AEA1C4C27EA0C0ABAF1000F18BF2B
:105090008B42F1D8994207D3104410F8010CFF2835
:1050A00008BF012034D105E001F12F0C9C4528BF39
:1050B000302002D320702BE030E0491C435C891C77
:1050C00089B24FEA131CC3F38105914213D2435CAA
:1050D000582B0CD1431893F801A0BAF1690F01BF06
:1050E00093F802A0BAF16E0FDB78672B1CD0491C35
:1050F00089B29142EBD3214850F82C00C11700EB44
:105100005170C110B9FBF1F04FF47A7100FB01F559
:1051100006F5E05086B2B1453FF657AF0C4809F0AE
:1051200003FD2846BDE8F09F08314218405C5378E3
:10513000528852BA63F31F4242EA006000EBC0009B
:10514000C1010F4850F82500B1FBF0F0DCE700008A
:105150003CCF002029020020464F50454E3D25649B
:105160000A000000BC0100203C020020F4B0002036
:10517000526561643D25640A0000000098CD020874
:1051800088CD020807490A68824204BFB1F90A00C3
:1051900070470188002912BF00204068B0F906005E
:1051A00070470000E060002010B5B1F900203AB16E
:1051B000012A08D0042A14BF002000F03BF810BDDB
:1051C00000F006F810BD00F001F810BD0020704797
:1051D000F0B44968002425464A884E78D3B28A88BC
:1051E00016F0010F02F0FF0C14BF01F1080501F1E8
:1051F0000804002210F8011B0F2918D9994228BF72
:105200008C4510D316F0010FA1EB030107D001EB81
:10521000410105EB8101898811440AB203E014F8C9
:10522000211011440AB210F8011B0F29E6D8F0BC76
:10523000104670470020704706480068064801681D
:10524000011D09680549096805490968011F0968C0
:105250000168FDE738ED00E028ED00E030ED00E00A
:105260003CED00E02DE9FF4FCFB0002004464A900E
:105270005C980068002840F33B825298529940693C
:10528000896921B15C994969A142C8BF00205C9934
:105290005C9AC9681269A242C8BF0021DDE9506268
:1052A000CDE932015C984F9B0021D0F818C002EB89
:1052B00084070A4603F14400BCF1070F21DACCF160
:1052C000070813AB06F1200C5FF00905D0F8009039
:1052D00049FA08F9A9EB0202511A50F8049C196026
:1052E00049FA08F9A9EB020243F8242CDCF80090F3
:1052F00049FA08F908381B1F4CF804996D1EE5D1CE
:1053000014E04FF0000813AB5FF00905D0F800C0BF
:10531000ACEB020250F804CC511AACEB020219605B
:1053200043F8242C08381B1F6D1EEFD10B98DDE9C4
:10533000089340100B900298DDE90412401002908F
:105340008446DDE906ABACEB090C03989646A0EB6E
:105350000B09CDF8D4C00A9AA1EB0A0C83448A4405
:1053600018441144CDE91501A1EB0A0031901598BC
:10537000A9EB0309ABEB0000ACEB02032E907146E6
:105380004893FE48FAF720FF00904946FB48FAF799
:105390001BFF4C905146FA48FAF716FF2D90F9483A
:1053A0001699FAF711FF1790F5483199FAF70CFFA3
:1053B00081465146F348FAF707FF4E90F2482E997E
:1053C000FAF702FF8246F1481599FAF7FDFE4D9073
:1053D0005946ED48FAF7F8FE8346EC482E99FAF75D
:1053E000F3FE024608990298DDF8D4C000EB610391
:1053F0000099DDF834E103EB4100A3EB4101489B48
:10540000ABEB02020CEB630CCDF8C0C0DDF85CC066
:105410002D9B6344DDF838C15B00A9EB0C0C4FEA0F
:105420004C0C03EB0C09CDF8B8900AEB0E094FEACF
:10543000420ACA18499200EB0C0200EB030E1792C5
:1054400001EB0C032E9A4FEA4909891A821A0EEBD6
:1054500009000290DDF8C0C04C98AAEB090B0CEBD8
:105460004000039003EB0A000490A1EB0B00DDF871
:10547000D4C0489B0590ACEB0300069002EB0B00F8
:10548000179A0790A2EB0A000890DDF8C0C04C986C
:10549000499AACEB40000990A2EB09000A90DDE9C3
:1054A0000D12DDE91193DDE90BC0DDE90FABACEBCB
:1054B000090C9646CDF820C1139AA0EB0B09A1EB7D
:1054C0000A0C83448A44114418441690A1EB0A0044
:1054D0002D9016983591ABEB0000A9EB0309ACEBCE
:1054E00002034C9071463093A448FAF76DFE149075
:1054F0004946A248FAF768FE31905146A048FAF7AB
:1055000063FE17909F483599FAF75EFE35909C48E8
:105510002D99FAF759FE814651469A48FAF754FEFA
:105520004D9099484C99FAF74FFE82469748169944
:10553000FAF74AFE499059469348FAF745FE8346E2
:1055400092484C99FAF740FE024611990B98DDF803
:1055500020C100EB61031499DDF824E103EB410065
:10556000A3EB4101309BABEB02020CEB630CCDF8DB
:10557000B8C0DDF8D4C0179B6344DDF834C15B00CC
:10558000A9EB0C0C4FEA4C0C03EB0C09CDF8B490D2
:105590000AEB0E094FEA420ACA18499200EB0C02C4
:1055A0004C9200EB030E2D9A01EB0C03891A4FEA83
:1055B0004909821A0EEB09000B90DDF8B8C031984A
:1055C000AAEB090B0CEB40000C9003EB0A000D90CA
:1055D000A1EB0B00DDF820C1309B0E90ACEB03007B
:1055E0000F9002EB0B0010904C9ADDF8B8C0A2EBC4
:1055F0000A0011903198DFF898A1ACEB40001290AE
:10560000499A4FF0000BA2EB09001390DDE932102C
:105610000DF12809084304BF5E48009000F0F681B0
:1056200036A93046339A08F04DFA329800EBC001A3
:10563000594800EB01100090D9F824105AF80409D9
:1056400059F804291592FAF7BFFD159A91100A1A14
:105650000844169246F8040B009850F82510169846
:10566000FAF7B2FD36A951F82510084480001490CD
:105670000099C5F11100339051F820101698FAF7EF
:10568000A3FD0146339836AA52F820000844810051
:10569000159107EBC511149808603398159907EB1D
:1056A000C01001601498FAF792FD40EA0B0B1598B0
:1056B000FAF78DFD6D1C40EA0B0B092DBCDB00BF1A
:1056C000A6F12401434622463846FEF71DFD4A99BD
:1056D00040EA0B0008434A904F98641C48304F90B2
:1056E0005098243050905C980068A0423FF7C5ADB8
:1056F0005C984068A04240F317815C98D0E9038031
:10570000A042C8BF4FF00008DDE94F6015905198E6
:10571000002700EB84002B905C988069072811DA41
:10572000C0F107071599354609202A683A412A60D1
:105730006A683A416A600A683A41083541F8042BC0
:10574000401EF2D12CA930460AF032F80DF1B00A11
:1057500032A9301D0AF02CF80AF1300106F10800D8
:105760000AF026F842466946159808F0ABF94FF062
:105770000008DFF82890454612E00000A1EBD96E42
:105780008BBE0D627E1A3A1649DD4652322E0E7ECF
:105790001066010814660108C4660108E467010880
:1057A0005DF825004FEA800A5046FAF710FD40EAFE
:1057B000080B2B9800EBC516684600EB8508C6F869
:1057C00000A0D8F80C004FEA800A5046FAF7FFFC18
:1057D00040EA0B0B2CA800EB8500C6F880A1439093
:1057E000C16859F82500FAF7EFFCD8F8181000EB5B
:1057F000810A5046FAF7EBFC40EA0B001690C5F11F
:1058000005012CA8C6F800A309EB850A50F8211061
:10581000DAF80C00FAF7D8FCD8F8241000EB810B6A
:105820005846FAF7D4FC0146169808431690C5F17D
:1058300002012CA8C6F880B450F82110DAF818003C
:10584000FAF7C2FC83464398416A59F82500FAF7F3
:10585000BBFC0BEB0001D8F8300001EB800B584685
:10586000FAF7B5FC01461698084316902CA8C6F81E
:1058700000B650F82510DAF82400FAF7A5FC8346A4
:10588000C5F10B002CA951F82010DAF80C00FAF73A
:105890009BFC0BEB0001D8F83C0001EB800A504662
:1058A000FAF795FC014616986D1C41EA0008C6F807
:1058B00080A7032DFFF660AF329881101598016024
:1058C0003398159B801043F8040F3498801043F8E8
:1058D000040F1B1D191F37A85FF00302D0F804C086
:1058E000521E4FEAAC0CC1F804C050F808CF4FEA82
:1058F000AC0C41F808CFF1D1A3F10C013B46224694
:105900002B98FEF701FC4A9940EA080008434A90A8
:105910004F98641C48304F905098243050905C98B9
:105920004068A0423FF7E9AE5C9805948068A042C9
:10593000C8BF18AF41DD5C98D0E90320A042C8BFC2
:10594000002218A9509808F0BDF800264FEAC47A42
:10595000354604F0010B00BF57F83500519980001F
:1059600001EB0528064348F82400FAF730FC4A9971
:1059700040EA010907EBC50008EB8401406880009C
:1059800080EAEA7058440643C1F88000FAF71FFC29
:1059900040EA09004A905098002140F825106D1CFB
:1059A000092DD9DB509824305090002E18BF059453
:1059B000641C5C988068A042BDDC0023C4F1200C0C
:1059C0004FEA0302BCF1000F12DD519800EBC31047
:1059D00000EB8400001F1CF0010F18BF40F8042FDB
:1059E0005FEA6C0104D0426040F8082F491EFAD1EA
:1059F0005B1C122BE6DB4A98002808BF20214ED002
:105A0000002110F0004F45D049E000BFD9F8241024
:105A10005AF8040959F804291592FAF7D5FB159A92
:105A2000336891105A422E92421A0844169246F850
:105A3000040B981840421590009850F8041B0090F1
:105A40001598FAF7C1FB169A02EB800014900098A3
:105A500050F8041B00901598FAF7B6FB2E9A07EB46
:105A6000C51102EB8000159014980860C5F1110172
:105A700007EBC111159808601498FAF7A8FB40EAE3
:105A80000B0B1598FAF7A3FB6D1C40EA0B0B092DC5
:105A9000BCDB15E6491C400010F0004FFAD05C98C2
:105AA000491EC161059853B0BDE8F08FF0B50546B9
:105AB00089B00121042003F0F9F90121480703F01E
:105AC00075F90121102003F071F93020ADF81C00A8
:105AD00000248DF81F4007A92448FEF7EFFF244F4C
