:020000040800F2
:1000000040FD0020F1090008F57E0008BD4300080E
:1000100085750008A925000849C9000800000000EE
:100020000000000000000000000000004501000882
:100030001F2A0008000000007901000821BF000805
:100040000B0A00080B0A00080B0A00080B0A00083C
:100050000B0A00080B0A00080B0A00080B0A00082C
:100060000B0A00080B0A00080B0A00080B0A00081C
:100070000B0A00080B0A00080B0A00080B0A00080C
:100080000B0A00080B0A00080B0A00080B0A0008FC
:100090000B0A00080B0A00080B0A00080B0A0008EC
:1000A0000B0A00080B0A00080B0A00080B0A0008DC
:1000B0000B0A00080B0A00080B0A00080B0A0008CC
:1000C0000B0A00080B0A00080B0A00080B0A0008BC
:1000D0000B0A000815C500080B0A00080B0A0008E7
:1000E0000B0A00080B0A00080B0A00080B0A00089C
:1000F0000B0A00080B0A00080B0A00080B0A00088C
:100100000B0A0008519700080B0A00080B0A0008A8
:100110000B0A00080B0A00080B0A00080B0A00086B
:100120000B0A00080B0A0008612700080B0A0008E8
:10013000DFF80CD001F0C8F800480047D5E6000809
:1001400040FD00201A4B19680868B0E8F00F80F3F2
:1001500009884FF0000080F311884EF00D0E7047B3
:100160000000000003480068006880F3088862B659
:1001700000DF00BF08ED00E0EFF309800C4B1A68C8
:1001800020E9F00F106008B54FF0BF0080F3118830
:100190000FF068F94FF0000080F31188BDE80840C7
:1001A00019680868B0E8F00F80F30988704700BF4D
:1001B000F00100204FF0BF0080F3118870474FF02E
:1001C000000080F31188704781FB002070470146D2
:1001D0004FF0000081EAE170A0EBE1707047000091
:1001E0002DE9F04F82B001904FF000744FF000788D
:1001F0004FF000054FF0000952F804CB52F804EB21
:100200000868CB6DC0FB0C45D1F88000CEF1000E24
:10021000C3FB0E45D1F8DC30C0FB0C89C3FB0E8953
:1002200052F804CB52F804EB48688B6DC0FB0C45C8
:10023000D1F88400CEF1000EC3FB0E45D1F8D830C2
:10024000C0FB0C89C3FB0E8952F804CB52F804EBB7
:1002500088684B6DC0FB0C45D1F88800CEF1000ECC
:10026000C3FB0E45D1F8D430C0FB0C89C3FB0E890B
:1002700052F804CB52F804EBC8680B6DC0FB0C4578
:10028000D1F88C00CEF1000EC3FB0E45D1F8D03072
:10029000C0FB0C89C3FB0E8952F804CB52F804EB67
:1002A0000869CB6CC0FB0C45D1F89000CEF1000E74
:1002B000C3FB0E45D1F8CC30C0FB0C89C3FB0E89C3
:1002C00052F804CB52F804EB48698B6CC0FB0C4528
:1002D000D1F89400CEF1000EC3FB0E45D1F8C83022
:1002E000C0FB0C89C3FB0E8952F804CB52F804EB17
:1002F00088694B6CC0FB0C45D1F89800CEF1000E1C
:10030000C3FB0E45D1F8C430C0FB0C89C3FB0E897A
:1003100052F804CB52F804EBC8690B6CC0FB0C45D7
:10032000D1F89C00CEF1000EC3FB0E45D1F8C030D1
:10033000C0FB0C89C3FB0E8901984FF4FE4E4EF0B2
:10034000FF0E4FEA946444EA85144FEAE47CBCEB68
:10035000E43F18BF8CEA0E044FEA986848EA89180F
:100360004FEAE87CBCEBE83F18BF8CEA0E0804803B
:10037000A0F8028002F5707201F580514FF0007410
:100380004FF000784FF000054FF0000952F804CB11
:100390000868D1F88030C0FB0C45C3FB0C8952F8CB
:1003A00004CB4868D1F88430C0FB0C45C3FB0C89F2
:1003B00052F804CB8868D1F88830C0FB0C45C3FBE9
:1003C0000C8952F804CBC868D1F88C30C0FB0C45BE
:1003D000C3FB0C8952F804CB0869D1F89030C0FBFC
:1003E0000C45C3FB0C8952F804CB4869D1F8943012
:1003F000C0FB0C45C3FB0C8952F804CB8869D1F8CB
:100400009830C0FB0C45C3FB0C8952F804CBC8697B
:10041000D1F89C30C0FB0C45C3FB0C8901984FF40C
:10042000FE4E4EF0FF0E4FEA946444EA85144FEA04
:10043000E47CBCEBE43F18BF8CEA0E044FEA9868FA
:1004400048EA89184FEAE87CBCEBE83F18BF8CEA21
:100450000E08A0F84040A0F84280A2F57872A1F5FD
:1004600070614FF00F0C00F10400CDF800C0019056
:100470004FF000744FF000784FF000764FF0007AA4
:100480004FF000054FF000094FF000074FF0000B50
:1004900052F804CB52F804EB0868CB6DC0FB0C4556
:1004A000C0FB0E67CEF1000EC3FB0C67C3FB0E450D
:1004B000D1F8DC30D1F88000C3FB0E89C3FB0CAB54
:1004C000CEF1000EC0FB0C89C0FB0EAB52F804CB82
:1004D00052F804EB48688B6DC0FB0C45C0FB0E67FF
:1004E000CEF1000EC3FB0C67C3FB0E45D1F8D8302C
:1004F000D1F88400C3FB0E89C3FB0CABCEF1000E18
:10050000C0FB0C89C0FB0EAB52F804CB52F804EBD5
:1005100088684B6DC0FB0C45C0FB0E67CEF1000E2A
:10052000C3FB0C67C3FB0E45D1F8D430D1F888006B
:10053000C3FB0E89C3FB0CABCEF1000EC0FB0C89D4
:10054000C0FB0EAB52F804CB52F804EBC8680B6D3D
:10055000C0FB0C45C0FB0E67CEF1000EC3FB0C6761
:10056000C3FB0E45D1F8D030D1F88C00C3FB0E8907
:10057000C3FB0CABCEF1000EC0FB0C89C0FB0EAB75
:1005800052F804CB52F804EB0869CB6CC0FB0C4565
:10059000C0FB0E67CEF1000EC3FB0C67C3FB0E451C
:1005A000D1F8CC30D1F89000C3FB0E89C3FB0CAB63
:1005B000CEF1000EC0FB0C89C0FB0EAB52F804CB91
:1005C00052F804EB48698B6CC0FB0C45C0FB0E670E
:1005D000CEF1000EC3FB0C67C3FB0E45D1F8C8304B
:1005E000D1F89400C3FB0E89C3FB0CABCEF1000E17
:1005F000C0FB0C89C0FB0EAB52F804CB52F804EBE5
:1006000088694B6CC0FB0C45C0FB0E67CEF1000E39
:10061000C3FB0C67C3FB0E45D1F8C430D1F898007A
:10062000C3FB0E89C3FB0CABCEF1000EC0FB0C89E3
:10063000C0FB0EAB52F804CB52F804EBC8690B6C4C
:10064000C0FB0C45C0FB0E67CEF1000EC3FB0C6770
:10065000C3FB0E45D1F8C030D1F89C00C3FB0E8916
:10066000C3FB0CABCEF1000EC0FB0C89C0FB0EAB84
:1006700001F5807101984FF4FE4E4EF0FF0E4FEAE7
:10068000946444EA85144FEAE47CBCEBE43F18BF71
:100690008CEA0E044FEA986848EA89184FEAE87C29
:1006A000BCEBE83F18BF8CEA0E084FEA966646EAB4
:1006B00087164FEAE67CBCEBE63F18BF8CEA0E06D5
:1006C0004FEA9A6A4AEA8B1A4FEAEA7CBCEBEA3FA5
:1006D00018BF8CEA0E0ADDF800C000EBCC0E2EF835
:1006E000026B2EF802AB20F8024B20F8028BBCF113
:1006F000010C7FF4BAAE02B0BDE8F08F2DE9F04FE7
:1007000082B001904FF000744FF0000552F804CB16
:1007100052F804EB0868CB6DCEF1000EC0FB0C451F
:10072000C3FB0E4552F804CB52F804EB48688B6DBE
:10073000CEF1000EC0FB0C45C3FB0E4552F804CBB6
:1007400052F804EB88684B6DCEF1000EC0FB0C45EF
:10075000C3FB0E4552F804CB52F804EBC8680B6D8E
:10076000CEF1000EC0FB0C45C3FB0E4552F804CB86
:1007700052F804EB0869CB6CCEF1000EC0FB0C45BF
:10078000C3FB0E4552F804CB52F804EB48698B6C5E
:10079000CEF1000EC0FB0C45C3FB0E4552F804CB56
:1007A00052F804EB88694B6CCEF1000EC0FB0C458F
:1007B000C3FB0E4552F804CB52F804EBC8690B6C2E
:1007C000CEF1000EC0FB0C45C3FB0E4501984FF463
:1007D000FE4E4EF0FF0E4FEA946444EA85144FEA51
:1007E000E47CBCEBE43F18BF8CEA0E04048002F505
:1007F000707201F580514FF000744FF0000552F80F
:1008000004CB0868C0FB0C4552F804CB4868C0FB19
:100810000C4552F804CB8868C0FB0C4552F804CB59
:10082000C868C0FB0C4552F804CB0869C0FB0C45F6
:1008300052F804CB4869C0FB0C4552F804CB8869D8
:10084000C0FB0C4552F804CBC869C0FB0C450198AD
:100850004FF4FE4E4EF0FF0E4FEA946444EA8514C6
:100860004FEAE47CBCEBE43F18BF8CEA0E0404843E
:10087000A2F57872A1F570614FF00F0C00F1020043
:10088000CDF800C001904FF000744FF000764FF0AB
:1008900000054FF0000752F804CB52F804EB08684B
:1008A000CB6DC0FB0C45C0FB0E67CEF1000EC3FB49
:1008B0000E45C3FB0C6752F804CB52F804EB4868B2
:1008C0008B6DC0FB0C45C0FB0E67CEF1000EC3FB69
:1008D0000E45C3FB0C6752F804CB52F804EB886852
:1008E0004B6DC0FB0C45C0FB0E67CEF1000EC3FB89
:1008F0000E45C3FB0C6752F804CB52F804EBC868F2
:100900000B6DC0FB0C45C0FB0E67CEF1000EC3FBA8
:100910000E45C3FB0C6752F804CB52F804EB086990
:10092000CB6CC0FB0C45C0FB0E67CEF1000EC3FBC9
:100930000E45C3FB0C6752F804CB52F804EB486930
:100940008B6CC0FB0C45C0FB0E67CEF1000EC3FBE9
:100950000E45C3FB0C6752F804CB52F804EB8869D0
:100960004B6CC0FB0C45C0FB0E67CEF1000EC3FB09
:100970000E45C3FB0C6752F804CB52F804EBC86970
:100980000B6CC0FB0C45C0FB0E67CEF1000EC3FB29
:100990000E45C3FB0C6701F5807101984FF4FE4EC4
:1009A0004EF0FF0E4FEA946444EA85144FEAE47C6B
:1009B000BCEBE43F18BF8CEA0E044FEA966646EAA9
:1009C00087164FEAE67CBCEBE63F18BF8CEA0E06C2
:1009D000DDF800C000EB8C0E2EF8026B20F8024B05
:1009E000BCF1010C7FF44CAF02B0BDE8F08F000009
:1009F0000648804706480047FEE7FEE7FEE7FEE7B9
:100A0000FEE7FEE7FEE7FEE7FEE7FEE741BF000880
:100A10003101000810B5431A934209D2831888188F
:100A200003E010F8011D03F8011D521EF9D210BD9C
:100A300040EA01039B0703D009E008C9121F08C060
:100A4000042AFAD203E011F8013B00F8013B521EE0
:100A5000F9D210BDD2B201E000F8012B491EFBD241
:100A600070470022F6E710B50446084611460246D4
:100A70002046FFF7EFFF204610BD034600E0401C74
:100A80000278002AFBD111F8012B00F8012B002A73
:100A9000F9D11846704730B50EE003460A4601E02A
:100AA0005B1C521C1C781578AC4201D1002CF7D18C
:100AB00015F0FF0F04D0401C0278002AEDD1002071
:100AC00030BD10B5044604E00B7800F8013B03B1DB
:100AD000491C521EF8D2204610BD0146002000E0FD
:100AE000401C0A5C002AFBD17047034611F8012B19
:100AF00000F8012B002AF9D11846704730B5054699
:100B00000020034600E05B1C934205D2EC5CC85C0D
:100B1000201A01D1002CF6D130BDF0B480EA0102D8
:100B2000D20F4300B3EB410F02D2034608461946E9
:100B30004B0042D0C30DDDB2C1F3C7542C1B202C97
:100B400035DAC1F3160141F4000502B16D42C4F17A
:100B5000200605FA06F125412844B3EBD05F23D0E7
:100B6000C2B1012CA0EBC35009DCF0BC4FF0004235
:100B700002EAC35200F50000DBB200F018BB4000EF
:100B800000F1807000EBC350A0F1807040EAD1709A
:100B9000490009E0490841EAC071A0EBC35000F5E3
:100BA0000000400800EBC350F0BC00F0F7BA51421F
:100BB000012303EB4101801AF6E7F0BC704781F096
:100BC0000041AAE780F00040A7E780EA010210B5E3
:100BD00002F00042400026D04B0023D04FEA1061C3
:100BE00001EB1361C0F35600C3F3560340F4000059
:100BF00043F40003A0FB0330A1F17F014FEA004062
:100C00001C0401D000F1010050EA134001D440005F
:100C1000491EC3B20C0604EBD010401C4008802BC8
:100C200002D003E0002010BD20F00100002900DA0E
:100C30000020104310BD80EA010202F0004330B4EE
:100C400030F0004221F0004015D0A0B1C0F3C755EC
:100C5000C2F3C754C2F31601C0F31600651B41F47A
:100C6000000140F400007D35814201D36D1C00E09D
:100C70004900002D02DA30BC002070474FF400021A
:100C80000024814201D3091A144352084FEA41015A
:100C9000F7D151B1814202D14FF0004105E002D2BB
:100CA0004FF0010101E06FF0010104EBC55030BCD1
:100CB000184400F073BA420005D0C0F3C752524244
:100CC000914201DC0020704700EBC15070472DE9D4
:100CD000FE4F074681EA0300C00F0E46019021F047
:100CE000004123F00044B81AA14105D238463146EC
:100CF00017461E460B46024623F00040104304D11F
:100D00003846314603B0BDE8F08F350DC5F30A0013
:100D1000C3F30A510290401A0090402868DAC3F3E6
:100D2000130040F4801B0198924620B10023D2EBBF
:100D3000030A63EB0B0B00985946C0F14002504682
:100D400000F0FBF980460C4650465946009A00F0E8
:100D500013FAC0197141EF1785EA11533B4340D094
:100D6000019A52B3009A012A11DC0022801A4FF036
:100D7000004361EB055103EA05538018CDE90023D8
:100D800041F580114246234600F04BFABAE72E05A2
:100D90000025401B61EB0601401941F58012001847
:100DA00052412818A6F5001343EB020140EAD47023
:100DB000294318EB0808644113E064084FEA380837
:100DC0004FF0000244EAC0744FEA0553801A61EB09
:100DD0000301801841F5801149084FEA300080185E
:100DE00059414246234603B0BDE8F04F00F00CBA2B
:100DF0000198012240000023D0EB020263EBE07374
:100E000001984FEAE074381A66EB0401EBE783F0CF
:100E100000435CE781F0004159E72DE9FE4F81EA8C
:100E2000030421F0004504F0004423F000414FF09A
:100E3000000A009450EA050302D052EA010304D1EB
:100E40000020014603B0BDE8F08FC1F30A53C5F39B
:100E50000A541C44A0FB02B3C5F3130545F4801CDF
:100E6000C1F3130141F480180CFB023300FB083E70
:100E7000A4F2F334810A930A41EA8C5143EA88537D
:100E80000194A1FB03474FEA9C2505FB03734FEA3E
:100E9000982601FB06373D05260545EA1435BBEBD0
:100EA00006016EEB0503850E920E45EA8C1542EAAB
:100EB0008812A5FB0206261E67EB00070C0D44EA0C
:100EC0000334A41947EB1350C1F313064FF000038A
:100ED00019464FEA033343EA165343EA0403019CDD
:100EE000E5FB0201A4F10C040294009C4FEA0632D7
:100EF000CDE900A400F095F9A4E72DE9F04D81EAD1
:100F0000030404F0004B21F0004714464FF0000AA0
:100F100023F0004150EA070220D054EA01021DD01C
:100F2000C1F30A550246C1F31300C7F30A56C7F3CB
:100F3000130340F4801143F48013A6EB0508101B43
:100F4000D64608F2FD3873EB010002D308F1010820
:100F500001E092185B41B8F1000F03DA002001466E
:100F6000BDE8F08D00204FF48015064607460EE0E0
:100F7000B2EB040C73EB010C04D3121B064363EBBE
:100F800001032F436D084FEA300092185B4150EA8D
:100F9000050CEDD152EA030012D082EA040083EA84
:100FA0000105284303D100224FF0004308E0101B45
:100FB0008B4102D20122002302E06FF001025310A4
:100FC0001AEB060047EB085110EB0A0041EB0B014E
:100FD000BDE8F04D00F018B9C10F80EAE070084498
:100FE000CA079623002100F0E2B89623002211469A
:100FF00000F0DDB80EB5C10F80EAE0700844CA0702
:10100000002140F233438DE80E000A460B4600F003
:1010100008F903B000BD00F0004220F00040C10D0F
:10102000C0F3160040F400007F2901DA0020704769
:10103000962903DCC1F19601C84001E09639884049
:10104000002AF4D04042704720F00040C10DC0F3A8
:10105000160040F400007F2901DA0020704796292D
:1010600003DCC1F19601C84070479639884070474B
:1010700070B5C1F30A5201F000450024C1F3130119
:1010800040F2FF3341F480119A4201DA002070BD32
:1010900040F233439A42A2F2334203DC524200F060
:1010A0005BF800E090402C43F1D0404270BD00005E
:1010B00030B5002904DB4FF00044404264EB0101ED
:1010C000002B04DB4FF00044524264EB03038B42DD
:1010D00008BF824230BD00002DE9F05F05460020C8
:1010E00092469B4688460646814640241BE0284699
:1010F00041464746224600F02FF852465B46801A8A
:10110000994110D310461946224600F016F82D1AC0
:1011100067EB01084F4622460120002100F00DF840
:1011200017EB00094E41201EA4F10104DFDC484604
:1011300031462A464346BDE8F09F202A04DB203A88
:1011400000FA02F1002070479140C2F1200320FA1A
:1011500003F3194390407047202A04DB203A21FA18
:1011600002F00021704721FA02F3D040C2F12002C0
:101170009140084319467047202A06DBCB17203AD6
:1011800041FA02F043EAE071704741FA02F3D040BD
:10119000C2F1200291400843194670470029A8BFB8
:1011A0007047401C490008BF20F00100704710B490
:1011B000B0FA80FC00FA0CF050EA010404BF10BC45
:1011C000704749B1CCF1200421FA04F411FA0CF172
:1011D00018BF012121430843A3EB0C01CB1D0106DD
:1011E000000A002BBEBF002010BC704700EBC350AC
:1011F00010440029A4BF10BC7047401C490008BF20
:1012000020F0010010BC704710B5002B08DA401C1C
:1012100041F1000192185B411A4301D120F0010015
:1012200010BD2DE9F04D92469B4611B1B1FA81F205
:1012300002E0B0FA80F220329046FFF77EFF0646C9
:101240000F4640EA0A0041EA0B0152465B4608435A
:1012500003D130463946BDE8F08D194652EA010007
:1012600015D0C8F140025046FFF776FF04460D4600
:10127000504659464246FFF760FF084301D001201F
:1012800000E00020044345EAE07526432F430A9816
:101290004FEAD625A0EB08000A304FEA46534FF03C
:1012A000000245EA47554FEAD72402D500200146FF
:1012B000D1E7010550196141DDE90845001969418F
:1012C000BDE8F04DA0E70000064C074D06E0E068E1
:1012D00040F0010394E8070098471034AC42F6D37D
:1012E000FEF72AFFB4B90208D4B9020870B501EBC1
:1012F000020410F8015B15F0070301D110F8013B5F
:101300002A1106D110F8012B03E010F8016B01F847
:10131000016B5B1EF9D12B0705D40023521E0FD49D
:1013200001F8013BFAE710F8013B02F10202A1EBE0
:10133000030303E013F8015B01F8015B521EF9D5CA
:10134000A142D6D3002070BD2DE9F8433A4C3B4F63
:101350003B4D84F85800216638680026E065AE7081
:101360002A71032088466870000206F015FE3A20B4
:101370008DF800008DF801608DF8026001208DF875
:101380000300684606F0CCFD404603F0E5FA3869F4
:101390004100A7F5105001F039FA2046FFF79DFBF8
:1013A00020B90D2227A12046FFF734FB2248FFF782
:1013B00094FB142804D9152226A11F48FFF72AFB05
:1013C0002AA00BF0B7FB32A00BF0B4FB1A4939A0EE
:1013D0000BF0B0FB04F128013BA00BF0ABFB3FA0EE
:1013E000E16D0BF0A7FB94F8581044A00BF0A2FBA2
:1013F0004AA0216E0BF09EFB297950A00BF09AFBBE
:10140000A868D0F8C81755A00BF094FB5BA0396909
:101410000BF090FB61A079690BF08CFB67A0B969B8
:101420000BF088FB6DA0216D0BF084FB616EBDE8B5
:10143000F84372A00BF07EBBD0600020B8D800202B
:1014400034020020D5D2B2BBB5BDB8E8C7FAC3FBA1
:1014500000000000B8E8C7FAC3FBCCABB3A4A1A25C
:10146000CEDEB7A8CFD4CABE000000002D2D204D7F
:1014700050332066696C6520686561646572206917
:101480006E666F726D6174696F6E200D0A000000E8
:101490002D2D2D2D2D2D2D2D2D2D2D2D2D2D2D2D7C
:1014A0002D2D2D2D2D2D2D2D2D2D2D2D2D2D2D0D8C
:1014B0000A0000002D2D204D5033207469746C6596
:1014C000202573200D0A00002D2D204D5033206162
:1014D0007274697374202573200D0A002D2D204D20
:1014E00050332062697472617465202020202020AE
:1014F00020203D202564200D0A0000002D2D204DC8
:101500005033206269747350657253616D706C65FD
:1015100020203D202564200D0A0000002D2D204DA7
:1015200050332073616D707261746520202020201B
:1015300020203D202564200D0A0000002D2D204D87
:101540005033206E4368616E7320202020202020BD
:1015500020203D202564200D0A0000002D2D204D67
:101560005033206E4772616E53616D70732020207E
:1015700020203D202564200D0A0000002D2D204D47
:101580005033206F757470757453616D70732020C3
:1015900020203D202564200D0A0000002D2D204D27
:1015A0005033206C6179657220202020202020207B
:1015B00020203D202564200D0A0000002D2D204D07
:1015C00050332076657273696F6E202020202020B2
:1015D00020203D202564200D0A0000002D2D204DE7
:1015E0005033206475726174696F6E202020202052
:1015F00020203D202564200D0A0000002D2D204DC7
:1016000050332064617461737461727420202020EF
:101610002020203D202564200D0A000010B5002167
:10162000094801F0E9F8094800210B468170C161C1
:1016300007480A4600680EF03DF806480068BDE815
:1016400010400DF06BBE0000300402403402002058
:10165000600200207002002000B585B00422002046
:1016600000920649CDE90110034603904FF4407201
:1016700003A105480EF0D4F805B000BD70020020AB
:101680004D5033446563000039EE000800B585B065
:1016900000200221CDE900100290034603904FF490
:1016A000C07203A106480EF0BBF805B000BD0000F3
:1016B0004D6963726F6368697047554900000000A7
:1016C000C9EE000884B000260096019602963346C3
:1016D0004FF400724DA1504803960EF0A1F8FFF7A9
:1016E000D5FF00F043F9FFF7B7FF4CA14CA00BF07A
:1016F00021FA52A15CA00BF01DFA5EA260A163A0CA
:101700000BF018FA674C00230A22194620680DF0E6
:101710004EFF70B964A00BF00DFA4FF47A700DF023
:10172000E7FC00230A22194620680DF040FF00283C
:10173000F0D05FA00BF0FEF9002003F0C1FA08F032
:1017400067F8012819D05DA00BF0F4F94FF6FF738C
:1017500062A264212420009602F02EFC08F058F8C2
:10176000012807D04FF4FA600DF0C2FC08F050F8E1
:101770000128F7D15FA00BF0DDF94FF6FF7366A2E9
:1017800078212C20009602F017FC4FF4FA600DF03F
:10179000AFFC66A009F0D6FBE8B2AA2804BFC5F3E7
:1017A0000720552822D0002003F08AFA4FF6FF7355
:1017B00061A264213C20009602F0FEFB4FF6FF730D
:1017C00061A278214420009602F0F6FB62490020D5
:1017D0000CF080F94FF6FF7360A28C215820009620
:1017E00002F0EAFB4FF47A700DF082FC5E480023B1
:1017F0001A46194600680DF05DFF42F210700DF0B8
:1018000077FC00200DF08EFCF7E700004C454454B7
:1018100061736B3200000000A9EF0008312E300028
:101820002D2D204261736963204D50332050726F1B
:101830006A656374202573200D0A000048592D53F2
:101840006D617274204D756C7469204D65646961B9
:1018500020446576656C6F706D656E7420426F61B3
:1018600072642056312E30002D2D202573202D2D11
:101870000D0A000032333A35303A303000000000B3
:101880004F63742032352032303132002D2D204309
:101890006F6D70696C65643A202573202573200D87
:1018A0000A0000005C02002057616974696E6700DD
:1018B000546172676574496E69740A002D2D205059
:1018C0006C6561736520636F6E6E65637420612063
:1018D00053442063617264200D0A0000506C6561FE
:1018E000736520696E73657274205344206361725E
:1018F000640000002D2D2053442063617264206336
:101900006F6E6E656374696F6E2064657465637471
:101910006564200D0A000000534420636172642056
:101920006465746563746564204F4B00303A2F4DD5
:1019300075736963000000004E6F20446574656331
:101940007420485A4C69620057726974696E672046
:10195000485A4C6962000000ECF40020485A4C6977
:1019600062204F4B000000005402002000B585B0FB
:1019700000200321CDE900100290034603904FF4AC
:10198000807203A105480DF04BFF05B000BD0000BB
:10199000546F75636853637265656E0065EF000888
:1019A0002DE9F05FDFF89CB4DDE90BA8DDF82890A5
:1019B00007460D4614461E469BF800001228FBD22F
:1019C000DFE800F009A366CDF5F6F3F2F1F0EFEEF3
:1019D000EDECEBEAE93B4BF2055009FB00F000149B
:1019E000ABF808004BF205500AFB00F00014ABF80E
:1019F0000A004FF4A031A1EB09400014ABF8140029
:101A0000A1EB0A400014ABF81600ABF80C90ABF851
:101A10000EA00020ABF81000ABF81200ABF8189045
:101A2000ABF81A00ABF81C00ABF81EA0ABF8200016
:101A3000ABF8220011208BF80000BBF91210BBF9A3
:101A40000A008142C4BF02208BF8000020DCBBF9F1
:101A50001000ABF81C00ABF82210BBF90820824242
:101A600030DBBBF91420002ADCBFD21C02EB4002A1
:101A700008DDBBF80C30521D5B1EABF80C30C31AEE
:101A800002EB4302ABF81420401CABF8100023E03B
:101A9000E01B711B084300F0CF8118F0020F0ED03D
:101AA0007019431004EB0A0002B204EB090000B203
:101AB000294600F0C9F9002808BFBDE8F09F0420BE
:101AC00000F079B9401C00B2ABF81000BBF90C2053
:101AD0008242B8BFABF80C00BBF916000028DCBF8F
:101AE000C01C00EB410008DDBBF80E20401D521E5B
:101AF000ABF80E208A1A00EB4200ABF81600481C27
:101B0000ABF81200012000F056B9BBF91800BBF980
:101B10000C10884209D1BBF91E10BBF90E2091426E
:101B200004BF11208BF8000087D018F0010F13D0EC
:101B3000281A03B2BBF81C00204402B2BBF81E00F6
:101B4000281A01B2BBF82000204400B200F07CF952
:101B5000002808BFBDE8F09F032000F02CB918F062
:101B6000020F15D0BBF82000281A03B2BBF81E00E4
:101B7000204402B2BBF81C00281A01B2BBF81800BE
:101B8000204400B200F060F9002808BFBDE8F09FD3
:101B9000052000F010B9E5E091E0CFE074E00DE140
:101BA00057E0F3E03AE035E11DE01BE100E0B1E091
:101BB00018F0040F15D0BBF82200304403B2BBF874
:101BC0001E00204402B2BBF81A00304401B2BBF838
:101BD0001800204400B200F037F9002808BFBDE823
:101BE000F09F0720E7E018F0080F15D0BBF81E00A3
:101BF000304403B2BBF82200204402B2BBF8180004
:101C0000304401B2BBF81A00204400B200F01CF9C5
:101C1000002808BFBDE8F09F0920CCE018F0100FA5
:101C200015D0BBF81E00304403B2BBF82000381AB0
:101C300002B2BBF81800304401B2BBF81C00381ADD
:101C400000B200F001F9002808BFBDE8F09F0B20AA
:101C5000B1E018F0200F15D0BBF81C00304403B2DF
:101C6000BBF81800381A02B2BBF82000304401B2A9
:101C7000BBF81E00381A00B200F0E6F8002808BFD2
:101C8000BDE8F09F0D2096E018F0400F15D0BBF88E
:101C90001A00281A03B2BBF81800381A02B2BBF8AF
:101CA0002200281A01B2BBF81E00381A00B200F058
:101CB000CBF8002808BFBDE8F09F0F207BE018F0AC
:101CC000800F15D0BBF81800281A03B2BBF81A0011
:101CD000381A02B2BBF81E00281A01B2BBF8220063
:101CE000381A00B200F0B0F8002808BFBDE8F09F35
:101CF000BBF80C00ABF81800BBF81000ABF81A00EA
:101D0000BBF80E00ABF81E00BBF81200ABF82000C9
:101D1000112050E018F0040F0ED004EB0A0002B2BC
:101D20007019411004EB090000B2334600F08CF842
:101D3000002808BFBDE8F09F0E203CE018F0100F0F
:101D40000ED006EB0A0003B2E019421006EB0900C0
:101D500001B2384600F078F8002808BFBDE8F09FCF
:101D6000102028E018F0080F0ED006EB0A0003B28E
:101D700006EB090001B2E0194010224600F064F8B9
:101D8000002808BFBDE8F09F0A2014E0BC4227D01D
:101D900018F0800F0ED0A5EB090003B2E019421035
:101DA000A5EB0A0001B2384600F04EF8002808BF43
:101DB000BDE8F09F0C208BF80000FDE518F0010F46
:101DC0000ED0A5EB090003B2A5EB0A0001B2E019A1
:101DD0004010224600F038F8002808BFBDE8F09F08
:101DE0000620E8E7B54227D018F0400F0ED0701952
:101DF0004310A7EB090002B2A7EB0A0000B2294684
:101E000000F022F8002808BFBDE8F09F08208BF8FA
:101E10000000D1E518F0200F0ED0A7EB090002B2A8
:101E200070194110A7EB0A0000B2334600F00CF81D
:101E3000002808BFBDE8F09F00208BF800000120BB
:101E4000BDE8F09F8C0000202DE9F04703F1010967
:101E500082460D464945BCBF561CDFF8308012DA79
:101E60005446B245B8BFAFB209DAB8F800203946D7
:101E7000A0B204F0BDFB601C04B2B442F5DB681CE8
:101E800005B24D45ECDB0120BDE8F087EE000020F7
:101E90002DE9FF4F8BB04BF205511898189D484320
:101EA000000C401C00B2089018984FF4A031A1EB30
:101EB000004006140020069001200790002D00F03D
:101EC0001681089800240028A8BFDFF8ACB2C0F241
:101ED0000E810698A949401C00B20690B1F9341051
:101EE000884205D1079880F00100079000200690F5
:101EF0000798002800F0E8800C98401B029081B2FF
:101F000003900D98BBF800200719B8B204F070FBDD
:101F10000C98A0EB04080D981FFA88F12844009053
:101F2000019080B2BBF8002004F062FB0E9800EB39
:101F3000050ACDF824A01FFA8AF1B8B2BBF8002038
:101F400004F056FB0E98BBF8002000EB0409019842
:101F50001FFA89F180B204F04BFB0B981FFA8AF14B
:101F6000A0EB040A1FFA8AF0BBF8002004F040FB43
:101F70000B981FFA89F1401B0490059080B2BBF8C2
:101F8000002004F035FB05981FFA88F180B2BBF8F9
:101F9000002004F02DFB0398BBF8002081B21FFA4B
:101FA0008AF004F025FB7548407900287DD002981E
:101FB000401E019081B2B8B2BBF8002004F018FBBB
:101FC0000298401C029081B2B8B2BBF8002004F025
:101FD0000FFB00981FFA88F1401C039080B2BBF8F9
:101FE000002004F005FB00981FFA88F1401E0090C5
:101FF00080B2BBF8002004F0FBFA0998401E05905F
:1020000081B2B8B2BBF8002004F0F2FA0998401C83
:10201000099081B2B8B2BBF8002004F0E9FA039845
:102020001FFA89F180B2BBF8002004F0E1FA0098B1
:102030001FFA89F180B2BBF8002004F0D9FA0598A4
:10204000BBF8002081B21FFA8AF004F0D1FA099897
:10205000BBF8002081B21FFA8AF004F0C9FA049894
:102060001FFA89F1471CB8B2BBF8002004F0C0FA8F
:1020700004981FFA89F1A0F101091FFA89F0BBF851
:10208000002004F0B5FA1FFA88F1B8B2BBF80020BE
:1020900004F0AEFA1FFA88F11FFA89F0BBF80020AD
:1020A00004F0A6FA029881B200E00DE01FFA8AF06F
:1020B000BBF8002004F09CFA0198BBF8002081B224
:1020C0001FFA8AF004F094FA002EDCBF06EB4400FD
:1020D000C01C05DD681E05B2601B06EB4000401DFC
:1020E00006B2601C04B2089884427FF7F2AE0B99E6
:1020F0000D9888420BD00C991898081A04B2234600
:1021000019460D9A0B9804F0CFFE0028F7D00C99D1
:102110000E9888420BD00B991898081A04B22246E0
:1021200010460E9B0C9904F0BFFE0028F7D00B99C7
:102130000D98421A0C990E98401A104317D00D9919
:102140001898084404B2224610460E9B0C9904F0DD
:10215000ABFE0028F7D00E991898084404B2234625
:1021600019460D9A0B9804F09FFE0028F7D00FB087
:102170000120BDE8F08F0000EE0000208C00002060
:102180002DE9FF5F8346DDE91256DDE90F97282030
:10219000DDF844A0DDF838800CF088FC040004BFB2
:1021A00004B0BDE8F09FA4F800B000206060207289
:1021B0000199A1810299E18103992182A4F81280F9
:1021C000A4F81890C4E9085A6781002E18BF666108
:1021D00014D06083A08355B160694169284602F03C
:1021E00095F860836069406902F07CF8A08320461E
:1021F00001F046FA04B02046BDE8F09F01490968A5
:102200006161E6E7680000202DE9F84F974D04462C
:10221000974E287800274FF005084FF0030A4FF03B
:102220000209062819D2DFE800F0032C6988D7E0FC
:10223000608910F4004F13D06069008A3080B4F9CF
:102240001230B4F91020B4F90E10B4F90C00FFF7F5
:10225000FBFD002808BFBDE8F88F0120BDE8F88F1E
:10226000208BE880218AA2894042891A01EB400133
:102270006980618AE289891A01EB4000A880012007
:102280002870608910F0020F43D06069438801888C
:10229000C2897848DFF8E4B1077077480780B4F85E
:1022A0000CC0E8888444ABF800C0B4F80EC0DFF876
:1022B000D0B18444ABF800C0B4F810C0DFF8C4B1AA
:1022C000ACEB000CABF800C0B4F812C0DFF8B8B14A
:1022D000ACEB000CABF800C0DFF8B0C1ACF800000C
:1022E0006B4802806B4803806B4801806B49606AD1
:1022F00008606B48A0F800A085F80090608910F491
:10230000807F12D001F05AFC002808BFBDE8F88F8A
:1023100011E010F0040F60691DBF418803888289B5
:10232000438804BF01884289B3E701F0DBFA002843
:1023300008BFBDE8F88F85F800A0206A002852D0B9
:10234000608910F0020F10D06069008930806069E8
:10235000406909F005F8618911F0100F0DD0208A4D
:10236000628B801A401F80B217E010F0040F606982
:1023700014BFC08880883080E9E711F0200F1CBFAF
:10238000A089401D08D1B4F90C00B4F91020104404
:10239000B4F91A20801A401080B211F0800F03D0D7
:1023A000E189491D89B211E011F0400F04D0618A22
:1023B000A28B891AC91E08E0B4F91210B4F90E20D4
:1023C0001144B4F91C20891A491089B2354A108089
:1023D0003548018004202870206A05F09FFE0028FF
:1023E00008BFBDE8F88F85F80080608910F0010F04
:1023F00025D0DFF8848010F0040FA8F80090606901
:1024000014BFC08880883080208BE0B1E888411FED
:1024100009B20091618AB4F80CC0091A0BB2218A82
:10242000091A0AB2E1890144604409B200B2FFF717
:102430002FFD002808BFBDE8F88FA8F800702F70A6
:102440000120BDE8F88F0097608A401F03B2208A00
:10245000401F02B2E089401D01B2A089401D00B2B8
:10246000FFF716FD0028E8D1BDE8F88F44000020F2
:10247000EE00002091000020C0000020520000204B
:102480005400002056000020580000205A00002070
:102490005C0000205E000020600000207000002032
:1024A00062000020C2000020C400002006280AD0DC
:1024B00008281CBF09287047488920F0040040F410
:1024C000804048817047488944F204021043F8E78D
:1024D000428912F0020F55D10B78022B02D0012B4A
:1024E00050D136E0B0F90CC0B1F902309C45BCBF08
:1024F000B0F910C0634520DAB0F90EC0B1F904306C
:102500009C45BCBFB0F91200834216DA487812F03D
:10251000080F05D0042835D112F0040F40D141E056
:1025200004283DD0032802F0040001D078B329E04C
:1025300000281CBF0720704734E012F0080F04BFCA
:10254000487801281ED112F0040F1CBF09207047E3
:1025500018E0B1F902300088834204BF48780528AA
:1025600010D1B1F9040012F0080F11D0B92818BF2A
:102570009C2809D0392815D0B1F904002C2811D095
:10258000AC280DD00020704712F0040F08D109E0EC
:10259000392807D01C2805D0B92818BF9C28EBD1B2
:1025A0000820704706207047FEE7000070B54649D6
:1025B00005462A24486B10F0450F03D1486B10F0F4
:1025C000450FFBD010F0040F05D00324042007F0C2
:1025D00057F8204670BD10F0010F05D001242046A9
:1025E00007F04EF8204670BD07F08AF8A84234D1B3
:1025F00040F2FF5007F044F8002007F0A3F83349F9
:1026000008425ED010F0004F1CBF1C2070BD10F0BF
:10261000804F1CBF092070BD10F0005F1CBF0A2056
:1026200070BD10F0805F1CBF0B2070BD10F0006FFC
:102630001CBF0C2070BD10F0806F1CBF0D2070BD42
:1026400010F0807F1CBF0E2070BD10F4000F1CBF67
:102650000F2070BD10F4800F01D0102070BD10F459
:10266000001F1CBF112070BD10F4801F1CBF122062
:1026700070BD10F4002F1CBF132070BD10F4802F0C
:102680001CBF142070BD10F4003F1CBF152070BD8E
:1026900010F4803F1CBF162070BD10F4004F1CBF0B
:1026A000172070BD10F4804F1CBF182070BD10F4AF
:1026B000005F1CBF192070BD10F0080F1CBF1A204E
:1026C00070BD204670BD00000080014008E0FFFDA5
:1026D000054A012303FA00F00029116814BF0843DA
:1026E00021EA00001060704700740040054A93140E
:1026F00003FA00F00029116814BF084321EA000022
:10270000106070470074004010B50121480706F0C2
:102710008DFBBDE8104000214FF0005006F086BB55
:102720000B4B10B41A6840F6FE7C0CFA00FC22EA4F
:102730000C02D1E900C44CEA040CD1E90241214366
:102740004CEA010101FA00F01043186010BC704718
:10275000007400400021016041608160C1607047E9
:1027600070B5134800F01AF9124C134E50B11348CB
:1027700000F036F8607840F00100607030680DF0CD
:10278000A5F905460E4800F009F950B10D4800F0D2
:1027900027F8607840F00200607030680DF096F91C
:1027A0000546012D18BF70BDBDE870400CF098BC07
:1027B0000004001034020020700200200005001008
:1027C000000200100003001010F0805F19BF0249E2
:1027D000086002494860704704040240000002405B
:1027E00010F0805F19BF02490860024948607047D5
:1027F00004040240000002400029016812BF41F0B9
:1028000001014FF6FE7211400160704770B5054638
:102810000C468CB00121022006F0F0FA144E30462E
:1028200000F02AF804EBD470401003901148CDE971
:1028300000051020029000208021CDE904018900CC
:1028400006918900079189000991202108910A9039
:102850006946304600F0BAF801220621304600F001
:10286000ADF801213046FFF7C7FF0CB070BD000086
:10287000300402402474004002684FF6FE7111409B
:1028800001600021016041608160C1602E4A2F49D2
:10289000904204BF486840F00F0022D02C4A90427A
:1028A00004BF486840F0F0001BD02A4A904204BFA1
:1028B000486840F4706014D0274A904204BF4868CA
:1028C00040F470400DD0254A904204BF486840F45F
:1028D000702006D0224A904204BF486840F470003D
:1028E00001D1486070471F4A904204D1486840F0C7
:1028F0007060486070471C4A111F904204BF08680E
:1029000040F00F0014D0194A904204BF086840F00C
:10291000F0000DD0164A904204BF086840F4706081
:1029200006D0144A904204BF086840F4704001D1B8
:1029300008607047104A904218BF7047086840F41A
:10294000702008607047000008000240000002404C
:102950001C00024030000240440002405800024087
:102960006C00024080000240080402401C04024047
:10297000300402404404024058040240002210F097
:10298000805F14BF034904490968014218BF01224E
:10299000104670470004024000000240002210F080
:1029A000805F14BF034904490968014218BF01222E
:1029B000104670470004024000000240002A0268EE
:1029C00014BF114322EA01010160704710B402688C
:1029D000D1F820C08B686FF30E1243EA0C03D1E9E3
:1029E00004C44CEA040C43EA0C03D1F818C043EACF
:1029F0000C03D1F81CC043EA0C03D1F824C043EA0D
:102A00000C03D1F828C043EA0C031A430260CA68D9
:102A100042600A6882604968C16010BC70477047B4
:102A20002DE9FF4F87B007468846002004905349A0
:102A300003F0030001EB8019103951F820000590D4
:102A40001F20B0EBA30FCCBF9E101F26F01C1F2829
:102A5000A8BF1F200028D8BF002000210091D9F86E
:102A6000041001410191D9F8081001410291D9F8EF
:102A70000C1041FA00F003907042069057F804AB36
:102A80002AF000400428B8BF5DF820100ADB1028A7
:102A900019DA59F82000002EBABF069900FA01F1A0
:102AA00040FA06F1049808430490BAF1000FB8BF49
:102AB000494248F8041B0998401E0990DED1049849
:102AC0000BB0BDE8F08F40280ADA2D4901EB8000F9
:102AD000059950F8400CFDF777FB0146F01E3FE0EA
:102AE00044040025B4F1006FBCBF24010425B4F1F7
:102AF000005FBCBFA400AD1CB4F1804FBCBF64003C
:102B00006D1C20488442B4BFDFF87CB0DFF87CB095
:102B10002146DBF80000FDF757FBDBF80410084402
:102B20002146FDF751FBDBF8081008442146FDF76C
:102B30004BFBDBF80C1008442146FDF745FBDBF8A6
:102B400010100844124951F82510FDF73DFBC00054
:102B50000599FDF739FB01460E4850F82500301A5B
:102B60000028A8BF01419DDA40426FF00042C240F8
:102B70008A42B4BF6FF00041814093E7A020010872
:102B8000A02101089A79825A602201087422010862
:102B9000A8220108882201082DE9F04F83B00D20FA
:102BA00000F0ECFD0746C948007800281CBF03B0C0
:102BB000BDE8F08F0021384604F011F8DFF81083EB
:102BC0000025E8B1022000F0D9FD06460021384674
:102BD00004F005F8BF4CDFF800936168884225D007
:102BE0000021384603F0FBFF6060132000F0C6FDB3
:102BF00005F010FB99F80000012808D078B115E025
:102C00001E21A8F80050B5A24E2000F059B9A8F82E
:102C10000050B7A23C21782005F0B2FA06E0A8F8EF
:102C20000050B5A23C21782005F0AAFA99F80000DE
:102C3000216888421CD0132000F0A0FD05F0EAFABC
:102C400099F80000012801D040B10EE0A8F800502A
:102C5000A7A23C21782005F093FA06E0A8F80050DE
:102C6000A5A23C21782005F08BFA99F8000020609D
:102C70000B2000F083FDDFF888A2A24C0746DAF8AB
:102C80000C00616E401AFEF7B0F9DFF87CB20190DB
:102C9000DBF80000FEF7A9F90199FDF7CCFF9B498D
:102CA000FDF793FFFEF7D0F9C1B2384608F0F5FE04
:102CB000788940F48050788199F8000060B9944890
:102CC0000068012808D19349706A884204D192486B
:102CD00070623046FFF798FA206DFEF77DF90646E0
:102CE000DAF80C00616E401AFEF77FF90746DBF850
:102CF0000000FEF77AF93946FDF79DFF3146FDF7F2
:102D000064FFFEF7A1F9616D884204BF03B0BDE81E
:102D1000F08F6065122000F031FD05F07BFAA8F815
:102D20000050606D4FF4167190FBF1F030308DF86B
:102D300000006A463C21462005F022FA774E606D7D
:102D40002946C6FB00104111754FA1EBE07087FBCF
:102D500000218A10A2EBE171494201EB810100EBF5
:102D6000410030308DF800006A463C214E2005F0CD
:102D700007FA6CA23C21562005F002FA616D2A4642
:102D80000846C6FB01204211A2EBE070A0EB001048
:102D900001EB800087FB00108110A1EBE070303068
:102DA0008DF800006A463C215E2005F0E9F9616D6E
:102DB0002A460846C6FB01204211A2EBE070A0EBB8
:102DC000001001EB800087FB00218A10A2EBE1716B
:102DD000494201EB810100EB410030308DF80000E9
:102DE0006A463C21662005F0CBF9606D00281CBFC7
:102DF00003B0BDE8F08F142000F0C0FC05F00AFA23
:102E0000A8F800504849E06D6A46B0FBF1F0303058
:102E10008DF800003C21B22005F0B2F9E06D4FF4CE
:102E20007A79B0FBF9F0414E414FA6FB00214909E8
:102E30006FF01802514300EB8100A7FB0010C0089F
:102E400030308DF800006A463C21BA2005F098F930
:102E5000E06DB0FBF9F0A6FB002149096FF0180204
:102E6000514300EB8100A7FB0021C908494201EB57
:102E7000810100EB410030308DF800006A463C21B2
:102E8000C22005F07DF92BA23C21CA2005F078F97B
:102E9000112000F073FC05F0BDF9A8F800501948A6
:102EA000FDF71BFE4008FEF7A0F80321FDF703FF26
:102EB0002249FDF787FEFEF7AEF800B2114A1E2147
:102EC00005F05EF903B0BDE8F08F000008010020B6
:102ED000EE000020FC00002036020020C7EBD1A14C
:102EE000D4F1C4E3CFB2BBB6B5C4B8E8C7FA0000AA
:102EF000B2A5B7C5D6D00000D2D1CDA3D6B90000B7
:102F00001CF70020D0600020500200200000484341
:102F10004402002044010020140100208988888890
:102F2000676666663A000000A08601001F85EB51C7
:102F3000CDCCCCCC4B627073000000000000164377
:102F40002DE9F04F8046801E82B283B0A8F10F00B9
:102F50004FF6FF7780B289460B460446009701F092
:102F6000EFFE08F10F0082B24B460D3815461946A8
:102F700080B2009701F0E4FEA9F1020083B20D389F
:102F800081B242460E461046009701F0D9FE09F183
:102F90000F0083B20D380097424681B21F4610469B
:102FA00001F0CEFEA8F1070082B24BF6F04A3B4694
:102FB000934619462046CDF800A001F0C1FE09F164
:102FC000070081B2CDE900A122463B46104601F040
:102FD000B7FE33465A4619462046CDF800A001F008
:102FE000AFFEA9F1070081B222463346894610465A
:102FF000CDF800A001F0A4FE08F107003B4680B226
:103000002A4619460446CDF800A001F099FE2A464A
:103010003B46CDF800A01046019901F091FE3346E1
:103020002A4619462046CDF800A001F089FE2A461E
:103030004B4631461046CDF800A001F081FE03B0AA
:10304000BDE8F08F012070474FF0204202EB800076
:103050000029016812BF41F00101024A11400160DC
:1030600070470000FEFF0F0010B4D0E901121143B9
:10307000D0E903231A43114342690368114382696B
:103080001143C2691143026A1143426A1143826AC1
:103090001143C26A1143026B11434FF0204242F8C0
:1030A00023108168082906D1016802EB81010B68B1
:1030B00043F040030B60416BD1E9003C43EA0C1341
:1030C000D1F808C0CC684FEA0C2C4CEA044C43EA17
:1030D0000C03D1F810C043EA0C53D1F814C089692D
:1030E00043EA0C631943036802EB83035960C16A26
:1030F000B1F5804F08D000686FF0704102EB80009E
:10310000C0F8041110BC7047816B0068D1E9003C25
:1031100043EA0C13D1F808C00C694FEA0C2C4CEAB6
:10312000045C43EA0C03D1F814C0896943EA0C63D8
:1031300002EB80001943C0F8041110BC7047000076
:103140002DE9F05F0546DDF828804BF2055008FBBD
:1031500000FA4FF4A030DFF808920C4616461F46DE
:10316000A0EB084B99F801000828FBD2DFE800F03B
:10317000041D839E4366E1C1B8F1000F1BD04FEAE6
:103180002A40A9F824004FEA2B40C9F84000A9F8CA
:1031900026800020A9F82800A9F82A80A9F82C0088
:1031A000A9F82E00012089F80100B9F92800B9F921
:1031B0002410814203DA072089F80100D2E7A9F838
:1031C0002E00D9F840100029DCBF01EB4001C91CDA
:1031D00009DDB9F82620521E12B2A9F82620821A5B
:1031E00001EB4201491D401CC9F84010A9F8280014
:1031F000042089F80100B9F92A00B9F9261088429B
:1032000004BF012089F80100CFD099F8071011F010
:103210000F0F11D0B9F82E1039440BB231180AB281
:10322000B9F82C10281A394409B200B2FEF70CFE86
:10323000002808BFBDE8F09F052019E099F80700B5
:1032400010F00F0F13D0B9F82A00384403B2B9F8C0
:103250002E0031180AB2B9F82610281A394409B2DA
:1032600000B2FEF7F1FD002808BFBDE8F09F022084
:1032700089F8010076E799F8070010F0F00F13D0F5
:10328000B9F82600201A03B2B9F82E0031180AB294
:10329000B9F82A10281A611A09B200B2FEF7D4FD53
:1032A000002808BFBDE8F09F0320E1E799F8070078
:1032B00010F0F00F13D0B9F82C00201A03B2B9F8AF
:1032C0002A0031180AB2B9F82E10281A611A09B268
:1032D00000B2FEF7B9FD002808BFBDE8F09FB9F8BD
:1032E0002600A9F82A00B9F82800A9F82C00012026
:1032F000BEE7701B391B08431BD099F8071006EB7B
:103300000802A5EB080000B212B2FF2917D03B1B40
:1033100004EB63030FFA83FCF02919D03B466146A6
:10332000FEF792FD002808BFBDE8F09F062189F84E
:103330000110002089F801000120BDE8F09F3B4604
:103340002146FEF781FD002808BFBDE8F09FEDE7AC
:1033500063462146FEF778FD0028E7D1BDE8F09FDF
:103360008C0000202DE9F8435F4E814600290CBFF8
:10337000707803203070F06840F628715B4F884207
:1033800038D2F068F26800F00300C0F104057C193F
:10339000A04640467169FDF73DFBF068C0F5E0507E
:1033A000421BF068524B211848460AF09BFC707192
:1033B00018B101464FA009F0BDFBB469002C04BF51
:1033C0000120306116D0F0692044F061F068C0F54A
:1033D000E050401BA04208D9F068C0F5E050011B46
:1033E000F06838442044FDF73CFBF0682044F0606E
:1033F000C6F8148030690025012832D0F168706960
:1034000004F064F80028BEBFF5604FF0FF30BDE85F
:10341000F883716901447161F168081AF0603078CD
:10342000374C10F0010F04F510582ED0354A009596
:10343000234602F10801B06803F07CFED8F8103092
:103440000021002B09DD34F8112002F5004224F898
:103450001120491C89B28B42F5DC717821F0010101
:1034600035E000212848FFF7C7F92848B570002348
:10347000F5611A46194600680CF01CF924480068EA
:103480000BF04CFF0020BDE8F88310F0020F28D0AD
:103490000095D8F810001B4A04EB400302F1080124
:1034A000B06803F047FED8F8102091B2B1EB420F9C
:1034B0000ADA34F8113003F5004324F81130491CBE
:1034C00089B2B1EB420FF4DB717821F00201717027
:1034D0007178317028B1F5604FF0FF307761BDE849
:1034E000F8830020BDE8F88334020020D4D80020FF
:1034F0004C020020526561643D25640A0000000012
:10350000B8B40020400200203004024060020020D5
:10351000700200202DE9F04704460D461E003DD004
:10352000C6F11F074FF001004FF0000900FA07F045
:1035300012F0010FA0F10108CA4670D02068C1172F
:1035400040FA07F28A4218BF88EA0100B0402060C2
:10355000FCF73DFE40EA090954F8800F4042C117CC
:1035600040FA07F28A4218BF88EA0100B0402060A2
:10357000FCF72DFE40EA090928688034C11740FA9B
:1035800007F28A4218BF88EA0100B0400AF1020A35
:1035900045F8040BBAF1120FD0DB6EE012F0010F08
:1035A00039D0D4F8800004F5C0744042216804F595
:1035B0008074226804F58074236804F58074D4F85C
:1035C00000C004F58074256804F58074266804F54D
:1035D0008074276804F58074D4F80080A4F5006432
:1035E00020604842C4F800015042C4F8000258422A
:1035F000C4F80003CCF10000C4F800046842C4F829
:1036000000057042C4F800067842C4F80007C8F10B
:103610000000C4F800080020BDE8F087FFE720683C
:10362000C11740FA07F28A4218BF88EA0100B04089
:103630002060FCF7CCFD40EA090954F8800FC1175F
:1036400040FA07F28A4218BF88EA0100B0402060C1
:10365000FCF7BDFD40EA090928688034C11740FA2B
:1036600007F28A4218BF88EA0100B0400AF1020A54
:1036700045F8040BBAF1120FD1DB4846BDE8F087DC
:10368000074A9169002908BF906106D04A681AB1BB
:1036900011465268002AFBD1486000214160704702
:1036A0004C00002010B518200BF000FA002808BFCD
:1036B00010BD42F6B02101804DF23E714180E921FA
:1036C00081804FF6FF71C1804FF2BB7101814AF6D4
:1036D000DD61418142F23E6181814BF29F61C18196
:1036E0004DF27E7101820149416110BD9053010884
:1036F00010B51A4CA06A70B1002158B3428912F477
:103700007C4F22D0027A72B1052A0FD0062A10D03F
:10371000092A14D110E000F023F800281CBFA0698A
:10372000A062E9D110BDFEF76FFD07E003F03CF8A1
:1037300004E007F071FE01E004F06CFD01B259B144
:10374000A06A4289C2F309024281A06A4068A0626D
:103750000028D3D1012010BD002010BD4C00002056
:10376000054810B5007800281CBF012010BDFFF7E8
:1037700013FA012010BD0000080100200146064890
:10378000806930B102888A4208BF704740680028CB
:10379000F8D10020704700004C00002070B5094EA1
:1037A000B4695CB1207A6568052804BF204602F040
:1037B000EDFF20460BF07EFC2C00F3D10020B06121
:1037C000306270BD4C00002010B501F029F91820BE
:1037D0000BF06CF9D8B142F6B02101804DF23E7188
:1037E0004180E92181804FF6FF71C1804FF2BB71AA
:1037F00001814AF6DD61418142F23E6181814BF2F5
:103800009F61C1814DF27E7101820249416102498D
:10381000C86110BD905301084C00002070B50546EA
:103820004078002808BF70BD26488469002C08BF76
:1038300070BD207A30B1052815D0062824D009287B
:103840003CD132E029462046FEF742FE060035D044
:103850002A46214600F038F830B32A462146304641
:10386000FEF724FE2AE02946204603F0E5FA06008A
:1038700024D02A46214600F027F8A8B12A4621463E
:10388000304603F0BBF919E02946204608F040F91C
:10389000060013D02A46214600F016F820B12A4629
:1038A0002146304608F090F808E02946204604F00A
:1038B00083FD18B12A46214600F006F86468002C02
:1038C000B7D170BD4C000020054B10B51B78002B04
:1038D0001CBF012010BD03F057FE012010BD0000E9
:1038E000080100202DE9F04F0627B24EB24C83B0FC
:1038F0004FF0E1094FF0020A4FF01E0B012520782E
:103900000928FCD2DFE800F005265B7E9EC241F963
:10391000FA00B4F90E00002804BF84F800A0658006
:103920004DD0618A3180E18ACDF80890411A09B200
:10393000CDE90010B4F90C30B4F90A20B4F908103C
:10394000B4F90600FEF72CF8002812BF257003B06A
:10395000BDE8F08FA08A3080B4F90E00E18ACDF87E
:1039600008B0411A09B2CDE90010B4F90C30B4F92D
:103970000A20B4F90810B4F90600FEF711F800287F
:1039800012BF277003B0BDE8F08F208A3080B4F9F1
:103990000E00002879D0E18A401A00B20090B4F9F4
:1039A0000C30B4F90A20B4F90810B4F90600FFF796
:1039B000C7FB002804BF03B0BDE8F08F9AE0608A1F
:1039C00030806088E18A884218D280B22189628979
:1039D0000144121AE38809B2184412B200B20B462D
:1039E000FEF732FA002804BF03B0BDE8F08F60880C
:1039F000401C80B26080E18A8142E6D86580032065
:103A000020707CE76088E18A884218D2A0896188AA
:103A10002289401A03B2E0880844114400B209B276
:103A20000246FEF711FA002804BF03B0BDE8F08F8C
:103A30006088401C80B26080E18A8142E6D865805F
:103A4000042020E0A08A30806088E18A884218D271
:103A500080B2A1896289091A121AE38809B218444E
:103A600012B200B20B46FEF7EFF9002804BF03B014
:103A7000BDE8F08F6088401C80B26080E18A81429E
:103A8000E6D865800520207039E71EE06088E18A6D
:103A9000884218D2A08961882289401A03B26089BD
:103AA000401A114400B209B20246FEF7CDF90028CF
:103AB00004BF03B0BDE8F08F6088401C80B2608016
:103AC000E18A8142E6D8277019E7A189E08AB4F833
:103AD00006C0091A0BB26189091A0AB22189014488
:103AE000604409B200B2FEF7AFF9002804BF03B08A
:103AF000BDE8F08F0820C6E700E025E0606A08B363
:103B000000F0CEFAB4F90C10B4F908201144081AE8
:103B100005EB60000FFA80F8606A00F0C9FAB4F9AA
:103B20000A10B4F9062001231144081A05EB6000BD
:103B300000B24146626A04F0ABFF002804BF03B044
:103B4000BDE8F08F07209EE7606AC0B100F0B0FAD0
:103B5000B4F90A10B4F90620891AB4F90E201144F8
:103B6000884220DC606A00F09BFAB4F90C10B4F9CA
:103B70000820891AB4F90E201144884213DCA08A67
:103B80003080B4F90E000090B4F90C30B4F90A207A
:103B9000B4F90810B4F90600FEF77AF9002804BF5A
:103BA00003B0BDE8F08F0020207003B00120BDE815
:103BB000F08F0000EE0000204C0000202DE9F04FB7
:103BC000AB4EAC4FAC4C83B04FF0020A4FF0030B3E
:103BD00001254FF005084FF0FF0960780828FCD256
:103BE000DFE800F0042548698AAAE0FBB4F90E007A
:103BF000002804BF6570A58019D0218A3180E18A30
:103C0000CDF80890411A09B2CDE90010B4F90C3092
:103C1000B4F90A20B4F90810B4F90600FDF7C0FEA3
:103C2000002812BF84F8018003B0BDE8F08F208A1D
:103C30003080A088E18A884218D280B221896289C6
:103C40000144121AE38809B2184412B200B20B46BA
:103C5000FEF7FAF8002804BF03B0BDE8F08FA08893
:103C6000401C80B2A080E18A8142E6D8A58084F819
:103C700001A0B2E7A088E18A884218D2A089A18871
:103C80002289401A03B2E0880844114400B209B204
:103C90000246FEF7D9F8002804BF03B0BDE8F08F54
:103CA000A088401C80B2A080E18A8142E6D8A5802D
:103CB00084F801B091E7A088E18A884218D280B2E6
:103CC000A1896289091A121AE38809B2184412B24A
:103CD00000B20B46FEF7B8F8002804BF03B0BDE8F9
:103CE000F08FA088401C80B2A080E18A8142E6D893
:103CF000A5800420607070E7A088E18A884218D20D
:103D0000A089A1882289401A03B26089401A11440F
:103D100000B209B20246FEF797F8002804BF03B0CC
:103D2000BDE8F08FA088401C80B2A080E18A81426B
:103D3000E6D884F8018050E7608A3080B4F90E003C
:103D4000A8B1F0213970E18A401A00B20090B4F9AC
:103D50000C30B4F90A20B4F90810B4F90600FFF7E2
:103D6000EFF9002804BF03B0BDE8F08F18E0B4F904
:103D70000C00B4F908106289401A01EB600003B22C
:103D8000E08AB4F806C0121A0144604412B209B2C3
:103D900000B2FEF759F8002804BF03B0BDE8F08F69
:103DA00006203AE0A08A3080B4F90E00B0B10F21AD
:103DB0003970E18A401A00B20090B4F90C30B4F9BD
:103DC0000A20B4F90810B4F90600FFF7B9F9002881
:103DD00004BF03B0BDE8F08F1CE020E0B4F90CC0D4
:103DE000E08AACEB00010BB26189091A0AB2B4F99E
:103DF0000810ACEB010C01EB6C01B4F806C0491CD7
:103E0000604409B200B2FEF71FF8002804BF03B0F7
:103E1000BDE8F08F87F8009007206070DDE6606AEB
:103E200000B300F03DF9B4F90C10B4F908201144C6
:103E3000081A05EB600006B2606A00F039F9B4F9BF
:103E40000A10B4F9062001231144081A05EB60009A
:103E500000B23146626A04F01BFE002804BF03B0C2
:103E6000BDE8F08F0020607003B00120BDE8F08F46
:103E7000EE000020930000204C000020F8B5012146
:103E8000482004F0DFFF40F60200ADF800000324F4
:103E9000114E8DF8024010258DF8035069463046CA
:103EA00000F01EF845F22001ADF800108DF8024038
:103EB0008DF803506946304600F012F80420ADF842
:103EC00000008DF8024048208DF803006946034841
:103ED00000F006F8F8BD0000000C01400018014099
:103EE0002DE9F00191F803C000220CF00F031CF043
:103EF000100F1CBF91F802C04CEA0303B1F800C0D8
:103F00004FF00F071CF0FF0F4FF0010618BF0468B9
:103F10001CD00D8806FA02FC05EA0C05654511D196
:103F2000950007FA05F824EA080403FA05F52C437E
:103F3000CD78282D08BFC0F814C003D0482D08BF85
:103F4000C0F810C0521C082AE3D304600A88FF2A74
:103F500087BF44680022BDE8F001704702F1080CF9
:103F60000D8806FA0CFC05EA0C05654511D1950093
:103F700007FA05F824EA080403FA05F52C43CD787E
:103F8000282D08BFC0F814C0CD78482D08BFC0F850
:103F900010C0521C082AE1D34460BDE8F00170470C
:103FA0000246002092680A4218BF01207047416112
:103FB00070470161704700002DE9FF4F85B007464B
:103FC0008A460798DDF848B0DDF8208010F8011B1C
:103FD0000790684600F050F8002500241DF8059071
:103FE0000AEB0506C4F1070029FA00F010F0010FF2
:103FF00007EB040080B2B1B20ED0F02838BFB1F5A3
:10400000A07F17D202F0B4FA4FF0C04222211180F3
:104010001849A1F800800DE0F02838BFB1F5A07F65
:1040200008D202F0A5FA4FF0C042222111801149B6
:10403000A1F800B0601C84B2082CD3D3681C85B2F0
:10404000102DCAD3E82F3CBF07F1080087B20AD36E
:10405000BAF5987F4FF000073ABF0AF110001FFA37
:1040600080FA4FF0000A079800780028A9D109B01B
:10407000BDE8F08F00000260084A02EB0111A1F5D3
:104080008061D1F800220260D1F804224260D1F8A8
:1040900008228260D1F80C12C16070476CAE020831
:1040A0000188002912BF00204068B0F90200704763
:1040B0000188002912BF00204068B0F90400704751
:1040C0002DE9F001594E00234C1E3370736090F8B7
:1040D00000C0BCF1300F03D0BCF1490F0FD039E064
:1040E00090F801C0BCF1260F01BF90F802C0BCF1EE
:1040F000B20F90F803C0BCF1750F2BD10CE090F813
:1041000001C0BCF1440F04BF90F802C0BCF1330FF2
:1041100020D1C378032B03D0BDE8F0010120704704
:10412000837990F807C05B061B090CF07F0C03EB4A
:104130008C2390F808C00CF07F0C03EBCC1390F8A4
:1041400009C00CF07F0C63440A33A34284BF581AA1
:10415000706021D810F803C04FF6FA7505E05B1CBB
:104160004FEA0C6CC75C47EA1C4C25EA0C07002F91
:1041700018BF9C42F3D8A34207D3084410F8010C9F
:10418000FF2808BF012007D105E003F12F01A1425C
:1041900028BF302004D33070BDE8F0010020704704
:1041A000591C01F1020C435C1FFA8CF11D090CF142
:1041B0002404C3F38106C3F34007A14213D2435C36
:1041C000582B0CD1431893F80180B8F1690F01BF47
:1041D00093F80280B8F16E0FDB78672B16D0491C7C
:1041E00089B2A142EBD31248124950F8250051F888
:1041F000261000EBC000000190FBF1F03844B2FB48
:10420000F0F0BDE8F0011A21484370470CF1280294
:104210008118805CCB7891F802C0497803EB0C23BD
:10422000090401EB00601844EBE70000CC0100201A
:1042300030AE020820AE02082DE9F041002501460B
:104240002C4601221C4809F057FC1C4E01463070D8
:104250001BA008F06FFC184FF868002888BFDFF833
:104260006C8023D998F80000D8F80410A4EB000063
:10427000084484B2164B4FF4E05216490E4809F038
:1042800031FD307020B1C1B213A008F053FCFEE73D
:1042900065B94FF4E0510F48FA68FFF711FF054682
:1042A00004F5E05084B2F868A042DBD8024809F077
:1042B0005BFB2846BDE8F0811CF700203902002096
:1042C000464F50454E3D25640A000000CC010020B9
:1042D0004C020020D4D80020526561643D25640A58
:1042E0000000000008B5B0F90010002902BF4068C6
:1042F000807908BD01291CBF002008BD6B46012242
:104300000621FEF79FFE9DF8000008BD2DE9F04351
:104310000446B1F9000083B08846002831D0012856
:104320001EBF002003B0BDE8F0836B4608220021C9
:104330004046FEF787FEBDF802000025C6B2BDF874
:104340000400C7B214F8010B0F2888BF4FF008090A
:1043500013D9B04228BF87420BD3801B09EB8001E1
:1043600002AB04224046FEF76DFE9DF8080028448B
:1043700005B214F8010B0F28EBD803B02846BDE8AE
:10438000F083486800F1080C4188CAB2818814F8AB
:10439000010BCBB200210F280CD9904228BF8342D9
:1043A00004D3801A1CF82000084401B214F8010B51
:1043B0000F28F2D803B00846BDE8F083064800682D
:1043C00006480168011D0968054909680549096829
:1043D000011F09680168FDE738ED00E028ED00E005
:1043E00030ED00E03CED00E02DE9FF4FBFB00020D4
:1043F0004C9E0446379030680F46002840F3E38017
:10440000429942988969406900291CBF7169A1429B
:10441000C8BF0020D6E90312A242C8BF00213D4612
:10442000419A369002EB8402CDE93821DDF8FCC0D8
:104430000022B06913460CF144010728B4BFC0F153
:10444000070000203B904FF00800E84624DAD1F83E
:104450000090DDF8ECC049FA0CFCACEB030351F81A
:10446000049CDDF8ECC0A3EB020249FA0CFCACEBB7
:10447000030308EB800CA1F10801CCF8242048F8D4
:10448000203055F82090DDF8ECC049FA0CFC45F8D6
:1044900020C0401EDBD513E0D1F800C0ACEB030315
:1044A00051F804CCA3EB0202ACEB030308EB800C45
:1044B000A1F10801CCF8242048F82030401EEBD5AB
:1044C000099840100990009840100090404609F06B
:1044D000FFFFE84609A809F0FBFF36993998DFF895
:1044E00018A408F120084FF0000B084300F0D28117
:1044F00012A92846399A08F083FA3698D94600EB73
:10450000C001FE4800EB01103690D8F824105AF88C
:10451000042958F8040939901046FBF755FE014666
:1045200039988010421A08443A9245F8040B36989C
:1045300050F829103A98FBF747FE12A951F82910B4
:104540000844800039903699C9F111003C9051F827
:1045500020103A98FBF738FE01463C9812AA52F810
:104560002000084481003A91DDE9381001EBC911BF
:104570000860389A3C983A9902EBC010016039986B
:10458000FBF725FE40EA0B0B3A98FBF720FE09F1FA
:10459000010940EA0B0BB9F1090FB6DBA5F12401C3
:1045A00022463B9B3898FEF7B5FF379940EA0B004F
:1045B000084337903F98243748303F903068641C58
:1045C000A0423FF71DAF7068A04240F3FF80D6E9DC
:1045D00003A0A042C8BF4FF0000AB846419800218E
:1045E00000EB84003C90B0693F9D389107281DDAAC
:1045F000C0F1070038900020389955F8202042FA81
:1046000001F145F8201005EB8001389A4B6843FA18
:1046100002F24A60D8F80020389942FA01F1801C71
:1046200048F8041B1228E7DBA8F12408694628464D
:1046300009F0F8FFE94606A9281D09F0F3FF09F182
:10464000300105F1080009F0EDFF524612A940467D
:1046500008F0D6F9AA484FF0000A55463A9012A839
:1046600050F825004FEA800B5846FBF7B0FD40EAB2
:104670000A0036903C9800EBC51912A800EB850A99
:10468000C9F800B0DAF80C004FEA800B5846FBF787
:104690009EFD0146369808433690684600EB85003B
:1046A000C9F880B13D90C1683A9850F82500FBF7F1
:1046B0008BFDDAF8181000EB81003990FBF787FDCD
:1046C0000146369841EA000B3998C9F80003C5F154
:1046D00005013A985DF8211000EB85003B90C06819
:1046E000FBF772FDDAF8241000EB81003990FBF73C
:1046F0006EFD40EA0B0036903998C9F880043B986B
:10470000C5F102015DF821108069FBF75DFD83466C
:104710003D98416A3A9850F82500FBF755FDDAF8C4
:104720003010584400EB810B5846FBF750FD014612
:10473000369808433690C9F800B63B985DF82510C6
:10474000406AFBF741FD83463B98C5F10B015DF8DC
:104750002110C068FBF738FDDAF83C10584400EB34
:10476000810B5846FBF733FD014636986D1C41EA34
:10477000000AC9F880B7032DFFF671AF062069461D
:1047800051F82020401C921048F8042B0928F7DB30
:104790000C2051F82020401C921048F8042B1228BD
:1047A000F7DBA8F124012246389B3C98FEF7B2FEC5
:1047B000379940EA0A00084337903F982437483039
:1047C0003F907068641CA0423FF701AF0094B0684E
:1047D000A042C8BF0DF1900B42DDD6E90320A042F4
:1047E000C8BF002224A9384608F00AF9E007019062
:1047F0004FF0000804F00100454602905BF83500D8
:104800004199800001EB052948EA000849F8240095
:10481000FBF7DDFC379940EA010A0BEBC500019973
:104820004068800080EAE1710298084409EB840145
:1048300048EA0008C1F88000FBF7C9FC40EA0A001A
:104840003790002047F825006D1C092DD6DB243752
:10485000B8F1000F18BF0094641CB068A042BCDC23
:10486000202CB8BF00210BDA0020419A02EBC012C5
:10487000401C42F824101228F7DB641C202CF3DBC8
:104880003798002808BF202160D0002110F0004F89
:1048900057D05BE01B484FF000093690D8F8241041
:1048A0005AF8042958F8040939901046FBF78CFC93
:1048B00003462A683998514280103D91191A1844CC
:1048C0003A9145F8040B501840423C90369850F805
:1048D000041B36903C98FBF777FC3A9901EB80007B
:1048E0003990369850F8041B36903C98FBF76CFCD6
:1048F0003D9901EB800007E0EC450108A046010866
:10490000C0470108F04501083A90DDE9381001EB95
:10491000C911C9F11102086038993A9801EBC21126
:1049200008603998FBF753FC40EA0B0B3A98FBF709
:104930004EFC09F1010940EA0B0BB9F1090FADDB9F
:104940002CE6491C400010F0004FFAD0481EF061E0
:10495000009843B0BDE8F08FF0B5054689B001215D
:10496000042004F06FFA0121480704F053FA0121F2
:10497000102004F04FFA3020ADF81C0000248DF810
:104980001F4007A92348FFF7ABFA234F384607F02B
:104990004CFB04A807F0AAFC204E04A93068ADF82F
:1049A0001040B0FBF5F0ADF81400ADF81640ADF8CE
:1049B0001240384607F04CFC3068B0FBF5F081B28D
:1049C000384607F042FC2021384607F036FCFDF758
:1049D0009BFE6846FDF7BEFE0420CDE90004694653
:1049E00000200394FDF79CFE69461020FDF798FE19
:1049F00001210020FDF77AFE01210020FDF768FE6D
:104A000001211020FDF764FE0121384607F004FB68
:104A100009B0F0BD00080140001000408C020020E9
:104A200070B50F4D0024AC866C71EC862C8704F0B9
:104A30005FFD0C4E3480002140F23F13EF22084608
:104A4000FDF702FA0028F6D0EC862C874FF6FF70AF
:104A5000308005480480AC71FF20E87170BD000013
:104A60008C000020EE000020F000002010B5032292
:104A7000002101200AF05EFD2F4C606020B1002370
:104A80001A4619460AF016FE00231A4619466068AF
:104A90000AF08DFD0322002101200AF04BFDA060E9
:104AA00020B100231A4619460AF004FE00231A46D4
:104AB0001946A0680AF07BFD0322002101200AF0BC
:104AC00039FD206020B100231A4619460AF0F2FD94
:104AD00000231A46194620680AF069FD03220021C6
:104AE00001200AF027FDE06020B100231A46194694
:104AF0000AF0E0FD00231A461946E0680AF057FD67
:104B00000322002101200AF015FD206120B10023BD
:104B10001A4619460AF0CEFD00231A4619462069A6
:104B20000AF045FD0022042101200AF003FD606126
:104B30000020A06110BD00005402002070B50446A2
:104B40004E482A25806801044D4801600D214160CE
:104B5000402181600021C1604FF48061016104F057
:104B60002BFE4849486B10F0450F03D1486B10F0FD
:104B7000450FFBD010F0040F05D00324042004F0EF
:104B80007FFD204670BD10F0010F05D001242046A6
:104B900004F076FD204670BD04F0B2FD0D2837D13B
:104BA00040F2FF5004F06CFD002004F0CBFDC0F398
:104BB00043212170344908425ED010F0004F1CBFE1
:104BC0001C2070BD10F0804F1CBF092070BD10F07C
:104BD000005F1CBF0A2070BD10F0805F1CBF0B205F
:104BE00070BD10F0006F1CBF0C2070BD10F0806F06
:104BF0001CBF0D2070BD10F0807F1CBF0E2070BD4B
:104C000010F4000F1CBF0F2070BD10F4800F01D0F6
:104C1000102070BD10F4001F1CBF112070BD10F4D7
:104C2000801F1CBF122070BD10F4002F1CBF13206A
:104C300070BD10F4802F1CBF142070BD10F4003F15
:104C40001CBF152070BD10F4803F1CBF162070BD26
:104C500010F4004F1CBF172070BD10F4804F1CBF14
:104C6000182070BD10F4005F1CBF192070BD10F03B
:104C7000080F1CBF1A2070BD284670BD1C00002004
:104C80007C6000200080014008E0FFFD38B5012174
:104C9000082004F0D7F80220ADF8000003208DF8BA
:104CA00002001020054C8DF8030069462046FFF7EE
:104CB00017F902212046FFF77CF938BD000C0140AE
:104CC0002DE9F04105461C4800241C4E00784FF0A9
:104CD000C0470A2818BF0B280CD00021084601F055
:104CE00047FC222038803580641CB4F5963FFAD307
:104CF000BDE8F081022100203980308003200021AE
:104D00003880318004210020398030800521EF2057
:104D10003980308006200021388031800721002032
:104D200039803080082101203980308009213F20DE
:104D300039803080D5E70000D801002000000260F3
:104D40002DE9F05F9046DDF8289004460D461F4699
:104D5000404501D9A04694B2BD4201D90F469DB24B
:104D6000A8EB0400791BDFF810B100B20EB24FF0CF
:104D7000C04A48B3002E3BD0B0424DDDC0EB4601E7
:104D80000FB2444570D07100404201EB400B204609
:104D90002946F02C38BFB1F5A07F07D201F0E8FB1F
:104DA0002221AAF800103449A1F80090601C84B2B6
:104DB000002FC3BF681C85B20BEB070007EB460052
:104DC00007B24445E3D14FE020462946F02C38BFD6
:104DD000B1F5A07F06D201F0CBFB2221AAF800108A
:104DE000ABF80090681C85B2AF42EDD2BDE8F09FF1
:104DF00020462946F02C38BFB1F5A07F06D201F03D
:104E0000B7FB2221AAF80010ABF80090601C84B216
:104E1000A045EDD2BDE8F09FC6EB40010FFA81F846
:104E2000BD4221D07100404201EB400A2046294694
:104E3000F02C38BFB1F5A07F07D201F099FB4FF0FD
:104E4000C04222211180ABF80090681C85B2B8F1F5
:104E5000000FC3BF601C84B20AEB080008EB4600D9
:104E60000FFA80F8BD42E1D14A4629462046BDE806
:104E7000F05F01F0BDBB0000000002602DE9F047CB
:104E8000012196B0080203F0B9FF0121612003F06F
:104E9000D9FF4CF63370ADF8540003278DF85670E7
:104EA00018208DF8570015A9FE4E3046FFF718F868
:104EB0004FF68070ADF8540015A9FB48FFF710F8C5
:104EC0008020ADF8540015A93046FFF709F870149A
:104ED000ADF854008DF8567010248DF8574015A980
:104EE0003046FEF7FDFF61023046FFF760F825020D
:104EF000ADF8545015A93046FEF7F2FF21023046B6
:104F0000FFF757F84FF000084FF005094FF00A0A75
:104F1000CDE90098CDE902A8CDF81080CDF8148035
:104F2000CDF81880CDF81C80CDF82080CDE909841B
:104F3000CDF82C80CDF83480CDF83880CDE90F85C0
:104F4000CDF84480CDF830806C46CDF84880CDE96E
:104F5000138407A8FEF788F80220CDE9000801268F
:104F6000CDE90268CDF81880CDF81080CDF8148016
:104F700007A81594FEF778F801210020FEF764F8E1
:104F80007C07CA49A4F80080C94D28884880A0F54C
:104F90001342253A1CBFA0F51042B2F54A7240F008
:104FA000F4800E70E72110202180288000202080CE
:104FB0002E804FF480702680288002204FF4E0611C
:104FC00020802980032141F23000218028800421A3
:104FD000002021802880082040F20721208029809D
:104FE00009210020218028800A21218028800C208E
:104FF00020802E800D210020218028800F212180FB
:1050000028801021218028801121072021802880DC
:105010001221002021802880132121802880322025
:1050200008F001F9102141F29050218028801121CF
:1050300040F2272021802880322008F0F4F8122145
:105040009C2021802880322008F0EDF813214FF4B5
:10505000C8502180288029212320218028802B21CD
:105060000E2021802880322008F0DDF82021002049
:1050700021802880212121802880322008F0D3F847
:105080003021072021802880312140F207702180C3
:1050900028803221062021802880352140F20470AA
:1050A00021802880362141F6047021802880372114
:1050B0000420218028803821002021802880392167
:1050C00040F20670218028803C21401F21802880EA
:1050D0003D210F2021802880322008F0A4F85021A3
:1050E0000020218028805121EF202180288052211A
:1050F000002021802880532140F23F102180288009
:1051000060214FF4274021802880612101202180E7
:1051100028806A2100202180288080212180288009
:105120008121218028808221218028808321218063
:105130002880842121802880852121802880902139
:105140001020218028809221002021802880932116
:1051500003202180288095214FF4887021802880A9
:1051600097210020218028809821218028800721F4
:1051700040F23310218028802021002021802880C7
:1051800021212180288001F0DCB8A0F51342203ACB
:1051900018BFB0F5134F00F0F080A0F51342313A7C
:1051A00040F091810F70E72141F2140021802880A6
:1051B000012108022180288002200102208029800C
:1051C00041F2300027802880082140F2022021800F
:1051D000288009210020218028800A212180288020
:1051E0000C21218028800D21218028800F20002182
:1051F0002080298010210020218028801121072073
:1052000021802880122100202180288013212180E4
:105210002880C82008F007F8102041F29061208013
:105220002980112140F2272021802880322007F098
:10523000FAFF12210C2021802880322007F0F3FF92
:1052400013214FF400602180288029211120218022
:1052500028802B210B2021802880322007F0E3FFBB
:1052600020210020218028802121218028803021B8
:105270002180288031214FF48370218028803221C1
:1052800000202180288035214FF401702180288062
:10529000362141F20A6021802880372140F20770D0
:1052A000218007E00014014000180140D8010020CF
:1052B00000000260288038214FF48370218028800C
:1052C000392140F20770218028803C2140F20240C1
:1052D000218028803D2140F60F40218028805021E8
:1052E0000020218028805121EF2021802880522118
:1052F000002021802880532140F23F102180288007
:1053000060214FF41C5021802880612101202180E0
:1053100028806A2100202180288080212180288007
:105320008121218028808221218028808321218061
:105330002880842121802880852121802880902137
:1053400010202180288092214FF4C0602180288085
:105350000721212021802880322007F064FF0721C7
:10536000612021802880322007F05DFF072040F275
:1053700033112080298000F0E4BF81F80080A4F878
:105380000080A5F8008001200102208029800221F0
:105390004FF4E06021802880032041F21801208032
:1053A000298004202080A5F80080082040F20221F6
:1053B0002080298009202080A5F800800A202080F4
:1053C000A5F800800C200121208029800D2020805C
:1053D000A5F800800F202080A5F80080642007F049
:1053E00022FF072140F2011021802880642007F06D
:1053F0001AFF10204FF486512080298011200721A8
:1054000020802980122100012180288013214FF45F
:1054100030602180288029202080A5F800802B2161
:1054200044F210002180288050202080A5F80080C0
:105430005121EF202180288052202080A5F8008073
:10544000532140F23F102180288060214FF41C50EE
:105450002180288061210120218028806A2100206C
:10546000218028808021218028808121218028801E
:10547000822121802880832121802880842121800D
:10548000288085212180288090211020218028805B
:1054900092210020218028809321012021802880D2
:1054A00095214FF488702180288097210020218049
:1054B0002880982121802880072140F273102180C4
:1054C000288000F03EBFA0F51942193A7ED10D2286
:1054D0000A702821062021802880002101202180B7
:1054E0002880102020802980012047F2EF21208091
:1054F000298002214FF4C06021802880032046F6D5
:10550000382120802980112046F6740120802980CE
:105510000F200021208029800B2045F208312080B7
:1055200029800C210320218028800A2022802880C5
:105530000E214FF43850218028801E21BE2021806A
:10554000288025214FF400402180288026214FF417
:10555000F0402180288027207821208029804E213A
:105560000020218028804F2121802880122140F6B0
:10557000D9002180288030210020218028803120FE
:105580004FF48271208029803220091F20802980D9
:10559000332140F2053021802880342140F205502B
:1055A00021802880352140F2053021802880362155
:1055B00040F207702180288037214FF4407021800D
:1055C00028803A214FF49050218000E00BE02880A1
:1055D0003B214FF400602180288007213320218067
:1055E000288000F0AEBEA0F5A852053A1CBFA0F579
:1055F000A062B2F1050240F009810920087007217C
:10560000002021802880322007F00DFE12214FF467
:105610008E7021802880A4210120218028800821EB
:105620000F20218028800A210820218028800D2138
:1056300021802880302140F207702180288031218C
:10564000072021802880322140F2036021802880B9
:1056500033214FF4E06021802880342140F2022081
:10566000218028803521022021802880362041F6A3
:105670000F7120802980372140F207702180288017
:105680003820002120802980392100202180288095
:105690003A2140F20770218028803B2100202180A0
:1056A00028803C210720218028803D210020218066
:1056B0002880322007F0B7FD0721012021802880B3
:1056C0001720012120802980322007F0ACFD102115
:1056D0004FF4BD5021802880112140F217202180F5
:1056E000288012214FF48F702180288013204FF4DE
:1056F0007061208029802A20002120802980292192
:105700000A202180288012204FF49F712080298058
:1057100050210020218028805121EF2021802880E5
:105720005221002021802880532140F23F10218007
:10573000288060204FF41C512080298061210120A5
:10574000218028806A20002120802980802100205B
:105750002180288081200021208029808221002032
:105760002180288083212180288084212180288015
:10577000852121802880902113202180288092215A
:105780004FF44070218028809321052021802880BB
:105790009521002021802880972121802880982130
:1057A00021802880012108022180288002214FF4D5
:1057B000E06021802880032041F230012080298090
:1057C00004200021208029800C21002021802880B5
:1057D0000F212180288020212180288021212180E3
:1057E00028800721212021802880C82007F01BFD68
:1057F0000720612120802980C82007F014FD07219F
:1058000040F273102180288000F09BBDA0F5094272
:10581000893A40F0328181F80090002101202180F6
:105820002880322007F0FFFC03214AF6A4002180E3
:105830002880322007F0F7FC0C21002021802880EE
:10584000322007F0F0FC0D2140F60C00218028806A
:10585000322007F0E8FC0E204FF42C5120802980E4
:10586000322007F0E0FC1E20B02120802980322069
:1058700007F0D9FC012142F63F1021802880322018
:1058800007F0D1FC02214FF4C06021802880322033
:1058900007F0C9FC1020002120802980322007F069
:1058A000C2FC112046F2780120802980322007F0C6
:1058B000BAFC0020A4F800902880322007F0B3FC46
:1058C0000621002021802880322007F0ACFC162120
:1058D0004EF61C7021802880322007F0A4FC17218E
:1058E000032021802880322007F09DFC072140F210
:1058F000331021802880322007F095FC0B210020F6
:1059000021802880322007F08EFC0F21002021808A
:105910002880322007F087FC412100202180288048
:10592000322007F080FC4221002021802880322094
:1059300007F079FC4821002021802880322007F0E0
:1059400072FC492140F23F1021802880322007F06C
:105950006AFC4A21002021802880322007F063FC65
:105960004B21002021802880322007F05CFC44215C
:105970004FF46F4021802880322007F054FC4521ED
:10598000002021802880322007F04DFC462040F284
:105990003F1120802980322007F045FC302140F261
:1059A000077021802880322007F03DFC31214FF420
:1059B000017021802880322007F035FC32214FF41D
:1059C000017021802880084607F02DFC332140F229
:1059D000025021802880322007F025FC342140F23B
:1059E000075021802880322007F01DFC35214FF41C
:1059F000017021802880322007F015FC36214FF4F9
:105A0000017021802880322007F00DFC372140F200
:105A1000025021802880322007F005FC3A2140F214
:105A2000023021802880322007F0FDFB3B2140F22C
:105A3000023021802880322007F0F5FB232100204E
:105A400021802880322007F0EEFB242100202180D5
:105A50002880322007F0E7FB25214FF40040218009
:105A60002880322007F0DFFB4F2100202180288092
:105A70004E212180288000F064BCA0F50942993AAB
:105A800040F0BB8004230B7028200621208028468C
:105A9000298001212280298003224AF6A4612280E4
:105AA00029800C2121802B800D22228029800E222A
:105AB0004FF42051228001801E22B52122800180D6
:105AC000012243F63F312280018002224FF4C0615F
:105AD000228001801022002122800180112246F6BE
