:020000040800F2
:10000000C0A90020C90100083D6C0008FB3A0008A7
:100010003D620008E11B00086DA800080000000018
:100020000000000000000000000000004501000882
:100030000520000800000000790100083DA100082B
:10004000E3010008E3010008E3010008E301000800
:10005000E3010008E3010008E3010008E3010008F0
:10006000E3010008E3010008E3010008E3010008E0
:10007000E3010008E3010008E3010008E3010008D0
:10008000E3010008E3010008E3010008E3010008C0
:10009000E3010008E3010008E3010008E3010008B0
:1000A000E3010008E3010008E3010008E3010008A0
:1000B000E3010008E3010008E3010008E301000890
:1000C000E3010008E3010008E3010008E301000880
:1000D000E301000875A60008E3010008E301000839
:1000E000E3010008E3010008E3010008E301000860
:1000F000E3010008E3010008E3010008E301000850
:10010000E30100089D7C0008E3010008E30100080A
:10011000E3010008E3010008E3010008BDA10008B5
:10012000E3010008E3010008E3010008D51E000810
:10013000DFF80CD000F098FC00480047ADBA00088A
:10014000C0A900201A4B19680868B0E8F00F80F3C6
:1001500009884FF0000080F311884EF00D0E7047B3
:100160000000000003480068006880F3088862B659
:1001700000DF00BF08ED00E0EFF309800C4B1A68C8
:1001800020E9F00F106008B54FF0BF0080F3118830
:100190000CF032FA4FF0000080F31188BDE80840FF
:1001A00019680868B0E8F00F80F30988704700BF4D
:1001B000140200204FF0BF0080F3118870474FF009
:1001C000000080F3118870470648804706480047C2
:1001D000FEE7FEE7FEE7FEE7FEE7FEE7FEE7FEE7F7
:1001E000FEE7FEE75DA100083101000810B5431AE3
:1001F000934209D28318881803E010F8011D03F810
:10020000011D521EF9D210BD40EA01039B0703D025
:1002100009E008C9121F08C0042AFAD203E011F845
:10022000013B00F8013B521EF9D210BDD2B201E0F1
:1002300000F8012B491EFBD270470022F6E710B5EB
:1002400004460846114602462046FFF7EFFF2046C7
:1002500010BD034600E0401C0278002AFBD111F8D3
:10026000012B00F8012B002AF9D11846704730B550
:100270000EE003460A4601E05B1C521C1C78157810
:10028000AC4201D1002CF7D115F0FF0F04D0401C77
:100290000278002AEDD1002030BD10B5044604E0FC
:1002A0000B7800F8013B03B1491C521EF8D22046DE
:1002B00010BD0146002000E0401C0A5C002AFBD172
:1002C0007047034611F8012B00F8012B002AF9D1E1
:1002D00018467047F0B480EA0102D20F4300B3EB36
:1002E000410F02D20346084619464B0042D0C30DC7
:1002F000DDB2C1F3C7542C1B202C35DAC1F3160133
:1003000041F4000502B16D42C4F1200605FA06F180
:1003100025412844B3EBD05F23D0C2B1012CA0EB20
:10032000C35009DCF0BC4FF0004202EAC35200F5B2
:100330000000DBB200F00BBB400000F1807000EB6E
:10034000C350A0F1807040EAD170490009E049082B
:1003500041EAC071A0EBC35000F50000400800EB7B
:10036000C350F0BC00F0EABA5142012303EB410153
:10037000801AF6E7F0BC704781F00041AAE780F0F0
:100380000040A7E780EA010210B502F000424000F9
:1003900026D04B0023D04FEA106101EB1361C0F36C
:1003A0005600C3F3560340F4000043F40003A0FBDF
:1003B0000330A1F17F014FEA00401C0401D000F19D
:1003C000010050EA134001D44000491EC3B20C069C
:1003D00004EBD010401C4008802B02D003E000202A
:1003E00010BD20F00100002900DA0020104310BDEC
:1003F00080EA010202F0004330B430F0004221F004
:10040000004015D0A0B1C0F3C755C2F3C754C2F322
:100410001601C0F31600651B41F4000140F4000012
:100420007D35814201D36D1C00E04900002D02DAC8
:1004300030BC002070474FF400020024814201D3F9
:10044000091A144352084FEA4101F7D151B18142D0
:1004500002D14FF0004105E002D24FF0010101E06E
:100460006FF0010104EBC55030BC184400F066BACF
:100470002DE9FE4F074681EA0300C00F0E460190AA
:1004800021F0004123F00044B81AA14105D23846BA
:10049000314617461E460B46024623F000401043E5
:1004A00004D13846314603B0BDE8F08F350DC5F3B1
:1004B0000A00C3F30A510290401A0090402868DAFB
:1004C000C3F3130040F4801B0198924620B100232F
:1004D000D2EB030A63EB0B0B00985946C0F14002C4
:1004E000504600F0FAF980460C4650465946009AAC
:1004F00000F012FAC0197141EF1785EA11533B431E
:1005000040D0019A52B3009A012A11DC0022801ACD
:100510004FF0004361EB055103EA05538018CDE924
:10052000002341F580114246234600F04AFABAE71B
:100530002E050025401B61EB0601401941F5801294
:10054000001852412818A6F5001343EB020140EAB7
:10055000D470294318EB0808644113E064084FEA9B
:1005600038084FF0000244EAC0744FEA0553801A7D
:1005700061EB0301801841F5801149084FEA300012
:10058000801859414246234603B0BDE8F04F00F0C1
:100590000BBA0198012240000023D0EB020263EB6A
:1005A000E07301984FEAE074381A66EB0401EBE758
:1005B00083F000435CE781F0004159E72DE9FE4FED
:1005C00081EA030421F0004504F0004423F00041D7
:1005D0004FF0000A009450EA050302D052EA0103EA
:1005E00004D10020014603B0BDE8F08FC1F30A53E7
:1005F000C5F30A541C44A0FB02B3C5F3130545F42C
:10060000801CC1F3130141F480180CFB023300FB82
:10061000083EA4F2F334810A930A41EA8C5143EA7A
:1006200088530194A1FB03474FEA9C2505FB037304
:100630004FEA982601FB06373D05260545EA1435A5
:10064000BBEB06016EEB0503850E920E45EA8C1599
:1006500042EA8812A5FB0206261E67EB00070C0D76
:1006600044EA0334A41947EB1350C1F313064FF0C7
:10067000000319464FEA033343EA165343EA0403DF
:10068000019CE5FB0201A4F10C040294009C4FEADA
:100690000632CDE900A400F094F9A4E72DE9F04D6D
:1006A00081EA030404F0004B21F0004714464FF0A8
:1006B000000A23F0004150EA070220D054EA010268
:1006C0001DD0C1F30A550246C1F31300C7F30A5601
:1006D000C7F3130340F4801143F48013A6EB05081D
:1006E000101BD64608F2FD3873EB010002D308F167
:1006F000010801E092185B41B8F1000F03DA002015
:100700000146BDE8F08D00204FF4801506460746EF
:100710000EE0B2EB040C73EB010C04D3121B064386
:1007200063EB01032F436D084FEA300092185B41E1
:1007300050EA050CEDD152EA030012D082EA04001F
:1007400083EA0105284303D100224FF0004308E06B
:10075000101B8B4102D20122002302E06FF0010244
:1007600053101AEB060047EB085110EB0A0041EB5F
:100770000B01BDE8F04D00F017B9C10F80EAE07041
:100780000844CA079623002100F0E1B8962300220E
:10079000114600F0DCB80EB5C10F80EAE0700844E5
:1007A000CA07002140F233438DE80E000A460B468B
:1007B00000F007F903B000BD00F0004220F0004057
:1007C000C10DC0F3160040F400007F2901DA0020BB
:1007D0007047962903DCC1F19601C84001E09639C3
:1007E0008840002AF4D04042704720F00040C10DFC
:1007F000C0F3160040F400007F2901DA00207047A2
:10080000962903DCC1F19601C840704796398840AB
:10081000704770B5C1F30A5201F000450024C1F3DE
:10082000130140F2FF3341F480119A4201DA0020B3
:1008300070BD40F233439A42A2F2334203DC52428B
:1008400000F05AF800E090402C43F1D0404270BDD7
:1008500030B5002904DB4FF00044404264EB010155
:10086000002B04DB4FF00044524264EB03038B4245
:1008700008BF824230BD00002DE9F05F0546002030
:1008800092469B4688460646814640241BE0284601
:1008900041464746224600F02FF852465B46801AF2
:1008A000994110D310461946224600F016F82D1A29
:1008B00067EB01084F4622460120002100F00DF8A9
:1008C00017EB00094E41201EA4F10104DFDC48466D
:1008D00031462A464346BDE8F09F202A04DB203AF1
:1008E00000FA02F1002070479140C2F1200320FA83
:1008F00003F3194390407047202A04DB203A21FA81
:1009000002F00021704721FA02F3D040C2F1200228
:100910009140084319467047202A06DBCB17203A3E
:1009200041FA02F043EAE071704741FA02F3D04025
:10093000C2F1200291400843194670470029A8BF20
:100940007047401C490008BF20F00100704710B4F8
:10095000B0FA80FC00FA0CF050EA010404BF10BCAD
:10096000704749B1CCF1200421FA04F411FA0CF1DA
:1009700018BF012121430843A3EB0C01CB1D010645
:10098000000A002BBEBF002010BC704700EBC35014
:1009900010440029A4BF10BC7047401C490008BF88
:1009A00020F0010010BC704710B5002B08DA401C85
:1009B00041F1000192185B411A4301D120F001007E
:1009C00010BD2DE9F04D92469B4611B1B1FA81F26E
:1009D00002E0B0FA80F220329046FFF77EFF064632
:1009E0000F4640EA0A0041EA0B0152465B460843C3
:1009F00003D130463946BDE8F08D194652EA010070
:100A000015D0C8F140025046FFF776FF04460D4668
:100A1000504659464246FFF760FF084301D0012087
:100A200000E00020044345EAE07526432F430A987E
:100A30004FEAD625A0EB08000A304FEA46534FF0A4
:100A4000000245EA47554FEAD72402D50020014667
:100A5000D1E7010550196141DDE9084500196941F7
:100A6000BDE8F04DA0E70000064C074D06E0E06849
:100A700040F0010394E8070098471034AC42F6D3E5
:100A8000FFF75AFBF02C0208102D020870B501EB9D
:100A9000020410F8015B15F0070301D110F8013BC7
:100AA0002A1106D110F8012B03E010F8016B01F8B0
:100AB000016B5B1EF9D12B0705D40023521E0FD406
:100AC00001F8013BFAE710F8013B02F10202A1EB49
:100AD000030303E013F8015B01F8015B521EF9D533
:100AE000A142D6D3002070BD00B585B00121880396
:100AF00006F0D4FD0021144808F042F90020ADF8BA
:100B000000004FF48270ADF802000020ADF8040040
:100B1000ADF80600ADF808004FF40070ADF80A001B
:100B20002820ADF80C000020ADF80E000720ADF82D
:100B300010006946044808F03DF90121024808F018
:100B40001FF905B000BD00000038004010B50021BD
:100B5000044801F001FA00200349087003490860C5
:100B600010BD000044040240A9020020BC02002085
:100B70001FB500200123CDE90030029003464FF459
:100B8000C07204A1039007480BF00EFF00F01AF8A2
:100B90001FBD00004D6963726F63686970475549F6
:100BA00000000000F5C10008FFF7E2FF09F060FB5C
:100BB00000BF41F288300BF0E3FB00200BF0FCFBA0
:100BC000F7E700001FB500200123CDE900300290B7
:100BD00003464FF4807203A1039005480BF0E4FE36
:100BE0001FBD0000546F75636853637265656E00C6
:100BF00029C200082DE9F84F04460D4616461F4647
:100C0000DDE90A9ADDF830806AE3F84800781228B6
:100C10007ED2DFE800F009F2F1F0EFEEEDECEBEA66
:100C2000E9E8E7E6E5E4E35E4BF2055009FB00F096
:100C30000090BDF8020000B2ED4908804BF205506B
:100C40000AFB00F00090BDF8020000B2E9490880FC
:100C50004FF4A030A0EB09400090BDF8020000B2B4
:100C6000E54908804FF4A030A0EB0A400090BDF8A1
:100C7000020000B2E1490880E148A0F80090E14894
:100C8000A0F800A00020E0490880E0490880DC4886
:100C9000B0F90000DE490880DB48B0F90000DD490A
:100CA0000880D948B0F90000DB490880D548B0F980
:100CB0000000DA490880D548B0F90000D84908801A
:100CC000D248B0F90000D74908801120C749087000
:100CD00000BF00BFCD48B0F90000C649B1F900100F
:100CE000884203DD0220C149087038E2C648B0F9E5
:100CF0000000C9490880C548B0F90000C94908800A
:100D0000C148B0F90000BA49B1F90010884200E0CA
:100D100023E233DCB848B0F90000002818DDB848F9
:100D20000088401E00B2B6490880B3480088401DC4
:100D300000B2B1490880B4480088B1490988401A16
:100D4000AD49098801EB400000B2AB4908800EE0D4
:100D5000A9480088C01C00B2A7490880084600883E
:100D6000A949098800EB410000B2A3490880A648C0
:100D70000088401C00B2A449088011E0A248008805
:100D8000401C00B2A04908809D48B0F90000B1F9AC
:100D90000010884204DA9C48B0F9000098490880A5
:100DA0009648B0F90000002828DD96480088401ECB
:100DB00000B29449088091480088401D00B28F49D4
:100DC0000880924800888F490988401A8B49098811
:100DD00001EB400000B2894908801EE007E27DE196
:100DE000F0E14FE133E223E116E2D9E061E2AFE066
:100DF00042E285E0D1E159E0B0E118E07F480088A7
:100E0000C01C00B27D490880084600887F490988D7
:100E100000EB410000B2794908807C480088401C02
:100E200000B27A49088001207049087057E278487A
:100E3000B0F900007249B1F90010884207D1774833
:100E4000B0F900006F49B1F90010884226D018F0BF
:100E5000010F27D0DFF8B8C1BCF800C0A5EB0C0C1F
:100E60000FFA8CF3DFF8B0C1BCF800C0B4440FFA3D
:100E70008CF2DFF8A8C1BCF800C0A5EB0C0C0FFA8F
:100E80008CF1DFF89CC1BCF800C0B4440FFA8CF0C0
:100E900000F03EFA30B90020BDE8F88F1120534928
:100EA000087017E703205149087018E218F0020F84
:100EB00022D0DFF86CC1BCF800C0A5EB0C0C0FFA17
:100EC0008CF3DFF858C1BCF800C0B4440FFA8CF2C0
:100ED000DFF844C1BCF800C0A5EB0C0C0FFA8CF194
:100EE000DFF82CC1BCF800C0B4440FFA8CF000F05D
:100EF0000FFA08B90020CFE705203C490870EEE161
:100F000018F0040F20D0DFF81CC1BCF800C0BC44AE
:100F10000FFA8CF3DFF804C1BCF800C0B4440FFA38
:100F20008CF2DFF8F0C0BCF800C0BC440FFA8CF1C2
:100F3000DFF8DCC0BCF800C0B4440FFA8CF000F05D
:100F4000E7F908B90020A7E7072028490870C6E19B
:100F500018F0080F20D0DFF8C4C0BCF800C0BC44B3
:100F60000FFA8CF3DFF8BCC0BCF800C0B4440FFA31
:100F70008CF2DFF89CC0BCF800C0BC440FFA8CF1C6
:100F8000DFF890C0BCF800C0B4440FFA8CF000F059
:100F9000BFF908B900207FE70920144908709EE1D5
:100FA00018F0100F40D0DFF874C0BCF800C0BC448B
:100FB0000FFA8CF3DFF868C0BCF800C0A4EB0C0C8F
:100FC0000FFA8CF2DFF848C0BCF800C0BC440FFA3E
:100FD0008CF1DFF844C0BCF800C0A4EB0C0C0FFA95
:100FE0008CF000F095F9F8B9002055E7AC0000202E
:100FF00090000020920000209C0000209E00002015
:101000009400002096000020980000209A00002004
:10101000A0000020A2000020A4000020A6000020C4
:10102000A8000020AA0000200B20AE49087056E15D
:1010300018F0200F22D0DFF8B0C2BCF800C0BC44CA
:101040000FFA8CF3DFF8A4C2BCF800C0A4EB0C0CC0
:101050000FFA8CF2DFF898C2BCF800C0BC440FFA5B
:101060008CF1DFF890C2BCF800C0A4EB0C0C0FFAB6
:101070008CF000F04DF908B900200DE70D209949DA
:1010800008702CE118F0400F24D0DFF86CC2BCF8D7
:1010900000C0A5EB0C0C0FFA8CF3DFF850C2BCF8C3
:1010A00000C0A4EB0C0C0FFA8CF2DFF850C2BCF8B5
:1010B00000C0A5EB0C0C0FFA8CF1DFF838C2BCF8BD
:1010C00000C0A4EB0C0C0FFA8CF000F021F908B969
:1010D0000020E1E60F208349087000E118F0800F3E
:1010E00024D0DFF808C2BCF800C0A5EB0C0C0FFA46
:1010F0008CF3DFF804C2BCF800C0A4EB0C0C0FFAB0
:101100008CF2DFF8F0C1BCF800C0A5EB0C0C0FFAB4
:101110008CF1DFF8E8C1BCF800C0A4EB0C0C0FFAAE
:101120008CF000F0F5F808B90020B5E67448B0F985
:1011300000006E4908807348B0F900006E490880CD
:101140007148B0F900006B4908807048B0F90000A0
:1011500067490880112063490870C0E000BF301B58
:1011600001D1781B10D018F0020F12D079194B1052
:1011700006EB0A010AB206EB090108B2294600F0A3
:10118000C7F830B9002087E60020564908700120D2
:1011900082E6042053490870A1E018F0040F0DD036
:1011A00006EB0A031AB27B19591006EB090318B2B1
:1011B0003B4600F0ADF808B900206DE60E20494925
:1011C00008708CE018F0100F0DD007EB0A0003B286
:1011D0003019421007EB090001B2204600F098F8E0
:1011E00008B9002058E610203E49087077E018F052
:1011F000080F0DD007EB0A0213B207EB090211B278
:1012000032195010324600F083F808B9002043E646
:101210000A203449087062E0301B14D018F0800FA7
:101220000DD0A5EB090003B230194210A5EB0A005E
:1012300001B2204600F06CF808B900202CE60C2022
:101240002849087002E006202649087047E018F097
:10125000010F0DD0A5EB090213B2A5EB0A0211B2E2
:1012600032195010324600F053F808B9002013E646
:1012700006201C49087032E0E81B14D018F0400F1B
:101280000DD079194B10A4EB09010AB2A4EB0A01A5
:1012900008B2294600F03CF808B90020FCE5082017
:1012A0001049087004E000200E4908700120F3E5A1
:1012B00015E018F0200F0DD0A4EB09031AB27B192A
:1012C0005910A4EB0A0318B23B4600F021F808B904
:1012D0000020E1E50020034908700120DCE500BFA3
:1012E00093E40000AC000020A4000020A000002037
:1012F000A8000020A6000020A2000020AA000020D4
:101300009400002098000020960000209A00002001
:101310002DE9F04706460F46904699463D460FE0B8
:10132000344607E00A480288A9B2A0B204F0AAF93C
:10133000601C04B208F101008442F3DB681C05B2B2
:1013400009F101008542EBDB0120BDE8F0870000D8
:10135000FA0000202DE9FF5F06460F4690469946A9
:10136000DDF838A04BF205500AFB00F00090BDF804
:101370000200401C00B201904FF4A030A0EB0A40E4
:101380000090BDF802000FFA80FB55460020039044
:1013900001200290BAF1000F7ED0002415E10398DD
:1013A000401C00B2AD490390B1F90010884205D14C
:1013B000029880F00100029000200390029800281B
:1013C0006BD07A1B91B208EB040290B2A44A128847
:1013D00004F058F93A1B91B208EB050290B2A04A0A
:1013E000128804F04FF909EB050291B208EB0402F0
:1013F00090B29B4A128804F045F909EB040291B2BD
:1014000008EB050290B2964A128804F03BF909EB0A
:10141000050291B2321B90B2914A128804F032F95F
:1014200009EB040291B2721B90B28D4A128804F04B
:1014300029F93A1B91B2721B90B2894A128804F0C2
:1014400021F97A1B91B2321B90B2854A128804F0BE
:1014500019F9844800780028B2D07A1B521E91B244
:1014600008EB040290B27E4A128804F00BF97A1B52
:10147000521C91B208EB040290B2794A128804F02F
:1014800001F93A1B91B208EB0502521C90B2744A62
:10149000128804F0F7F801E09BE081E03A1B91B27A
:1014A00008EB0502521E90B26D4A128804F0EAF869
:1014B00009EB0502521E91B208EB040290B2684A91
:1014C000128804F0DFF809EB0502521C91B208EB18
:1014D000040290B2624A128804F0D4F809EB0402C4
:1014E00091B208EB0502521C90B25D4A128804F0DA
:1014F000C9F809EB040291B208EB0502521E90B242
:10150000574A128804F0BEF809EB0502521E91B248
:10151000321B90B2524A128804F0B4F809EB05026B
:10152000521C91B2321B90B24D4A128804F0AAF8B4
:1015300009EB040291B2721B521C90B2484A128805
:1015400004F0A0F809EB040291B2721B521E90B293
:10155000434A128804F096F83A1B91B2721B521C4F
:1015600090B23F4A128804F08DF83A1B91B2721B78
:10157000521E90B23A4A128804F084F87A1B521C28
:1015800091B2321B90B2364A128804F07BF87A1B73
:10159000521E91B2321B90B2314A128804F072F896
:1015A000BBF1000F09DD681E05B2601B052101EBD0
:1015B000400058440FFA80FB05E0032000EB440094
:1015C00058440FFA80FB601C04B2019884427FF7F4
:1015D000E6AEB8EB06000CD000BFA7EB0A0003B2E2
:1015E000A7EB0A0001B24246304604F0E5FC0028B1
:1015F000F3D0B9EB07000CD000BFA6EB0A010AB28A
:10160000A6EB0A0108B24B46394604F0D5FC002887
:10161000F3D0B8EB060002D1B9EB070019D000BF38
:1016200008EB0A010AB208EB0A0108B24B46394638
:1016300004F0C2FC0028F3D000BF09EB0A0003B29B
:1016400009EB0A0001B24246304604F0B5FC00281E
:10165000F3D0012004B0BDE8F09F0000C8000020D6
:10166000FA000020CB0000202DE9F05F05460E4671
:1016700017469846DDF828B0DDE90E9A00242820A8
:101680000AF03CFA044614B90020BDE8F09F25801A
:10169000002060602072A681E781A4F81080A4F881
:1016A00012B00B9820830D986062C4F820900C98BB
:1016B0006081BAF1000F03D109480068606101E060
:1016C000C4F814A000206083A083206A18B14946A2
:1016D000204600F0E0F9204601F046FA2046D4E723
:1016E000500000202DE9F84F0446CA48B0F9000028
:1016F000C8490880C848B0F90000C7490880C748F1
:10170000007806287ED2DFE800F003368A9CFEFDD2
:10171000608910F4004F13D06069008AC0490880C6
:10172000B4F91230B4F91020B4F90E10B4F90C0069
:10173000FFF7EEFD10B90020BDE8F88F0120FBE7B0
:10174000208BB8490880208AA189411AB5480088B1
:10175000A1EB400000B2AF490880608AE189411ADC
:10176000B0480088A1EB400000B2AB4908800120DE
:10177000AA49087000BF608910F0020F11D160897A
:1017800010F0040F06D060694788606906886069B8
:1017900085890CE0606946886069078860694589C9
:1017A00005E060694688606907886069C58900202E
:1017B0009D4908709D490880A0899A490988084474
:1017C00000B29B490880E08996490988084400B224
:1017D00098490880208A93490988401A00B296499E
:1017E0000880608A8F490988401A00B293490880AE
:1017F0008C48B0F9000092490880924805809248D0
:10180000068000E003E1914807809149606A086022
:1018100003209049088002208049087000BF608939
:1018200010F4807F04D001F0E1FC30B9002083E7A0
:1018300001F0DEFA08B900207EE70320774908703E
:1018400000BF206A002864D0608910F0020F0DD11B
:10185000608910F0040F04D06069C0887049088066
:1018600008E0606980886E49088003E0606900894B
:101870006B4908806169486907F098FC608910F03D
:10188000100F06D0218A608B401D081A1FFA80F8BD
:1018900012E0608910F0200F04D0A089401D1FFACB
:1018A00080F809E0B4F90C00B4F910100844B4F958
:1018B0001A10401AC0F34F08608910F0800F04D04E
:1018C000E089401D1FFA80F914E0608910F0400F94
:1018D00006D0618AA08BC01C081A1FFA80F909E0A3
:1018E000B4F91200B4F90E100844B4F91C10401AEF
:1018F000C0F34F090FFA88F0574908800FFA89F0B2
:10190000564901E014E009E00880042043490870CA
:1019100003E00520414908700BE000BF206A05F094
:10192000DFFA08B9002007E705203C49087000BF2E
:1019300000BF608910F0010F64D002203B4908808D
:10194000608910F0040F04D06069C08834490880B1
:1019500003E06069808832490880208BF0B900205C
:101960000090B4F812C0ACF1050C0FFA8CF3B4F887
:1019700010C0ACF1050C0FFA8CF2B4F80EC00CF1EB
:10198000050C0FFA8CF1B4F80CC00CF1050C0FFA31
:101990008CF0FFF7DFFC88BB0020CDE621480088F3
:1019A000401F00B20090B4F812C0DFF878A0BAF877
:1019B00000A0ACEB0A0C0FFA8CF3B4F810C0DFF8FF
:1019C00064A0BAF800A0ACEB0A0C0FFA8CF2B4F8E1
:1019D0000EC0DFF850A0BAF800A0D4440FFA8CF182
:1019E000B4F80CC0DFF83CA0BAF800A0D4440FFA59
:1019F0008CF0FFF7AFFC08B900209DE6FFE7002060
:101A00000A490880002005490870012094E6012059
:101A100092E600004600002048000020440000201C
:101A2000FA0000204A000020CB000020C80000205F
:101A3000680000206A0000206C0000206E0000207A
:101A4000700000207200002074000020760000204A
:101A50005800002078000020CE000020D000002098
:101A600010B5062804D0082808D0092810D106E0AF
:101A70004B8944F2040423434B810AE000BF4B89A5
:101A800023F004034B814B8943F480434B8100E0F6
:101A900000BF00BF10BD70B504460D4625626069E9
:101AA0004169284601F0D4FF60836169486901F00B
:101AB000B9FFA08370BD0246508910F0020F01D01B
:101AC000002070470878022849D1B2F90C00B1F91A
:101AD0000230984234DAB2F91000B1F9023098427B
:101AE0002EDDB2F90E00B1F90430984228DAB2F9CD
:101AF0001200B1F90430984222DD508910F0080F2D
:101B00000AD04878042828D1508910F0040F01D059
:101B10000820D6E70620D4E74878042801D1082019
:101B2000CFE74878032805D1508910F0040F01D081
:101B30000720C6E7508910F0040F0ED10620C0E739
:101B4000508910F0080F08D14878012805D1508934
:101B500010F0040F01D00920B3E70020B1E70878A6
:101B600001283BD1B1F902001388984234D148785A
:101B7000052831D1508910F0080F0DD08888B92878
:101B800002D088889C2817D1508910F0040F01D00A
:101B9000082096E7062094E78888392802D08888AC
:101BA0001C2801D106208CE78888B92802D08888B3
:101BB0009C2801D1082084E78888392802D08888A9
:101BC0002C2801D106207CE78888B92802D0888893
:101BD000AC2801D1082074E7002072E7002070E7EC
:101BE00000BFFEE710B500BF40F23F13EF22002117
:101BF0000846FFF78DFB0028F6D000200249088038
:101C00000249088010BD0000CE000020D000002056
:101C100070B52A254FF4803400E0641E24B1802082
:101C200006F014F80028F8D014B90325284670BD32
:101C300040F2FF5005F0C2FF2846F8E72DE9F041D9
:101C400006462A274748456B01E04648456B15F094
:101C5000450FFAD015F0040F06D00327042005F035
:101C6000ADFF3846BDE8F08115F0010F05D0012722
:101C7000012005F0A3FF3846F4E705F0E1FFB0428C
:101C800002D010273846EDE740F2FF5005F096FFEE
:101C9000002005F0FBFF04463348044201D13846DA
:101CA000E0E714F0004F01D01C20DBE714F0804F78
:101CB00001D00920D6E714F0005F01D00A20D1E757
:101CC00014F0805F01D00B20CCE714F0006F01D03E
:101CD0000C20C7E714F0806F01D00D20C2E714F08C
:101CE000807F01D00E20BDE714F4000F01D00F203B
:101CF000B8E714F4800F01D01020B3E714F4001FEC
:101D000001D01120AEE714F4801F01D01220A9E702
:101D100014F4002F01D01320A4E714F4802F01D075
:101D200014209FE714F4003F01D015209AE714F423
:101D3000803F01D0162095E714F4004F01D0172002
:101D400090E714F4804F01D018208BE714F4005F63
:101D500001D0192086E714F0080F01D01A2081E77E
:101D600038467FE70080014008E0FFFD70B52A2576
:101D70000F48446B01E00E48446B14F0450FFAD055
:101D800014F0040F05D00325042005F017FF2846A2
:101D900070BD14F0010F05D00125012005F00EFFE4
:101DA0002846F5E740F2FF5005F008FF2846EFE728
:101DB0000080014070B52A250B48446B01E00A48B9
:101DC000446B14F0450FFAD014F0040F05D003252E
:101DD000042005F0F3FE284670BD40F2FF5005F0E8
:101DE000EDFE2846F8E70000008001402DE9F041B3
:101DF00006460F464FF02A082248456B01E021486D
:101E0000456B15F0450FFAD015F0040F07D04FF0D1
:101E10000308042005F0D2FE4046BDE8F08115F02D
:101E2000010F06D04FF00108012005F0C7FE404623
:101E3000F3E705F005FFB04203D04FF0100840462D
:101E4000EBE740F2FF5005F0B9FE002005F01EFF61
:101E5000044614F4604F03D1200C38804046DCE780
:101E600014F4005F01D01320D7E714F4804F01D0A1
:101E70001020D2E714F4004F01D00F20CDE74046E8
:101E8000CBE700000080014070B52A264FF4803572
:101E90000F48446B02E06D1E0D48446B14F0450F73
:101EA00001D1002DF7D115B114F0040F05D0032690
:101EB000042005F083FE304670BD14F0400F05D0BD
:101EC0002A26402005F07AFE3046F5E73046F3E753
:101ED0000080014010B50D4800F060F840B10C489A
:101EE00000F02CF80B48007840F001000949087018
:101EF000094800F053F840B1084800F01FF80548C1
:101F0000007840F002000349087010BD0040001046
:101F100000500010A8020020002000100030001027
:101F200010F0805F02D00349086001E00249486078
:101F300070470000040402400000024010F0805F7F
:101F400002D00349086001E0024948607047000080
:101F5000040402400000024021B1026842F0010284
:101F6000026004E002684FF6FE731A400260704798
:101F700001460020002211F0805F02D0054B1A6854
:101F800001E0054B1A680A4201D0012000E0002060
:101F9000704700000004024000000240014600209B
:101FA000002211F0805F02D0054B1A6801E0054B5A
:101FB0001A680A4201D0012000E0002070470000AA
:101FC000000402400000024010B50022026847F6FB
:101FD000F0739A430C6A8B6823430C6923434C6962
:101FE00023438C692343CC6923434C6A23438C6A83
:101FF00023431A430260CB6843600B6883604B68DD
:10200000C36010BD704710B5002108E00C2200BF6E
:102010001300A2F10104E2B2FAD14A1C91B281424A
:10202000F4D310BD2DE9FC5F0D2000F039FE06460B
:10203000E048007800287DD10021304603F0C8FE3A
:10204000C0B90020DC4908800920FEF79FFB8246CA
:102050004FF08241FEF796F98146D849FEF78FF995
:102060008046FEF7A9FB07B2D5A21E21384604F030
:102070006FFF9AE1022000F013FE04460021304673
:1020800003F0A6FED3490968884224D000213046D7
:1020900003F09EFECF490860132000F001FE01907E
:1020A000019804F0A9FFCC480078012808D100204D
:1020B000C1490880C9A23C21782004F049FF0AE008
:1020C000C548007838B90020BB490880C5A23C212A
:1020D000782004F03DFFC0480078C4490968884270
:1020E00022D0132000F0DCFD0190019804F084FF61
:1020F000B9480078012808D10020AF490880B7A26C
:102100003C21782004F024FF0AE0B348007838B975
:102110000020A9490880B3A23C21782004F018FFD0
:10212000AD480078B14908600B2000F0B9FD0546C4
:10213000AF4900E03AE1C968AE4A526E881AFEF72C
:1021400025FB8246AC480068FEF720FB83465146DB
:10215000FEF74EF98146A949FEF714F98046FEF7CD
:1021600044FBC7B23946284607F026FD688940F48B
:10217000805068819848007860B9A14800680128BB
:1021800008D1A049606A884204D19F486062204615
:10219000FFF7A8FA9749086DFEF7EFFA81469449D0
:1021A000C968944A526E881AFEF7F0FA824692483D
:1021B0000068FEF7EBFA83465146FEF719F98046B0
:1021C0004946FEF7DFF80746FEF70FFB8949496DE0
:1021D00088427DD08749086DFEF7CFFA8146844951
:1021E000C968844A526E881AFEF7D0FA824682483D
:1021F0000068FEF7CBFA83465146FEF7F9F88046B1
:102200004946FEF7BFF80746FEF7EFFA79494865F9
:10221000122000F045FD0190019804F0EDFE002031
:10222000654908807348406D3C2190FBF1F00A211C
:1022300090FBF1F03030C0B200906A463C2146205D
:1022400004F086FE6B48406D3C2190FBF1F00A21C2
:1022500090FBF1F201FB12003030C0B200906A46F0
:102260003C214E2004F074FE68A23C21562004F06C
:102270006FFE6048406D3C2190FBF1F201FB1200C3
:102280000A2190FBF1F03030C0B200906A463C2148
:102290005E2004F05DFE5748406D3C2190FBF1F25A
:1022A00001FB12000A2190FBF1F201FB1200303019
:1022B000C0B200906A463C21662004F049FE4D48B9
:1022C000406D002871D1142000F0EAFC019000E07C
:1022D0006BE0019804F090FE0020374908804548E3
:1022E000C06D4FF47A71B0FBF1F06421B0FBF1F0F6
:1022F0003030C0B200906A463C21B22004F028FE83
:102300003C48C06D4FF47A71B0FBF1F06421B0FB32
:10231000F1F201FB12000A21B0FBF1F03030009025
:102320006A463C21BA2004F013FE3248C06D4FF4D7
:102330007A71B0FBF1F06421B0FBF1F201FB120005
:102340000A21B0FBF1F201FB1200303000906A4626
:102350003C21C22004F0FCFD2DA23C21CA2004F047
:10236000F7FD112000F09CFC0190019804F044FE60
:102370000020114908801F48FDF79BFF4FEA500BD2
:102380005846FEF703FA82464FF08241FDF7FAFF06
:1023900081460A49FDF7F3FF8046FEF70DFA07B2C2
:1023A000144A1E21384604F0D3FD00E000BF00BFF0
:1023B000BDE8FC9F14010020FA0000200000164335
:1023C000C7EBD1A1D4F1C4E3CFB2BBB6B5C4B8E872
:1023D000C7FA00000C010020A9020020B2A5B7C571
:1023E000D6D00000D2D1CDA3D6B90000080100207C
:1023F00088830020E8030020BC020020000048433E
:10240000A402002050010020200100203A0000001A
:102410004B62707300000000F8B504460D464FF69D
:10242000FF70A11E8AB20D39009088B22B46294652
:1024300001F076FC4FF6FF702B46009004F10F0080
:1024400082B22946A01C80B201F06AFC4FF6FF70F0
:102450000090A81E83B20D3881B22246204601F0BA
:102460005FFC4FF6FF70009005F10F0083B222462B
:10247000A81C81B2204601F053FC4BF6F040E11F4E
:102480008AB20839009088B205F10F018BB289B287
:1024900001F046FC4BF6F040A4F10F018AB2009027
:1024A00088B205F10F018BB2E91D89B201F038FC49
:1024B0004BF6F040A5F10F06B3B2E61FB2B2A5F19C
:1024C0000F06B1B2A4F10F060090B0B201F028FCE3
:1024D0004BF6F040A5F10F06B3B2A4F10F06B2B26D
:1024E000EE1FB1B2A4F10F060090B0B201F018FCDB
:1024F0004BF6F040009005F10F0083B204F10F009D
:1025000082B205F10F0081B2E01D80B201F008FC3B
:102510004BF6F040009005F10F0083B204F10F007C
:1025200082B2E81D81B204F10F0080B201F0F8FB25
:102530004BF6F0400090A5F10F0083B281B204F198
:102540000F0082B2E01D80B201F0EAFB4BF6F040D2
:102550000090E81F83B2083881B204F10F0082B204
:1025600080B201F0DDFBF8BD10B50446012010BDBE
:1025700051B14FF0204252F8202042F001024FF0BA
:10258000204343F8202009E04FF0204252F8202059
:10259000034B1A404FF0204343F8202070470000BF
:1025A000FEFF0F00D0E901121143C2681143026916
:1025B00011434269114382691143C2691143026A9E
:1025C0001143426A1143826A1143C26A1143026B8A
:1025D00011434FF02043026843F822108168082914
:1025E00008D11A46016852F8211041F040010268F2
:1025F00043F82210416B0968426B526841EA0211AC
:10260000426B926841EA0221426BD26841EA024180
:10261000426B126941EA0251426B526941EA02611E
:10262000426B926911430268521C4FF0204343F8F9
:102630002210C16AB1F5804F1AD1816B0968826B93
:10264000526841EA0211826B926841EA0221826B70
:10265000126941EA0251826B526941EA0261826B5E
:1026600092691143026803EB8202C2F8041108E088
:102670006FF070414FF02043026803EB8202C2F812
:10268000041170472DE9F84306460C461746984654
:10269000089D8AE1C5480078082809D2DFE800F0E3
:1026A0000434D7FE74ACFDFC1DB90720BF49087087
:1026B0007AE14BF2055068430090BDF8020000B289
:1026C000BB4908804FF4A030A0EB05400090BDF856
:1026D000020000B2B7490860B74805800020B7493A
:1026E0000880B548B0F90000B5490880B348B0F992
:1026F0000000B4490880B148B0F90000B249088030
:102700000120AA49087000BF00BFAC48B0F9000022
:10271000A749B1F90010884203DD0720A3490870DA
:1027200042E1A648B0F90000A7490880A148006826
:10273000002814DDA0480088401E00B29E49088091
:102740009E48B0F90000B1F90010401A052101EBD4
:102750004000984909680844964908600AE097488B
:10276000B0F90000032101EB4000924909680844D8
:102770009049086091480088401C00B28F49088049
:1027800004208A49087000BF8D48B0F900008A49CA
:10279000B1F9001088422BD08C48007810F00F0F50
:1027A00022D0DFF824C2BCF800C0C4440FFA8CF376
:1027B000DFF80CC2BCF800C0BC440FFA8CF2DFF8A2
:1027C00004C2BCF800C0C4440FFA8CF1DFF8F0C1B9
:1027D000BCF800C0A6EB0C0C0FFA8CF0FEF798FDCD
:1027E00010B90020BDE8F883052070490870DBE0CF
:1027F00001206E49087088E77448007810F00F0FC8
:1028000021D0DFF8BCC1BCF800C0C4440FFA8CF37F
:10281000DFF8B4C1BCF800C0BC440FFA8CF2DFF89A
:1028200098C1BCF800C0C4440FFA8CF1DFF898C11D
:10283000BCF800C0A6EB0C0C0FFA8CF0FEF768FD9C
:1028400008B90020CEE7022058490870ACE05F4884
:10285000007810F0F00F27D0DFF85CC1BCF800C0A2
:10286000A4EB0C0C0FFA8CF3DFF85CC1BCF800C0D1
:10287000BC440FFA8CF2DFF848C1BCF800C0A4EBEE
:102880000C0C0FFA8CF1DFF840C1BCF800C0A6EBCD
:102890000C0C0FFA8CF002E041E080E008E0FEF75B
:1028A00037FD08B900209DE70320404908707BE010
:1028B0004648007810F0F00F23D0DFF808C1BCF8CC
:1028C00000C0A4EB0C0C0FFA8CF3DFF8F4C0BCF8DA
:1028D00000C0BC440FFA8CF2DFF8ECC0BCF800C0BA
:1028E000A4EB0C0C0FFA8CF1DFF8D4C0BCF800C0DC
:1028F000A6EB0C0C0FFA8CF0FEF70AFD08B90020CD
:1029000070E72D48B0F900002D4908802B48B0F938
:1029100000002C49088001202449087044E0B81BBD
:1029200002D1B8EB040034D028480078FF280AD13F
:1029300079190AB2711B08B243462146FEF7E8FC3A
:1029400018BB00204EE721480078F0280ED1A8EBF4
:10295000040104EB61010BB279190AB2711B08B2D0
:102960002146FEF7D5FC80B900203BE77B191AB25F
:10297000A8EB040304EB630319B2731B18B24346BC
:10298000FEF7C6FC08B900202CE7062007490870AE
:1029900004E0002005490870012023E700BF002063
:1029A0000249087001201DE700BF73E6C000002047
:1029B000B4000020B0000020B6000020B8000020C5
:1029C000BA000020BC000020BE000020DE00002075
:1029D0002DE9FC4107460D4600262A2400200090E0
:1029E000019008205B490860102048604020886002
:1029F0000020C8604FF480600861084605F080F947
:102A00001020FFF71BF904462A2C02D02046BDE80F
:102A1000FC815148006800044E4908603720486036
:102A2000402088600020C8604FF48060086108463C
:102A300005F066F93720FFF701F904462A2C01D08A
:102A40002046E4E7454846490860082048603020B1
:102A500088600220C86000200861012048610846A3
:102A600005F0C4F800203B4908603320486040204E
:102A700088600020C8604FF480600861084605F057
:102A80003FF93320FFF7DAF804462A2C01D020461C
:102A9000BDE709E04FF4001005F0D8F820B105F0CB
:102AA00029F94DF82600761C2E48406B40F22A6129
:102AB0000842EFD0082005F0C9F828B1082005F039
:102AC0007DF804242046A2E7022005F0BFF828B1D3
:102AD000022005F073F80224204698E7202005F034
:102AE000B5F828B1202005F069F8062420468EE7C5
:102AF0004FF4007005F0AAF830B14FF4007005F003
:102B00005DF80724204682E740F2FF5005F056F8B2
:102B100000980006009901F47F4140EA01200099E5
:102B200001F47F0140EA1120009940EA11606860D9
:102B300001980006019901F47F4140EA01200199C2
:102B400001F47F0140EA1120019940EA11602860F8
:102B500020465CE7BC03002020000020FFFF0F00A0
:102B6000D0030020008001400146084A126812B9D3
:102B7000064A116007E0054A106800E040684268B4
:102B8000002AFBD1416000224A6070474C000020BF
:102B900010B5182008F0B2FF0446DCB142F6B020B0
:102BA00020804DF23E706080E920A0804FF6FF70DB
:102BB000E0804FF2BB7020814AF6DD60608142F216
:102BC0003E60A0814BF29F60E0814DF27E702082DA
:102BD00001486061204610BD0CCC000810B52848A3
:102BE000006848B900F050F820B126480068244930
:102BF000086001E0002010BD00243BE02048006890
:102C0000408910F47C4F30D01D480068007A30B104
:102C100005280AD006280ED0092818D111E0184836
:102C20000068FEF75FFD04B212E01548006802F08C
:102C300009FE04B20CE01248006806F087FB04B2FB
:102C400006E00F48006804F0D7F904B200E000BFC6
:102C500000BF44B10A4800684089C0F30900084930
:102C60000968488101E00020C5E705480068406820
:102C700003490860024800680028BFD10120BAE774
:102C80005C0000204C00002010B50448007818B902
:102C9000FFF7C8F9012010BD0120FCE71401002056
:102CA00002460648016805E00888904201D10846BE
:102CB000704749680029F7D10020F9E74C0000204F
:102CC00070B50B4804680AE06568207A052802D1CF
:102CD000204602F0A9FD204608F088FD2C46002C75
:102CE000F2D10020024908600249086070BD00006E
:102CF0004C0000205400002010B500F001FFFFF749
:102D000047FF0149086010BD5000002070B506461D
:102D1000707800B970BD2C48046851E0207A30B159
:102D2000052817D0062828D0092846D138E0314692
:102D30002046FEF7C0FE054605B93FE03246214673
:102D4000284600F043F820B1324621462846FEF7D7
:102D500087FE33E03146204603F0E8F8054605B922
:102D60002CE032462146284600F030F820B13246A9
:102D70002146284603F03BF820E03146204606F085
:102D80007BFF054605B919E032462146284600F08A
:102D90001DF820B132462146284606F07FFE0DE0A0
:102DA0003146204604F02AFA054605B906E03246C7
:102DB0002146284600F00AF800E000BF00BF646822
:102DC000002CABD100BFA5E74C00002070B5044635
:102DD0000D4616460548007830B932462946204649
:102DE00003F02EFA012070BD0120FCE71401002041
:102DF0003EB5DFE1F048007809287DD2DFE800F039
:102E00000535598FBFF7F5F4F300EC48008820B37F
:102E1000EB480088EB490880E121E848B0F9002040
:102E20000088E94B1B88C01A00B2CDE9012100904F
:102E3000E648B0F90030E648B0F90020E548B0F9BE
:102E40000010E548B0F90000FDF7D4FE08B90020F5
:102E50003EBD0120D849087006E00220D64908701E
:102E60000120DE49088025E000BFDD480088D54903
:102E700008801E22D148B0F900100088D24B1B8870
:102E8000C01A00B28DE80700D048B0F90030D04831
:102E9000B0F90020CF48B0F90010CF48B0F90000D9
:102EA000FDF7A8FE08B90020D2E70620C249087045
:102EB000CBE000BFC2480088C249088022E0C54C70
:102EC0002488C64D2D882C4423B2C14C2488C34D80
:102ED0002D88641B22B2BF4C2488C04D2D882C4401
:102EE00021B2BD4C2488BD4D2D882C4420B2FEF764
:102EF0000FFA10B90020ABE75BE1B8480088401C2E
:102F0000B6490880B5480088AF4909888842D6DBB1
:102F10000120B24908800320A749087049E121E057
:102F2000AA4C2488AD4D2D88641B23B2AA4C24885A
:102F3000AA4D2D882C4422B2A64C2488A74D2D885A
:102F40002C4421B2A44C2488A44D2D882C4420B2BA
:102F5000FEF7DEF908B900207AE7A0480088401C97
:102F60009E4908809D480088974909888842D7DB98
:102F700001209A49088004208F49087019E1984877
:102F800000889049088021E0904C2488934D2D883A
:102F9000641B23B28E4C2488904D2D88641B22B272
:102FA0008A4C24888D4D2D88641B21B28A4C24883C
:102FB0008A4D2D882C4420B2FEF7AAF908B90020CA
:102FC00046E786480088401C84490880834800887A
:102FD0007D4909888842D7DB012080490880052087
:102FE00075490870E5E070E0A0E02DE0FFE721E022
:102FF000764C2488794D2D88641B23B2744C248828
:10300000764D2D88641B22B2724C2488734D2D8816
:103010002C4421B26E4C2488704D2D88641B20B244
:10302000FEF776F908B9002012E76C480088401CCA
:103030006A49088069480088634909888842D7DB63
:1030400006205D490870B4E000BF664800885D490D
:1030500008805A480088B8B1584800885A490988F9
:10306000401A00B200905948B0F900305848B0F901
:1030700000205848B0F900105748B0F90000FFF799
:1030800001FBF0B90020E3E6504C24884E4D2D881A
:10309000641B23B24E4C24884B4D2D88641B22B2F6
:1030A0004C4C2488484D2D882C4421B24A4C24880D
:1030B000454D2D882C4420B2FEF72AF908B900208E
:1030C000C6E608203C49087073E04748006848B3EA
:1030D0004548006800F072FB3C49B1F900103D4AD8
:1030E000B2F900201144081A012101EB600004B27A
:1030F0003D48006800F06BFB3549B1F90010364AD5
:10310000B2F900201144081A012101EB600005B258
:103110000B46354821460268284604F0C7F808B92E
:10312000002095E607202449087042E02E480068F8
:1031300008B32D48006800F04AFB2549B1F900109A
:10314000254AB2F90020891A1C4AB2F9002011441C
:10315000884229DC2448006800F030FB1B49B1F9A3
:1031600000101C4AB2F90020891A144AB2F9002052
:103170001144884218DC1A480088124908800F4818
:10318000B0F9000000901148B0F900301048B0F9D3
:1031900000201048B0F900100F48B0F90000FEF709
:1031A000D9F808B9002053E600200349087001202F
:1031B0004EE600BF1EE60000600000207000002008
:1031C00074000020FA000020780000206E0000202B
:1031D0006C0000206A0000206800002062000020CF
:1031E0007600002072000020580000203EB5C5E1A6
:1031F000E3480078082867D2DFE800F004326797D8
:10320000C7F7F5F4DF48008818B3DF480088DF49C6
:103210000880FF22DB48B0F900100088DC4B1B88D7
:10322000C01A00B28DE80700DA48B0F90030DA4879
:10323000B0F90020D948B0F90010D948B0F9000021
:10324000FDF7D8FC08B900203EBD0520CC49087028
:1032500005E00120CA490870D249088001E000BF9A
:1032600000BFC9480088C949088021E0CB4C2488A8
:10327000CC4D2D882C4423B2C74C2488C94D2D88B1
:10328000641B22B2C54C2488C64D2D882C4421B223
:10329000C34C2488C34D2D882C4420B2FEF738F847
:1032A00008B90020D0E7BF480088401CBD4908800D
:1032B000BC480088B64909888842D7DB0120B94953
:1032C00008800220AE49087057E121E0B14C248803
:1032D000B44D2D88641B23B2B14C2488B14D2D8888
:1032E0002C4422B2AD4C2488AE4D2D882C4421B202
:1032F000AB4C2488AB4D2D882C4420B2FEF708F847
:1033000008B90020A0E7A7480088401CA54908800C
:10331000A44800889E4909888842D7DB0120A1493A
:10332000088003209649087027E121E0994C248801
:103330009C4D2D88641B23B2974C2488994D2D8871
:10334000641B22B2934C2488964D2D88641B21B2B5
:10335000934C2488934D2D882C4420B2FDF7D8FF40
:1033600008B9002070E78F480088401C8D4908800C
:103370008C480088864909888842D7DB0120894922
:10338000088004207E490870F7E021E0814C248801
:10339000844D2D88641B23B27F4C2488814D2D8859
:1033A000641B22B27D4C24887E4D2D882C4421B292
:1033B000794C24887B4D2D88641B20B2FDF7A8FF33
:1033C00008B9002040E777480088401C754908800C
:1033D000744800886E4909888842D7DB052068490F
:1033E0000870CAE097E049E0FFE76F480088674946
:1033F000088064480088D0B1F0206C4908706148AA
:10340000008863490988401A00B200906148B0F909
:1034100000306148B0F900206048B0F90010604801
:10342000B0F90000FFF72EF920BB00200CE7594C43
:10343000B4F90040594DB5F90050641B574D2D8823
:1034400005EB640423B2544C2488514D2D88641B31
:1034500022B2524C24884E4D2D882C4421B2504C1F
:1034600024884B4D2D882C4420B2FDF751FF08B91C
:103470000020E9E60620424908707EE04C480088BA
:10348000424908803F480088D0B10F204749087062
:103490003C4800883E490988401A00B200903D48E7
:1034A000B0F900303C48B0F900203C48B0F90010B9
:1034B0003B48B0F90000FFF7E5F828BB0020C3E661
:1034C000344C2488324D2D88641B23B2324C24881E
:1034D0002F4D2D88641B22B22E4CB4F900402F4D85
:1034E000B5F90050641B2D4D2D8805EB6404641C58
:1034F00021B22B4C2488264D2D882C4420B2FDF778
:1035000007FF08B900209FE6FF2028490870072020
:103510001B49087031E02748006848B32548006817
:1035200000F04CF91B49B1F900101C4AB2F9002017
:103530001144081A012101EB600004B21D48006823
:1035400000F045F91449B1F90010154AB2F900200C
:103550001144081A012101EB600005B20B46154821
:1035600021460268284603F0A1FE08B900206BE658
:10357000002003490870012066E600BF38E600001D
:10358000640000207000002072000020FA0000207B
:10359000780000206E0000206C0000206A000020EF
:1035A000680000206600002074000020DE0000207B
:1035B000760000205800002008B50121482004F0C2
:1035C0007DF840F60200ADF8000003208DF80200FF
:1035D00010208DF8030069460F4800F021F845F2ED
:1035E0002000ADF8000003208DF8020010208DF8B7
:1035F00003006946084800F013F80420ADF8000005
:1036000003208DF8020048208DF803006946034826
:1036100000F006F808BD0000000C01400018014051
:103620002DE9F04102460025002600200023002459
:10363000002791F803C00CF00F0591F803C01CF0AF
:10364000100F03D091F802C04CEA0505B1F800C094
:103650001CF0FF0F31D0146800202BE04FF0010C5C
:103660000CFA00F3B1F800C00CEA03069E4220D128
:1036700083004FF00F0C0CFA03F7BC4305FA03FC70
:103680004CEA040491F803C0BCF1280F06D14FF0B6
:10369000010C0CFA00FCC2F814C00AE091F803C057
:1036A000BCF1480F05D14FF0010C0CFA00FCC2F838
:1036B00010C0401C0828D1D31460B1F800C0BCF180
:1036C000FF0F34DD546800202EE000F1080C4FF0AD
:1036D000010808FA0CF3B1F800C00CEA03069E4298
:1036E00021D183004FF00F0C0CFA03F7BC4305FA0D
:1036F00003FC4CEA040491F803C0BCF1280F05D187
:1037000000F1080C08FA0CF8C2F8148091F803C014
:10371000BCF1480F07D100F1080C4FF0010808FA7E
:103720000CF8C2F81080401C0828CED35460BDE8C5
:10373000F0810246002093680B4201D0012000E096
:103740000020704741617047016170472DE9F843DF
:1037500005460E4614469846DDF8209000BF14F842
:10376000017B43463A4631462846CDF8009003F0A7
:103770006BFDE82D03DA05F1080085B209E0B6F526
:10378000987F04DA002506F1100086B201E00025DA
:10379000002620780028E2D1BDE8F88370B5054600
:1037A0000C46A4F12000044A02EB00111022284626
:1037B000FCF71CFD70BD0000E826020801460888E1
:1037C00018B94868408800B270470020FCE70146FD
:1037D000088818B94868808800B270470020FCE764
:1037E0002DE9F74F82B003460C46002101200090DE
:1037F0000020DFF898E18EF80000DFF894E1CEF8C1
:1038000000000098E8B3187830280CD158782628A2
:1038100009D19878B22806D1D878752803D101202B
:1038200005B0BDE8F08F1878492805D158784428AC
:1038300002D19878332800D02AE0D878032801D024
:103840000120EDE7987900F07F004FF00A0E0EEBB3
:10385000405ED87900F07F000EEB802E187A00F0E1
:103860007F000EEBC01093F809E00EF07F0E00EB26
:103870000E0C6146601E884209D2081BDFF810E179
:1038800000E004E0CEF8000000200090C8E700BF90
:103890005D5C05E02806050C481C0146185C0543E4
:1038A0004FF6FA702840A0F57E4EBEF5FD7E02D0A0
:1038B000601E8842EED8601E884209D8185CFF2836
:1038C00004D10120DFF8C4E08EF800000020A7E753
:1038D000601E01F12F0E704506D83020DFF8ACE0F5
:1038E0008EF8000000209BE7491C585C4FEA201826
:1038F000585CC0F38109585CC0F3400A891C8AB245
:1039000012E0985C58280DD1501C185C692809D128
:10391000901C185C6E2805D1D01C185C672801D15A
:10392000012607E0501C82B201F124008242E8D354
:10393000002600BF8EB9174850F8280000EBC000E1
:103940000001DFF854E05EF829E090FBFEF000EBA8
:103950000A0B0498B0FBFBF70FE02831C81C13F8E2
:1039600000E0881C185C0EEB002E481C185C0EEB67
:10397000004013F801E000EB0E674FF01A0E07FB52
:103980000EF0019000BF01984AE70000E00100201E
:10399000E4010020AC2602089C26020870B5064609
:1039A0000024002501223146184807F05BFD184924
:1039B00008701648C06830B320E016480078281A0E
:1039C00015490968084485B2144B4FF4A0521449B4
:1039D0000E4807F0C1FD0E49087044B90B484FF47A
:1039E000A051C2680E48FFF7FBFE044603E0012C1D
:1039F00000D107E006E005F5A05085B20348C06895
:103A0000A842DAD800BF204670BD0000888300209D
:103A1000B4020020E0010020E4010020B8020020F0
:103A2000646D002038B50446B4F9000010B10128D7
:103A30000CD102E06068807938BD6B460122062116
:103A40002046FEF791FD9DF80000F5E70020F3E722
:103A50002DE9FE4F06468846B8F9000010B101284E
:103A600049D11FE0D8F80490B9F80200C5B2B9F8FE
:103A7000040000F0FF0A09F1080B00270BE0AC423C
:103A800000DA08E0544500DD05E0601B1BF820006B
:103A9000384407B200BF16F8014B0F2CEFDC384654
:103AA000BDE8FE8F6B46082200214046FEF75CFD14
:103AB000BDF80200C5B2BDF8040000F0FF0A0027FF
:103AC00013E0AC4200DA10E0544500DD0DE0601B6D
:103AD000800000F1080102AB04224046FEF744FDDD
:103AE0009DF80800384407B200BF16F8014B0F2CB0
:103AF000E7DC3846D4E70020D2E700BFFEE700004D
:103B000010B500200D4908800D4908700D49088046
:103B10000D49088003F0BEFF00200C490880FEF725
:103B200061F84FF6FF7009490880002008490880B5
:103B300008490870FF200849087010BDC80000201F
:103B4000CB000020CE000020D0000020FA00002092
:103B5000FC000020CC000020DE00002010B5032275
:103B60000021012008F0B0FD1549086008460068F2
:103B700030B100231A4619461148006808F07DFE4E
:103B800000231A4619460E48006808F0C4FD0322B7
:103B90000021012008F098FD0A49086008460068E5
:103BA00030B100231A4619460648006808F065FE41
:103BB00000231A4619460348006808F0ACFD10BD02
:103BC000C8020020C402002008B50121082003F02B
:103BD00075FD0220ADF8000003208DF802001020D2
:103BE0008DF8030069460448FFF71AFD02210248D8
:103BF000FFF7AAFD08BD0000000C014070B50546A6
:103C000000241D4800780A2803D01B4800780B28A0
:103C100020D10021022001F053FD0021032001F0FA
:103C20004FFD0021042001F04BFDEF21052001F0A4
:103C300047FD0021062001F043FD0021072001F08F
:103C40003FFD0121082001F03BFD3F21092001F04B
:103C500037FD03E00021084601F0D6FC222001F0E8
:103C60002BFD002403E0284601F020FD641CB4F580
:103C7000963FF8D370BD0000F001002010B500F0B1
:103C800003F800F0CAF810BD08B50121080203F0DE
:103C9000F5FC0121612003F011FD4CF63370ADF805
:103CA000000003208DF8020018208DF803006946FB
:103CB0001948FFF7B5FC4FF68070ADF80000694673
:103CC0001648FFF7ADFC8020ADF8000069461248A9
:103CD000FFF7A6FC4FF40050ADF8000003208DF86C
:103CE000020010208DF8030069460B48FFF798FC8E
:103CF0004FF400510848FFF725FD4FF48050ADF810
:103D0000000069460448FFF78BFC4FF480510248DD
:103D1000FFF71AFD08BD0000001401400018014023
:103D20002DE9F05F04460D4691469A46DDF828B02D
:103D30004C4503DD0FFA89F7A146BCB2554503DDBA
:103D40000FFA8AF7AA46BDB2A9EB04000FFA80F871
:103D5000AAEB050006B2B8F1000F0BD100BF5A461E
:103D60002946204601F08EFC681C85B2AA45F6DA89
:103D7000BDE8F09F56B900BF5A462946204601F0DB
:103D800081FC601C84B2A145F6DAF1E7B04521DD83
:103D9000C8EB460007B215E05A462946204601F016
:103DA00071FC601C84B2002F08DD681C85B27000B5
:103DB000022101FB1800384407B203E0022000FB97
:103DC000067007B24C45E7D15A462946204601F015
:103DD00059FC20E0C6EB480007B215E05A462946D8
:103DE000204601F04FFC681C85B2002F08DD601CE6
:103DF00084B27000022101FB1800384407B203E0CE
:103E0000022000FB067007B25545E7D15A46294605
:103E1000204601F037FC00BFAAE700B597B00520A7
:103E20000190002002900A20039000200490059049
:103E300006900790089009900A9010200B9000209F
:103E40000C900E900F9010904FF480501190002025
:103E500012900D901390149001A8159008A8FEF7E9
:103E6000A1FB0F200190002002900F200390002062
:103E7000049005900690079001A8169008A8FEF7F8
:103E800091FB01210020FEF773FB17B000BD00007D
:103E900010B5FFF7F3FE40F22310FE490880002022
:103EA00001F0AAFBFB49088008460088A0F51341F1
:103EB000253905D0F7480088A0F5134128397DD170
:103EC0000120F54908701021E72001F0F9FB0121DC
:103ED000002001F0F5FB4FF48071012001F0F0FBB0
:103EE0004FF4E061022001F0EBFB41F230010320CE
:103EF00001F0E6FB0021042001F0E2FB40F2072183
:103F0000082001F0DDFB0021092001F0D9FB002190
:103F10000A2001F0D5FB01210C2001F0D1FB00218A
:103F20000D2001F0CDFB00210F2001F0C9FB002185
:103F3000102001F0C5FB0721112001F0C1FB002179
:103F4000122001F0BDFB0021132001F0B9FB32204B
:103F500007F08EF841F29051102001F0B1FB40F2D1
:103F60002721112001F0ACFB322007F081F89C21C1
:103F7000122001F0A5FB322007F07AF84FF4C85167
:103F8000132001F09DFB2321292001F099FB0E2134
:103F90002B2001F095FB322007F06AF80021202049
:103FA00001F08EFB0021212001F08AFB322007F076
:103FB0005FF80721302001F083FB00E089E040F248
:103FC0000771312001F07CFB0621322001F078FBE3
:103FD00040F20471352001F073FB41F60471362084
:103FE00001F06EFB0421372001F06AFB002138202C
:103FF00001F066FB40F20671392001F061FB40F2EE
:1040000001713C2001F05CFB0F213D2001F058FBC9
:10401000322007F02DF80021502001F051FBEF2154
:10402000512001F04DFB0021522001F049FB40F2EC
:104030003F11532001F044FB4FF42741602001F071
:104040003FFB0121612001F03BFB00216A2001F0D0
:1040500037FB0021802001F033FB0021812001F09B
:104060002FFB0021822001F02BFB0021832001F097
:1040700027FB0021842001F023FB0021852001F093
:104080001FFB1021902001F01BFB0021922001F06A
:1040900017FB0321932001F013FB4FF48871952047
:1040A00001F00EFB0021972001F00AFB002198206F
:1040B00001F006FB40F23311072001F001FB002163
:1040C000202001F0FDFA0021212001F0F9FA01F091
:1040D00084BA70480088A0F51341203904D06D4897
:1040E0000088B0F5134F7DD100206B490870002186
:1040F000084601F0E5FA4FF48071012001F0E0FA82
:104100004FF4E061022001F0DBFA41F218010320D4
:1041100001F0D6FA0021042001F0D2FA40F2022187
:10412000082001F0CDFA0021092001F0C9FA002190
:104130000A2001F0C5FA01210C2001F0C1FA00218A
:104140000D2001F0BDFA00210F2001F0B9FA642022
:1041500006F08EFF40F20111072001F0B1FA642051
:1041600006F086FF4FF48651102001F0A9FA0721CE
:10417000112001F0A5FA4FF48871122001F0A0FA85
:104180004FF43061132001F09BFA0021292001F047
:1041900097FA44F210012B2001F092FA00215020EE
:1041A00001F08EFAEF21512001F08AFA002152200D
:1041B00001F086FA40F23F11532001F081FA4FF4EA
:1041C0001C51602001F07CFA0121612001F078FA95
:1041D00000216A2001F074FA0021802001F070FAB9
:1041E000002100E031E0812001F06AFA0021822004
:1041F00001F066FA0021832001F062FA0021842098
:1042000001F05EFA0021852001F05AFA1021902079
:1042100001F056FA0021922001F052FA0121932078
:1042200001F04EFA4FF48871952001F049FA00210F
:10423000972001F045FA0021982001F041FA40F260
:104240007311072001F03CFA41E712480088A0F5FD
:10425000134131397ED103200F49087041F2140116
:10426000E72001F02DFA4FF48071012001F028FAC7
:104270004FF40071022001F023FA41F230010320D3
:1042800001F01EFA40F20221082001F019FA002183
:10429000092003E0F2010020F001002001F010FAF3
:1042A00000210A2001F00CFA00210C2001F008FA8C
:1042B00000210D2001F004FA00210F2001F000FA86
:1042C0000021102001F0FCF90721112001F0F8F97C
:1042D0000021122001F0F4F90021132001F0F0F97F
:1042E000C82006F0C5FE41F29061102001F0E8F907
:1042F00040F22721112001F0E3F9322006F0B8FE48
:104300000C21122001F0DCF9322006F0B1FE4FF44E
:104310000061132001F0D4F91121292001F0D0F916
:104320000B212B2001F0CCF9322006F0A1FE002158
:10433000202001F0C5F90021212001F0C1F9002160
:10434000302001F0BDF94FF48371312001F0B8F94C
:10435000002100E078E0322001F0B2F94FF4017161
:10436000352001F0ADF941F20A61362001F0A8F9DB
:1043700040F20771372001F0A3F94FF48371382020
:1043800001F09EF940F20771392001F099F940F2ED
:1043900002413C2001F094F940F60F413D2001F02C
:1043A0008FF90021502001F08BF9EF21512001F00D
:1043B00087F90021522001F083F940F23F11532088
:1043C00001F07EF94FF41C51602001F079F90121D0
:1043D000612001F075F900216A2001F071F90021D6
:1043E000802001F06DF90021812001F069F90021A0
:1043F000822001F065F90021832001F061F900219C
:10440000842001F05DF90021852001F059F9102187
:10441000902001F055F94FF4C061922001F050F95D
:104420002121072001F04CF9322006F021FE612104
:10443000072001F045F9322006F01AFE40F2331150
:10444000072001F03DF942E6FE480088A0F5194139
:1044500019397DD10D20FC4908700621282001F072
:104460002FF90121002001F02BF90021102001F08B
:1044700027F947F2EF21012001F022F94FF4C06142
:10448000022001F01DF946F63821032001F018F949
:1044900046F67401112001F013F900210F2001F0FC
:1044A0000FF945F208310B2001F00AF903210C2025
:1044B00001F006F90A210D2001F002F94FF43851FC
:1044C0000E2001F0FDF8BE211E2001F0F9F84FF496
:1044D0000041252001F0F4F84FF4F041262001F0CE
:1044E000EFF87821272001F0EBF800214E2001F0B1
:1044F000E7F800214F2001F0E3F840F6D90112203F
:1045000001F0DEF80021302001F0DAF84FF482717A
:10451000312001F0D5F84FF48071322001F0D0F84D
:1045200040F20531332001F0CBF840F20551342040
:1045300001F0C6F840F20531352001F0C1F840F233
:104540000771362001F0BCF84FF44071372000E0CD
:1045500010E001F0B5F84FF490513A2001F0B0F8B6
:104560004FF400613B2001F0ABF83321072001F04C
:10457000A7F8ACE5B3480088A0F5A851053905D0E7
:10458000B0480088A0F5A06105397DD10920AE4969
:1045900008700021072001F093F8322006F068FD32
:1045A0004FF48E71122001F08BF80121A42001F04C
:1045B00087F80F21082001F083F808210A2001F074
:1045C0007FF808210D2001F07BF840F207713020C0
:1045D00001F076F80721312001F072F840F2036112
:1045E000322001F06DF84FF4E061332001F068F8FB
:1045F00040F20221342001F063F80221352001F05D
:104600005FF841F60F71362001F05AF840F2077159
:10461000372001F055F80021382001F051F8002131
:10462000392001F04DF840F207713A2001F048F8C6
:1046300000213B2001F044F807213C2001F040F824
:1046400000213D2001F03CF8322006F011FD01214F
:10465000072001F035F80121172001F031F8322050
:1046600006F006FD4FF4BD51102001F029F840F28C
:104670001721112001F024F84FF48F71122001F05E
:104680001FF84FF4706100E095E0132001F018F876
:1046900000212A2001F014F80A21292001F010F845
:1046A0004FF49F71122001F00BF80021502001F00F
:1046B00007F8EF21512001F003F80021522000F00B
:1046C000FFFF40F23F11532000F0FAFF4FF41C515E
:1046D000602000F0F5FF0121612000F0F1FF0021D2
:1046E0006A2000F0EDFF0021802000F0E9FF0021AA
:1046F000812000F0E5FF0021822000F0E1FF002191
:10470000832000F0DDFF0021842000F0D9FF00218C
:10471000852000F0D5FF1321902000F0D1FF4FF449
:104720004071922000F0CCFF0521932000F0C8FFDB
:104730000021952000F0C4FF0021972000F0C0FF69
:104740000021982000F0BCFF4FF48071012000F0A0
:10475000B7FF4FF4E061022000F0B2FF41F23001F8
:10476000032000F0ADFF0021042000F0A9FF00218C
:104770000C2000F0A5FF00210F2000F0A1FF002178
:10478000202000F09DFF0021212000F099FF212131
:10479000072000F095FFC82006F06AFC6121072081
:1047A00000F08EFFC82006F063FC40F27311072072
:1047B00000F086FF8BE423480088A0F50941893981
:1047C0007ED10520204908700121002000F078FFEB
:1047D000322006F04DFC4AF6A401032000F070FFE1
:1047E000322006F045FC00210C2000F069FF322049
:1047F00006F03EFC40F60C010D2000F061FF322077
:1048000006F036FC4FF42C510E2000F059FF3220F8
:1048100006F02EFCB0211E2000F052FF322006F0E0
:1048200027FC42F63F11012000F04AFF322006F03B
:104830001FFC4FF4C061022000F042FF322006F05E
:1048400017FC03E0F2010020F001002000211020FD
:1048500000F036FF322006F00BFC46F27801112002
:1048600000F02EFF322006F003FC0021052000F0AE
:1048700027FF322006F0FCFB0021062000F020FF7D
:10488000322006F0F5FB4EF61C71162000F018FFE2
:10489000322006F0EDFB0321172000F011FF32203B
:1048A00006F0E6FB40F23311072000F009FF32204A
:1048B00006F0DEFB00210B2000F002FF322000E0BA
:1048C000B9E006F0D5FB00210F2000F0F9FE322000
:1048D00006F0CEFB0021412000F0F2FE322006F06F
:1048E000C7FB0021422000F0EBFE322006F0C0FBA7
:1048F0000021482000F0E4FE322006F0B9FB40F22F
:104900003F11492000F0DCFE322006F0B1FB00210F
:104910004A2000F0D5FE322006F0AAFB00214B20F1
:1049200000F0CEFE322006F0A3FB4FF46F4144208E
:1049300000F0C6FE322006F09BFB0021452000F06F
:10494000BFFE322006F094FB40F23F11462000F0FB
:10495000B7FE322006F08CFB40F20771302000F0E9
:10496000AFFE322006F084FB4FF40171312000F0DD
:10497000A7FE322006F07CFB4FF40171322000F0DC
:104980009FFE322006F074FB40F20251332000F00B
:1049900097FE322006F06CFB40F20751342000F005
:1049A0008FFE322006F064FB4FF40171352000F0D9
:1049B00087FE322006F05CFB4FF40171362000F0D8
:1049C0007FFE322006F054FB40F20251372000F007
:1049D00077FE322006F04CFB40F202313A2000F024
:1049E0006FFE322006F044FB40F202313B2000F023
:1049F00067FE322006F03CFB0021232000F060FE21
:104A0000322006F035FB0021242000F059FE322030
:104A100006F02EFB4FF40041252000F051FE32201D
:104A200006F026FB00214F2000F04AFE00214E2018
:104A300000F046FE08E4FE480088A0F509419939D7
:104A40007ED10420FB4908700621282000F038FEA2
:104A50000121002000F034FE4AF6A461032000F09A
:104A60002FFE04210C2000F02BFE0C210D2000F065
:104A700027FE4FF420510E2000F022FEB5211E200B
:104A800000F01EFE43F63F31012000F019FE4FF406
:104A9000C061022000F014FE0021102000F010FE82
:104AA00046F63001112000F00BFE0021052000F039
:104AB00007FE0021062000F003FE4EF61C711620B2
:104AC00000F0FEFD3321072000F0FAFD00210B204D
:104AD00000F0F6FD00210F2000F0F2FD0021412042
:104AE00000F0EEFD0021422000F0EAFD0021482008
:104AF00000F0E6FD40F23F11492000F0E1FD002109
:104B00004A2000F0DDFD00214B2000F0D9FD4FF4DC
:104B10006F41442000F0D4FD0021452000F0D0FD7D
:104B200040F23F11462000F0CBFD00214E2000F066
:104B3000C7FD00214F2000F0C3FD40F2077100E0E7
:104B40004BE0302000F0BCFD40F20221312000F0AB
:104B5000B7FD4FF40171322000F0B2FD40F2025176
:104B6000332000F0ADFD40F20751342000F0A8FDE5
:104B70004FF40171352000F0A3FD4FF40171362090
:104B800000F09EFD40F20251372000F099FD40F206
:104B900002313A2000F094FD40F202313B2000F057
:104BA0008FFD0021232000F08BFD0021242000F048
:104BB00087FD4FF40041252000F082FD4FF4E041D5
:104BC000262000F07DFD4BF2EB01202000F078FD67
:104BD0007C21272000F074FD35E495480088A0F57D
:104BE000A84108397ED1082092490870410101206E
:104BF00000F066FD4FF4E061022000F061FD41F23B
:104C00003001032000F05CFD0021042000F058FD7D
:104C100040F20721082000F053FD0021092000F098
:104C20004FFD00210A2000F04BFD00210C2000F078
:104C300047FD00210D2000F043FD00210F2000F072
:104C40003FFD322006F014FA40F20111072000F077
:104C500037FD322006F00CFA41F2B061102000F06E
:104C60002FFD0121112000F02BFD0121172000F064
:104C700027FD4FF49C71122000F022FD4FF40061DB
:104C8000132000F01DFD0921292000F019FD092144
:104C90002A2000F015FD0021A42000F011FD0021C4
:104CA000502000F00DFDEF21512000F009FD002102
:104CB000522000F005FD40F23F11532000F000FDAE
:104CC0004FF41C51602000F0FBFC0321612000F038
:104CD000F7FC00216A2000F0F3FC0021802000F0A6
:104CE000EFFC00E02AE00021812000F0E9FC002137
:104CF000822000F0E5FC0021832000F0E1FC00218F
:104D0000842000F0DDFC0021852000F0D9FC132177
:104D1000902000F0D5FC0021922000F0D1FC03216E
:104D2000932000F0CDFC4FF48871952000F0C8FC72
:104D300040F27311072000F0C3FC1AE43C480088DD
:104D4000A0F58A41313977D107203A49087001210D
:104D5000002000F0B5FC4FF4C561102000F0B0FC5D
:104D60000621122000F0ACFC40F63221132000F0A6
:104D7000A7FC4021112000F0A3FC5021152000F0D9
:104D80009FFC1621122000F09BFC322006F070F9E7
:104D900045F26061102000F093FC322006F068F9C3
:104DA00042F64E21132000F08BFC4FF4807101205D
:104DB00000F086FC4FF44071022000F081FC41F2CB
:104DC0003001032000F07CFC40F20221082000F0BA
:104DD00077FC00210A2000F073FC0021302000F055
:104DE0006FFC40F20241312000F06AFC4FF4837105
:104DF000322000F065FC4FF4E061332000F060FCED
:104E00004FF48271342000F05BFC40F20131352018
:104E100000F056FC40F20771362000F051FC40F2E1
:104E20000531372000F04CFC4FF40271382004E0CB
:104E3000F2010020F001002039E000F041FC40F6D2
:104E40000B71392000F03CFC322006F011F90221F0
:104E5000412000F035FC4FF41C51602000F030FC84
:104E60000121612000F02CFC40F21911902000F08B
:104E700027FC4FF48571922000F022FC042193203E
:104E800000F01EFC4FF48071A02000F019FC3220CD
:104E900006F0EEF840F23311072000F011FC32204A
:104EA00006F0E6F80021A02000F00AFC95E3FE4899
:104EB0000088A0F58A4135397ED10C20FB49087065
:104EC0003021152000F0FCFB10219A2000F0F8FBA7
:104ED0002021112000F0F4FB43F22841102000F0C3
:104EE000EFFB0221122000F0EBFB41F2380113200E
:104EF00000F0E6FB282006F0BBF81221084600F07F
:104F0000DFFB282006F0B4F843F22041102000F027
:104F1000D7FB43F24501132000F0D2FB462006F0F8
:104F2000A7F80021302000F0CBFB40F202413120F5
:104F300000F0C6FB40F20731322000F0C1FB4FF415
:104F40004171332000F0BCFB0421342000F0B8FB99
:104F500040F20141352000F0B3FB40F207713620EA
:104F600000F0AEFB40F20531372000F0A9FB4FF412
:104F7000C261382000F0A4FB4FF4C261392000F078
:104F80009FFB4FF48071012000F09AFB4FF44071B9
:104F9000022000F095FB41F23001032000F090FB6D
:104FA00040F60801082000F08BFB08210A2000F0E1
:104FB00087FB4FF41C5100E034E0602000F080FBE0
:104FC0000121612000F07CFB4FF49F71902000F0E4
:104FD00077FB4FF48071922000F072FB4FF48071E8
:104FE000932000F06DFB4FF44051A02000F068FBCF
:104FF0001021A32000F064FB0121072000F060FBDA
:105000002121072000F05CFB2321072000F058FB42
:105010003321072000F054FB40F23311072000F049
:105020004FFBDAE2A048008847287DD10A209F493B
:1050300008700021EA2000F043FB2021EB2000F063
:105040003FFB0C21EC2000F03BFBC421ED2000F0E5
:1050500037FB4021E82000F033FB3821E92000F045
:105060002FFB0121F12000F02BFB1021F22000F09A
:1050700027FBA321272000F023FB0121402000F083
:105080001FFB0021412000F01BFB0021422000F00B
:1050900017FB1021432000F013FB0E21442000F0E9
:1050A0000FFB2421452000F00BFB0421462000F0DB
:1050B00007FB5021472000F003FB0221482000F0AD
:1050C000FFFA1321492000F0FBFA19214A2000F0D1
:1050D000F7FA19214B2000F0F3FA16214C2000F0CA
:1050E000EFFA1B21502000F0EBFA3121512000F0A3
:1050F000E7FA2F21522000F0E3FA3F21532000F07D
:10510000DFFA3F21542000F0DBFA3E21552000F069
:10511000D7FA2F21562000F0D3FA7B21572000F038
:10512000CFFA0921582000E065E000F0C9FA062115
:10513000592000F0C5FA06215A2000F0C1FA0C21CE
:105140005B2000F0BDFA1D215C2000F0B9FACC21F3
:105150005D2000F0B5FA18211B2000F0B1FA012102
:105160001A2000F0ADFA1521242000F0A9FA5021F0
:10517000252000F0A5FA8B21232000F0A1FA36218A
:10518000182000F09DFA0121192000F099FA002161
:10519000012000F095FA88211F2000F091FA3220BA
:1051A00005F066FF80211F2000F08AFA322005F00A
:1051B0005FFF90211F2000F083FA322005F058FF96
:1051C000D0211F2000F07CFA322005F051FF05218C
:1051D000172000F075FA0021362000F071FA38210E
:1051E000282000F06DFA322005F042FF3C212820F3
:1051F00000F066FAF1E12C480088A0F5EE41833911
:105200007ED10620294908700121FF2000F058FABC
:105210000821F32000F054FA4FF48071012000F0CF
:105220004FFA4FF4E061022000F04AFA41F23001F7
:10523000032000F045FA40F20231082000F040FA65
:1052400040F20721082000F03BFA0021092000F07D
:1052500037FA00210A2000F033FA0021102000F074
:105260002FFA0521112000F02BFA0021122000F066
:1052700027FA0021132000F023FA322005F0F8FE6F
:1052800041F2B021102000F01BFA322005F0F0FEB0
:105290000721112000F014FA322005F0E9FE8B21DD
:1052A000122000F00DFA03E0F2010020F0010020CE
:1052B000322005F0DDFE4FF4B851132000F000FA63
:1052C000322005F0D5FE2221292000F0F9F9002135
:1052D000302000F0F5F940F20771312000F0F0F9CC
:1052E00040F20551322000F0EBF940F20711352071
:1052F00000F0E6F90821362000F0E2F9002100E094
:1053000041E0372000F0DCF940F20221382000F0C3
:10531000D7F94FF48371392000F0D2F940F202211D
:105320003C2000F0CDF94FF481613D2000F0C8F938
:10533000322005F09DFE0021502000F0C1F9EF2140
:10534000512000F0BDF90021522000F0B9F940F2DF
:105350003F11532000F0B4F94FF42741602000F0D2
:10536000AFF90121612000F0ABF93321902000F06A
:10537000A7F90B212B2000F0A3F940F233110720ED
:1053800000F09EF929E140F2231096490880672039
:1053900000F032F993490880084600884728F1D187
:1053A0000B20914908700821422000F089F9B421AE
:1053B000462000F085F94321472000F081F91321B0
:1053C000482000F07DF94721492000F079F91421A7
:1053D0004A2000F075F936214B2000F071F90321C5
:1053E0004C2000F06DF946214D2000F069F90521AF
:1053F0004E2000F065F910214F2000F061F90821DE
:10540000502000F05DF90A21512000F059F90021E7
:10541000022000F055F90021032000F051F900218D
:10542000042000F04DF9EF21052000F049F900219A
:10543000062000F045F90021072000F041F9012184
:10544000082000F03DF93F21092000F039F90A2039
:1054500005F00EFE0621012000F032F9C8211620C9
:1054600000F02EF99521232000F02AF9952124201F
:1054700000F026F9FF21252000F022F90221272043
:1054800000F01EF90221282000F01AF9022129203B
:1054900000F016F902212A2000F012F902212C2036
:1054A00000F00EF902212D2000F00AF901213A2026
:1054B00000F006F901213B2000F002F9F0213C2028
:1054C00000F0FEF800213D2000F0FAF8142005F06D
:1054D000CFFD3821352000F0F3F87821362000F098
:1054E000EFF838213E2000F0EBF80F21402000F0CB
:1054F000E7F8F021412000F0E3F80021382000F027
:10550000DFF84921192000F0DBF80A21932000F090
:10551000D7F80A2005F0ACFD2021084600F0D0F8AD
:1055200003211D2000F0CCF800211E2000F0C8F857
:1055300009211F2000F0C4F85321442000F0C0F8D6
:105540001021452000F0BCF80A2005F091FD04214F
:105550001C2000F0B5F8142005F08AFD80214320BE
:1055600000F0AEF8052005F083FD0A211B2000F0B5
:10557000A7F8282005F07CFD12211B2000F0A0F8E0
:10558000282005F075FD7F21902000F099F8042176
:10559000262000F095F8282005F06AFD2421262019
:1055A00000F08EF82C21262000F08AF8282005F043
:1055B0005FFD0821702000F083F83C21262000F0D8
:1055C0007FF80221572000F07BF80021552000F0E1
:1055D00077F80021572000F073F8322005F048FDDD
:1055E00010BD0000F2010020F001002001480088F9
:1055F000704700000000026010B50446204600F02D
:105600005BF8FFF7F3FF10BD70B504460D4640F29E
:105610003F10401B85B21A480078001F0A2806D2A6
:10562000DFE800F00E0F050505051918052A2146CB
:10563000202000F045F82946212000F041F81CE028
:1056400000BF21464E2000F03BF829464F2000F0D5
:1056500037F812E000BF2112022000F031F8214695
:10566000032000F02DF82912062000F029F8294621
:10567000072000F025F800E000BF00BF70BD00006B
:10568000F001002070B506460C461546F02E02DAF1
:10569000B4F5A07F00DB70BD21463046FFF7B4FFB4
:1056A0002946222000F00CF800BFF4E701490880E9
:1056B00070470000000002604FF0C0410880704752
:1056C00070B505460C462846FFF7F6FF2046FFF763
:1056D000EDFF70BD2DE9F05F06460F4690469946F6
:1056E000DDE90AAB182006F009FA044614B90020D7
:1056F000BDE8F09F308C401C3084B06920B9B461A3
:105700000020606020600CE037B9B56900E06D688A
:1057100068680028FBD100E03D466868606025604D
:105720006C60C4F80C80C4F81090A4F808A0A4F829
:1057300014B02046DCE70246538913F0100F10D056
:1057400090690CE0038913F0010F07D0038923F05F
:1057500001030381038943F00203038140680028A9
:10576000F0D10B8983F001030B810B8943F0020315
:105770000B8170472DE9FC5F0746884691469A46A3
:10578000DDF83CB00024282006F0B8F9044614B92E
:105790002046BDE8FC9F2780002060600520207225
:1057A000A4F80C80A4F80E90A4F810A00C986082C5
:1057B0000D9860810020A06160842084BBF1000FFF
:1057C00003D118480068606101E0C4F814B0616951
:1057D0004869FEF727F9A0842046FDF7C5F90E9821
:1057E000E0B10E9D002615E0002003462A46014642
:1057F000CDE900062046FFF76DFF00B90DE000BFC0
:1058000015F8011B1F29FBDC15F8010C00B904E099
:10581000701C86B228780028E6D100BFA069E0613C
:105820002046B6E75000002070B50446A56904E0A4
:105830002E466D68304605F0D9FF002DF8D10020C6
:10584000A06170BD38B50446F948007806287DD2BD
:10585000DFE800F003FEFDFCFBFA608910F4004F66
:1058600012D06069008AF3490880B4F91230B4F9A3
:105870001020B4F90E10B4F90C00FBF749FD08B97B
:10588000002038BD0120FCE7608910F4005F0BD0D8
:10589000E06928B1E069008940F00200E16908810F
:1058A000608940F480506081608910F4804F37D067
:1058B000608910F0020F05D06069C08900B2DE492E
:1058C000088004E06069408900B2DB490880A08953
:1058D000DA490880E089DA490880208AD9490880B5
:1058E000608AD94908800020D8490880D2480088B9
:1058F000D749088060690088D64908806069408877
:10590000D54908800020D54908600320D449088083
:105910000120C7490870FDF76BFA08B90020B0E70D
:1059200000BF0120CF490880A089401D00B2CE49A8
:105930000880E089401D00B2CC490880208A401FC1
:1059400000B2CB490880608A401F00E01BE200B231
:10595000C84908806169486903F028FCA089401D96
:1059600000B2C5490880E089401D618C084400B23E
:10597000C2490880C249A069086000BFC0480068E9
:1059800030B90020AA490870B6490880012078E79C
:10599000B4F91200401FB949B1F9001088427DDD09
:1059A000B4F92400B549B1F900100144B4F90E006E
:1059B000401D814272DB608910F4804F06D1B048EF
:1059C0000068008910F0020F00D119E1AC480068AE
:1059D000008920F00200AA49096808810220944940
:1059E0000870608910F0020F04D06069C089914985
:1059F00008800FE0606940898E490880A0480068EF
:105A000040B19F480068008910F0010F02D0606922
:105A100080890880B4F90E009849B1F900108842D5
:105A200017DCA18C954D2D8829440BB2218A491F82
:105A30000AB2A189491D08B29049B1F90010FBF7DB
:105A400067FC30B900201CE7E1E0DFE0E0E0DCE0EB
:105A5000DAE0608910F00C0F0AD1A089401D00B275
:105A6000854908808548B0F90000844908803EE0F7
:105A700062695169824A1268D068FDF7E9FF6E4990
:105A800008807F480068006968B17D490968086935
:105A9000FDF79DFE801C6849098800E0AFE00844DE
:105AA00000B265490880608910F0040F0DD0208A8B
:105AB00061490988401A401F00B26F4908806F4849
:105AC000B0F900006D49088011E0B4F90C00B4F998
:105AD000101008445849B1F90010401A401000B2A3
