:020000040800F2
:1000000090FA00203D0A00085D9700089757000805
:10001000518C000811280008B908010800000000F0
:1000200000000000000000000000000031E80008AF
:100030008F2F0008000000008701000891FB0008D6
:10004000570A0008570A0008570A0008570A00080C
:10005000570A0008570A0008570A0008570A0008FC
:10006000570A0008570A0008570A0008570A0008EC
:10007000570A0008570A0008570A0008570A0008DC
:10008000570A0008570A0008570A0008570A0008CC
:10009000570A0008570A0008570A0008570A0008BC
:1000A000570A0008570A0008570A0008570A0008AC
:1000B000570A0008570A0008570A0008570A00089C
:1000C000570A0008570A0008570A0008570A00088C
:1000D000570A000833020108570A0008570A0008A7
:1000E000570A0008570A0008570A0008570A00086C
:1000F000570A0008570A0008570A0008570A00085C
:10010000570A000849CD0008570A0008570A000896
:10011000570A0008570A0008570A000819FC000887
:10012000570A0008570A0008570A0008FD2B000864
:10013000DFF80CD000F0A6FE00480047852B010830
:1001400090FA0020EFF3108072B6704780F31088A9
:1001500070471D484FF0FF010170002080F30988AF
:100160001A48012101701A484FF08051016062B6AF
:10017000FEE717484FF080510160704714484FF078
:1001800080510160704772B6EFF3098028B12038C2
:1001900080E8F00F0F490968086000B50E488047F5
:1001A0005DF804EB0D480E490A78027009480D49C4
:1001B0000A680260106890E8F00F203080F3098828
:1001C0004EF0040E62B6704722ED00E03A000020C7
:1001D00004ED00E040000020BDA700082F00002033
:1001E000300000204800002072B6704762B67047A9
:1001F000EFF3108072B6704780F310887047B0FA42
:1002000080F0704790FAA0F0704730BF704720BF71
:100210007047000081FB0020704701464FF000004E
:1002200081EAE170A0EBE170704700002DE9F04F2A
:1002300082B001904FF000744FF000784FF000054D
:100240004FF0000952F804CB52F804EB0868CB6D6C
:10025000C0FB0C45D1F88000CEF1000EC3FB0E456B
:10026000D1F8DC30C0FB0C89C3FB0E8952F804CBFB
:1002700052F804EB48688B6DC0FB0C45D1F8840044
:10028000CEF1000EC3FB0E45D1F8D830C0FB0C896F
:10029000C3FB0E8952F804CB52F804EB88684B6D0F
:1002A000C0FB0C45D1F88800CEF1000EC3FB0E4513
:1002B000D1F8D430C0FB0C89C3FB0E8952F804CBB3
:1002C00052F804EBC8680B6DC0FB0C45D1F88C00EC
:1002D000CEF1000EC3FB0E45D1F8D030C0FB0C8927
:1002E000C3FB0E8952F804CB52F804EB0869CB6CBF
:1002F000C0FB0C45D1F89000CEF1000EC3FB0E45BB
:10030000D1F8CC30C0FB0C89C3FB0E8952F804CB6A
:1003100052F804EB48698B6CC0FB0C45D1F8940093
:10032000CEF1000EC3FB0E45D1F8C830C0FB0C89DE
:10033000C3FB0E8952F804CB52F804EB88694B6C6E
:10034000C0FB0C45D1F89800CEF1000EC3FB0E4562
:10035000D1F8C430C0FB0C89C3FB0E8952F804CB22
:1003600052F804EBC8690B6CC0FB0C45D1F89C003B
:10037000CEF1000EC3FB0E45D1F8C030C0FB0C8996
:10038000C3FB0E8901984FF4FE4E4EF0FF0E4FEA6C
:10039000946444EA85144FEAE47CBCEBE43F18BF64
:1003A0008CEA0E044FEA986848EA89184FEAE87C1C
:1003B000BCEBE83F18BF8CEA0E080480A0F802806E
:1003C00002F5707201F580514FF000744FF0007823
:1003D0004FF000054FF0000952F804CB0868D1F83F
:1003E0008030C0FB0C45C3FB0C8952F804CB486835
:1003F000D1F88430C0FB0C45C3FB0C8952F804CB08
:100400008868D1F88830C0FB0C45C3FB0C8952F8D2
:1004100004CBC868D1F88C30C0FB0C45C3FB0C89F9
:1004200052F804CB0869D1F89030C0FB0C45C3FBEF
:100430000C8952F804CB4869D1F89430C0FB0C45C4
:10044000C3FB0C8952F804CB8869D1F89830C0FB03
:100450000C45C3FB0C8952F804CBC869D1F89C3019
:10046000C0FB0C45C3FB0C8901984FF4FE4E4EF0C7
:10047000FF0E4FEA946444EA85144FEAE47CBCEB37
:10048000E43F18BF8CEA0E044FEA986848EA8918DE
:100490004FEAE87CBCEBE83F18BF8CEA0E08A0F8F6
:1004A0004040A0F84280A2F57872A1F570614FF04B
:1004B0000F0C00F10400CDF800C001904FF0007463
:1004C0004FF000784FF000764FF0007A4FF00005C3
:1004D0004FF000094FF000074FF0000B52F804CB2B
:1004E00052F804EB0868CB6DC0FB0C45C0FB0E67EF
:1004F000CEF1000EC3FB0C67C3FB0E45D1F8DC3018
:10050000D1F88000C3FB0E89C3FB0CABCEF1000E0B
:10051000C0FB0C89C0FB0EAB52F804CB52F804EBC5
:1005200048688B6DC0FB0C45C0FB0E67CEF1000E1A
:10053000C3FB0C67C3FB0E45D1F8D830D1F884005B
:10054000C3FB0E89C3FB0CABCEF1000EC0FB0C89C4
:10055000C0FB0EAB52F804CB52F804EB88684B6D2D
:10056000C0FB0C45C0FB0E67CEF1000EC3FB0C6751
:10057000C3FB0E45D1F8D430D1F88800C3FB0E89F7
:10058000C3FB0CABCEF1000EC0FB0C89C0FB0EAB65
:1005900052F804CB52F804EBC8680B6DC0FB0C4555
:1005A000C0FB0E67CEF1000EC3FB0C67C3FB0E450C
:1005B000D1F8D030D1F88C00C3FB0E89C3FB0CAB53
:1005C000CEF1000EC0FB0C89C0FB0EAB52F804CB81
:1005D00052F804EB0869CB6CC0FB0C45C0FB0E67FE
:1005E000CEF1000EC3FB0C67C3FB0E45D1F8CC3037
:1005F000D1F89000C3FB0E89C3FB0CABCEF1000E0B
:10060000C0FB0C89C0FB0EAB52F804CB52F804EBD4
:1006100048698B6CC0FB0C45C0FB0E67CEF1000E29
:10062000C3FB0C67C3FB0E45D1F8C830D1F894006A
:10063000C3FB0E89C3FB0CABCEF1000EC0FB0C89D3
:10064000C0FB0EAB52F804CB52F804EB88694B6C3C
:10065000C0FB0C45C0FB0E67CEF1000EC3FB0C6760
:10066000C3FB0E45D1F8C430D1F89800C3FB0E8906
:10067000C3FB0CABCEF1000EC0FB0C89C0FB0EAB74
:1006800052F804CB52F804EBC8690B6CC0FB0C4564
:10069000C0FB0E67CEF1000EC3FB0C67C3FB0E451B
:1006A000D1F8C030D1F89C00C3FB0E89C3FB0CAB62
:1006B000CEF1000EC0FB0C89C0FB0EAB01F58071C2
:1006C00001984FF4FE4E4EF0FF0E4FEA946444EA58
:1006D00085144FEAE47CBCEBE43F18BF8CEA0E04BF
:1006E0004FEA986848EA89184FEAE87CBCEBE83F93
:1006F00018BF8CEA0E084FEA966646EA87164FEA5C
:10070000E67CBCEBE63F18BF8CEA0E064FEA9A6A1D
:100710004AEA8B1A4FEAEA7CBCEBEA3F18BF8CEA44
:100720000E0ADDF800C000EBCC0E2EF8026B2EF89E
:1007300002AB20F8024B20F8028BBCF1010C7FF4D5
:10074000BAAE02B0BDE8F08F2DE9F04F82B0019053
:100750004FF000744FF0000552F804CB52F804EB50
:100760000868CB6DCEF1000EC0FB0C45C3FB0E45F7
:1007700052F804CB52F804EB48688B6DCEF1000EB2
:10078000C0FB0C45C3FB0E4552F804CB52F804EBFA
:1007900088684B6DCEF1000EC0FB0C45C3FB0E45C7
:1007A00052F804CB52F804EBC8680B6DCEF1000E82
:1007B000C0FB0C45C3FB0E4552F804CB52F804EBCA
:1007C0000869CB6CCEF1000EC0FB0C45C3FB0E4597
:1007D00052F804CB52F804EB48698B6CCEF1000E52
:1007E000C0FB0C45C3FB0E4552F804CB52F804EB9A
:1007F00088694B6CCEF1000EC0FB0C45C3FB0E4567
:1008000052F804CB52F804EBC8690B6CCEF1000E21
:10081000C0FB0C45C3FB0E4501984FF4FE4E4EF055
:10082000FF0E4FEA946444EA85144FEAE47CBCEB83
:10083000E43F18BF8CEA0E04048002F5707201F5E3
:1008400080514FF000744FF0000552F804CB086857
:10085000C0FB0C4552F804CB4868C0FB0C4552F86D
:1008600004CB8868C0FB0C4552F804CBC868C0FBB9
:100870000C4552F804CB0869C0FB0C4552F804CB78
:100880004869C0FB0C4552F804CB8869C0FB0C4595
:1008900052F804CBC869C0FB0C4501984FF4FE4EDA
:1008A0004EF0FF0E4FEA946444EA85144FEAE47C6C
:1008B000BCEBE43F18BF8CEA0E040484A2F5787206
:1008C000A1F570614FF00F0C00F10200CDF800C0EF
:1008D00001904FF000744FF000764FF000054FF09C
:1008E000000752F804CB52F804EB0868CB6DC0FB4C
:1008F0000C45C0FB0E67CEF1000EC3FB0E45C3FBDB
:100900000C6752F804CB52F804EB48688B6DC0FBBF
:100910000C45C0FB0E67CEF1000EC3FB0E45C3FBBA
:100920000C6752F804CB52F804EB88684B6DC0FB9F
:100930000C45C0FB0E67CEF1000EC3FB0E45C3FB9A
:100940000C6752F804CB52F804EBC8680B6DC0FB7F
:100950000C45C0FB0E67CEF1000EC3FB0E45C3FB7A
:100960000C6752F804CB52F804EB0869CB6CC0FB5F
:100970000C45C0FB0E67CEF1000EC3FB0E45C3FB5A
:100980000C6752F804CB52F804EB48698B6CC0FB3F
:100990000C45C0FB0E67CEF1000EC3FB0E45C3FB3A
:1009A0000C6752F804CB52F804EB88694B6CC0FB1F
:1009B0000C45C0FB0E67CEF1000EC3FB0E45C3FB1A
:1009C0000C6752F804CB52F804EBC8690B6CC0FBFF
:1009D0000C45C0FB0E67CEF1000EC3FB0E45C3FBFA
:1009E0000C6701F5807101984FF4FE4E4EF0FF0E3A
:1009F0004FEA946444EA85144FEAE47CBCEBE43F9C
:100A000018BF8CEA0E044FEA966646EA87164FEA4C
:100A1000E67CBCEBE63F18BF8CEA0E06DDF800C0B2
:100A200000EB8C0E2EF8026B20F8024BBCF1010C8F
:100A30007FF44CAF02B0BDE8F08F0000064880475D
:100A400006480047FEE7FEE7FEE7FEE7FEE7FEE7B3
:100A5000FEE7FEE7FEE7FEE7B9FB0008310100080C
:100A600010B5431A934209D28318881803E010F88E
:100A7000011D03F8011D521EF9D210BD40EA010309
:100A80009B0703D009E008C9121F08C0042AFAD244
:100A900003E011F8013B00F8013B521EF9D210BDF2
:100AA000D2B201E000F8012B491EFBD270470022B0
:100AB000F6E710B504460846114602462046FFF701
:100AC000EFFF204610BD034600E0401C0278002ADC
:100AD000FBD111F8012B00F8012B002AF9D118469F
:100AE000704730B50EE003460A4601E05B1C521C1D
:100AF0001C781578AC4201D1002CF7D115F0FF0F0E
:100B000004D0401C0278002AEDD1002030BD10B581
:100B1000044604E00B7800F8013B03B1491C521E67
:100B2000F8D2204610BD0146002000E0401C0A5CBF
:100B3000002AFBD17047034611F8012B00F8012B66
:100B4000002AF9D11846704730B505460020034603
:100B500000E05B1C934205D2EC5CC85C201A01D11A
:100B6000002CF6D130BDF0B480EA0102D20F430070
:100B7000B3EB410F02D20346084619464B0042D060
:100B8000C30DDDB2C1F3C7542C1B202C35DAC1F3E1
:100B9000160141F4000502B16D42C4F1200605FAC8
:100BA00006F125412844B3EBD05F23D0C2B1012C1C
:100BB000A0EBC35009DCF0BC4FF0004202EAC35284
:100BC00000F50000DBB200F030B9400000F18070A9
:100BD00000EBC350A0F1807040EAD170490009E0F9
:100BE000490841EAC071A0EBC35000F5000040087D
:100BF00000EBC350F0BC00F00FB95142012303EBEE
:100C00004101801AF6E7F0BC704781F00041AAE785
:100C100080F00040A7E780EA010210B502F0004230
:100C2000400026D04B0023D04FEA106101EB136146
:100C3000C0F35600C3F3560340F4000043F400032E
:100C4000A0FB0330A1F17F014FEA00401C0401D05A
:100C500000F1010050EA134001D44000491EC3B224
:100C60000C0604EBD010401C4008802B02D003E09F
:100C7000002010BD20F00100002900DA0020104300
:100C800010BD80EA010202F0004330B430F00042AF
:100C900021F0004015D0A0B1C0F3C755C2F3C7542E
:100CA000C2F31601C0F31600651B41F4000140F4C5
:100CB00000007D35814201D36D1C00E04900002D0C
:100CC00002DA30BC002070474FF400020024814259
:100CD00001D3091A144352084FEA4101F7D151B127
:100CE000814202D14FF0004105E002D24FF00101F4
:100CF00001E06FF0010104EBC55030BC184400F076
:100D00008BB8C10F80EAE0700844CA07962300211F
:100D100000F08BB896230022114600F086B800F050
:100D2000004220F00040C10DC0F3160040F4000066
:100D30007F2901DA00207047962903DCC1F1960172
:100D4000C84001E096398840002AF4D040427047FC
:100D500020F00040C10DC0F3160040F400007F29D0
:100D600001DA00207047962903DCC1F19601C840E2
:100D700070479639884070472DE9F05F054600209E
:100D800092469B4688460646814640241BE02846FC
:100D900041464746224600F02FF852465B46801AED
:100DA000994110D310461946224600F016F82D1A24
:100DB00067EB01084F4622460120002100F00DF8A4
:100DC00017EB00094E41201EA4F10104DFDC484668
:100DD00031462A464346BDE8F09F202A04DB203AEC
:100DE00000FA02F1002070479140C2F1200320FA7E
:100DF00003F3194390407047202A04DB203A21FA7C
:100E000002F00021704721FA02F3D040C2F1200223
:100E100091400843194670470029A8BF7047401CFD
:100E2000490008BF20F00100704710B4B0FA80FC00
:100E300000FA0CF050EA010404BF10BC704749B13D
:100E4000CCF1200421FA04F411FA0CF118BF0121AD
:100E500021430843A3EB0C01CB1D0106000A002B24
:100E6000BEBF002010BC704700EBC35010440029E7
:100E7000A4BF10BC7047401C490008BF20F001000F
:100E800010BC7047064C074D06E0E06840F00103D7
:100E900094E8070098471034AC42F6D3FFF74CF9BA
:100EA00090F10208B0F1020870B501EB020410F8ED
:100EB000015B15F0070301D110F8013B2A1106D19F
:100EC00010F8012B03E010F8016B01F8016B5B1EB9
:100ED000F9D12B0705D40023521E0FD401F8013B92
:100EE000FAE710F8013B02F10202A1EB030303E071
:100EF00013F8015B01F8015B521EF9D5A142D6D36C
:100F0000002070BD21B1826842F00102826003E0DE
:100F1000826822F0010282607047000000B585B04F
:100F2000012140F201200BF0D5FB002000900120B0
:100F30008DF804008DF805004FF460200290002029
:100F4000039001208DF810006946094800F012F85E
:100F5000052301220821064800F034F80121044845
:100F6000FFF7D0FF0121024800F088F805B000BD6E
:100F70000024014030B502460020002350680F4C89
:100F800020400D790C6844EA0524204350609068A5
:100F90000B4C2040D1E902542C434D7944EA4504DE
:100FA00020439060D06A20F470000C7C641EE4B290
:100FB000234340EA0350D06230BD0000FFFEF0FF43
:100FC000FDF7F1FFF0B504460D4600200021092D84
:100FD00011DDE068A5F10A0606EB4607072606FACA
:100FE00007F18843A5F10A0606EB460603FA06F167
:100FF0000843E0600CE0206905EB4507072606FA88
:1010000007F1884305EB450603FA06F10843206122
:10101000072A0FDA606B561E06EB86071F2606FAB4
:1010200007F18843561E06EB860605FA06F10843CB
:10103000606322E00D2A0FDA206BD61F06EB8607CD
:101040001F2606FA07F18843D61F06EB860605FA27
:1010500006F10843206310E0E06AA2F10D0606EBFA
:1010600086071F2606FA07F18843A2F10D0606EB54
:10107000860605FA06F10843E062F0BD21B18268F8
:1010800042F4A002826003E0826822F4A00282603F
:101090007047000000B585B0012188030BF0FAFA13
:1010A000002114480DF09AFB0020ADF800004FF429
:1010B0008270ADF802000020ADF80400ADF8060023
:1010C000ADF808004FF40070ADF80A002820ADF824
:1010D0000C000020ADF80E000720ADF810006946A6
:1010E00004480DF087FB012102480DF077FB05B0A5
:1010F00000BD00000038004070B505460C4616469D
:10110000384880F858500466374800683549C86543
:1011100000203649087036480670032035490870AB
:101120000FF0FBFB204604F00BFC2F480069410048
:10113000314801F0FDFD2B48FFF7F5FC18B92FA150
:101140002848FFF7F8FC2748FFF7EDFC142803D9DF
:101150002EA12448FFF7EFFC32A00FF01FFD3AA0AC
:101160000FF01CFD1F4941A00FF018FD1D4928314B
:1011700043A00FF013FD1B48C16D46A00FF00EFDFC
:10118000184890F858104BA00FF008FD1548016E54
:1011900050A00FF003FD1648017856A00FF0FEFC9A
:1011A0005C480068D0F8C8175BA00FF0F7FC0E4849
:1011B000016961A00FF0F2FC0B48416966A00FF0D5
:1011C000EDFC094881696CA00FF0E8FC0548016D51
:1011D00071A00FF0E3FC0348416E77A00FF0DEFC36
:1011E00070BD0000908900201CB00020A9020020E2
:1011F000AB020020A80200201C8C0020D5D2B2BB7C
:10120000B5BDB8E8C7FAC3FB00000000B8E8C7FAEC
:10121000C3FBCCABB3A4A1A2CEDEB7A8CFD4CABEC9
:10122000000000002D2D204D50332066696C652094
:1012300068656164657220696E666F726D6174695C
:101240006F6E200D0A0000002D2D2D2D2D2D2D2D22
:101250002D2D2D2D2D2D2D2D2D2D2D2D2D2D2D2DBE
:101260002D2D2D2D2D2D2D0D0A0000002D2D204D65
:101270005033207469746C65202573200D0A0000BA
:101280002D2D204D503320617274697374202573A5
:10129000200D0A002D2D204D50332062697472619B
:1012A000746520202020202020203D202564200D52
:1012B0000A0000002D2D204D5033206269747350B8
:1012C000657253616D706C6520203D202564200D92
:1012D0000A0000002D2D204D50332073616D707277
:1012E000617465202020202020203D202564200DD1
:1012F0000A0000002D2D204D5033206E4368616E92
:10130000732020202020202020203D202564200D37
:101310000A0000009C0200202D2D204D5033206E2D
:101320004772616E53616D707320202020203D2034
:101330002564200D0A0000002D2D204D5033206F14
:10134000757470757453616D7073202020203D207A
:101350002564200D0A0000002D2D204D5033206CF7
:1013600061796572202020202020202020203D202F
:101370002564200D0A0000002D2D204D50332076CD
:10138000657273696F6E20202020202020203D2070
:101390002564200D0A0000002D2D204D50332064BF
:1013A00075726174696F6E202020202020203D20FE
:1013B0002564200D0A0000002D2D204D503320649F
:1013C0006174617374617274202020202020203D9C
:1013D000202564200D0A0000014621B10348007851
:1013E0008843024A1070014800787047A802002024
:1013F00010B50021064801F05DFC00200549087089
:10140000054908600548006808F054FF10BD000059
:1014100044040240A9020020BC0200200400002075
:101420002DE9F84F04460E46374621E1934D4834E6
:10143000A4F12004D4F81C80D5F800A005F104051F
:10144000D4F820902868009005F1040541465046E4
:10145000FEF7E0FE834649460098FEF7DBFEABEB65
:1014600000004000E06149465046FEF7D3FE834647
:1014700041460098FEF7CEFE584440002062D4F862
:101480001880D5F800A02D1DD4F82490286800906D
:101490002D1D41465046FEF7BDFE83464946009845
:1014A000FEF7B8FEABEB00004000A0614946504695
:1014B000FEF7B0FE834641460098FEF7ABFE584467
:1014C00040006062D4F81480D5F800A02D1DD4F837
:1014D0002890286800902D1D41465046FEF79AFE40
:1014E000834649460098FEF795FEABEB00004000AE
:1014F000606149465046FEF78DFE8346414600989E
:10150000FEF788FE58444000A062D4F81080D5F859
:1015100000A02D1DD4F82C90286800902D1D414668
:101520005046FEF777FE834649460098FEF772FE66
:10153000ABEB00004000206149465046FEF76AFED2
:10154000834641460098FEF765FE58444000E0623D
:10155000D4F80C80D5F800A02D1DD4F83090286860
:1015600000902D1D41465046FEF754FE83464946E5
:101570000098FEF74FFEABEB00004000E0604946EC
:101580005046FEF747FE834641460098FEF742FE6E
:10159000584440002063D4F80880D5F800A02D1DE1
:1015A000D4F83490286800902D1D41465046FEF72F
:1015B00031FE834649460098FEF72CFEABEB000057
:1015C0004000A06049465046FEF724FE834641464F
:1015D0000098FEF71FFE584440006063D4F8048072
:1015E000D5F800A02D1DD4F83890286800902D1D46
:1015F00041465046FEF70EFE834649460098FEF7E8
:1016000009FEABEB00004000606049465046FEF723
:1016100001FE834641460098FEF7FCFD5844400019
:10162000A063D4F80080D5F800A02D1DD4F83C901C
:10163000286800902D1D41465046FEF7EBFD83467D
:1016400049460098FEF7E6FDABEB00004000206045
:1016500049465046FEF7DEFD834641460098FEF7B8
:10166000D9FD58444000E06304F12004A7F10107CC
:10167000002F3FF7DBAEBDE8F88F00008481010842
:1016800008B59DF80000009003230D4A00210D4885
:1016900008F090FE00906A460BA1032008F048FF76
:1016A000002008F061FD0E490860002008F05CFD94
:1016B0000C490860002008F00DFC0B49086008BDCB
:1016C000F80E0020253001085461736B2075637497
:1016D000736B5F4D50334465636F646500000000B9
:1016E00004000020080000200000002000B587B0A2
:1016F0009DF81800069003200021C201094BCDE996
:101700000132CDE9031004200346074A0090074840
:1017100008F0A4FE069006AA05A1042008F008FF20
:1017200007B000BDFC0E0020F81400209130010825
:101730005461736B204D6963726F636869704755BC
:101740004900000008B59DF8000000903B23064AC0
:101750000021064808F02EFE00906A4604A13B20B6
:1017600008F0E6FE08BD0000F8160020D1300108A0
:101770005461736B2052656164427574746F6E00BE
:10178000704710B5FFF7DEFFFFF7B0FF00F02AF853
:10179000FFF776FF10BD70477047000008B509F0ED
:1017A00063FA08F0DBFD6946002008F013F90A49E6
:1017B0000860FFF7E6FF002301221946184609F0EA
:1017C00041F80EF0E9FB00BF00231A46012118463C
:1017D00009F038F8F8E70000C402002070477047AD
:1017E0007047000008B59DF8000000900523064AE8
:1017F0000021064808F0DEFD00906A4604A105209D
:1018000008F096FE08BD0000F81A00200931010812
:101810005461736B20546F75636853637265656EB2
:10182000000000002DE9F84F04460D4616461F46FD
:10183000DDE90A9ADDF830806AE3F848007812287A
:101840007ED2DFE800F009F2F1F0EFEEEDECEBEA2A
:10185000E9E8E7E6E5E4E35E4BF2055009FB00F05A
:101860000090BDF8020000B2ED4908804BF205502F
:101870000AFB00F00090BDF8020000B2E9490880C0
:101880004FF4A030A0EB09400090BDF8020000B278
:10189000E54908804FF4A030A0EB0A400090BDF865
:1018A000020000B2E1490880E148A0F80090E14858
:1018B000A0F800A00020E0490880E0490880DC484A
:1018C000B0F90000DE490880DB48B0F90000DD49CE
:1018D0000880D948B0F90000DB490880D548B0F944
:1018E0000000DA490880D548B0F90000D8490880DE
:1018F000D248B0F90000D74908801120C7490870C4
:1019000000BF00BFCD48B0F90000C649B1F90010D2
:10191000884203DD0220C149087038E2C648B0F9A8
:101920000000C9490880C548B0F90000C9490880CD
:10193000C148B0F90000BA49B1F90010884200E08E
:1019400023E233DCB848B0F90000002818DDB848BD
:101950000088401E00B2B6490880B3480088401D88
:1019600000B2B1490880B4480088B1490988401ADA
:10197000AD49098801EB400000B2AB4908800EE098
:10198000A9480088C01C00B2A74908800846008802
:10199000A949098800EB410000B2A3490880A64884
:1019A0000088401C00B2A449088011E0A2480088C9
:1019B000401C00B2A04908809D48B0F90000B1F970
:1019C0000010884204DA9C48B0F900009849088069
:1019D0009648B0F90000002828DD96480088401E8F
:1019E00000B29449088091480088401D00B28F4998
:1019F0000880924800888F490988401A8B490988D5
:101A000001EB400000B2894908801EE007E27DE159
:101A1000F0E14FE133E223E116E2D9E061E2AFE029
:101A200042E285E0D1E159E0B0E118E07F4800886A
:101A3000C01C00B27D490880084600887F4909889B
:101A400000EB410000B2794908807C480088401CC6
:101A500000B27A49088001207049087057E278483E
:101A6000B0F900007249B1F90010884207D17748F7
:101A7000B0F900006F49B1F90010884226D018F083
:101A8000010F27D0DFF8B8C1BCF800C0A5EB0C0CE3
:101A90000FFA8CF3DFF8B0C1BCF800C0B4440FFA01
:101AA0008CF2DFF8A8C1BCF800C0A5EB0C0C0FFA53
:101AB0008CF1DFF89CC1BCF800C0B4440FFA8CF084
:101AC00000F03EFA30B90020BDE8F88F11205349EC
:101AD000087017E703205149087018E218F0020F48
:101AE00022D0DFF86CC1BCF800C0A5EB0C0C0FFADB
:101AF0008CF3DFF858C1BCF800C0B4440FFA8CF284
:101B0000DFF844C1BCF800C0A5EB0C0C0FFA8CF157
:101B1000DFF82CC1BCF800C0B4440FFA8CF000F020
:101B20000FFA08B90020CFE705203C490870EEE124
:101B300018F0040F20D0DFF81CC1BCF800C0BC4472
:101B40000FFA8CF3DFF804C1BCF800C0B4440FFAFC
:101B50008CF2DFF8F0C0BCF800C0BC440FFA8CF186
:101B6000DFF8DCC0BCF800C0B4440FFA8CF000F021
:101B7000E7F908B90020A7E7072028490870C6E15F
:101B800018F0080F20D0DFF8C4C0BCF800C0BC4477
:101B90000FFA8CF3DFF8BCC0BCF800C0B4440FFAF5
:101BA0008CF2DFF89CC0BCF800C0BC440FFA8CF18A
:101BB000DFF890C0BCF800C0B4440FFA8CF000F01D
:101BC000BFF908B900207FE70920144908709EE199
:101BD00018F0100F40D0DFF874C0BCF800C0BC444F
:101BE0000FFA8CF3DFF868C0BCF800C0A4EB0C0C53
:101BF0000FFA8CF2DFF848C0BCF800C0BC440FFA02
:101C00008CF1DFF844C0BCF800C0A4EB0C0C0FFA58
:101C10008CF000F095F9F8B9002055E70801002094
:101C2000EC000020EE000020F8000020FA00002068
:101C3000F0000020F2000020F4000020F600002058
:101C4000FC000020FE000020000100200201002016
:101C500004010020060100200B20AE49087056E167
:101C600018F0200F22D0DFF8B0C2BCF800C0BC448E
:101C70000FFA8CF3DFF8A4C2BCF800C0A4EB0C0C84
:101C80000FFA8CF2DFF898C2BCF800C0BC440FFA1F
:101C90008CF1DFF890C2BCF800C0A4EB0C0C0FFA7A
:101CA0008CF000F04DF908B900200DE70D2099499E
:101CB00008702CE118F0400F24D0DFF86CC2BCF89B
:101CC00000C0A5EB0C0C0FFA8CF3DFF850C2BCF887
:101CD00000C0A4EB0C0C0FFA8CF2DFF850C2BCF879
:101CE00000C0A5EB0C0C0FFA8CF1DFF838C2BCF881
:101CF00000C0A4EB0C0C0FFA8CF000F021F908B92D
:101D00000020E1E60F208349087000E118F0800F01
:101D100024D0DFF808C2BCF800C0A5EB0C0C0FFA09
:101D20008CF3DFF804C2BCF800C0A4EB0C0C0FFA73
:101D30008CF2DFF8F0C1BCF800C0A5EB0C0C0FFA78
:101D40008CF1DFF8E8C1BCF800C0A4EB0C0C0FFA72
:101D50008CF000F0F5F808B90020B5E67448B0F949
:101D600000006E4908807348B0F900006E49088091
:101D70007148B0F900006B4908807048B0F9000064
:101D800067490880112063490870C0E000BF301B1C
:101D900001D1781B10D018F0020F12D079194B1016
:101DA00006EB0A010AB206EB090108B2294600F067
:101DB000C7F830B9002087E6002056490870012096
:101DC00082E6042053490870A1E018F0040F0DD0FA
:101DD00006EB0A031AB27B19591006EB090318B275
:101DE0003B4600F0ADF808B900206DE60E204949E9
:101DF00008708CE018F0100F0DD007EB0A0003B24A
:101E00003019421007EB090001B2204600F098F8A3
:101E100008B9002058E610203E49087077E018F015
:101E2000080F0DD007EB0A0213B207EB090211B23B
:101E300032195010324600F083F808B9002043E60A
:101E40000A203449087062E0301B14D018F0800F6B
:101E50000DD0A5EB090003B230194210A5EB0A0022
:101E600001B2204600F06CF808B900202CE60C20E6
:101E70002849087002E006202649087047E018F05B
:101E8000010F0DD0A5EB090213B2A5EB0A0211B2A6
:101E900032195010324600F053F808B9002013E60A
:101EA00006201C49087032E0E81B14D018F0400FDF
:101EB0000DD079194B10A4EB09010AB2A4EB0A0169
:101EC00008B2294600F03CF808B90020FCE50820DB
:101ED0001049087004E000200E4908700120F3E565
:101EE00015E018F0200F0DD0A4EB09031AB27B19EE
:101EF0005910A4EB0A0318B23B4600F021F808B9C8
:101F00000020E1E50020034908700120DCE500BF66
:101F100093E400000801002000010020FC000020E4
:101F20000401002002010020FE0000200601002024
:101F3000F0000020F4000020F2000020F600002055
:101F40002DE9F04706460F46904699463D460FE07C
:101F5000344607E00A480288A9B2A0B205F036FD6F
:101F6000601C04B208F101008442F3DB681C05B276
:101F700009F101008542EBDB0120BDE8F08700009C
:101F8000520100202DE9FF5F06460F469046994614
:101F9000DDF838A04BF205500AFB00F00090BDF8C8
:101FA0000200401C00B201904FF4A030A0EB0A40A8
:101FB0000090BDF802000FFA80FB55460020039008
:101FC00001200290BAF1000F7ED0002415E10398A1
:101FD000401C00B2AD490390B1F90010884205D110
:101FE000029880F0010002900020039002980028DF
:101FF0006BD07A1B91B208EB040290B2A44A12880B
:1020000005F0E4FC3A1B91B208EB050290B2A04A3D
:10201000128805F0DBFC09EB050291B208EB040223
:1020200090B29B4A128805F0D1FC09EB040291B2F0
:1020300008EB050290B2964A128805F0C7FC09EB3E
:10204000050291B2321B90B2914A128805F0BEFC93
:1020500009EB040291B2721B90B28D4A128805F00E
:10206000B5FC3A1B91B2721B90B2894A128805F0F6
:10207000ADFC7A1B91B2321B90B2854A128805F0F2
:10208000A5FC844800780028B2D07A1B521E91B279
:1020900008EB040290B27E4A128805F097FC7A1B86
:1020A000521C91B208EB040290B2794A128805F0F2
:1020B0008DFC3A1B91B208EB0502521C90B2744A97
:1020C000128805F083FC01E09BE081E03A1B91B2AD
:1020D00008EB0502521E90B26D4A128805F076FC9C
:1020E00009EB0502521E91B208EB040290B2684A55
:1020F000128805F06BFC09EB0502521C91B208EB4B
:10210000040290B2624A128805F060FC09EB0402F6
:1021100091B208EB0502521C90B25D4A128805F09C
:1021200055FC09EB040291B208EB0502521E90B275
:10213000574A128805F04AFC09EB0502521E91B27B
:10214000321B90B2524A128805F040FC09EB05029E
:10215000521C91B2321B90B24D4A128805F036FCE7
:1021600009EB040291B2721B521C90B2484A1288C9
:1021700005F02CFC09EB040291B2721B521E90B2C6
:10218000434A128805F022FC3A1B91B2721B521C82
:1021900090B23F4A128805F019FC3A1B91B2721BAB
:1021A000521E90B23A4A128805F010FC7A1B521C5B
:1021B00091B2321B90B2364A128805F007FC7A1BA6
:1021C000521E91B2321B90B2314A128805F0FEFBCA
:1021D000BBF1000F09DD681E05B2601B052101EB94
:1021E000400058440FFA80FB05E0032000EB440058
:1021F00058440FFA80FB601C04B2019884427FF7B8
:10220000E6AEB8EB06000CD000BFA7EB0A0003B2A5
:10221000A7EB0A0001B24246304606F071F80028EA
:10222000F3D0B9EB07000CD000BFA6EB0A010AB24D
:10223000A6EB0A0108B24B46394606F061F80028C1
:10224000F3D0B8EB060002D1B9EB070019D000BFFC
:1022500008EB0A010AB208EB0A0108B24B463946FC
:1022600006F04EF80028F3D000BF09EB0A0003B2D5
:1022700009EB0A0001B24246304606F041F8002858
:10228000F3D0012004B0BDE8F09F0000240100203D
:1022900052010020270100202DE9F05F05460E467F
:1022A00017469846DDF828B0DDE90E9A002428206C
:1022B00010F098FC044614B90020BDE8F09F25807A
:1022C000002060602072A681E781A4F81080A4F845
:1022D00012B00B9820830D986062C4F820900C987F
:1022E0006081BAF1000F03D109480068606101E024
:1022F000C4F814A000206083A083206A18B1494666
:10230000204600F0E0F9204602F08AF82046D4E7A3
:10231000AC0000202DE9F84F0446CA48B0F900008F
:10232000C8490880C848B0F90000C7490880C748B4
:10233000007806287ED2DFE800F003368A9CFEFD96
:10234000608910F4004F13D06069008AC04908808A
:10235000B4F91230B4F91020B4F90E10B4F90C002D
:10236000FFF7EEFD10B90020BDE8F88F0120FBE774
:10237000208BB8490880208AA189411AB548008875
:10238000A1EB400000B2AF490880608AE189411AA0
:10239000B0480088A1EB400000B2AB4908800120A2
:1023A000AA49087000BF608910F0020F11D160893E
:1023B00010F0040F06D0606947886069068860697C
:1023C00085890CE06069468860690788606945898D
:1023D00005E060694688606907886069C5890020F2
:1023E0009D4908709D490880A0899A490988084438
:1023F00000B29B490880E08996490988084400B2E8
:1024000098490880208A93490988401A00B2964961
:102410000880608A8F490988401A00B29349088071
:102420008C48B0F900009249088092480580924893
:10243000068000E003E1914807809149606A0860E6
:1024400003209049088002208049087000BF6089FD
:1024500010F4807F04D002F025FB30B9002083E720
:1024600002F022F908B900207EE7032077490870BE
:1024700000BF206A002864D0608910F0020F0DD1DF
:10248000608910F0040F04D06069C088704908802A
:1024900008E0606980886E49088003E0606900890F
:1024A0006B490880616948690CF0BEFB608910F0D7
:1024B000100F06D0218A608B401D081A1FFA80F881
:1024C00012E0608910F0200F04D0A089401D1FFA8F
:1024D00080F809E0B4F90C00B4F910100844B4F91C
:1024E0001A10401AC0F34F08608910F0800F04D012
:1024F000E089401D1FFA80F914E0608910F0400F58
:1025000006D0618AA08BC01C081A1FFA80F909E066
:10251000B4F91200B4F90E100844B4F91C10401AB2
:10252000C0F34F090FFA88F0574908800FFA89F075
:10253000564901E014E009E008800420434908708E
:1025400003E00520414908700BE000BF206A09F054
:102550003FF908B9002007E705203C49087000BF93
:1025600000BF608910F0010F64D002203B49088051
:10257000608910F0040F04D06069C0883449088075
:1025800003E06069808832490880208BF0B9002020
:102590000090B4F812C0ACF1050C0FFA8CF3B4F84B
:1025A00010C0ACF1050C0FFA8CF2B4F80EC00CF1AF
:1025B000050C0FFA8CF1B4F80CC00CF1050C0FFAF5
:1025C0008CF0FFF7DFFC88BB0020CDE621480088B7
:1025D000401F00B20090B4F812C0DFF878A0BAF83B
:1025E00000A0ACEB0A0C0FFA8CF3B4F810C0DFF8C3
:1025F00064A0BAF800A0ACEB0A0C0FFA8CF2B4F8A5
:102600000EC0DFF850A0BAF800A0D4440FFA8CF145
:10261000B4F80CC0DFF83CA0BAF800A0D4440FFA1C
:102620008CF0FFF7AFFC08B900209DE6FFE7002023
:102630000A490880002005490870012094E601201D
:1026400092E60000A2000020A4000020A0000020CC
:1026500052010020A60000202701002024010020B4
:10266000C4000020C6000020C8000020CA000020CE
:10267000CC000020CE000020D0000020D20000209E
:10268000B4000020D40000202A0100202C010020EA
:1026900010B5062804D0082808D0092810D106E073
:1026A0004B8944F2040423434B810AE000BF4B8969
:1026B00023F004034B814B8943F480434B8100E0BA
:1026C00000BF00BF10BD70B504460D4625626069AD
:1026D0004169284603F00AF860836169486902F09D
:1026E000EFFFA08370BD0246508910F0020F01D0A9
:1026F000002070470878022849D1B2F90C00B1F9DE
:102700000230984234DAB2F91000B1F9023098423E
:102710002EDDB2F90E00B1F90430984228DAB2F990
:102720001200B1F90430984222DD508910F0080FF0
:102730000AD04878042828D1508910F0040F01D01D
:102740000820D6E70620D4E74878042801D10820DD
:10275000CFE74878032805D1508910F0040F01D045
:102760000720C6E7508910F0040F0ED10620C0E7FD
:10277000508910F0080F08D14878012805D15089F8
:1027800010F0040F01D00920B3E70020B1E708786A
:1027900001283BD1B1F902001388984234D148781E
:1027A000052831D1508910F0080F0DD08888B9283C
:1027B00002D088889C2817D1508910F0040F01D0CE
:1027C000082096E7062094E78888392802D0888870
:1027D0001C2801D106208CE78888B92802D0888877
:1027E0009C2801D1082084E78888392802D088886D
:1027F0002C2801D106207CE78888B92802D0888857
:10280000AC2801D1082074E7002072E7002070E7AF
:1028100000BFFEE7014609B920207047002201E011
:10282000521C490011F0004FFAD01046F5E701465E
:1028300009B920207047002201E0521C490011F024
:10284000004FFAD01046F5E710B5024613460020B7
:1028500002E000241C54401C8842FADB10BD00003A
:1028600010B500BF40F23F13EF2200210846FFF7EA
:1028700067FB0028F6D00020024908800249088042
:1028800010BD00002A0100202C01002070B52A256F
:102890004FF4803400E0641E24B180200AF02CFA4A
:1028A0000028F8D014B90325284670BD40F2FF5027
:1028B0000AF0DAF92846F8E72DE9F04106462A271A
:1028C0004748456B01E04648456B15F0450FFAD087
:1028D00015F0040F06D0032704200AF0C5F9384686
:1028E000BDE8F08115F0010F05D0012701200AF0A5
:1028F000BBF93846F4E70AF0F9F9B04202D01027E4
:102900003846EDE740F2FF500AF0AEF900200AF039
:1029100013FA04463348044201D13846E0E714F084
:10292000004F01D01C20DBE714F0804F01D00920BC
:10293000D6E714F0005F01D00A20D1E714F0805FE1
:1029400001D00B20CCE714F0006F01D00C20C7E7BA
:1029500014F0806F01D00D20C2E714F0807F01D009
:102960000E20BDE714F4000F01D00F20B8E714F4D7
:10297000800F01D01020B3E714F4001F01D0112004
:10298000AEE714F4801F01D01220A9E714F4002F41
:1029900001D01320A4E714F4802F01D014209FE766
:1029A00014F4003F01D015209AE714F4803F01D0C1
:1029B000162095E714F4004F01D0172090E714F487
:1029C000804F01D018208BE714F4005F01D019204C
:1029D00086E714F0080F01D01A2081E738467FE718
:1029E0000080014008E0FFFD70B52A250F48446BC8
:1029F00001E00E48446B14F0450FFAD014F0040FB8
:102A000005D0032504200AF02FF9284670BD14F0E4
:102A1000010F05D0012501200AF026F92846F5E727
:102A200040F2FF500AF020F92846EFE7008001400D
:102A300070B52A250B48446B01E00A48446B14F03A
:102A4000450FFAD014F0040F05D0032504200AF036
:102A50000BF9284670BD40F2FF500AF005F92846F0
:102A6000F8E70000008001402DE9F04106460F46DE
:102A70004FF02A082248456B01E02148456B15F0CC
:102A8000450FFAD015F0040F07D04FF003080420CB
:102A90000AF0EAF84046BDE8F08115F0010F06D0D3
:102AA0004FF0010801200AF0DFF84046F3E70AF092
:102AB0001DF9B04203D04FF010084046EBE740F25A
:102AC000FF500AF0D1F800200AF036F9044614F459
:102AD000604F03D1200C38804046DCE714F4005FDF
:102AE00001D01320D7E714F4804F01D01020D2E793
:102AF00014F4004F01D00F20CDE74046CBE7000093
:102B00000080014070B52A264FF480350F48446B91
:102B100002E06D1E0D48446B14F0450F01D1002DED
:102B2000F7D115B114F0040F05D0032604200AF0E4
:102B30009BF8304670BD14F0400F05D02A26402087
:102B40000AF092F83046F5E73046F3E7008001409E
:102B500039B1084A1268012383401A43054B1A60B1
:102B600006E0044A1268012383409A43014B1A602D
:102B7000704700000074004041B1094A12684FF4E8
:102B8000805383401A43064B1A6007E0044A1268D8
:102B90004FF4805383409A43014B1A607047000002
:102BA0000074004010B50121480709F083FD0021A1
:102BB0004FF0005009F07EFD10BD000030B500223E
:102BC00000230A4C226840F6FE748440A243D1E9F7
:102BD00000452C438D682C43CD6844EA050303FA75
:102BE00000F42243014C226030BD0000007400401C
:102BF0000021016041608160C160704710B5FDF740
:102C0000A1FA044616480078401C15490870204671
:102C1000FDF79CFA134800F07DF960B1124800F00E
:102C20003BF81248007840F0010010490870104845
:102C3000006807F03FFB0F4800F06CF960B10E48E8
:102C400000F02AF80948007840F0020007490870AF
:102C50000748006807F02EFB07F0F4F810BD0000ED
:102C60002D0000200040001000500010A80200209D
:102C700004000020002000100030001010F0805FE1
:102C800002D00349086001E0024948607047000033
:102C9000040402400000024010F0805F02D00349AB
:102CA000086001E0024948607047000004040240E7
:102CB0000000024021B1026842F00102026004E01B
:102CC00002684FF6FE731A400260704730B58BB051
:102CD00004460D460121022009F0CCFC124800F008
:102CE0005DF8019403951148009010200290002097
:102CF000049080200590800006908000079080005E
:102D000009902020089000200A906946064800F0AB
:102D100020F901220621044800F012F9012102489D
:102D2000FFF7C8FF0BB030BD4404024024740040DC
:102D300030B58BB005460C460121022009F09AFC03
:102D4000144800F02BF80195204604EBD07149108F
:102D500003911148009010200290002004908020E0
:102D60000590800006908000079080000990202048
:102D7000089000200A906946064800F0EAF801220F
:102D80000621044800F0DCF801210248FFF792FF19
:102D90000BB030BD440402402474004001684FF67B
:102DA000FE72114001600021016041608160C160DC
:102DB0004B49884208D14A490839496841F00F0116
:102DC000474A083A51608AE045491431884208D19F
:102DD00043490839496841F0F001414A083A5160D5
:102DE0007DE03F492831884208D13D49083949688A
:102DF00041F470613A4A083A516070E038493C3118
:102E0000884208D136490839496841F47041344A4A
:102E1000083A516063E032495031884208D1304964
:102E20000839496841F470212D4A083A516056E04A
:102E30002B496431884208D129490839496841F44D
:102E40007001274A083A516049E0254978318842A3
:102E500008D123490839496841F07061204A083A8D
:102E600051603CE01F49884206D1011F096841F0CA
:102E70000F01021F116032E01A491431884208D153
:102E80001849091F096841F0F001164A121F116024
:102E900025E014492831884208D11249091F0968E0
:102EA00041F470610F4A121F116018E00D493C3166
:102EB000884208D10B49091F096841F47041094A49
:102EC000121F11600BE007495031884207D10549B4
:102ED000091F096841F47021024A121F11607047EE
:102EE000080002400804024001460020002211F0C0
:102EF000805F02D0054B1A6801E0054B1A680A4250
:102F000001D0012000E000207047000000040240D2
:102F10000000024001460020002211F0805F02D034
:102F2000054B1A6801E0054B1A680A4201D00120DE
:102F300000E0002070470000000402400000024052
:102F40001AB103680B43036002E003688B4303601C
:102F5000704710B50022026847F6F0739A430C6A76
:102F60008B6823430C6923434C6923438C692343B7
:102F7000CC6923434C6A23438C6A23431A4302607F
:102F8000CB6843600B6883604B68C36010BD7047BB
:102F90002DE9FF4F87B005460E46149C002E03DC3A
:102FA00000200BB0BDE8F08F002B02DA4FF0FF30AD
:102FB000F7E70593DFF858B309985BF82000DFF8CE
:102FC00054B30BEB40000190DFF84CB309985BF869
:102FD00030C009980BEBC0000079029000221598D0
:102FE000404200F0070129B114F8010BC1F1200B98
:102FF00000FA0BF25B1A029898B9002006900BE0D9
:103000004FF0000B069845F820B00698401C45F894
:1030100020B00698801C06900698B042F0DB002095
:10302000BFE70298012879D10198008800F00F00CD
:1030300004900198801C01904FF0000A65E0102B6D
:1030400010DB14F8010BC1F1180B00FA0BF002436E
:1030500014F8010BC1F1100B00FA0BF00243103110
:10306000103B22E0C818002802DC4FF0FF3098E740
:10307000002B06DD14F8010BC1F1180B00FA0BF060
:103080000243082B06DD14F8010BC1F1100B00FA06
:103090000BF0024319440023481E4FF0004B4BFA3B
:1030A00000F002404FF00B0A51442AE00498C0F1AE
:1030B000200022FA00F0DDF804B03BF810804FEA5F
:1030C000183EA1EB0E0102FA0EF2C8F30319B9F192
:1030D000000F05D002F0004040EA09095200491EE5
:1030E000C8F3032727B102F0004007435200491EEE
:1030F000514502DA4FF0FF3053E745F8049B80C595
:10310000B61E002E01DD0B29D0DA002E97DCA1EBD4
:103110000A0003440598C01A43E7FFE70298032812
:1031200002D00298022876D1019800904FF0000A50
:10313000E2E0102B10DB14F8010BC1F1180B00FAC0
:103140000BF0024314F8010BC1F1100B00FA0BF065
:1031500002431031103B22E0C818002802DC4FF077
:10316000FF301EE7002B06DD14F8010BC1F1180B30
:1031700000FA0BF00243082B06DD14F8010BC1F135
:10318000100B00FA0BF0024319440023481E4FF0C5
:10319000004B4BFA00F002404FF00B0A5144A6E0FE
:1031A0000098008800F00F0004900498C0F1200BF4
:1031B00022FA0BF0401CDDF800B03BF810804FEA1B
:1031C000183EBEF1000F08D10498091A04988240F5
:1031D000009800EB4800009089E0A1EB0E0102FA94
:1031E0000EF2C8F30319C8F30327B9F10F0F33D157
:1031F0000298032830D10FB1012000E000200CF12B
:10320000010B5844039001EB030B0398834503DA49
:103210004FF0FF30C5E678E008E014F8010BC1F18B
:10322000180B00FA0BF002430831083B0398814267
:10323000F3DB002B07DA19440023481E4FF0004B44
:103240004BFA00F00240CCF1200022FA00F0814459
:10325000A1EB0C0102FA0CF2B9F1000F05D002F05B
:10326000004040EA09095200491E0F2F2DD1029853
:1032700003282AD10CF10100039001EB030B039802
:10328000834502DA4FF0FF308BE608E014F8010BBB
:10329000C1F1180B00FA0BF002430831083B039808
:1032A0008142F3DB002B07DA19440023481E4FF05C
:1032B000004B4BFA00F00240CCF1200022FA00F063
:1032C0000744A1EB0C0102FA0CF227B102F0004016
:1032D00007435200491E514502DA4FF0FF3060E6C5
:1032E00045F8049B80C5B61E0198009000BF002ED3
:1032F00002DD0B29BFF654AF002E3FF71AAFA1EB4A
:103300000A0003440598C01A4BE64FF0FF3048E628
:10331000347B0108105A0108B47B01082DE9FF4FE6
:1033200083B00546109C002B03DC002007B0BDE8ED
:10333000F08FDFF858E105985EF82000DFF850E1E3
:1033400070440090DFF84CE105985EF82000029090
:1033500000221198404200F0070129B114F8010B36
:10336000C1F1200E00FA0EF25B1A0027019785E0EA
:10337000102B10DB14F8010BC1F1180E00FA0EF03F
:10338000024314F8010BC1F1100E00FA0EF00243D3
:103390001031103B22E0C818002801DC3846C5E790
:1033A000002B06DD14F8010BC1F1180E00FA0EF027
:1033B0000243082B06DD14F8010BC1F1100E00FAD0
:1033C0000EF0024319440023481E4FF0004E4EFAFF
:1033D00000F002400A2001900198014448E0029860
:1033E000C0F1200022FA00F0DDF800E01EF80060D5
:1033F0004FEA161BA1EB0B0102FA0BF2C6F3C00C4D
:10340000BCF1000F05D002F0004040EA0C0C520065
:10341000491EC6F38008B8F1000F05D002F0004045
:1034200040EA08085200491EC6F34009B9F1000FEE
:1034300005D002F0004040EA09095200491E06F09A
:10344000010ABAF1000F05D002F0004040EA0A0A72
:103450005200491E0198814201DA384666E745F874
:1034600004CB45F8048B45F8049B45F804AB3F1D9D
:103470000498C01EB84201DD0A29B0DA0498C01EC3
:10348000B8423FF775AF384650E70000047D0108A9
:10349000B47C01080C7D01082DE9FF4F87B08346FD
:1034A00098460020009008F00300604901EB801A64
:1034B00008F003005E4951F8200002901F20B0EB95
:1034C000A80F02DD4FEAA80000E01F200746F81C05
:1034D0001F2800DA00E01F200546002D01DD2846E8
:1034E00000E00020054600200390DAF8040028419F
:1034F0000490DAF8080028410590DAF80C00284119
:10350000069000BF5BF8040B0190019820F0004486
:10351000042C03DA03A850F824606FE0102C0BDAB7
:103520005AF82460002F03DA794206FA01F001E02C
:1035300046FA07F0064661E0402C0BDAA4F11000D1
:103540003C4951F8206030460299FCF763FE06467C
:10355000FD1E45E064040025B4F1006F01DA24018A
:103560002D1DB4F1005F01DAA400AD1CB4F1804F51
:1035700001DA64006D1C3048844201DA2F4800E013
:103580002F488146D9F8006021463046FCF742FEBC
:10359000D9F80410461821463046FCF73BFED9F80E
:1035A0000810461821463046FCF734FED9F80C10B6
:1035B000461821463046FCF72DFED9F81010461863
:1035C000204850F825103046FCF724FEC60030464F
:1035D0000299FCF71FFE06461B4850F825003D1ACD
:1035E000002D0ADA6D426FF000402841B04202DA45
:1035F0006FF0004602E0AE4000E02E4100983043FC
:1036000000900198002801DA704200E030460899E5
:1036100008600898001D08900998401E09907FF4E2
:1036200071AF00980BB0BDE8F08F0000E8570108BB
:10363000D8570108E85801089A79825AA859010810
:10364000BC590108F0590108D05901082DE9FC5F67
:103650000D2000F081FF0646E048007800287DD16B
:103660000021304604F058FDC0B90020DC49088034
:103670000920FDF74FFB82464FF08241FDF7CBFA60
:103680008146D849FDF7C4FA8046FDF748FB07B2EA
:10369000D5A21E21384608F0D3F89AE1022000F0A6
:1036A0005BFF04460021304604F036FDD34909682B
:1036B000884224D00021304604F02EFDCF49086016
:1036C000132000F049FF0190019808F00DF9CC4853
:1036D0000078012808D10020C1490880C9A23C21F6
:1036E000782008F0ADF80AE0C548007838B9002025
:1036F000BB490880C5A23C21782008F0A1F8C04849
:103700000078C4490968884222D0132000F024FFC1
:103710000190019808F0E8F8B9480078012808D12C
:103720000020AF490880B7A23C21782008F088F833
:103730000AE0B348007838B90020A9490880B3A24C
:103740003C21782008F07CF8AD480078B149086049
:103750000B2000F001FF0546AF4900E03AE1C968DF
:10376000AE4A526E881AFDF7D5FA8246AC48006818
:10377000FDF7D0FA83465146FDF783FA8146A94901
:10378000FDF749FA8046FDF7E3FAC7B23946284605
:103790000BF050FF688940F48050688198480078A9
:1037A00060B9A1480068012808D1A049606A884230
:1037B00004D19F4860622046FEF7ACFD9749086D32
:1037C000FDF79FFA81469449C968944A526E881A57
:1037D000FDF7A0FA824692480068FDF79BFA8346FF
:1037E0005146FDF74EFA80464946FDF714FA074662
:1037F000FDF7AEFA8949496D88427DD08749086D49
:10380000FDF77FFA81468449C968844A526E881A56
:10381000FDF780FA824682480068FDF77BFA83460E
:103820005146FDF72EFA80464946FDF7F4F9074662
:10383000FDF78EFA79494865122000F08DFE01905F
:10384000019808F051F80020654908807348406DE0
:103850003C2190FBF1F00A2190FBF1F03030C0B236
:1038600000906A463C21462007F0EAFF6B48406D15
:103870003C2190FBF1F00A2190FBF1F201FB1200D8
:103880003030C0B200906A463C214E2007F0D8FF8D
:1038900068A23C21562007F0D3FF6048406D3C21D0
:1038A00090FBF1F201FB12000A2190FBF1F03030A5
:1038B000C0B200906A463C215E2007F0C1FF574825
:1038C000406D3C2190FBF1F201FB12000A2190FBBC
:1038D000F1F201FB12003030C0B200906A463C2188
:1038E000662007F0ADFF4D48406D002871D11420CF
:1038F00000F032FE019000E06BE0019807F0F4FF69
:103900000020374908804548C06D4FF47A71B0FBFC
:10391000F1F06421B0FBF1F03030C0B200906A46A3
:103920003C21B22007F08CFF3C48C06D4FF47A7107
:10393000B0FBF1F06421B0FBF1F201FB12000A21AF
:10394000B0FBF1F0303000906A463C21BA2007F01D
:1039500077FF3248C06D4FF47A71B0FBF1F064210B
:10396000B0FBF1F201FB12000A21B0FBF1F201FB06
:103970001200303000906A463C21C22007F060FF00
:103980002DA23C21CA2007F05BFF112000F0E4FDCE
:103990000190019807F0A8FF0020114908801F48F6
:1039A000FDF7C1F84FEA500B5846FDF7B3F98246D0
:1039B0004FF08241FDF72FF981460A49FDF728F9BA
:1039C0008046FDF7ACF907B2144A1E21384607F0CD
:1039D00037FF00E000BF00BFBDE8FC9F6C01002086
:1039E0005201002000001643C7EBD1A1D4F1C4E37B
:1039F000CFB2BBB6B5C4B8E8C7FA00006401002076
:103A0000A9020020B2A5B7C5D6D00000D2D1CDA35F
:103A1000D6B900006001002068CE00209089002007
:103A2000BC02002000004843A4020020A80100209E
:103A3000780100203A0000004B6270730000000023
:103A400010B50446012010BD51B14FF0204252F88C
:103A5000202042F001024FF0204343F8202009E0EB
:103A60004FF0204252F82020034B1A404FF02043E1
:103A700043F8202070470000FEFF0F00D0E901123C
:103A80001143C268114302691143426911438269BB
:103A90001143C2691143026A1143426A1143826AA7
:103AA0001143C26A1143026B11434FF02043026875
:103AB00043F822108168082908D11A46016852F893
:103AC000211041F04001026843F82210416B09685F
:103AD000426B526841EA0211426B926841EA02214C
:103AE000426BD26841EA0241426B126941EA0251DB
:103AF000426B526941EA0261426B9269114302686A
:103B0000521C4FF0204343F82210C16AB1F5804F98
:103B10001AD1816B0968826B526841EA0211826B8B
:103B2000926841EA0221826B126941EA0251826B7A
:103B3000526941EA0261826B92691143026803EBA8
:103B40008202C2F8041108E06FF070414FF0204388
:103B5000026803EB8202C2F8041170472DE9F843B2
:103B600006460C4617469846089D8AE1C5480078E7
:103B7000082809D2DFE800F00434D7FE74ACFDFC5D
:103B80001DB90720BF4908707AE14BF20550684320
:103B90000090BDF8020000B2BB4908804FF4A0308D
:103BA000A0EB05400090BDF8020000B2B7490860E4
:103BB000B74805800020B7490880B548B0F9000033
:103BC000B5490880B348B0F90000B4490880B1484D
:103BD000B0F90000B24908800120AA49087000BF6E
:103BE00000BFAC48B0F90000A749B1F90010884205
:103BF00003DD0720A349087042E1A648B0F90000A0
:103C0000A7490880A1480068002814DDA048008862
:103C1000401E00B29E4908809E48B0F90000B1F9EC
:103C20000010401A052101EB40009849096808443A
:103C3000964908600AE09748B0F90000032101EBBB
:103C400040009249096808449049086091480088FA
:103C5000401C00B28F49088004208A49087000BFC8
:103C60008D48B0F900008A49B1F9001088422BD084
:103C70008C48007810F00F0F22D0DFF824C2BCF877
:103C800000C0C4440FFA8CF3DFF80CC2BCF800C0CB
:103C9000BC440FFA8CF2DFF804C2BCF800C0C44484
:103CA0000FFA8CF1DFF8F0C1BCF800C0A6EB0C0CE9
:103CB0000FFA8CF0FEF744F910B90020BDE8F88344
:103CC000052070490870DBE001206E49087088E724
:103CD0007448007810F00F0F21D0DFF8BCC1BCF899
:103CE00000C0C4440FFA8CF3DFF8B4C1BCF800C0C4
:103CF000BC440FFA8CF2DFF898C1BCF800C0C44491
:103D00000FFA8CF1DFF898C1BCF800C0A6EB0C0CE0
:103D10000FFA8CF0FEF714F908B90020CEE7022064
:103D200058490870ACE05F48007810F0F00F27D0D9
:103D3000DFF85CC1BCF800C0A4EB0C0C0FFA8CF3EC
:103D4000DFF85CC1BCF800C0BC440FFA8CF2DFF8AD
:103D500048C1BCF800C0A4EB0C0C0FFA8CF1DFF8E2
:103D600040C1BCF800C0A6EB0C0C0FFA8CF002E0CE
:103D700041E080E008E0FEF7E3F808B900209DE7A5
:103D80000320404908707BE04648007810F0F00FAF
:103D900023D0DFF808C1BCF800C0A4EB0C0C0FFA6C
:103DA0008CF3DFF8F4C0BCF800C0BC440FFA8CF20E
:103DB000DFF8ECC0BCF800C0A4EB0C0C0FFA8CF1DF
:103DC000DFF8D4C0BCF800C0A6EB0C0C0FFA8CF0E6
:103DD000FEF7B6F808B9002070E72D48B0F90000EA
:103DE0002D4908802B48B0F900002C49088001209B
:103DF0002449087044E0B81B02D1B8EB040034D069
:103E000028480078FF280AD179190AB2711B08B234
:103E100043462146FEF794F818BB00204EE72148A0
:103E20000078F0280ED1A8EB040104EB61010BB27D
:103E300079190AB2711B08B22146FEF781F880B9E0
:103E400000203BE77B191AB2A8EB040304EB6303E1
:103E500019B2731B18B24346FEF772F808B9002076
:103E60002CE706200749087004E000200549087087
:103E7000012023E700BF00200249087001201DE750
:103E800000BF73E61C010020100100200C0100207F
:103E9000120100201401002016010020180100204A
:103EA0001A0100203A0100202DE9F84F81460F4603
:103EB0004FF000082FB90020FDF78EFA7649087000
:103EC00002E00320744908707448006840F62871C5
:103ED000884257D27148006800F00300C0F1040521
:103EE0006F4948196D490A686E490968FCF7B8FDC1
:103EF0006A480068C0F5E050421B69482844674B97
:103F00001B68C118684B48460EF0F4F86749087002
:103F10000846007820B10846017865A00CF03EFE06
:103F20006148006858B3654800685F4909680844FB
:103F30006249086059480068C0F5E050401B5A4982
:103F4000096888420FD9554A1268C2F5E052564BAB
:103F50001B68D11A524A514B1B681A44524B1B68BA
:103F6000D018FCF7A4FD4D4800684F490968084483
:103F70004A4908604A4828444A49086002E001204A
:103F80004F4908604E480068012804D1FDF730FA17
:103F90000020BDE8F88F414801684248006804F0FD
:103FA000FDFC0646002E04DA00203C490860401E55
:103FB000EFE73C48006830443A49086037480068F9
:103FC000801B364908603448007810F0010F20D07B
:103FD00000203C4B0A46334900903B48006804F0FF
:103FE000EAFA804600240AE0364830F8140000F56A
:103FF000004000B2334921F81400601C84B23348F9
:104000000069A042F0DC0120FDF7E6F922490870C2
:104010002BE02148007810F0020F26D000200090FD
:104020002A480069274901EB40031C4A1D492648DC
:10403000006804F0C0FA80462448006984B20AE0AF
:10404000204830F8140000F5004000B21D4921F866
:104050001400601C84B21D480069B4EB400FEFDB14
:104060000220FDF7B9F90C490870B8F1000F11D022
:1040700000200A4908600A480A490860404604F0DE
:10408000F1FC8246514612A00CF088FD00BF4FF0B3
:10409000FF307EE700207CE798020020A00200208D
:1040A00038B00020B0020020B8020020B402002086
:1040B000526561643D25640A00000000BC020020D6
:1040C000A40200201C8C00209C0200201CB00020B8
:1040D0002D2D204D50334465636F64652045727209
:1040E0006F72204F63637572726564202573200DB3
:1040F0000A0000002DE9FC4107460D4600262A244F
:10410000002000900190082042490860102048607B
:10411000402088600020C8604FF480600861084635
:1041200008F04AFE1020FEF7C7FB04462A2C02D0F6
:104130002046BDE8FC813848006800043549086025
:1041400037204860402088600020C8604FF48060BD
:104150000861084608F030FE3720FEF7ADFB044644
:104160002A2C01D02046E4E74FF0FF302B490860AD
:1041700008204860302088600220C8600020086164
:1041800001204861084608F087FD002021490860A9
:1041900033204860402088600020C8604FF4806071
:1041A0000861084608F008FE3320FEF785FB044648
:1041B0002A2C01D02046BCE7684609F035FE0446AB
:1041C0002A2C01D02046B4E740F2FF5008F04CFD05
:1041D00000980006009901F47F4140EA012000990F
:1041E00001F47F0140EA1120009940EA1160686003
:1041F00001980006019901F47F4140EA01200199EC
:1042000001F47F0140EA1120019940EA1160286021
:1042100020468EE7648900207C00002078890020F9
:104220002DE9F04F89B004460F4692461D46002DF9
:104230005AD11AF0010F53D08034D4F800B004F5ED
:1042400080742068089004F580742068079004F555
:1042500080742068069004F580742068059004F549
:1042600080742068049004F580742068039004F53D
:1042700080742068029004F580742068019004F531
:104280008074A4F51064CBF10000206004F5807404
:1042900008984042206004F58074079840422060EE
:1042A00004F5807406984042206004F580740598F7
:1042B0004042206004F5807404984042206004F578
:1042C000807403984042206004F580740298404254
:1042D000206004F5807401984042206004F58074E9
:1042E000002009B0BDE8F08F4FF000091AF0010F6F
:1042F0004AD0C84644E02668F017C5F11F0146FAC7
:1043000001F1814206D0C5F11F0201219140491EF1
:1043100081EA000606FA05F020602068FBF77DFFC1
:1043200040EA0909803420684642F017C5F11F01B0
:1043300046FA01F1814206D0C5F11F0201219140E8
:10434000491E81EA000606FA05F020602068FBF7A6
:1043500064FF40EA090980343E68F017C5F11F0187
:1043600046FA01F1814206D0C5F11F0201219140B8
:10437000491E81EA000606FA05F001C708F10208A5
:10438000B8F1120FB7DB49E04FF0000843E02668B0
:10439000F017C5F11F0146FA01F1814206D0C5F1BF
:1043A0001F0201219140491E81EA000606FA05F02C
:1043B00020602068FBF731FF40EA09098034266855
:1043C000F017C5F11F0146FA01F1814206D0C5F18F
:1043D0001F0201219140491E81EA000606FA05F0FC
:1043E00020602068FBF719FF40EA090980343E6825
:1043F000F017C5F11F0146FA01F1814206D0C5F15F
:104400001F0201219140491E81EA000606FA05F0CB
:1044100001C708F10208B8F1120FB8DB484660E79F
:104420000146084A126812B9064A116007E0054AB7
:10443000106800E040684268002AFBD14160002219
:104440004A607047A800002010B518200EF0CAFB83
:104450000446DCB142F6B02020804DF23E70608010
:10446000E920A0804FF6FF70E0804FF2BB70208102
:104470004AF6DD60608142F23E60A0814BF29F60AF
:10448000E0814DF27E70208201486061204610BDBF
:10449000608B010810B52848006848B900F050F852
:1044A00020B1264800682449086001E0002010BDC2
:1044B00000243BE020480068408910F47C4F30D055
:1044C0001D480068007A30B105280AD006280ED0B1
:1044D000092818D111E018480068FDF71BFF04B245
:1044E00012E01548006803F051FB04B20CE01248DA
:1044F00000680AF069FC04B206E00F48006807F0A3
:10450000F3F904B200E000BF00BF44B10A480068FC
:104510004089C0F3090008490968488101E000208A
:10452000C5E705480068406803490860024800681C
:104530000028BFD10120BAE7B8000020A800002061
:1045400010B50448007818B9FFF780F8012010BDB5
:104550000120FCE76C01002002460648016805E0E6
:104560000888904201D10846704749680029F7D170
:104570000020F9E7A800002070B50B4804680AE0A5
:104580006568207A052802D1204603F0F1FA20461A
:104590000DF0FCFF2C46002CF2D1002002490860EF
:1045A0000249086070BD0000A8000020B000002093
:1045B00010B501F049FCFFF747FF0149086010BD45
:1045C000AC00002070B50646707800B970BD2C486C
:1045D000046851E0207A30B1052817D0062828D089
:1045E000092846D138E031462046FEF77CF80546DA
:1045F00005B93FE032462146284600F043F820B195
:10460000324621462846FEF743F833E0314620463D
:1046100003F030FE054605B92CE032462146284617
:1046200000F030F820B132462146284603F083FDE1
:1046300020E0314620460BF05DF8054605B919E04B
:1046400032462146284600F01DF820B13246214668
:1046500028460AF061FF0DE03146204607F046FA91
:10466000054605B906E032462146284600F00AF81C
:1046700000E000BF00BF6468002CABD100BFA5E71D
:10468000A800002070B504460D461646054800787F
:1046900030B932462946204604F0DCFA012070BDCC
:1046A0000120FCE76C0100203EB5DFE1F048007816
:1046B00009287DD2DFE800F00535598FBFF7F5F402
:1046C000F300EC48008820B3EB480088EB490880F1
:1046D000E121E848B0F900200088E94B1B88C01AA6
:1046E00000B2CDE901210090E648B0F90030E6487B
:1046F000B0F90020E548B0F90010E548B0F9000035
:10470000FDF790F808B900203EBD0120D849087097
:1047100006E00220D64908700120DE49088025E025
:1047200000BFDD480088D54908801E22D148B0F975
:1047300000100088D24B1B88C01A00B28DE8070019
:10474000D048B0F90030D048B0F90020CF48B0F9D7
:104750000010CF48B0F90000FDF764F808B9002058
:10476000D2E70620C2490870CBE000BFC2480088EB
:10477000C249088022E0C54C2488C64D2D882C44AF
:1047800023B2C14C2488C34D2D88641B22B2BF4C78
:104790002488C04D2D882C4421B2BD4C2488BD4DA9
:1047A0002D882C4420B2FDF7CBFB10B90020ABE7DD
:1047B0005BE1B8480088401CB6490880B5480088CD
:1047C000AF4909888842D6DB0120B249088003201E
:1047D000A749087049E121E0AA4C2488AD4D2D88F5
:1047E000641B23B2AA4C2488AA4D2D882C4422B2E3
:1047F000A64C2488A74D2D882C4421B2A44C248893
:10480000A44D2D882C4420B2FDF79AFB08B9002056
:104810007AE7A0480088401C9E4908809D4800888F
:10482000974909888842D7DB01209A4908800420EB
:104830008F49087019E1984800889049088021E064
:10484000904C2488934D2D88641B23B28E4C248871
:10485000904D2D88641B22B28A4C24888D4D2D8862
:10486000641B21B28A4C24888A4D2D882C4420B2A6
:10487000FDF766FB08B9002046E786480088401C23
:1048800084490880834800887D4909888842D7DBAD
:10489000012080490880052075490870E5E070E036
:1048A000A0E02DE0FFE721E0764C2488794D2D88AB
:1048B000641B23B2744C2488764D2D88641B22B26D
:1048C000724C2488734D2D882C4421B26E4C248860
:1048D000704D2D88641B20B2FDF732FB08B9002013
:1048E00012E76C480088401C6A49088069480088C3
:1048F000634909888842D7DB06205D490870B4E027
:1049000000BF664800885D4908805A480088B8B1F1
:10491000584800885A490988401A00B200905948FE
:10492000B0F900305848B0F900205848B0F90010EC
:104930005748B0F90000FFF711F9F0B90020E3E69D
:10494000504C24884E4D2D88641B23B24E4C248835
:104950004B4D2D88641B22B24C4C2488484D2D8829
:104960002C4421B24A4C2488454D2D882C4420B239
:10497000FDF7E6FA08B90020C6E608203C490870B1
:1049800073E04748006848B34548006800F046FDBA
:104990003C49B1F900103D4AB2F900201144081A0F
:1049A000012101EB600004B23D48006800F03FFDCA
:1049B0003549B1F90010364AB2F900201144081AFD
:1049C000012101EB600005B20B4635482146026823
:1049D000284607F067FC08B9002095E6072024491F
:1049E000087042E02E48006808B32D48006800F0C7
:1049F0001EFD2549B1F90010254AB2F90020891A97
:104A00001C4AB2F900201144884229DC244800687D
:104A100000F004FD1B49B1F900101C4AB2F9002056
:104A2000891A144AB2F900201144884218DC1A4845
:104A30000088124908800F48B0F900000090114822
:104A4000B0F900301048B0F900201048B0F900105B
:104A50000F48B0F90000FDF795FA08B9002053E6B9
:104A600000200349087001204EE600BF1EE600004A
:104A7000BC000020CC000020D0000020520100200B
:104A8000D4000020CA000020C8000020C60000207A
:104A9000C4000020BE000020D2000020CE00002074
:104AA000B40000203EB5C5E1E3480078082867D28D
:104AB000DFE800F004326797C7F7F5F4DF480088B5
:104AC00018B3DF480088DF490880FF22DB48B0F9CF
:104AD00000100088DC4B1B88C01A00B28DE807006C
:104AE000DA48B0F90030DA48B0F90020D948B0F916
:104AF0000010D948B0F90000FCF794FE08B9002076
:104B00003EBD0520CC49087005E00120CA49087067
:104B1000D249088001E000BF00BFC9480088C949E8
:104B2000088021E0CB4C2488CC4D2D882C4423B226
:104B3000C74C2488C94D2D88641B22B2C54C2488DB
:104B4000C64D2D882C4421B2C34C2488C34D2D88DA
:104B50002C4420B2FDF7F4F908B90020D0E7BF4893
:104B60000088401CBD490880BC480088B6490988B7
:104B70008842D7DB0120B94908800220AE4908707D
:104B800057E121E0B14C2488B44D2D88641B23B239
:104B9000B14C2488B14D2D882C4422B2AD4C2488D0
:104BA000AE4D2D882C4421B2AB4C2488AB4D2D88C2
:104BB0002C4420B2FDF7C4F908B90020A0E7A748AB
:104BC0000088401CA5490880A44800889E4909889F
:104BD0008842D7DB0120A14908800320964908704C
:104BE00027E121E0994C24889C4D2D88641B23B239
:104BF000974C2488994D2D88641B22B2934C2488AD
:104C0000964D2D88641B21B2934C2488934D2D889A
:104C10002C4420B2FDF794F908B9002070E78F48C2
:104C20000088401C8D4908808C4800888649098886
:104C30008842D7DB01208949088004207E4908701A
:104C4000F7E021E0814C2488844D2D88641B23B239
:104C50007F4C2488814D2D88641B22B27D4C248892
:104C60007E4D2D882C4421B2794C24887B4D2D8893
:104C7000641B20B2FDF764F908B9002040E77748CB
:104C80000088401C75490880744800886E4909886E
:104C90008842D7DB052068490870CAE097E049E000
:104CA000FFE76F4800886749088064480088D0B1F2
:104CB000F0206C4908706148008863490988401AEF
:104CC00000B200906148B0F900306148B0F90020AE
:104CD0006048B0F900106048B0F90000FEF73EFFF0
:104CE00020BB00200CE7594CB4F90040594DB5F9F0
:104CF0000050641B574D2D8805EB640423B2544CBF
:104D00002488514D2D88641B22B2524C24884E4D6C
:104D10002D882C4421B2504C24884B4D2D882C4496
:104D200020B2FDF70DF908B90020E9E60620424956
:104D300008707EE04C480088424908803F4800885F
:104D4000D0B10F20474908703C4800883E49098887
:104D5000401A00B200903D48B0F900303C48B0F92C
:104D600000203C48B0F900103B48B0F90000FEF7C5
:104D7000F5FE28BB0020C3E6344C2488324D2D8834
:104D8000641B23B2324C24882F4D2D88641B22B221
:104D90002E4CB4F900402F4DB5F90050641B2D4D39
:104DA0002D8805EB6404641C21B22B4C2488264D0D
:104DB0002D882C4420B2FDF7C3F808B900209FE6E7
:104DC000FF202849087007201B49087031E0274858
:104DD000006848B32548006800F020FB1B49B1F982
:104DE00000101C4AB2F900201144081A012101EBFD
:104DF000600004B21D48006800F019FB1449B1F9C5
:104E00000010154AB2F900201144081A012101EBE3
:104E1000600005B20B46154821460268284607F097
:104E200041FA08B900206BE6002003490870012010
:104E300066E600BF38E60000C0000020CC0000207D
:104E4000CE00002052010020D4000020CA00002023
:104E5000C8000020C6000020C4000020C2000020BE
:104E6000D00000203A010020D2000020B400002031
:104E700008B50121142007F02DFC0320ADF8000037
:104E80008DF8020048208DF8030069460F4800F0B5
:104E900047F842F20C00ADF8000003208DF8020044
:104EA00048208DF803006946094800F039F80120D0
:104EB000ADF8000003208DF8020048208DF80300B3
:104EC0006946024800F02CF808BD000000080140C7
:104ED0000010014008B50121482007F0FBFB40F617
:104EE0000200ADF8000003208DF8020010208DF8BC
:104EF00003006946084800F013F80420ADF80000EC
:104F000003208DF8020048208DF80300694603480D
:104F100000F006F808BD0000000C01400018014038
:104F20002DE9F04102460025002600200023002440
:104F3000002791F803C00CF00F0591F803C01CF096
:104F4000100F03D091F802C04CEA0505B1F800C07B
:104F50001CF0FF0F31D0146800202BE04FF0010C43
:104F60000CFA00F3B1F800C00CEA03069E4220D10F
:104F700083004FF00F0C0CFA03F7BC4305FA03FC57
:104F80004CEA040491F803C0BCF1280F06D14FF09D
:104F9000010C0CFA00FCC2F814C00AE091F803C03E
:104FA000BCF1480F05D14FF0010C0CFA00FCC2F81F
:104FB00010C0401C0828D1D31460B1F800C0BCF167
:104FC000FF0F34DD546800202EE000F1080C4FF094
:104FD000010808FA0CF3B1F800C00CEA03069E427F
:104FE00021D183004FF00F0C0CFA03F7BC4305FAF4
:104FF00003FC4CEA040491F803C0BCF1280F05D16E
:1050000000F1080C08FA0CF8C2F8148091F803C0FB
:10501000BCF1480F07D100F1080C4FF0010808FA65
:105020000CF8C2F81080401C0828CED35460BDE8AC
:10503000F0810246002093680B4201D0012000E07D
:105040000020704741617047016170472DE9F047CA
:105050000D20FFF781FA05460421C748FFF7E9FF55
:1050600028BB642300221146104605F0EBFB042107
:10507000C148FFF7DEFFD0B90C20FFF76DFA0446F8
:10508000284603F033F8401C06B23146284603F0A8
:10509000D1F8688940F480506881E08B401E01B2ED
:1050A00020460AF0C7FA608940F4805060810121EF
:1050B000B248FFF7BEFF28BB64230022114610460A
:1050C00005F0C0FB0121AD48FFF7B3FFD0B90C20BC
:1050D000FFF742FA0446284603F008F8401E06B2DD
:1050E0003146284603F0A6F8688940F4805068816C
:1050F000E08B401C01B220460AF09CFA608940F423
:105100008050608102219C48FFF793FF00287DD1E9
:10511000642300221146104605F094FB02219648B4
:10512000FFF787FF00287CD10021284602F0F4FF1A
:10513000002876D092480068012872D00B20FFF733
:105140000BFA0446E08B801E01B220460AF072FA88
:105150008C480078012837D18B49C9688B4A526E38
:10516000881AFBF7D7FD8046E08BFBF7D3FD81461D
:105170008749FBF786FD07464146FBF74CFD06468F
:10518000FBF7E6FD80468049C968804A526E881A5E
:10519000FBF7C0FD8146E08BFBF7BCFD82467C49F6
:1051A000FBF76FFD07464946FBF735FD0646FBF763
:1051B000CFFD4FF4E051B0FBF1F201FB1200A8EB80
:1051C00000007449086014E06F49C868FBF7A2FD4D
:1051D0008046E08BFBF79EFD81466D49FBF751FD54
:1051E00007464146FBF717FD0646FBF7B1FD694947
:1051F00008606648406E674A1268811862480CF081
:1052000090FD654908706148406E00E009E0614A20
:105210001268811861A00BF0C1FC608940F48050D5
:10522000608108215448FFF704FF00287ED16423E1
:1052300000221146104605F005FB08214E48FFF7F5
:10524000F8FE00287CD10021284602F065FF0028E6
:1052500076D04B480068012872D00B20FFF77CF90C
:105260000446E08B801C01B220460AF0E3F9454871
:105270000078012837D14449C968444A526E881AD7
:10528000FBF748FD8046E08BFBF744FD8146404933
:10529000FBF7F7FC07464146FBF7BDFC0646FBF76C
:1052A00057FD80463849C968384A526E881AFBF75C
:1052B00031FD8146E08BFBF72DFD82463449FBF73B
:1052C000E0FC07464946FBF7A6FC0646FBF740FD17
:1052D0004FF4E051B0FBF1F201FB1200A8EB00002B
:1052E0002C49086014E02849C868FBF713FD804684
:1052F000E08BFBF70FFD81462549FBF7C2FC074613
:105300004146FBF788FC0646FBF722FD2149086071
:105310001E48406E1F4A126881181B480CF001FDA0
:105320001D4908701948406E1A4A00E008E01268EA
:1053300081181AA00BF032FC608940F48050608123
:1053400002210E48FFF775FEA0B964230022114622
:10535000104605F077FA02210848FFF76AFE48B9BF
:1053600005201149487001200870288800B2488043
:105370001C208880BDE8F087001001400008014033
:10538000A4020020AA02002068CE002090890020FC
:1053900000004843BC020020B40200206C73656525
:1053A0006B3D2564000000000C0000202DE9F8434F
:1053B00005460E4614469846DDF8209000BF14F8C6
:1053C000017B43463A4631462846CDF8009006F028
:1053D00037FFE82D03DA05F1080085B209E0B6F5DC
:1053E000987F04DA002506F1100086B201E000255E
:1053F000002620780028E2D1BDE8F88370B5054684
:105400000C46A4F12000044A02EB001110222846A9
:10541000FBF726FB70BD00003CE602080146088849
:1054200018B94868408800B270470020FCE7014680
:10543000088818B94868808800B270470020FCE7E7
:105440002DE9F74F82B003460C4600210120009061
:105450000020DFF898E18EF80000DFF894E1CEF844
:1054600000000098E8B3187830280CD15878262826
:1054700009D19878B22806D1D878752803D10120AF
:1054800005B0BDE8F08F1878492805D15878442830
:1054900002D19878332800D02AE0D878032801D0A8
:1054A0000120EDE7987900F07F004FF00A0E0EEB37
:1054B000405ED87900F07F000EEB802E187A00F065
:1054C0007F000EEBC01093F809E00EF07F0E00EBAA
:1054D0000E0C6146601E884209D2081BDFF810E1FD
:1054E00000E004E0CEF8000000200090C8E700BF14
:1054F0005D5C05E02806050C481C0146185C054368
:105500004FF6FA702840A0F57E4EBEF5FD7E02D023
:10551000601E8842EED8601E884209D8185CFF28B9
:1055200004D10120DFF8C4E08EF800000020A7E7D6
:10553000601E01F12F0E704506D83020DFF8ACE078
:105540008EF8000000209BE7491C585C4FEA2018A9
:10555000585CC0F38109585CC0F3400A891C8AB2C8
:1055600012E0985C58280DD1501C185C692809D1AC
:10557000901C185C6E2805D1D01C185C672801D1DE
:10558000012607E0501C82B201F124008242E8D3D8
:10559000002600BF8EB9174850F8280000EBC00065
:1055A0000001DFF854E05EF829E090FBFEF000EB2C
:1055B0000A0B0498B0FBFBF70FE02831C81C13F866
:1055C00000E0881C185C0EEB002E481C185C0EEBEB
:1055D000004013F801E000EB0E674FF01A0E07FBD6
:1055E0000EF0019000BF01984AE700003802002049
:1055F0003C02002000E60208F0E5020870B506460D
:10560000002400250122314621480CF077FC214975
:1056100008700846017820A00BF0C0FA1C48C0684A
:10562000002830D02AE01F480078281A1E4909684F
:10563000084485B21D4B4FF4E0521D4914480CF04C
:1056400059FD144908700846007830B108460178C1
:1056500018A00BF0A3FA00BFFEE744B90C484FF4C2
:10566000E051C2681248FFF7EBFE044603E0012C4C
:1056700000D107E006E005F5E05085B20448C068B7
:10568000A842D0D800BF02480CF040FB204670BDB5
:1056900068CE0020B4020020464F50454E3D2564A0
:1056A0000A000000380200203C020020B80200205E
:1056B00038B00020526561643D25640A0000000096
:1056C00038B50446B4F9000010B101280CD102E04D
:1056D0006068807938BD6B46012206212046FEF7BE
:1056E000AFF99DF80000F5E70020F3E72DE9FE4F44
:1056F00006468846B8F9000010B1012849D11FE0DC
:10570000D8F80490B9F80200C5B2B9F8040000F066
:10571000FF0A09F1080B00270BE0AC4200DA08E0B1
:10572000544500DD05E0601B1BF82000384407B23B
:1057300000BF16F8014B0F2CEFDC3846BDE8FE8F9A
:105740006B46082200214046FEF77AF9BDF80200B8
:10575000C5B2BDF8040000F0FF0A002713E0AC4218
:1057600000DA10E0544500DD0DE0601B800000F120
:10577000080102AB04224046FEF762F99DF80800DA
:10578000384407B200BF16F8014B0F2CE7DC38464F
:10579000D4E70020D2E700BFFEE72DE9FF4F99B024
:1057A0000F469046269D4FF00009002424E01C98E7
:1057B000406906901C98806920B16869A04201DDAB
:1057C00000200690E86805902869A04201DD0020CD
:1057D0000590A869059908EB8402CDE900140290B0
:1057E0003946069B199800F00BFA40EA0909199806
:1057F000483019902437641C2868A042D7DC17E091
:10580000E86805902869A04201DD00200590A8699C
:1058100008EB8402CDE900403946059B199800F059
:10582000FBF840EA09091998483019902437641C9C
:105830006868A042E4DC049449E0E86805902869BF
:10584000A04201DD0020059007A93846059A0BF01B
:10585000FBF84FF0000BE007039000262FE07000EC
:1058600007A951F820004FEA800A4BEA0A0B08EB1F
:10587000062040F824A05046FAF7CFFC40EA090978
:105880007000401C07A951F820004FEA800A0398D5
:105890008AEAE07004F0010100EB010A4BEA0A0B0E
:1058A0007000401C08EBC01040F824A05046FAF7E6
:1058B000B4FC40EA0909002047F82600761C092EAE
:1058C000CDDB2437BBF1000F00D00494641CA86822
:1058D000A042B2DC0AE0002605E0002008EBC61179
:1058E00041F82400761C122EF7DB641C202CF2DB1E
:1058F000484608B9202207E0002101E0491C400089
:1059000010F0004FFAD00A46521EEA6104981DB00A
:10591000BDE8F08F08B50121082006F0DBFE4FF44A
:105920004060ADF8000003208DF8020014208DF8CF
:10593000030069460148FFF7F3FA08BD000C014077
:1059400030B589B004460121042006F0C3FE0121D0
:10595000480706F09FFE0121202006F09BFE302024
:10596000ADF8100000208DF8130004A92748FFF7B8
:10597000D7FA27480AF07CF901A80AF0CBFA2548A3
:105980000068B0FBF4F080B2ADF808000020ADF87C
:105990000400ADF80A00ADF8060001A91C480AF0A1
:1059A00067FA1C480068B0FBF4F085B22946184835
:1059B0000AF05BFA202116480AF04EFAFDF7F2F8D9
:1059C00005A8FDF715F91420059000200690089011
:1059D00005A9FDF7F3F805A91020FDF7EFF801215F
:1059E0000020FDF7C9F801211020FDF7C5F80121BD
:1059F0000020FDF7ADF801211020FDF7A9F80121E5
:105A000003480AF028F909B030BD00000008014041
:105A100000140040DC0200202DE9FF4FA5B007462E
:105A20000D46904600202490339807281BDA3398BF
:105A3000C0F107002490002412E057F824002499B4
:105A4000084147F82400601C57F8200024990841B9
:105A5000611C47F8210028682499084101C5A41C4D
:105A6000122CEADB243D12A938460DF001F818A9E2
:105A7000381D0CF0FDFF1EA907F108000CF0F8FF1F
:105A800069462846289A0AF0DFFFDFF870A1002651
:105A9000002490E05DF824004FEA80094846FAF7B8
:105AA000BCFB0643600148F82090E01C5DF8200034
:105AB0004FEA80094846FAF7B0FB0643E01C400174
:105AC00048F82090E21C12AB53F822105AF8240038
:105AD000FAF7A0FBA11D5DF8211000EB81094846F3
