:100000000C9434000C9451000C9451000C94510049
:100010000C9451000C9451000C9451000C9451001C
:100020000C9451000C9451000C9451000C9451000C
:100030000C9451000C9451000C9451000C945100FC
:100040000C9451000C9451000C9486000C945100B7
:100050000C9453000C9451000C9451000C945100DA
:100060000C9451000C94510011241FBECFEFD8E026
:10007000DEBFCDBF11E0A0E0B1E0E0EAF7E002C0F2
:1000800005900D92A632B107D9F711E0A6E2B1E0D2
:1000900001C01D92AF34B107E1F70E9475030C94C3
:1000A000CE030C94000078941F920F920FB60F921B
:1000B00011242F933F934F935F936F937F938F936D
:1000C0009F93AF93BF93EF93FF9380910F01909114
:1000D00010010E94D101009741F480910F0190918D
:1000E00010010E946D018093C600FF91EF91BF91B6
:1000F000AF919F918F917F916F915F914F913F91C0
:100100002F910F900FBE0F901F9018951F920F9276
:100110000FB60F9211242F933F934F935F936F93DA
:100120007F938F939F93AF93BF93EF93FF938091B0
:10013000C6000E946302FF91EF91BF91AF919F9122
:100140008F917F916F915F914F913F912F910F9080
:100150000FBE0F901F901895FC01A081B1818C916A
:10016000660F8D7F682B6C93A281B3818C91886D13
:100170008C93A281B3818C918B7F8C930480F581C9
:10018000E02D86E88083589A0895FC01A681B78106
:100190006C930084F185E02D40830895DC01129674
:1001A000ED91FC91139780818770808308950F9360
:1001B0001F93CF93DF93EC01062F8E859F85602FD1
:1001C0000E94A8012FEF8F3F9207B9F3E881F981D0
:1001D000808185FF0EC08E859F850E94D10100978A
:1001E00041F40A851B858E859F850E946D01F8016B
:1001F0008083DF91CF911F910F910895EF92FF922D
:100200000F931F93CF93DF937C01EB018A01060FBD
:10021000171F04C06991C7010E94D700C017D107FA
:10022000C9F7DF91CF911F910F91FF90EF90089543
:10023000CF92DF92EF92FF920F931F93CF93DF93B2
:100240006C018B017A01C0E0D0E008C0F801EC0F2E
:10025000FD1F6491C6010E94D7002196CE15DF05CF
:10026000A9F7DF91CF911F910F91FF90EF90DF9051
:10027000CF9008950F931F93CF93DF938C01EB01E1
:1002800003C0C8010E94D70069916623D1F7DF91AE
:10029000CF911F910F9108950F931F93CF93DF93E9
:1002A0008C01EB0103C0C8010E94D700FE0121961A
:1002B00064916623C1F7DF91CF911F910F9108954B
:1002C000CF93DF93EC016DE00E94D700CE016AE08E
:1002D0000E94D700DF91CF910895FC0126813781DC
:1002E0008085918528173907B1F026813781828171
:1002F0009381019782239323978386832681378175
:10030000A081B181A20FB31F8C9190E02F5F3F4F6E
:100310003783268308958FEF9FEF0895FC01268190
:100320003781808591858217930758F48085918560
:100330002681378142815381840F951F821B930B45
:1003400008958085918526813781821B930B0895BE
:10035000FC01428153814150504080859185268126
:100360003781019682279327842395230097A9F04C
:1003700080859185842395239187808780859185C9
:10038000A081B181A80FB91F6C93019691878087D6
:10039000CF010E948E019C0102C02FEF3FEFC901E7
:1003A0000895FC01208531854681578181E090E0E8
:1003B0002417350711F080E090E00895FC011782C2
:1003C0001682118610860895189BFECF189B33C0A5
:1003D00092E99A95F1F700C0189905C08BB18F701A
:1003E0008BB980E0089581952BB1982F907F2F7065
:1003F000922B9BB91899FECF9BB18295807F9F70FD
:10040000892B8BB9189BFECF9BB1862F807F9F7065
:10041000892B8BB91899FECF8BB16295607F8F7055
:10042000682B6BB982E98A95F1F700C08BB18F70A8
:100430008BB981E0089580E00895282F80FF03C0E4
:10044000299881E001C080E021FF02C02A988F5FD7
:100450000895FC01DB018081813514F080E5808303
:100460008081803B14F480EB80838C91813514F083
:1004700080E58C938C91803B14F480EB8C930895F1
:10048000FC01828190E0AC014071507084FF03C098
:10049000208127FF15C09C012072307085FF03C0AA
:1004A000818187FF0DC04115510519F480818F3777
:1004B00038F481E02115310529F491819F3710F03E
:1004C00080E0089508952E98269AEFEEF0E0319797
:1004D000F1F700C000002F98279A26982E9A28E05E
:1004E00090E0FDE0FA95F1F700001E99FECF3DE0A7
:1004F0003A95F1F700002F9880FF02C09F5F2F9A76
:1005000086951E9BFECF215061F71E99FECF2F9A34
:1005100090FD2F981E9BFECF1E99FECF2F9A2798F5
:100520001E9BFECF1F9BFECF1E99FECF1E9BFECFB4
:100530001F99FECF089524B12F7324B91E992EC0A0
:100540001F992EC01E9BFECF28E050E040E01E9970
:10055000FECF46951F9B02C05F5F40681E9BFECF8B
:100560002150A9F71E99FECF23B1332727FD3095DF
:100570002227330F221F3327250F311D20FF0CC0E8
:100580001E9BFECF1E99FECF1F9B06C01E9BFECF5B
:10059000FC01408381E0089582E0089580E00895A1
:1005A00080E00895FF920F931F93CF93DF9300D0C5
:1005B000CDB7DEB78C01198280914601882371F492
:1005C0008BEE0E946302EAEFFE2ECE0101960E949E
:1005D0009B0289818A3F11F0FA94B9F77AEFF72EDE
:1005E000CE0102960E949B02813029F5809146013E
:1005F000813059F0813018F0823079F40AC09A8144
:1006000093FF1DC0F801928313C09A81F801908373
:100610000FC08A81F801818302C0823048F01092B5
:100620004601C8010E94400291E0882349F407C0B6
:100630008F5F80934601FA9499F61092460190E0FC
:10064000892F0F900F90DF91CF911F910F91FF9005
:100650000895CF93DF930F92CDB7DEB7198204C010
:10066000CE0101960E949B0289818A3AC9F704C093
:10067000CE0101960E949B0289818823C9F78FEFE2
:1006800089830E94630204C0CE0101960E949B02EE
:1006900089818823C9F78FEF898383EF0E946302E2
:1006A00004C0CE0101960E949B0289818A3FC9F74E
:1006B00080E50E94630204C0CE0101960E949B0265
:1006C00089818A3FC9F780EF0E94630204C0CE018E
:1006D00001960E949B0289818A3FC9F784EF0E949C
:1006E00063020F90DF91CF91089581E091E060E087
:1006F0000E94AC0081E091E060E043E30E94C5000D
:100700000E94290378948AB1806F8AB984B1866087
:1007100084B985B1866085B9C1E08AE491E00E9420
:10072000D20280934D0180914D018823A9F0C13000
:1007300061F480914A018093470180914B0180933D
:10074000480180914C018093490181E091E06091E2
:100750004C010E94D70002C0CC23F9F680914701DA
:10076000609148010E94E401C1E0882309F4C0E0DF
:100770008091490180FD04C08091490181FF04C03E
:10078000809149010E941D028091490180FF299AB0
:100790008091490181FDC1CF2A9ABFCFF894FFCF44
:1007A00001C000C100C200C500C400C60011011B89
:1007B00001260110000000000000003601100000BA
:0607C00000000000000033
:00000001FF
