:100000000C9434000C9451000C9451000C94510049
:100010000C9451000C9451000C9451000C9451001C
:100020000C9451000C9451000C9451000C9451000C
:100030000C9451000C9451000C9451000C945100FC
:100040000C9451000C9451000C9453000C945100EA
:100050000C9479000C9451000C9451000C945100B4
:100060000C9451000C94510011241FBECFEFD8E026
:10007000DEBFCDBF11E0A0E0B1E0E0EFF8E002C0EC
:1000800005900D92A833B107D9F711E0A8E3B1E0CC
:1000900001C01D92A136B107E1F70E94AC000C949B
:1000A00076040C9400001F920F920FB60F92112449
:1000B0002F933F934F935F936F937F938F939F9370
:1000C000AF93BF93EF93FF938091C6000E94B2035A
:1000D000FF91EF91BF91AF919F918F917F916F9120
:1000E0005F914F913F912F910F900FBE0F901F90F6
:1000F000189578941F920F920FB60F9211242F9398
:100100003F934F935F936F937F938F939F93AF939F
:10011000BF93EF93FF9380912001909121010E9462
:10012000A102009741F480912001909121010E9449
:100130002C028093C600FF91EF91BF91AF919F91E8
:100140008F917F916F915F914F913F912F910F9080
:100150000FBE0F901F901895DF92EF92FF920F93B2
:100160001F93DF93CF93CDB7DEB72A970FB6F894DE
:10017000DEBF0FBECDBF82E191E060E00E945C0176
:1001800082E191E060E043E30E9475010E94EC038C
:1001900078948AB1806F8AB984B1866084B985B158
:1001A000866085B9FF24F3948E010F5F1F4F8CE5A5
:1001B00091E00E94730380935F0180915F01882327
:1001C00009F458C081E0F81661F480915C018093D5
:1001D000590180915D0180935A0180915E01809365
:1001E0005B01E0905C01F0905D01D0905E0182E1E6
:1001F00091E060E071E00E94D0018D2D90E0B801A7
:1002000040E150E00E943C0482E191E0B8010E948C
:10021000D00182E191E00E94AE0182E191E06AE0CA
:1002200071E00E94D0018E2D90E0B8014AE050E0CC
:100230000E943C0482E191E0B8010E94D00182E179
:1002400091E00E94AE0182E191E06EE071E00E94D7
:10025000D0018F2D90E0B8014AE050E00E943C04AC
:1002600082E191E0B8010E94D00182E191E00E9418
:10027000AE0103C0FF2009F09ACF8091590160912F
:100280005A010E94E202811181E0F82E80915B0107
:1002900080FD04C080915B0181FF04C080915B01FF
:1002A0000E94CC0280915B0180FF299A80915B01C2
:1002B00081FD7DCF2A9A7BCFFC01A081B1818C91F9
:1002C000660F8D7F682B6C93A281B3818C91886DB2
:1002D0008C93A281B3818C918B7F8C930480F58168
:1002E000E02D86E88083589A0895FC01A681B781A5
:1002F0006C930084F185E02D40830895DC01129613
:10030000ED91FC91139780818770808308950F93FE
:100310001F93CF93DF93EC01162F8E859F85612F5E
:100320000E944D022FEF8F3F9207B9F3E881F981C8
:10033000808185FF0EC08E859F850E94A102009757
:1003400041F40A851B858E859F850E942C02F80149
:100350008083DF91CF911F910F910895CF93DF9309
:10036000EC016DE00E948701CE016AE00E948701E6
:10037000DF91CF9108950F931F93CF93DF93EC01FB
:100380008B0103C0CE010E948701F8010F5F1F4F50
:1003900064916623B9F7DF91CF911F910F91089572
:1003A0000F931F93CF93DF93EC018B0105C00F5F79
:1003B0001F4FCE010E948701F80160816623B9F7C3
:1003C000DF91CF911F910F910895CF92DF92EF921D
:1003D000FF920F931F93CF93DF93EC018B016A0180
:1003E000EE24FF240AC0F801EE0DFF1D6491CE013A
:1003F0000E9487010894E11CF11CEC14FD0498F3A1
:10040000DF91CF911F910F91FF90EF90DF90CF90F0
:100410000895CF92DF92EF92FF920F931F93CF93A5
:10042000DF93EC018B016A01EE24FF2409C0F8017F
:1004300061918F01CE010E9487010894E11CF11C9B
:10044000EC14FD04A0F3DF91CF911F910F91FF9069
:10045000EF90DF90CF900895FC0126813781808551
:1004600091852817390719F42FEF3FEF14C0268123
:100470003781828193810197822393239783868397
:1004800086819781A081B181A80FB91F2C9130E09E
:10049000019697838683C9010895FC0122813381E7
:1004A000215030408085918546815781019684276F
:1004B000952782239323009719F42FEF3FEF26C04F
:1004C000808591858223932391878087808591857C
:1004D000A081B181A80FB91F6C9301969187808785
:1004E00026813781808591858217930748F420857E
:1004F00031858681978142815381240F351F04C045
:100500002085318586819781281B390BC901089583
:10051000FC0126813781808591858217930748F4F5
:10052000208531858681978142815381240F351F33
:1005300004C02085318586819781281B390BC9012C
:100540000895FC01408551858681978120E030E047
:100550004817590711F421E030E0C9010895FC0162
:1005600017821682118610860895FC01DB018081B6
:10057000813514F080E580838081803B14F480EB2A
:1005800080838C91813514F080E58C938C91803B35
:1005900014F480EB8C930895282F80FD02C080E036
:1005A00002C0299881E021FF03C02A988F5F03C011
:1005B000882339F081E0EFE3FCE93197F1F700C0DF
:1005C00000000895189BFECF189B09C092E99A95E8
:1005D000F1F700C0189905C08BB18F708BB980E01E
:1005E000089581952BB1982F907F2F70922B9BB9F6
:1005F0001899FECF9BB18295807F9F70892B8BB914
:10060000189BFECF9BB1862F807F9F70892B8BB963
:100610001899FECF8BB16295607F8F70682B6BB994
:1006200082E98A95F1F700C08BB18F708BB981E0B8
:100630000895FC01828190E0AC014071507084FF0C
:1006400003C0208127FF17C09C012072307085FFF6
:1006500003C0818187FF0FC04115510519F48081C6
:100660008F3748F42115310521F480E091819F37BF
:1006700018F481E0089580E00895FC0194B19F731F
:1006800094B91E992CC01F992AC01E9BFECF20E052
:1006900040E090E01E99FECF96951F9B02C04F5FF1
:1006A00090681E9BFECF2F5F2830A1F71E99FECFCA
:1006B00023B1332727FD30952227330F221F3327FD
:1006C000240F311D20FF0DC01E9BFECF1E99FECFB3
:1006D0001F9B07C01E9BFECF908381E0089580E0A2
:1006E000089582E008950F931F93DF93CF930F92A5
:1006F000CDB7DEB78C01CE0101960E943D0382305A
:1007000071F0813041F580915801813071F0813074
:1007100018F0823091F40DC0998193FD03C01092BE
:10072000580119C0F801928313C09981F801908390
:100730000FC08981F801818302C0823048F0109295
:100740005801C8010E941903882331F081E004C0D8
:100750008F5F8093580180E00F90CF91DF911F91C0
:100760000F9108952E98269AEFEEF0E03197F1F769
:1007700000C000002F98279A26982E9A90E020E03B
:10078000FDE0FA95F1F700001E99FECF3DE03A95A5
:10079000F1F700002F9880FF02C09F5F2F9A1E9BE9
:1007A000FECF2F5F283011F08695EACF1E99FECF3D
:1007B0002F9A90FD2F981E9BFECF1E99FECF2F9A49
:1007C00027981E9BFECF1F9BFECF1E99FECF1E9B20
:1007D000FECF1F99FECF08950F931F93DF93CF9302
:1007E0000F92CDB7DEB719828E010F5F1F4F03C086
:1007F000C8010E943D0389818A3AD1F704C0C8012B
:100800000E943D0303C08E010F5F1F4F8981882323
:10081000B1F78FEF89830E94B2038E010F5F1F4FE4
:1008200003C0C8010E943D0389818823D1F78FEF5F
:10083000898383EF0E94B2038E010F5F1F4F03C0B5
:10084000C8010E943D0389818A3FD1F784E10E945B
:10085000B2038E010F5F1F4F03C0C8010E943D030A
:1008600089818A3FD1F784EF0E94B2030F90CF9124
:10087000DF911F910F910895FB019F01423074F0A9
:10088000453264F4642F77270E946204805D8A33C6
:100890000CF0895D8193CB010097A1F71082C9010B
:1008A0000C945204DC01FC01672F71917723E1F76E
:1008B000329704C07C916D9370836291AE17BF072D
:1008C000C8F30895AA1BBB1B51E107C0AA1FBB1F99
:1008D000A617B70710F0A61BB70B881F991F5A95CC
:1008E000A9F780959095BC01CD010895F894FFCFAC
:1008F000427574746F6E733A2000583A2000593A6A
:100900002000C000C100C200C500C400C6002D0107
:100910002301013801100000000000000048011010
:080920000000000000000000CF
:00000001FF
