:1000000058C096C371C070C06FC06EC06DC06CC068
:100010006BC0C3C469C068C067C066C065C064C047
:1000200063C062C061C0090243000201008032095E
:100030000400000102020100052400100104240252
:1000400002052406000105240103010705830308B6
:1000500000FF09040100020A000000070501020870
:100060000000070581020800000403090422037749
:1000700000770077002E0072006500630075007243
:1000800000730069006F006E002E006A007000109F
:10009000035500530042002D00320033003200129D
:1000A00001100102000008C016E105000101020074
:1000B000010011241FBECFE5D4E0DEBFCDBF10E0AC
:1000C000A0E6B0E0E8EBFAE002C005900D92AE3990
:1000D000B107D9F711E0AEE9B0E001C01D92A83137
:1000E000B107E1F74DD1E6C48BCFBF92CF92DF923B
:1000F000EF92FF920F931F936B017C01B42E122F8E
:10010000969587957795679560587B47814E9F4F69
:10011000A7019601ADD42150304040405040599A3B
:100120001AB881E0B81611F440EB04C04B2D42958B
:10013000407F4068802F90E00597880F991F1695A3
:10014000110F110F110F182B412B40BD29B930BDD4
:100150001F910F91FF90EF90DF90CF90BF90089587
:100160000F931F938091E10084FF0DC08091D30015
:10017000882349F08091D00090E089559F4F60E03E
:1001800095D11092D3008091E10084FF2BC0609143
:10019000BF009091D000691729F1162F191B1F700D
:1001A000193008F018E0012F090F003170F00F70BE
:1001B000E7EAF0E0202F30E02E0F3F1F03C08081E0
:1001C000808B3196E217F307D1F7892F90E089559C
:1001D0009F4F612F6BD10093D0001111AC9A81E039
:1001E0008093D3008091F20087FF0BC08091D000F4
:1001F00081509091BF00891B8F70893010F0109250
:10020000F2001F910F9108950F931F93082F1091E3
:10021000BF001F5F1F7002C04DD1A2DF8091D000D0
:100220001817D1F3E091BF00F0E0E955FF4F0083CC
:100230001093BF001F910F910895CF93DF93EC01AE
:1002400002C02196E1DF88818823D9F7DF91CF9121
:100250000895FC018381813049F48FE990E0909307
:10026000F1008093F00080919F00089586E290E075
:100270009093F1008093F00083E40895FC012081C5
:10028000822F80768032D9F49181892F80528230FA
:1002900010F48FEF0895923239F480919E008823F4
:1002A00019F482E080939E0027FD09C085B390E297
:1002B000892785BB81E08093D30080E0089580E0AA
:1002C0000895FC018091A20080838091A300818326
:1002D0008091A40082838091A500838380919F00F8
:1002E00084838091A00085838091A100868387E02C
:1002F0000895FC0180818093A20081818093A300F6
:1003000082818093A40083818093A500248120931F
:100310009F0095819093A00086818093A1009330E7
:1003200010F01092A000213011F410929F00109252
:10033000D2001092BF001092D0001092D10081E044
:100340000895DC019091D0000EC0EF5F2E2F2F702A
:10035000E150291739F0F0E0E955FF4F8D91808386
:100360002093BF006150E091BF00662371F7915068
:100370009E1B9F70993018F48FEF8093F2000895C0
:100380002EE088E190E00FB6F894A89581BD0FBEED
:1003900021BD83EF82BB8CE081BBA89584EC99E002
:1003A00020E931E0F9013197F1F70197D9F711BA56
:1003B00080E895E2A0E0B0E08093A2009093A300D3
:1003C000A093A400B093A50010929F001092A000EB
:1003D00088E08093A1001092D2001092BF0010928A
:1003E000D0001092D1002AD010929E001092D3001B
:1003F0007894CDD2A59AAD988B98939AA8955AD017
:10040000AFDE90919E00992399F080910C0184FFBA
:100410000FC0923021F487E790E068E003C08FE7D7
:1004200090E062E03FD080919E00815080939E00DA
:100430008399E4CF80E690E000DFE0CF85B782606B
:1004400085BF8BB780648BBF8BE48093E200809381
:100450000D018AE58093E10080930C0108951F93BC
:10046000CF93DF93DC01162FEA01888184FF05C05A
:10047000898198E88927898302C08AE58883AE014B
:100480004E5F5F4F212FFA018D91819321501216FB
:10049000DCF3CA01612F48D11C5F1883DF91CF9133
:1004A0001F9108954CE051E0DADF089541EE50E0ED
:1004B000D6DF08951F93CF93DF936091F2006350CE
:1004C00067FDB3C08091EF00CCE0D0E0C81BD1093C
:1004D000CA50DF4F8091EE00803118F4CE0131DF39
:1004E0009EC08D3209F08BC0683009F098C083EC53
:1004F0008093D6008AE5809381001092A6008881BF
:10050000807621F0CE01BADE282F66C09A81109243
:10051000DF008981882321F41092E00022E055C099
:10052000853019F49093F3004FC08630B9F58B8174
:10053000813041F48FE990E09093F1008093F000D6
:1005400022E128C0823021F4CE0183DE282F22C090
:100550008330F9F48A81882341F489E690E090930E
:10056000F1008093F00024E015C0813041F48DE665
:1005700090E09093F1008093F00022E20BC0823073
:1005800041F48FE890E09093F1008093F00020E137
:1005900001C020E080E48093A6001EC0883021F4D2
:1005A00021E085EF90E013C0893019F49093F500B5
:1005B0000BC08A3011F421E008C08B3029F48BE4A1
:1005C0008093E20080930D0120E08FED90E0909306
:1005D000F1008093F00009C02F3F39F4888187FD36
:1005E0002E8180E88093A60006C08F81882319F4AD
:1005F0008E81821708F0822F8093820010C0809134
:10060000A60087FF0CC0CE0174DE8F3F21F48EE17F
:100610008093810004C0882311F0109282008091A1
:10062000F200181614F41092F2008091810084FFF9
:1006300058C0809182008F3F09F453C0182F893031
:1006400008F018E0811B809382008091D60098E822
:1006500089278093D600112391F18091A60087FF0E
:1006600008C087ED90E0612F2CDE182F893098F5B7
:1006700026C02091F0003091F10086FF0DC0A7ED5B
:10068000B0E080E090E0F901E80FF91FE491ED930C
:1006900001961817C1F708C0912FD901E7EDF0E0D6
:1006A0008D9181939150E1F71150812F90E01F5F60
:1006B0000196820F931F9093F1008093F00087EDD5
:1006C00090E0612F31D0612F6C5F6C3041F08FEF83
:1006D0008093820004C08FEF809382006EE160936C
:1006E000810094E180B38C7031F49150D9F710926D
:1006F000F3001092ED00DF91CF911F910895A82F84
:10070000B92F80E090E041E050EA609530E009C008
:100710002D9182279795879510F084279527305E35
:10072000C8F36F5FA8F30895EADF8D939D93089552
:10073000CF93CFB7CF93DF93C395839BE9F7839B89
:100740000BC0839B09C0839B07C0839B05C0839B11
:1007500003C0839B01C08EC06F93C091EF00DD2763
:10076000CA50DF4F2F9365E5839B03C02F916F9194
:10077000E6CF0F931F934F9320E040E15F9300B3C8
:100780000C7003FB27F93F9350E03BE039C01C702D
:1007900040642F77012F5F5F1EC0406810B31C704C
:1007A0002F7752501FC0406400B32F770C70D1F1E7
:1007B0005F5F00C023C0406210B32F771C7091F1BF
:1007C0005F5F00C025C00C701027515012F45D5FB0
:1007D0000000115027952C3F10B3C8F61C7001275C
:1007E000015027952C3FC8F64227499300B30C705F
:1007F00010274F73115027952C3FA8F64695469524
:1008000010B31C7079F00127015027952C3F98F602
:100810006B5A60F3315000B3B0F600C010E41ABF59
:1008200000271CC03B503195C31BD04010E41ABFB9
:100830000881033C21F10B3411F12091ED00198165
:10084000110F1213EDCF4A81441F093669F10D32A1
:1008500011F0013E29F74F7009F0042F0093F400C6
:100860003F915F914F911F910F912F916F91CAB757
:10087000C6FD62CFDF91CF91CFBFCF911895209168
:10088000F400222369F31091F2001123E9F53430CA
:10089000EAF13093F2002093EE001091EF003BE07C
:1008A000311B3093EF0032C00091F200013064F54B
:1008B0000AE54F7049F43091810034FD28C000935F
:1008C0008100C6EDD0E027C0433049F03091E1000F
:1008D00034FD1DC00093E100C2EED0E01CC0309199
:1008E0000C0134FD14C000930C01CDE0D1E013C025
:1008F000052710E000C0000002BB1AC0052710E069
:10090000221F1DC010E021C04AE502C032ED432F76
:10091000C4E1D0E032E011B31C60939A02B311BB82
:100920005CE020E865E320FF052702BB27951795CB
:100930001C3FF0F66695B8F7B1F720FF052702BB1C
:10094000279517951C3FD0F62795179517FF052774
:1009500000001C3F02BBB0F629913A9519F7037FBE
:100960001091F300110FC651D04002BB11F010934B
:10097000ED0010E41ABF086011B3137F402F437FCE
:1009800054E05A95F1F702BB11BB42BB69CF85E039
:1009900083BF89B7816089BF08951F920F920FB6F8
:1009A0000F9211242F933F934F935F936F937F93F5
:1009B0008F939F93AF93BF93EF93FF938091920098
:1009C0008823B1F0809190009091910001979093CD
:1009D000910080939000019659F480918E0090913F
:1009E0008F00909391008093900083E890E025DC45
:1009F000809197008823A1F08091950090919600B6
:100A000001979093960080939500019649F4809108
:100A10009300909194009093960080939500A0DBB2
:100A200080919C00882399F080919A0090919B007E
:100A3000019790939B0080939A00019641F48091D6
:100A400098009091990090939B0080939A00FF9159
:100A5000EF91BF91AF919F918F917F916F915F9136
:100A60004F913F912F910F900FBE0F901F901895AF
:100A7000A1E21A2EAA1BBB1BFD010DC0AA1FBB1FA2
:100A8000EE1FFF1FA217B307E407F50720F0A21B14
:100A9000B30BE40BF50B661F771F881F991F1A9481
:100AA00069F760957095809590959B01AC01BD01AB
:080AB000CF010895F894FFCF77
:100AB800456E746572696E6720426F6F746C6F6102
:100AC8006465722E2E2E00A1200000000002000393
:100AD800005AFF4865796120574841543F00060095
:0E0AE8000000000500000000010000000000FA
:00000001FF
